{"abi":[{"inputs":[{"internalType":"uint256","name":"","type":"uint256"}],"name":"deployedBallots","outputs":[{"internalType":"address","name":"","type":"address"}],"stateMutability":"view","type":"function"},{"inputs":[],"name":"getsDeployedBallots","outputs":[{"internalType":"address[]","name":"","type":"address[]"}],"stateMutability":"view","type":"function"},{"inputs":[{"internalType":"string[][]","name":"candidates","type":"string[][]"},{"internalType":"string[][]","name":"party","type":"string[][]"},{"internalType":"string[]","name":"district","type":"string[]"},{"internalType":"uint256","name":"hour","type":"uint256"}],"name":"startelec","outputs":[],"stateMutability":"nonpayable","type":"function"}],"devdoc":{"kind":"dev","methods":{},"version":1},"evm":{"assembly":"    /* \"evs.sol\":65:647  contract Electioncreation {... */\n  mstore(0x40, 0x80)\n  callvalue\n  dup1\n  iszero\n  tag_1\n  jumpi\n  0x00\n  dup1\n  revert\ntag_1:\n  pop\n  dataSize(sub_0)\n  dup1\n  dataOffset(sub_0)\n  0x00\n  codecopy\n  0x00\n  return\nstop\n\nsub_0: assembly {\n        /* \"evs.sol\":65:647  contract Electioncreation {... */\n      mstore(0x40, 0x80)\n      callvalue\n      dup1\n      iszero\n      tag_1\n      jumpi\n      0x00\n      dup1\n      revert\n    tag_1:\n      pop\n      jumpi(tag_2, lt(calldatasize, 0x04))\n      shr(0xe0, calldataload(0x00))\n      dup1\n      0x0e3e4a75\n      eq\n      tag_3\n      jumpi\n      dup1\n      0x8455faf8\n      eq\n      tag_4\n      jumpi\n      dup1\n      0xcdf74c3e\n      eq\n      tag_5\n      jumpi\n    tag_2:\n      0x00\n      dup1\n      revert\n        /* \"evs.sol\":546:645  function getsDeployedBallots() public view returns( address[] memory)... */\n    tag_3:\n      tag_6\n      tag_7\n      jump\t// in\n    tag_6:\n      mload(0x40)\n      tag_8\n      swap2\n      swap1\n      tag_9\n      jump\t// in\n    tag_8:\n      mload(0x40)\n      dup1\n      swap2\n      sub\n      swap1\n      return\n        /* \"evs.sol\":135:541  function startelec (string[][] memory candidates,string[][] memory party, string[] memory district , uint hour) public {... */\n    tag_4:\n      tag_10\n      0x04\n      dup1\n      calldatasize\n      sub\n      dup2\n      add\n      swap1\n      tag_11\n      swap2\n      swap1\n      tag_12\n      jump\t// in\n    tag_11:\n      tag_13\n      jump\t// in\n    tag_10:\n      stop\n        /* \"evs.sol\":97:129  address[] public deployedBallots */\n    tag_5:\n      tag_14\n      0x04\n      dup1\n      calldatasize\n      sub\n      dup2\n      add\n      swap1\n      tag_15\n      swap2\n      swap1\n      tag_16\n      jump\t// in\n    tag_15:\n      tag_17\n      jump\t// in\n    tag_14:\n      mload(0x40)\n      tag_18\n      swap2\n      swap1\n      tag_19\n      jump\t// in\n    tag_18:\n      mload(0x40)\n      dup1\n      swap2\n      sub\n      swap1\n      return\n        /* \"evs.sol\":546:645  function getsDeployedBallots() public view returns( address[] memory)... */\n    tag_7:\n        /* \"evs.sol\":598:614  address[] memory */\n      0x60\n        /* \"evs.sol\":628:643  deployedBallots */\n      0x00\n        /* \"evs.sol\":621:643  return deployedBallots */\n      dup1\n      sload\n      dup1\n      0x20\n      mul\n      0x20\n      add\n      mload(0x40)\n      swap1\n      dup2\n      add\n      0x40\n      mstore\n      dup1\n      swap3\n      swap2\n      swap1\n      dup2\n      dup2\n      mstore\n      0x20\n      add\n      dup3\n      dup1\n      sload\n      dup1\n      iszero\n      tag_21\n      jumpi\n      0x20\n      mul\n      dup3\n      add\n      swap2\n      swap1\n      0x00\n      mstore\n      keccak256(0x00, 0x20)\n      swap1\n    tag_22:\n      dup2\n      0x00\n      swap1\n      sload\n      swap1\n      0x0100\n      exp\n      swap1\n      div\n      0xffffffffffffffffffffffffffffffffffffffff\n      and\n      0xffffffffffffffffffffffffffffffffffffffff\n      and\n      dup2\n      mstore\n      0x20\n      add\n      swap1\n      0x01\n      add\n      swap1\n      dup1\n      dup4\n      gt\n      tag_22\n      jumpi\n    tag_21:\n      pop\n      pop\n      pop\n      pop\n      pop\n      swap1\n      pop\n        /* \"evs.sol\":546:645  function getsDeployedBallots() public view returns( address[] memory)... */\n      swap1\n      jump\t// out\n        /* \"evs.sol\":135:541  function startelec (string[][] memory candidates,string[][] memory party, string[] memory district , uint hour) public {... */\n    tag_13:\n        /* \"evs.sol\":277:283  uint i */\n      0x00\n        /* \"evs.sol\":273:531  for(uint i =0;i<district.length;i++)... */\n    tag_24:\n        /* \"evs.sol\":289:297  district */\n      dup3\n        /* \"evs.sol\":289:304  district.length */\n      mload\n        /* \"evs.sol\":287:288  i */\n      dup2\n        /* \"evs.sol\":287:304  i<district.length */\n      lt\n        /* \"evs.sol\":273:531  for(uint i =0;i<district.length;i++)... */\n      iszero\n      tag_25\n      jumpi\n        /* \"evs.sol\":336:352  Ballot newBallot */\n      0x00\n        /* \"evs.sol\":365:375  candidates */\n      dup6\n        /* \"evs.sol\":376:377  i */\n      dup3\n        /* \"evs.sol\":365:378  candidates[i] */\n      dup2\n      mload\n      dup2\n      lt\n      tag_27\n      jumpi\n      tag_28\n      tag_29\n      jump\t// in\n    tag_28:\n    tag_27:\n      0x20\n      mul\n      0x20\n      add\n      add\n      mload\n        /* \"evs.sol\":379:384  party */\n      dup6\n        /* \"evs.sol\":385:386  i */\n      dup4\n        /* \"evs.sol\":379:387  party[i] */\n      dup2\n      mload\n      dup2\n      lt\n      tag_30\n      jumpi\n      tag_31\n      tag_29\n      jump\t// in\n    tag_31:\n    tag_30:\n      0x20\n      mul\n      0x20\n      add\n      add\n      mload\n        /* \"evs.sol\":389:397  district */\n      dup6\n        /* \"evs.sol\":398:399  i */\n      dup5\n        /* \"evs.sol\":389:400  district[i] */\n      dup2\n      mload\n      dup2\n      lt\n      tag_32\n      jumpi\n      tag_33\n      tag_29\n      jump\t// in\n    tag_33:\n    tag_32:\n      0x20\n      mul\n      0x20\n      add\n      add\n      mload\n        /* \"evs.sol\":402:412  msg.sender */\n      caller\n        /* \"evs.sol\":414:418  hour */\n      dup7\n        /* \"evs.sol\":353:419  new Ballot (candidates[i],party[i], district[i], msg.sender, hour) */\n      mload(0x40)\n      tag_34\n      swap1\n      tag_35\n      jump\t// in\n    tag_34:\n      tag_36\n      swap6\n      swap5\n      swap4\n      swap3\n      swap2\n      swap1\n      tag_37\n      jump\t// in\n    tag_36:\n      mload(0x40)\n      dup1\n      swap2\n      sub\n      swap1\n      0x00\n      create\n      dup1\n      iszero\n      dup1\n      iszero\n      tag_38\n      jumpi\n      returndatasize\n      0x00\n      dup1\n      returndatacopy\n      revert(0x00, returndatasize)\n    tag_38:\n      pop\n        /* \"evs.sol\":336:419  Ballot newBallot=new Ballot (candidates[i],party[i], district[i], msg.sender, hour) */\n      swap1\n      pop\n        /* \"evs.sol\":476:491  deployedBallots */\n      0x00\n        /* \"evs.sol\":505:514  newBallot */\n      dup2\n        /* \"evs.sol\":476:516  deployedBallots.push(address(newBallot)) */\n      swap1\n      dup1\n      0x01\n      dup2\n      sload\n      add\n      dup1\n      dup3\n      sstore\n      dup1\n      swap2\n      pop\n      pop\n      0x01\n      swap1\n      sub\n      swap1\n      0x00\n      mstore\n      keccak256(0x00, 0x20)\n      add\n      0x00\n      swap1\n      swap2\n      swap1\n      swap2\n      swap1\n      swap2\n      0x0100\n      exp\n      dup2\n      sload\n      dup2\n      0xffffffffffffffffffffffffffffffffffffffff\n      mul\n      not\n      and\n      swap1\n      dup4\n      0xffffffffffffffffffffffffffffffffffffffff\n      and\n      mul\n      or\n      swap1\n      sstore\n      pop\n        /* \"evs.sol\":322:531  {... */\n      pop\n        /* \"evs.sol\":305:308  i++ */\n      dup1\n      dup1\n      tag_40\n      swap1\n      tag_41\n      jump\t// in\n    tag_40:\n      swap2\n      pop\n      pop\n        /* \"evs.sol\":273:531  for(uint i =0;i<district.length;i++)... */\n      jump(tag_24)\n    tag_25:\n      pop\n        /* \"evs.sol\":135:541  function startelec (string[][] memory candidates,string[][] memory party, string[] memory district , uint hour) public {... */\n      pop\n      pop\n      pop\n      pop\n      jump\t// out\n        /* \"evs.sol\":97:129  address[] public deployedBallots */\n    tag_17:\n      0x00\n      dup2\n      dup2\n      sload\n      dup2\n      lt\n      tag_42\n      jumpi\n      0x00\n      dup1\n      revert\n    tag_42:\n      swap1\n      0x00\n      mstore\n      keccak256(0x00, 0x20)\n      add\n      0x00\n      swap2\n      pop\n      sload\n      swap1\n      0x0100\n      exp\n      swap1\n      div\n      0xffffffffffffffffffffffffffffffffffffffff\n      and\n      dup2\n      jump\t// out\n    tag_35:\n      dataSize(sub_0)\n      dup1\n      dataOffset(sub_0)\n      dup4\n      codecopy\n      add\n      swap1\n      jump\t// out\n        /* \"#utility.yul\":7:121   */\n    tag_44:\n        /* \"#utility.yul\":74:80   */\n      0x00\n        /* \"#utility.yul\":108:113   */\n      dup2\n        /* \"#utility.yul\":102:114   */\n      mload\n        /* \"#utility.yul\":92:114   */\n      swap1\n      pop\n        /* \"#utility.yul\":7:121   */\n      swap2\n      swap1\n      pop\n      jump\t// out\n        /* \"#utility.yul\":127:311   */\n    tag_45:\n        /* \"#utility.yul\":226:237   */\n      0x00\n        /* \"#utility.yul\":260:266   */\n      dup3\n        /* \"#utility.yul\":255:258   */\n      dup3\n        /* \"#utility.yul\":248:267   */\n      mstore\n        /* \"#utility.yul\":300:304   */\n      0x20\n        /* \"#utility.yul\":295:298   */\n      dup3\n        /* \"#utility.yul\":291:305   */\n      add\n        /* \"#utility.yul\":276:305   */\n      swap1\n      pop\n        /* \"#utility.yul\":127:311   */\n      swap3\n      swap2\n      pop\n      pop\n      jump\t// out\n        /* \"#utility.yul\":317:449   */\n    tag_46:\n        /* \"#utility.yul\":384:388   */\n      0x00\n        /* \"#utility.yul\":407:410   */\n      dup2\n        /* \"#utility.yul\":399:410   */\n      swap1\n      pop\n        /* \"#utility.yul\":437:441   */\n      0x20\n        /* \"#utility.yul\":432:435   */\n      dup3\n        /* \"#utility.yul\":428:442   */\n      add\n        /* \"#utility.yul\":420:442   */\n      swap1\n      pop\n        /* \"#utility.yul\":317:449   */\n      swap2\n      swap1\n      pop\n      jump\t// out\n        /* \"#utility.yul\":455:581   */\n    tag_47:\n        /* \"#utility.yul\":492:499   */\n      0x00\n        /* \"#utility.yul\":532:574   */\n      0xffffffffffffffffffffffffffffffffffffffff\n        /* \"#utility.yul\":525:530   */\n      dup3\n        /* \"#utility.yul\":521:575   */\n      and\n        /* \"#utility.yul\":510:575   */\n      swap1\n      pop\n        /* \"#utility.yul\":455:581   */\n      swap2\n      swap1\n      pop\n      jump\t// out\n        /* \"#utility.yul\":587:683   */\n    tag_48:\n        /* \"#utility.yul\":624:631   */\n      0x00\n        /* \"#utility.yul\":653:677   */\n      tag_97\n        /* \"#utility.yul\":671:676   */\n      dup3\n        /* \"#utility.yul\":653:677   */\n      tag_47\n      jump\t// in\n    tag_97:\n        /* \"#utility.yul\":642:677   */\n      swap1\n      pop\n        /* \"#utility.yul\":587:683   */\n      swap2\n      swap1\n      pop\n      jump\t// out\n        /* \"#utility.yul\":689:797   */\n    tag_49:\n        /* \"#utility.yul\":766:790   */\n      tag_99\n        /* \"#utility.yul\":784:789   */\n      dup2\n        /* \"#utility.yul\":766:790   */\n      tag_48\n      jump\t// in\n    tag_99:\n        /* \"#utility.yul\":761:764   */\n      dup3\n        /* \"#utility.yul\":754:791   */\n      mstore\n        /* \"#utility.yul\":689:797   */\n      pop\n      pop\n      jump\t// out\n        /* \"#utility.yul\":803:982   */\n    tag_50:\n        /* \"#utility.yul\":872:882   */\n      0x00\n        /* \"#utility.yul\":893:939   */\n      tag_101\n        /* \"#utility.yul\":935:938   */\n      dup4\n        /* \"#utility.yul\":927:933   */\n      dup4\n        /* \"#utility.yul\":893:939   */\n      tag_49\n      jump\t// in\n    tag_101:\n        /* \"#utility.yul\":971:975   */\n      0x20\n        /* \"#utility.yul\":966:969   */\n      dup4\n        /* \"#utility.yul\":962:976   */\n      add\n        /* \"#utility.yul\":948:976   */\n      swap1\n      pop\n        /* \"#utility.yul\":803:982   */\n      swap3\n      swap2\n      pop\n      pop\n      jump\t// out\n        /* \"#utility.yul\":988:1101   */\n    tag_51:\n        /* \"#utility.yul\":1058:1062   */\n      0x00\n        /* \"#utility.yul\":1090:1094   */\n      0x20\n        /* \"#utility.yul\":1085:1088   */\n      dup3\n        /* \"#utility.yul\":1081:1095   */\n      add\n        /* \"#utility.yul\":1073:1095   */\n      swap1\n      pop\n        /* \"#utility.yul\":988:1101   */\n      swap2\n      swap1\n      pop\n      jump\t// out\n        /* \"#utility.yul\":1137:1869   */\n    tag_52:\n        /* \"#utility.yul\":1256:1259   */\n      0x00\n        /* \"#utility.yul\":1285:1339   */\n      tag_104\n        /* \"#utility.yul\":1333:1338   */\n      dup3\n        /* \"#utility.yul\":1285:1339   */\n      tag_44\n      jump\t// in\n    tag_104:\n        /* \"#utility.yul\":1355:1441   */\n      tag_105\n        /* \"#utility.yul\":1434:1440   */\n      dup2\n        /* \"#utility.yul\":1429:1432   */\n      dup6\n        /* \"#utility.yul\":1355:1441   */\n      tag_45\n      jump\t// in\n    tag_105:\n        /* \"#utility.yul\":1348:1441   */\n      swap4\n      pop\n        /* \"#utility.yul\":1465:1521   */\n      tag_106\n        /* \"#utility.yul\":1515:1520   */\n      dup4\n        /* \"#utility.yul\":1465:1521   */\n      tag_46\n      jump\t// in\n    tag_106:\n        /* \"#utility.yul\":1544:1551   */\n      dup1\n        /* \"#utility.yul\":1575:1576   */\n      0x00\n        /* \"#utility.yul\":1560:1844   */\n    tag_107:\n        /* \"#utility.yul\":1585:1591   */\n      dup4\n        /* \"#utility.yul\":1582:1583   */\n      dup2\n        /* \"#utility.yul\":1579:1592   */\n      lt\n        /* \"#utility.yul\":1560:1844   */\n      iszero\n      tag_109\n      jumpi\n        /* \"#utility.yul\":1661:1667   */\n      dup2\n        /* \"#utility.yul\":1655:1668   */\n      mload\n        /* \"#utility.yul\":1688:1751   */\n      tag_110\n        /* \"#utility.yul\":1747:1750   */\n      dup9\n        /* \"#utility.yul\":1732:1745   */\n      dup3\n        /* \"#utility.yul\":1688:1751   */\n      tag_50\n      jump\t// in\n    tag_110:\n        /* \"#utility.yul\":1681:1751   */\n      swap8\n      pop\n        /* \"#utility.yul\":1774:1834   */\n      tag_111\n        /* \"#utility.yul\":1827:1833   */\n      dup4\n        /* \"#utility.yul\":1774:1834   */\n      tag_51\n      jump\t// in\n    tag_111:\n        /* \"#utility.yul\":1764:1834   */\n      swap3\n      pop\n        /* \"#utility.yul\":1620:1844   */\n      pop\n        /* \"#utility.yul\":1607:1608   */\n      0x01\n        /* \"#utility.yul\":1604:1605   */\n      dup2\n        /* \"#utility.yul\":1600:1609   */\n      add\n        /* \"#utility.yul\":1595:1609   */\n      swap1\n      pop\n        /* \"#utility.yul\":1560:1844   */\n      jump(tag_107)\n    tag_109:\n        /* \"#utility.yul\":1564:1578   */\n      pop\n        /* \"#utility.yul\":1860:1863   */\n      dup6\n        /* \"#utility.yul\":1853:1863   */\n      swap4\n      pop\n        /* \"#utility.yul\":1261:1869   */\n      pop\n      pop\n      pop\n        /* \"#utility.yul\":1137:1869   */\n      swap3\n      swap2\n      pop\n      pop\n      jump\t// out\n        /* \"#utility.yul\":1875:2248   */\n    tag_9:\n        /* \"#utility.yul\":2018:2022   */\n      0x00\n        /* \"#utility.yul\":2056:2058   */\n      0x20\n        /* \"#utility.yul\":2045:2054   */\n      dup3\n        /* \"#utility.yul\":2041:2059   */\n      add\n        /* \"#utility.yul\":2033:2059   */\n      swap1\n      pop\n        /* \"#utility.yul\":2105:2114   */\n      dup2\n        /* \"#utility.yul\":2099:2103   */\n      dup2\n        /* \"#utility.yul\":2095:2115   */\n      sub\n        /* \"#utility.yul\":2091:2092   */\n      0x00\n        /* \"#utility.yul\":2080:2089   */\n      dup4\n        /* \"#utility.yul\":2076:2093   */\n      add\n        /* \"#utility.yul\":2069:2116   */\n      mstore\n        /* \"#utility.yul\":2133:2241   */\n      tag_113\n        /* \"#utility.yul\":2236:2240   */\n      dup2\n        /* \"#utility.yul\":2227:2233   */\n      dup5\n        /* \"#utility.yul\":2133:2241   */\n      tag_52\n      jump\t// in\n    tag_113:\n        /* \"#utility.yul\":2125:2241   */\n      swap1\n      pop\n        /* \"#utility.yul\":1875:2248   */\n      swap3\n      swap2\n      pop\n      pop\n      jump\t// out\n        /* \"#utility.yul\":2254:2329   */\n    tag_53:\n        /* \"#utility.yul\":2287:2293   */\n      0x00\n        /* \"#utility.yul\":2320:2322   */\n      0x40\n        /* \"#utility.yul\":2314:2323   */\n      mload\n        /* \"#utility.yul\":2304:2323   */\n      swap1\n      pop\n        /* \"#utility.yul\":2254:2329   */\n      swap1\n      jump\t// out\n        /* \"#utility.yul\":2335:2452   */\n    tag_54:\n        /* \"#utility.yul\":2444:2445   */\n      0x00\n        /* \"#utility.yul\":2441:2442   */\n      dup1\n        /* \"#utility.yul\":2434:2446   */\n      revert\n        /* \"#utility.yul\":2458:2575   */\n    tag_55:\n        /* \"#utility.yul\":2567:2568   */\n      0x00\n        /* \"#utility.yul\":2564:2565   */\n      dup1\n        /* \"#utility.yul\":2557:2569   */\n      revert\n        /* \"#utility.yul\":2581:2698   */\n    tag_56:\n        /* \"#utility.yul\":2690:2691   */\n      0x00\n        /* \"#utility.yul\":2687:2688   */\n      dup1\n        /* \"#utility.yul\":2680:2692   */\n      revert\n        /* \"#utility.yul\":2704:2806   */\n    tag_57:\n        /* \"#utility.yul\":2745:2751   */\n      0x00\n        /* \"#utility.yul\":2796:2798   */\n      0x1f\n        /* \"#utility.yul\":2792:2799   */\n      not\n        /* \"#utility.yul\":2787:2789   */\n      0x1f\n        /* \"#utility.yul\":2780:2785   */\n      dup4\n        /* \"#utility.yul\":2776:2790   */\n      add\n        /* \"#utility.yul\":2772:2800   */\n      and\n        /* \"#utility.yul\":2762:2800   */\n      swap1\n      pop\n        /* \"#utility.yul\":2704:2806   */\n      swap2\n      swap1\n      pop\n      jump\t// out\n        /* \"#utility.yul\":2812:2992   */\n    tag_58:\n        /* \"#utility.yul\":2860:2937   */\n      0x4e487b7100000000000000000000000000000000000000000000000000000000\n        /* \"#utility.yul\":2857:2858   */\n      0x00\n        /* \"#utility.yul\":2850:2938   */\n      mstore\n        /* \"#utility.yul\":2957:2961   */\n      0x41\n        /* \"#utility.yul\":2954:2955   */\n      0x04\n        /* \"#utility.yul\":2947:2962   */\n      mstore\n        /* \"#utility.yul\":2981:2985   */\n      0x24\n        /* \"#utility.yul\":2978:2979   */\n      0x00\n        /* \"#utility.yul\":2971:2986   */\n      revert\n        /* \"#utility.yul\":2998:3279   */\n    tag_59:\n        /* \"#utility.yul\":3081:3108   */\n      tag_121\n        /* \"#utility.yul\":3103:3107   */\n      dup3\n        /* \"#utility.yul\":3081:3108   */\n      tag_57\n      jump\t// in\n    tag_121:\n        /* \"#utility.yul\":3073:3079   */\n      dup2\n        /* \"#utility.yul\":3069:3109   */\n      add\n        /* \"#utility.yul\":3211:3217   */\n      dup2\n        /* \"#utility.yul\":3199:3209   */\n      dup2\n        /* \"#utility.yul\":3196:3218   */\n      lt\n        /* \"#utility.yul\":3175:3193   */\n      0xffffffffffffffff\n        /* \"#utility.yul\":3163:3173   */\n      dup3\n        /* \"#utility.yul\":3160:3194   */\n      gt\n        /* \"#utility.yul\":3157:3219   */\n      or\n        /* \"#utility.yul\":3154:3242   */\n      iszero\n      tag_122\n      jumpi\n        /* \"#utility.yul\":3222:3240   */\n      tag_123\n      tag_58\n      jump\t// in\n    tag_123:\n        /* \"#utility.yul\":3154:3242   */\n    tag_122:\n        /* \"#utility.yul\":3262:3272   */\n      dup1\n        /* \"#utility.yul\":3258:3260   */\n      0x40\n        /* \"#utility.yul\":3251:3273   */\n      mstore\n        /* \"#utility.yul\":3041:3279   */\n      pop\n        /* \"#utility.yul\":2998:3279   */\n      pop\n      pop\n      jump\t// out\n        /* \"#utility.yul\":3285:3414   */\n    tag_60:\n        /* \"#utility.yul\":3319:3325   */\n      0x00\n        /* \"#utility.yul\":3346:3366   */\n      tag_125\n      tag_53\n      jump\t// in\n    tag_125:\n        /* \"#utility.yul\":3336:3366   */\n      swap1\n      pop\n        /* \"#utility.yul\":3375:3408   */\n      tag_126\n        /* \"#utility.yul\":3403:3407   */\n      dup3\n        /* \"#utility.yul\":3395:3401   */\n      dup3\n        /* \"#utility.yul\":3375:3408   */\n      tag_59\n      jump\t// in\n    tag_126:\n        /* \"#utility.yul\":3285:3414   */\n      swap2\n      swap1\n      pop\n      jump\t// out\n        /* \"#utility.yul\":3420:3766   */\n    tag_61:\n        /* \"#utility.yul\":3532:3536   */\n      0x00\n        /* \"#utility.yul\":3622:3640   */\n      0xffffffffffffffff\n        /* \"#utility.yul\":3614:3620   */\n      dup3\n        /* \"#utility.yul\":3611:3641   */\n      gt\n        /* \"#utility.yul\":3608:3664   */\n      iszero\n      tag_128\n      jumpi\n        /* \"#utility.yul\":3644:3662   */\n      tag_129\n      tag_58\n      jump\t// in\n    tag_129:\n        /* \"#utility.yul\":3608:3664   */\n    tag_128:\n        /* \"#utility.yul\":3694:3698   */\n      0x20\n        /* \"#utility.yul\":3686:3692   */\n      dup3\n        /* \"#utility.yul\":3682:3699   */\n      mul\n        /* \"#utility.yul\":3674:3699   */\n      swap1\n      pop\n        /* \"#utility.yul\":3754:3758   */\n      0x20\n        /* \"#utility.yul\":3748:3752   */\n      dup2\n        /* \"#utility.yul\":3744:3759   */\n      add\n        /* \"#utility.yul\":3736:3759   */\n      swap1\n      pop\n        /* \"#utility.yul\":3420:3766   */\n      swap2\n      swap1\n      pop\n      jump\t// out\n        /* \"#utility.yul\":3772:3889   */\n    tag_62:\n        /* \"#utility.yul\":3881:3882   */\n      0x00\n        /* \"#utility.yul\":3878:3879   */\n      dup1\n        /* \"#utility.yul\":3871:3883   */\n      revert\n        /* \"#utility.yul\":3895:4216   */\n    tag_63:\n        /* \"#utility.yul\":3982:3986   */\n      0x00\n        /* \"#utility.yul\":4072:4090   */\n      0xffffffffffffffff\n        /* \"#utility.yul\":4064:4070   */\n      dup3\n        /* \"#utility.yul\":4061:4091   */\n      gt\n        /* \"#utility.yul\":4058:4114   */\n      iszero\n      tag_132\n      jumpi\n        /* \"#utility.yul\":4094:4112   */\n      tag_133\n      tag_58\n      jump\t// in\n    tag_133:\n        /* \"#utility.yul\":4058:4114   */\n    tag_132:\n        /* \"#utility.yul\":4144:4148   */\n      0x20\n        /* \"#utility.yul\":4136:4142   */\n      dup3\n        /* \"#utility.yul\":4132:4149   */\n      mul\n        /* \"#utility.yul\":4124:4149   */\n      swap1\n      pop\n        /* \"#utility.yul\":4204:4208   */\n      0x20\n        /* \"#utility.yul\":4198:4202   */\n      dup2\n        /* \"#utility.yul\":4194:4209   */\n      add\n        /* \"#utility.yul\":4186:4209   */\n      swap1\n      pop\n        /* \"#utility.yul\":3895:4216   */\n      swap2\n      swap1\n      pop\n      jump\t// out\n        /* \"#utility.yul\":4222:4339   */\n    tag_64:\n        /* \"#utility.yul\":4331:4332   */\n      0x00\n        /* \"#utility.yul\":4328:4329   */\n      dup1\n        /* \"#utility.yul\":4321:4333   */\n      revert\n        /* \"#utility.yul\":4345:4653   */\n    tag_65:\n        /* \"#utility.yul\":4407:4411   */\n      0x00\n        /* \"#utility.yul\":4497:4515   */\n      0xffffffffffffffff\n        /* \"#utility.yul\":4489:4495   */\n      dup3\n        /* \"#utility.yul\":4486:4516   */\n      gt\n        /* \"#utility.yul\":4483:4539   */\n      iszero\n      tag_136\n      jumpi\n        /* \"#utility.yul\":4519:4537   */\n      tag_137\n      tag_58\n      jump\t// in\n    tag_137:\n        /* \"#utility.yul\":4483:4539   */\n    tag_136:\n        /* \"#utility.yul\":4557:4586   */\n      tag_138\n        /* \"#utility.yul\":4579:4585   */\n      dup3\n        /* \"#utility.yul\":4557:4586   */\n      tag_57\n      jump\t// in\n    tag_138:\n        /* \"#utility.yul\":4549:4586   */\n      swap1\n      pop\n        /* \"#utility.yul\":4641:4645   */\n      0x20\n        /* \"#utility.yul\":4635:4639   */\n      dup2\n        /* \"#utility.yul\":4631:4646   */\n      add\n        /* \"#utility.yul\":4623:4646   */\n      swap1\n      pop\n        /* \"#utility.yul\":4345:4653   */\n      swap2\n      swap1\n      pop\n      jump\t// out\n        /* \"#utility.yul\":4659:4813   */\n    tag_66:\n        /* \"#utility.yul\":4743:4749   */\n      dup3\n        /* \"#utility.yul\":4738:4741   */\n      dup2\n        /* \"#utility.yul\":4733:4736   */\n      dup4\n        /* \"#utility.yul\":4720:4750   */\n      calldatacopy\n        /* \"#utility.yul\":4805:4806   */\n      0x00\n        /* \"#utility.yul\":4796:4802   */\n      dup4\n        /* \"#utility.yul\":4791:4794   */\n      dup4\n        /* \"#utility.yul\":4787:4803   */\n      add\n        /* \"#utility.yul\":4780:4807   */\n      mstore\n        /* \"#utility.yul\":4659:4813   */\n      pop\n      pop\n      pop\n      jump\t// out\n        /* \"#utility.yul\":4819:5231   */\n    tag_67:\n        /* \"#utility.yul\":4897:4902   */\n      0x00\n        /* \"#utility.yul\":4922:4988   */\n      tag_141\n        /* \"#utility.yul\":4938:4987   */\n      tag_142\n        /* \"#utility.yul\":4980:4986   */\n      dup5\n        /* \"#utility.yul\":4938:4987   */\n      tag_65\n      jump\t// in\n    tag_142:\n        /* \"#utility.yul\":4922:4988   */\n      tag_60\n      jump\t// in\n    tag_141:\n        /* \"#utility.yul\":4913:4988   */\n      swap1\n      pop\n        /* \"#utility.yul\":5011:5017   */\n      dup3\n        /* \"#utility.yul\":5004:5009   */\n      dup2\n        /* \"#utility.yul\":4997:5018   */\n      mstore\n        /* \"#utility.yul\":5049:5053   */\n      0x20\n        /* \"#utility.yul\":5042:5047   */\n      dup2\n        /* \"#utility.yul\":5038:5054   */\n      add\n        /* \"#utility.yul\":5087:5090   */\n      dup5\n        /* \"#utility.yul\":5078:5084   */\n      dup5\n        /* \"#utility.yul\":5073:5076   */\n      dup5\n        /* \"#utility.yul\":5069:5085   */\n      add\n        /* \"#utility.yul\":5066:5091   */\n      gt\n        /* \"#utility.yul\":5063:5175   */\n      iszero\n      tag_143\n      jumpi\n        /* \"#utility.yul\":5094:5173   */\n      tag_144\n      tag_64\n      jump\t// in\n    tag_144:\n        /* \"#utility.yul\":5063:5175   */\n    tag_143:\n        /* \"#utility.yul\":5184:5225   */\n      tag_145\n        /* \"#utility.yul\":5218:5224   */\n      dup5\n        /* \"#utility.yul\":5213:5216   */\n      dup3\n        /* \"#utility.yul\":5208:5211   */\n      dup6\n        /* \"#utility.yul\":5184:5225   */\n      tag_66\n      jump\t// in\n    tag_145:\n        /* \"#utility.yul\":4903:5231   */\n      pop\n        /* \"#utility.yul\":4819:5231   */\n      swap4\n      swap3\n      pop\n      pop\n      pop\n      jump\t// out\n        /* \"#utility.yul\":5251:5591   */\n    tag_68:\n        /* \"#utility.yul\":5307:5312   */\n      0x00\n        /* \"#utility.yul\":5356:5359   */\n      dup3\n        /* \"#utility.yul\":5349:5353   */\n      0x1f\n        /* \"#utility.yul\":5341:5347   */\n      dup4\n        /* \"#utility.yul\":5337:5354   */\n      add\n        /* \"#utility.yul\":5333:5360   */\n      slt\n        /* \"#utility.yul\":5323:5445   */\n      tag_147\n      jumpi\n        /* \"#utility.yul\":5364:5443   */\n      tag_148\n      tag_56\n      jump\t// in\n    tag_148:\n        /* \"#utility.yul\":5323:5445   */\n    tag_147:\n        /* \"#utility.yul\":5481:5487   */\n      dup2\n        /* \"#utility.yul\":5468:5488   */\n      calldataload\n        /* \"#utility.yul\":5506:5585   */\n      tag_149\n        /* \"#utility.yul\":5581:5584   */\n      dup5\n        /* \"#utility.yul\":5573:5579   */\n      dup3\n        /* \"#utility.yul\":5566:5570   */\n      0x20\n        /* \"#utility.yul\":5558:5564   */\n      dup7\n        /* \"#utility.yul\":5554:5571   */\n      add\n        /* \"#utility.yul\":5506:5585   */\n      tag_67\n      jump\t// in\n    tag_149:\n        /* \"#utility.yul\":5497:5585   */\n      swap2\n      pop\n        /* \"#utility.yul\":5313:5591   */\n      pop\n        /* \"#utility.yul\":5251:5591   */\n      swap3\n      swap2\n      pop\n      pop\n      jump\t// out\n        /* \"#utility.yul\":5613:6558   */\n    tag_69:\n        /* \"#utility.yul\":5719:5724   */\n      0x00\n        /* \"#utility.yul\":5744:5835   */\n      tag_151\n        /* \"#utility.yul\":5760:5834   */\n      tag_152\n        /* \"#utility.yul\":5827:5833   */\n      dup5\n        /* \"#utility.yul\":5760:5834   */\n      tag_63\n      jump\t// in\n    tag_152:\n        /* \"#utility.yul\":5744:5835   */\n      tag_60\n      jump\t// in\n    tag_151:\n        /* \"#utility.yul\":5735:5835   */\n      swap1\n      pop\n        /* \"#utility.yul\":5855:5860   */\n      dup1\n        /* \"#utility.yul\":5884:5890   */\n      dup4\n        /* \"#utility.yul\":5877:5882   */\n      dup3\n        /* \"#utility.yul\":5870:5891   */\n      mstore\n        /* \"#utility.yul\":5918:5922   */\n      0x20\n        /* \"#utility.yul\":5911:5916   */\n      dup3\n        /* \"#utility.yul\":5907:5923   */\n      add\n        /* \"#utility.yul\":5900:5923   */\n      swap1\n      pop\n        /* \"#utility.yul\":5971:5975   */\n      0x20\n        /* \"#utility.yul\":5963:5969   */\n      dup5\n        /* \"#utility.yul\":5959:5976   */\n      mul\n        /* \"#utility.yul\":5951:5957   */\n      dup4\n        /* \"#utility.yul\":5947:5977   */\n      add\n        /* \"#utility.yul\":6000:6003   */\n      dup6\n        /* \"#utility.yul\":5992:5998   */\n      dup2\n        /* \"#utility.yul\":5989:6004   */\n      gt\n        /* \"#utility.yul\":5986:6108   */\n      iszero\n      tag_153\n      jumpi\n        /* \"#utility.yul\":6019:6098   */\n      tag_154\n      tag_62\n      jump\t// in\n    tag_154:\n        /* \"#utility.yul\":5986:6108   */\n    tag_153:\n        /* \"#utility.yul\":6134:6140   */\n      dup4\n        /* \"#utility.yul\":6117:6552   */\n    tag_155:\n        /* \"#utility.yul\":6151:6157   */\n      dup2\n        /* \"#utility.yul\":6146:6149   */\n      dup2\n        /* \"#utility.yul\":6143:6158   */\n      lt\n        /* \"#utility.yul\":6117:6552   */\n      iszero\n      tag_157\n      jumpi\n        /* \"#utility.yul\":6240:6243   */\n      dup1\n        /* \"#utility.yul\":6227:6244   */\n      calldataload\n        /* \"#utility.yul\":6276:6294   */\n      0xffffffffffffffff\n        /* \"#utility.yul\":6263:6274   */\n      dup2\n        /* \"#utility.yul\":6260:6295   */\n      gt\n        /* \"#utility.yul\":6257:6379   */\n      iszero\n      tag_158\n      jumpi\n        /* \"#utility.yul\":6298:6377   */\n      tag_159\n      tag_56\n      jump\t// in\n    tag_159:\n        /* \"#utility.yul\":6257:6379   */\n    tag_158:\n        /* \"#utility.yul\":6422:6433   */\n      dup1\n        /* \"#utility.yul\":6414:6420   */\n      dup7\n        /* \"#utility.yul\":6410:6434   */\n      add\n        /* \"#utility.yul\":6460:6507   */\n      tag_160\n        /* \"#utility.yul\":6503:6506   */\n      dup10\n        /* \"#utility.yul\":6491:6501   */\n      dup3\n        /* \"#utility.yul\":6460:6507   */\n      tag_68\n      jump\t// in\n    tag_160:\n        /* \"#utility.yul\":6455:6458   */\n      dup6\n        /* \"#utility.yul\":6448:6508   */\n      mstore\n        /* \"#utility.yul\":6537:6541   */\n      0x20\n        /* \"#utility.yul\":6532:6535   */\n      dup6\n        /* \"#utility.yul\":6528:6542   */\n      add\n        /* \"#utility.yul\":6521:6542   */\n      swap5\n      pop\n        /* \"#utility.yul\":6193:6552   */\n      pop\n      pop\n        /* \"#utility.yul\":6177:6181   */\n      0x20\n        /* \"#utility.yul\":6172:6175   */\n      dup2\n        /* \"#utility.yul\":6168:6182   */\n      add\n        /* \"#utility.yul\":6161:6182   */\n      swap1\n      pop\n        /* \"#utility.yul\":6117:6552   */\n      jump(tag_155)\n    tag_157:\n        /* \"#utility.yul\":6121:6142   */\n      pop\n        /* \"#utility.yul\":5725:6558   */\n      pop\n      pop\n        /* \"#utility.yul\":5613:6558   */\n      swap4\n      swap3\n      pop\n      pop\n      pop\n      jump\t// out\n        /* \"#utility.yul\":6580:6970   */\n    tag_70:\n        /* \"#utility.yul\":6661:6666   */\n      0x00\n        /* \"#utility.yul\":6710:6713   */\n      dup3\n        /* \"#utility.yul\":6703:6707   */\n      0x1f\n        /* \"#utility.yul\":6695:6701   */\n      dup4\n        /* \"#utility.yul\":6691:6708   */\n      add\n        /* \"#utility.yul\":6687:6714   */\n      slt\n        /* \"#utility.yul\":6677:6799   */\n      tag_162\n      jumpi\n        /* \"#utility.yul\":6718:6797   */\n      tag_163\n      tag_56\n      jump\t// in\n    tag_163:\n        /* \"#utility.yul\":6677:6799   */\n    tag_162:\n        /* \"#utility.yul\":6835:6841   */\n      dup2\n        /* \"#utility.yul\":6822:6842   */\n      calldataload\n        /* \"#utility.yul\":6860:6964   */\n      tag_164\n        /* \"#utility.yul\":6960:6963   */\n      dup5\n        /* \"#utility.yul\":6952:6958   */\n      dup3\n        /* \"#utility.yul\":6945:6949   */\n      0x20\n        /* \"#utility.yul\":6937:6943   */\n      dup7\n        /* \"#utility.yul\":6933:6950   */\n      add\n        /* \"#utility.yul\":6860:6964   */\n      tag_69\n      jump\t// in\n    tag_164:\n        /* \"#utility.yul\":6851:6964   */\n      swap2\n      pop\n        /* \"#utility.yul\":6667:6970   */\n      pop\n        /* \"#utility.yul\":6580:6970   */\n      swap3\n      swap2\n      pop\n      pop\n      jump\t// out\n        /* \"#utility.yul\":6994:8014   */\n    tag_71:\n        /* \"#utility.yul\":7125:7130   */\n      0x00\n        /* \"#utility.yul\":7150:7266   */\n      tag_166\n        /* \"#utility.yul\":7166:7265   */\n      tag_167\n        /* \"#utility.yul\":7258:7264   */\n      dup5\n        /* \"#utility.yul\":7166:7265   */\n      tag_61\n      jump\t// in\n    tag_167:\n        /* \"#utility.yul\":7150:7266   */\n      tag_60\n      jump\t// in\n    tag_166:\n        /* \"#utility.yul\":7141:7266   */\n      swap1\n      pop\n        /* \"#utility.yul\":7286:7291   */\n      dup1\n        /* \"#utility.yul\":7315:7321   */\n      dup4\n        /* \"#utility.yul\":7308:7313   */\n      dup3\n        /* \"#utility.yul\":7301:7322   */\n      mstore\n        /* \"#utility.yul\":7349:7353   */\n      0x20\n        /* \"#utility.yul\":7342:7347   */\n      dup3\n        /* \"#utility.yul\":7338:7354   */\n      add\n        /* \"#utility.yul\":7331:7354   */\n      swap1\n      pop\n        /* \"#utility.yul\":7402:7406   */\n      0x20\n        /* \"#utility.yul\":7394:7400   */\n      dup5\n        /* \"#utility.yul\":7390:7407   */\n      mul\n        /* \"#utility.yul\":7382:7388   */\n      dup4\n        /* \"#utility.yul\":7378:7408   */\n      add\n        /* \"#utility.yul\":7431:7434   */\n      dup6\n        /* \"#utility.yul\":7423:7429   */\n      dup2\n        /* \"#utility.yul\":7420:7435   */\n      gt\n        /* \"#utility.yul\":7417:7539   */\n      iszero\n      tag_168\n      jumpi\n        /* \"#utility.yul\":7450:7529   */\n      tag_169\n      tag_62\n      jump\t// in\n    tag_169:\n        /* \"#utility.yul\":7417:7539   */\n    tag_168:\n        /* \"#utility.yul\":7565:7571   */\n      dup4\n        /* \"#utility.yul\":7548:8008   */\n    tag_170:\n        /* \"#utility.yul\":7582:7588   */\n      dup2\n        /* \"#utility.yul\":7577:7580   */\n      dup2\n        /* \"#utility.yul\":7574:7589   */\n      lt\n        /* \"#utility.yul\":7548:8008   */\n      iszero\n      tag_172\n      jumpi\n        /* \"#utility.yul\":7671:7674   */\n      dup1\n        /* \"#utility.yul\":7658:7675   */\n      calldataload\n        /* \"#utility.yul\":7707:7725   */\n      0xffffffffffffffff\n        /* \"#utility.yul\":7694:7705   */\n      dup2\n        /* \"#utility.yul\":7691:7726   */\n      gt\n        /* \"#utility.yul\":7688:7810   */\n      iszero\n      tag_173\n      jumpi\n        /* \"#utility.yul\":7729:7808   */\n      tag_174\n      tag_56\n      jump\t// in\n    tag_174:\n        /* \"#utility.yul\":7688:7810   */\n    tag_173:\n        /* \"#utility.yul\":7853:7864   */\n      dup1\n        /* \"#utility.yul\":7845:7851   */\n      dup7\n        /* \"#utility.yul\":7841:7865   */\n      add\n        /* \"#utility.yul\":7891:7963   */\n      tag_175\n        /* \"#utility.yul\":7959:7962   */\n      dup10\n        /* \"#utility.yul\":7947:7957   */\n      dup3\n        /* \"#utility.yul\":7891:7963   */\n      tag_70\n      jump\t// in\n    tag_175:\n        /* \"#utility.yul\":7886:7889   */\n      dup6\n        /* \"#utility.yul\":7879:7964   */\n      mstore\n        /* \"#utility.yul\":7993:7997   */\n      0x20\n        /* \"#utility.yul\":7988:7991   */\n      dup6\n        /* \"#utility.yul\":7984:7998   */\n      add\n        /* \"#utility.yul\":7977:7998   */\n      swap5\n      pop\n        /* \"#utility.yul\":7624:8008   */\n      pop\n      pop\n        /* \"#utility.yul\":7608:7612   */\n      0x20\n        /* \"#utility.yul\":7603:7606   */\n      dup2\n        /* \"#utility.yul\":7599:7613   */\n      add\n        /* \"#utility.yul\":7592:7613   */\n      swap1\n      pop\n        /* \"#utility.yul\":7548:8008   */\n      jump(tag_170)\n    tag_172:\n        /* \"#utility.yul\":7552:7573   */\n      pop\n        /* \"#utility.yul\":7131:8014   */\n      pop\n      pop\n        /* \"#utility.yul\":6994:8014   */\n      swap4\n      swap3\n      pop\n      pop\n      pop\n      jump\t// out\n        /* \"#utility.yul\":8038:8478   */\n    tag_72:\n        /* \"#utility.yul\":8144:8149   */\n      0x00\n        /* \"#utility.yul\":8193:8196   */\n      dup3\n        /* \"#utility.yul\":8186:8190   */\n      0x1f\n        /* \"#utility.yul\":8178:8184   */\n      dup4\n        /* \"#utility.yul\":8174:8191   */\n      add\n        /* \"#utility.yul\":8170:8197   */\n      slt\n        /* \"#utility.yul\":8160:8282   */\n      tag_177\n      jumpi\n        /* \"#utility.yul\":8201:8280   */\n      tag_178\n      tag_56\n      jump\t// in\n    tag_178:\n        /* \"#utility.yul\":8160:8282   */\n    tag_177:\n        /* \"#utility.yul\":8318:8324   */\n      dup2\n        /* \"#utility.yul\":8305:8325   */\n      calldataload\n        /* \"#utility.yul\":8343:8472   */\n      tag_179\n        /* \"#utility.yul\":8468:8471   */\n      dup5\n        /* \"#utility.yul\":8460:8466   */\n      dup3\n        /* \"#utility.yul\":8453:8457   */\n      0x20\n        /* \"#utility.yul\":8445:8451   */\n      dup7\n        /* \"#utility.yul\":8441:8458   */\n      add\n        /* \"#utility.yul\":8343:8472   */\n      tag_71\n      jump\t// in\n    tag_179:\n        /* \"#utility.yul\":8334:8472   */\n      swap2\n      pop\n        /* \"#utility.yul\":8150:8478   */\n      pop\n        /* \"#utility.yul\":8038:8478   */\n      swap3\n      swap2\n      pop\n      pop\n      jump\t// out\n        /* \"#utility.yul\":8484:8561   */\n    tag_73:\n        /* \"#utility.yul\":8521:8528   */\n      0x00\n        /* \"#utility.yul\":8550:8555   */\n      dup2\n        /* \"#utility.yul\":8539:8555   */\n      swap1\n      pop\n        /* \"#utility.yul\":8484:8561   */\n      swap2\n      swap1\n      pop\n      jump\t// out\n        /* \"#utility.yul\":8567:8689   */\n    tag_74:\n        /* \"#utility.yul\":8640:8664   */\n      tag_182\n        /* \"#utility.yul\":8658:8663   */\n      dup2\n        /* \"#utility.yul\":8640:8664   */\n      tag_73\n      jump\t// in\n    tag_182:\n        /* \"#utility.yul\":8633:8638   */\n      dup2\n        /* \"#utility.yul\":8630:8665   */\n      eq\n        /* \"#utility.yul\":8620:8683   */\n      tag_183\n      jumpi\n        /* \"#utility.yul\":8679:8680   */\n      0x00\n        /* \"#utility.yul\":8676:8677   */\n      dup1\n        /* \"#utility.yul\":8669:8681   */\n      revert\n        /* \"#utility.yul\":8620:8683   */\n    tag_183:\n        /* \"#utility.yul\":8567:8689   */\n      pop\n      jump\t// out\n        /* \"#utility.yul\":8695:8834   */\n    tag_75:\n        /* \"#utility.yul\":8741:8746   */\n      0x00\n        /* \"#utility.yul\":8779:8785   */\n      dup2\n        /* \"#utility.yul\":8766:8786   */\n      calldataload\n        /* \"#utility.yul\":8757:8786   */\n      swap1\n      pop\n        /* \"#utility.yul\":8795:8828   */\n      tag_185\n        /* \"#utility.yul\":8822:8827   */\n      dup2\n        /* \"#utility.yul\":8795:8828   */\n      tag_74\n      jump\t// in\n    tag_185:\n        /* \"#utility.yul\":8695:8834   */\n      swap3\n      swap2\n      pop\n      pop\n      jump\t// out\n        /* \"#utility.yul\":8840:10395   */\n    tag_12:\n        /* \"#utility.yul\":9081:9087   */\n      0x00\n        /* \"#utility.yul\":9089:9095   */\n      dup1\n        /* \"#utility.yul\":9097:9103   */\n      0x00\n        /* \"#utility.yul\":9105:9111   */\n      dup1\n        /* \"#utility.yul\":9154:9157   */\n      0x80\n        /* \"#utility.yul\":9142:9151   */\n      dup6\n        /* \"#utility.yul\":9133:9140   */\n      dup8\n        /* \"#utility.yul\":9129:9152   */\n      sub\n        /* \"#utility.yul\":9125:9158   */\n      slt\n        /* \"#utility.yul\":9122:9242   */\n      iszero\n      tag_187\n      jumpi\n        /* \"#utility.yul\":9161:9240   */\n      tag_188\n      tag_54\n      jump\t// in\n    tag_188:\n        /* \"#utility.yul\":9122:9242   */\n    tag_187:\n        /* \"#utility.yul\":9309:9310   */\n      0x00\n        /* \"#utility.yul\":9298:9307   */\n      dup6\n        /* \"#utility.yul\":9294:9311   */\n      add\n        /* \"#utility.yul\":9281:9312   */\n      calldataload\n        /* \"#utility.yul\":9339:9357   */\n      0xffffffffffffffff\n        /* \"#utility.yul\":9331:9337   */\n      dup2\n        /* \"#utility.yul\":9328:9358   */\n      gt\n        /* \"#utility.yul\":9325:9442   */\n      iszero\n      tag_189\n      jumpi\n        /* \"#utility.yul\":9361:9440   */\n      tag_190\n      tag_55\n      jump\t// in\n    tag_190:\n        /* \"#utility.yul\":9325:9442   */\n    tag_189:\n        /* \"#utility.yul\":9466:9579   */\n      tag_191\n        /* \"#utility.yul\":9571:9578   */\n      dup8\n        /* \"#utility.yul\":9562:9568   */\n      dup3\n        /* \"#utility.yul\":9551:9560   */\n      dup9\n        /* \"#utility.yul\":9547:9569   */\n      add\n        /* \"#utility.yul\":9466:9579   */\n      tag_72\n      jump\t// in\n    tag_191:\n        /* \"#utility.yul\":9456:9579   */\n      swap5\n      pop\n        /* \"#utility.yul\":9252:9589   */\n      pop\n        /* \"#utility.yul\":9656:9658   */\n      0x20\n        /* \"#utility.yul\":9645:9654   */\n      dup6\n        /* \"#utility.yul\":9641:9659   */\n      add\n        /* \"#utility.yul\":9628:9660   */\n      calldataload\n        /* \"#utility.yul\":9687:9705   */\n      0xffffffffffffffff\n        /* \"#utility.yul\":9679:9685   */\n      dup2\n        /* \"#utility.yul\":9676:9706   */\n      gt\n        /* \"#utility.yul\":9673:9790   */\n      iszero\n      tag_192\n      jumpi\n        /* \"#utility.yul\":9709:9788   */\n      tag_193\n      tag_55\n      jump\t// in\n    tag_193:\n        /* \"#utility.yul\":9673:9790   */\n    tag_192:\n        /* \"#utility.yul\":9814:9927   */\n      tag_194\n        /* \"#utility.yul\":9919:9926   */\n      dup8\n        /* \"#utility.yul\":9910:9916   */\n      dup3\n        /* \"#utility.yul\":9899:9908   */\n      dup9\n        /* \"#utility.yul\":9895:9917   */\n      add\n        /* \"#utility.yul\":9814:9927   */\n      tag_72\n      jump\t// in\n    tag_194:\n        /* \"#utility.yul\":9804:9927   */\n      swap4\n      pop\n        /* \"#utility.yul\":9599:9937   */\n      pop\n        /* \"#utility.yul\":10004:10006   */\n      0x40\n        /* \"#utility.yul\":9993:10002   */\n      dup6\n        /* \"#utility.yul\":9989:10007   */\n      add\n        /* \"#utility.yul\":9976:10008   */\n      calldataload\n        /* \"#utility.yul\":10035:10053   */\n      0xffffffffffffffff\n        /* \"#utility.yul\":10027:10033   */\n      dup2\n        /* \"#utility.yul\":10024:10054   */\n      gt\n        /* \"#utility.yul\":10021:10138   */\n      iszero\n      tag_195\n      jumpi\n        /* \"#utility.yul\":10057:10136   */\n      tag_196\n      tag_55\n      jump\t// in\n    tag_196:\n        /* \"#utility.yul\":10021:10138   */\n    tag_195:\n        /* \"#utility.yul\":10162:10250   */\n      tag_197\n        /* \"#utility.yul\":10242:10249   */\n      dup8\n        /* \"#utility.yul\":10233:10239   */\n      dup3\n        /* \"#utility.yul\":10222:10231   */\n      dup9\n        /* \"#utility.yul\":10218:10240   */\n      add\n        /* \"#utility.yul\":10162:10250   */\n      tag_70\n      jump\t// in\n    tag_197:\n        /* \"#utility.yul\":10152:10250   */\n      swap3\n      pop\n        /* \"#utility.yul\":9947:10260   */\n      pop\n        /* \"#utility.yul\":10299:10301   */\n      0x60\n        /* \"#utility.yul\":10325:10378   */\n      tag_198\n        /* \"#utility.yul\":10370:10377   */\n      dup8\n        /* \"#utility.yul\":10361:10367   */\n      dup3\n        /* \"#utility.yul\":10350:10359   */\n      dup9\n        /* \"#utility.yul\":10346:10368   */\n      add\n        /* \"#utility.yul\":10325:10378   */\n      tag_75\n      jump\t// in\n    tag_198:\n        /* \"#utility.yul\":10315:10378   */\n      swap2\n      pop\n        /* \"#utility.yul\":10270:10388   */\n      pop\n        /* \"#utility.yul\":8840:10395   */\n      swap3\n      swap6\n      swap2\n      swap5\n      pop\n      swap3\n      pop\n      jump\t// out\n        /* \"#utility.yul\":10401:10730   */\n    tag_16:\n        /* \"#utility.yul\":10460:10466   */\n      0x00\n        /* \"#utility.yul\":10509:10511   */\n      0x20\n        /* \"#utility.yul\":10497:10506   */\n      dup3\n        /* \"#utility.yul\":10488:10495   */\n      dup5\n        /* \"#utility.yul\":10484:10507   */\n      sub\n        /* \"#utility.yul\":10480:10512   */\n      slt\n        /* \"#utility.yul\":10477:10596   */\n      iszero\n      tag_200\n      jumpi\n        /* \"#utility.yul\":10515:10594   */\n      tag_201\n      tag_54\n      jump\t// in\n    tag_201:\n        /* \"#utility.yul\":10477:10596   */\n    tag_200:\n        /* \"#utility.yul\":10635:10636   */\n      0x00\n        /* \"#utility.yul\":10660:10713   */\n      tag_202\n        /* \"#utility.yul\":10705:10712   */\n      dup5\n        /* \"#utility.yul\":10696:10702   */\n      dup3\n        /* \"#utility.yul\":10685:10694   */\n      dup6\n        /* \"#utility.yul\":10681:10703   */\n      add\n        /* \"#utility.yul\":10660:10713   */\n      tag_75\n      jump\t// in\n    tag_202:\n        /* \"#utility.yul\":10650:10713   */\n      swap2\n      pop\n        /* \"#utility.yul\":10606:10723   */\n      pop\n        /* \"#utility.yul\":10401:10730   */\n      swap3\n      swap2\n      pop\n      pop\n      jump\t// out\n        /* \"#utility.yul\":10736:10854   */\n    tag_76:\n        /* \"#utility.yul\":10823:10847   */\n      tag_204\n        /* \"#utility.yul\":10841:10846   */\n      dup2\n        /* \"#utility.yul\":10823:10847   */\n      tag_48\n      jump\t// in\n    tag_204:\n        /* \"#utility.yul\":10818:10821   */\n      dup3\n        /* \"#utility.yul\":10811:10848   */\n      mstore\n        /* \"#utility.yul\":10736:10854   */\n      pop\n      pop\n      jump\t// out\n        /* \"#utility.yul\":10860:11082   */\n    tag_19:\n        /* \"#utility.yul\":10953:10957   */\n      0x00\n        /* \"#utility.yul\":10991:10993   */\n      0x20\n        /* \"#utility.yul\":10980:10989   */\n      dup3\n        /* \"#utility.yul\":10976:10994   */\n      add\n        /* \"#utility.yul\":10968:10994   */\n      swap1\n      pop\n        /* \"#utility.yul\":11004:11075   */\n      tag_206\n        /* \"#utility.yul\":11072:11073   */\n      0x00\n        /* \"#utility.yul\":11061:11070   */\n      dup4\n        /* \"#utility.yul\":11057:11074   */\n      add\n        /* \"#utility.yul\":11048:11054   */\n      dup5\n        /* \"#utility.yul\":11004:11075   */\n      tag_76\n      jump\t// in\n    tag_206:\n        /* \"#utility.yul\":10860:11082   */\n      swap3\n      swap2\n      pop\n      pop\n      jump\t// out\n        /* \"#utility.yul\":11088:11268   */\n    tag_29:\n        /* \"#utility.yul\":11136:11213   */\n      0x4e487b7100000000000000000000000000000000000000000000000000000000\n        /* \"#utility.yul\":11133:11134   */\n      0x00\n        /* \"#utility.yul\":11126:11214   */\n      mstore\n        /* \"#utility.yul\":11233:11237   */\n      0x32\n        /* \"#utility.yul\":11230:11231   */\n      0x04\n        /* \"#utility.yul\":11223:11238   */\n      mstore\n        /* \"#utility.yul\":11257:11261   */\n      0x24\n        /* \"#utility.yul\":11254:11255   */\n      0x00\n        /* \"#utility.yul\":11247:11262   */\n      revert\n        /* \"#utility.yul\":11274:11398   */\n    tag_77:\n        /* \"#utility.yul\":11351:11357   */\n      0x00\n        /* \"#utility.yul\":11385:11390   */\n      dup2\n        /* \"#utility.yul\":11379:11391   */\n      mload\n        /* \"#utility.yul\":11369:11391   */\n      swap1\n      pop\n        /* \"#utility.yul\":11274:11398   */\n      swap2\n      swap1\n      pop\n      jump\t// out\n        /* \"#utility.yul\":11404:11598   */\n    tag_78:\n        /* \"#utility.yul\":11513:11524   */\n      0x00\n        /* \"#utility.yul\":11547:11553   */\n      dup3\n        /* \"#utility.yul\":11542:11545   */\n      dup3\n        /* \"#utility.yul\":11535:11554   */\n      mstore\n        /* \"#utility.yul\":11587:11591   */\n      0x20\n        /* \"#utility.yul\":11582:11585   */\n      dup3\n        /* \"#utility.yul\":11578:11592   */\n      add\n        /* \"#utility.yul\":11563:11592   */\n      swap1\n      pop\n        /* \"#utility.yul\":11404:11598   */\n      swap3\n      swap2\n      pop\n      pop\n      jump\t// out\n        /* \"#utility.yul\":11604:11746   */\n    tag_79:\n        /* \"#utility.yul\":11681:11685   */\n      0x00\n        /* \"#utility.yul\":11704:11707   */\n      dup2\n        /* \"#utility.yul\":11696:11707   */\n      swap1\n      pop\n        /* \"#utility.yul\":11734:11738   */\n      0x20\n        /* \"#utility.yul\":11729:11732   */\n      dup3\n        /* \"#utility.yul\":11725:11739   */\n      add\n        /* \"#utility.yul\":11717:11739   */\n      swap1\n      pop\n        /* \"#utility.yul\":11604:11746   */\n      swap2\n      swap1\n      pop\n      jump\t// out\n        /* \"#utility.yul\":11752:11851   */\n    tag_80:\n        /* \"#utility.yul\":11804:11810   */\n      0x00\n        /* \"#utility.yul\":11838:11843   */\n      dup2\n        /* \"#utility.yul\":11832:11844   */\n      mload\n        /* \"#utility.yul\":11822:11844   */\n      swap1\n      pop\n        /* \"#utility.yul\":11752:11851   */\n      swap2\n      swap1\n      pop\n      jump\t// out\n        /* \"#utility.yul\":11857:12016   */\n    tag_81:\n        /* \"#utility.yul\":11931:11942   */\n      0x00\n        /* \"#utility.yul\":11965:11971   */\n      dup3\n        /* \"#utility.yul\":11960:11963   */\n      dup3\n        /* \"#utility.yul\":11953:11972   */\n      mstore\n        /* \"#utility.yul\":12005:12009   */\n      0x20\n        /* \"#utility.yul\":12000:12003   */\n      dup3\n        /* \"#utility.yul\":11996:12010   */\n      add\n        /* \"#utility.yul\":11981:12010   */\n      swap1\n      pop\n        /* \"#utility.yul\":11857:12016   */\n      swap3\n      swap2\n      pop\n      pop\n      jump\t// out\n        /* \"#utility.yul\":12022:12329   */\n    tag_82:\n        /* \"#utility.yul\":12090:12091   */\n      0x00\n        /* \"#utility.yul\":12100:12213   */\n    tag_214:\n        /* \"#utility.yul\":12114:12120   */\n      dup4\n        /* \"#utility.yul\":12111:12112   */\n      dup2\n        /* \"#utility.yul\":12108:12121   */\n      lt\n        /* \"#utility.yul\":12100:12213   */\n      iszero\n      tag_216\n      jumpi\n        /* \"#utility.yul\":12199:12200   */\n      dup1\n        /* \"#utility.yul\":12194:12197   */\n      dup3\n        /* \"#utility.yul\":12190:12201   */\n      add\n        /* \"#utility.yul\":12184:12202   */\n      mload\n        /* \"#utility.yul\":12180:12181   */\n      dup2\n        /* \"#utility.yul\":12175:12178   */\n      dup5\n        /* \"#utility.yul\":12171:12182   */\n      add\n        /* \"#utility.yul\":12164:12203   */\n      mstore\n        /* \"#utility.yul\":12136:12138   */\n      0x20\n        /* \"#utility.yul\":12133:12134   */\n      dup2\n        /* \"#utility.yul\":12129:12139   */\n      add\n        /* \"#utility.yul\":12124:12139   */\n      swap1\n      pop\n        /* \"#utility.yul\":12100:12213   */\n      jump(tag_214)\n    tag_216:\n        /* \"#utility.yul\":12231:12237   */\n      dup4\n        /* \"#utility.yul\":12228:12229   */\n      dup2\n        /* \"#utility.yul\":12225:12238   */\n      gt\n        /* \"#utility.yul\":12222:12323   */\n      iszero\n      tag_217\n      jumpi\n        /* \"#utility.yul\":12311:12312   */\n      0x00\n        /* \"#utility.yul\":12302:12308   */\n      dup5\n        /* \"#utility.yul\":12297:12300   */\n      dup5\n        /* \"#utility.yul\":12293:12309   */\n      add\n        /* \"#utility.yul\":12286:12313   */\n      mstore\n        /* \"#utility.yul\":12222:12323   */\n    tag_217:\n        /* \"#utility.yul\":12071:12329   */\n      pop\n        /* \"#utility.yul\":12022:12329   */\n      pop\n      pop\n      pop\n      jump\t// out\n        /* \"#utility.yul\":12335:12679   */\n    tag_83:\n        /* \"#utility.yul\":12413:12416   */\n      0x00\n        /* \"#utility.yul\":12441:12480   */\n      tag_219\n        /* \"#utility.yul\":12474:12479   */\n      dup3\n        /* \"#utility.yul\":12441:12480   */\n      tag_80\n      jump\t// in\n    tag_219:\n        /* \"#utility.yul\":12496:12557   */\n      tag_220\n        /* \"#utility.yul\":12550:12556   */\n      dup2\n        /* \"#utility.yul\":12545:12548   */\n      dup6\n        /* \"#utility.yul\":12496:12557   */\n      tag_81\n      jump\t// in\n    tag_220:\n        /* \"#utility.yul\":12489:12557   */\n      swap4\n      pop\n        /* \"#utility.yul\":12566:12618   */\n      tag_221\n        /* \"#utility.yul\":12611:12617   */\n      dup2\n        /* \"#utility.yul\":12606:12609   */\n      dup6\n        /* \"#utility.yul\":12599:12603   */\n      0x20\n        /* \"#utility.yul\":12592:12597   */\n      dup7\n        /* \"#utility.yul\":12588:12604   */\n      add\n        /* \"#utility.yul\":12566:12618   */\n      tag_82\n      jump\t// in\n    tag_221:\n        /* \"#utility.yul\":12643:12672   */\n      tag_222\n        /* \"#utility.yul\":12665:12671   */\n      dup2\n        /* \"#utility.yul\":12643:12672   */\n      tag_57\n      jump\t// in\n    tag_222:\n        /* \"#utility.yul\":12638:12641   */\n      dup5\n        /* \"#utility.yul\":12634:12673   */\n      add\n        /* \"#utility.yul\":12627:12673   */\n      swap2\n      pop\n        /* \"#utility.yul\":12417:12679   */\n      pop\n        /* \"#utility.yul\":12335:12679   */\n      swap3\n      swap2\n      pop\n      pop\n      jump\t// out\n        /* \"#utility.yul\":12685:12881   */\n    tag_84:\n        /* \"#utility.yul\":12774:12784   */\n      0x00\n        /* \"#utility.yul\":12809:12875   */\n      tag_224\n        /* \"#utility.yul\":12871:12874   */\n      dup4\n        /* \"#utility.yul\":12863:12869   */\n      dup4\n        /* \"#utility.yul\":12809:12875   */\n      tag_83\n      jump\t// in\n    tag_224:\n        /* \"#utility.yul\":12795:12875   */\n      swap1\n      pop\n        /* \"#utility.yul\":12685:12881   */\n      swap3\n      swap2\n      pop\n      pop\n      jump\t// out\n        /* \"#utility.yul\":12887:13010   */\n    tag_85:\n        /* \"#utility.yul\":12967:12971   */\n      0x00\n        /* \"#utility.yul\":12999:13003   */\n      0x20\n        /* \"#utility.yul\":12994:12997   */\n      dup3\n        /* \"#utility.yul\":12990:13004   */\n      add\n        /* \"#utility.yul\":12982:13004   */\n      swap1\n      pop\n        /* \"#utility.yul\":12887:13010   */\n      swap2\n      swap1\n      pop\n      jump\t// out\n        /* \"#utility.yul\":13044:14035   */\n    tag_86:\n        /* \"#utility.yul\":13183:13186   */\n      0x00\n        /* \"#utility.yul\":13212:13276   */\n      tag_227\n        /* \"#utility.yul\":13270:13275   */\n      dup3\n        /* \"#utility.yul\":13212:13276   */\n      tag_77\n      jump\t// in\n    tag_227:\n        /* \"#utility.yul\":13292:13388   */\n      tag_228\n        /* \"#utility.yul\":13381:13387   */\n      dup2\n        /* \"#utility.yul\":13376:13379   */\n      dup6\n        /* \"#utility.yul\":13292:13388   */\n      tag_78\n      jump\t// in\n    tag_228:\n        /* \"#utility.yul\":13285:13388   */\n      swap4\n      pop\n        /* \"#utility.yul\":13414:13417   */\n      dup4\n        /* \"#utility.yul\":13459:13463   */\n      0x20\n        /* \"#utility.yul\":13451:13457   */\n      dup3\n        /* \"#utility.yul\":13447:13464   */\n      mul\n        /* \"#utility.yul\":13442:13445   */\n      dup6\n        /* \"#utility.yul\":13438:13465   */\n      add\n        /* \"#utility.yul\":13489:13555   */\n      tag_229\n        /* \"#utility.yul\":13549:13554   */\n      dup6\n        /* \"#utility.yul\":13489:13555   */\n      tag_79\n      jump\t// in\n    tag_229:\n        /* \"#utility.yul\":13578:13585   */\n      dup1\n        /* \"#utility.yul\":13609:13610   */\n      0x00\n        /* \"#utility.yul\":13594:13990   */\n    tag_230:\n        /* \"#utility.yul\":13619:13625   */\n      dup6\n        /* \"#utility.yul\":13616:13617   */\n      dup2\n        /* \"#utility.yul\":13613:13626   */\n      lt\n        /* \"#utility.yul\":13594:13990   */\n      iszero\n      tag_232\n      jumpi\n        /* \"#utility.yul\":13690:13699   */\n      dup5\n        /* \"#utility.yul\":13684:13688   */\n      dup5\n        /* \"#utility.yul\":13680:13700   */\n      sub\n        /* \"#utility.yul\":13675:13678   */\n      dup10\n        /* \"#utility.yul\":13668:13701   */\n      mstore\n        /* \"#utility.yul\":13741:13747   */\n      dup2\n        /* \"#utility.yul\":13735:13748   */\n      mload\n        /* \"#utility.yul\":13769:13853   */\n      tag_233\n        /* \"#utility.yul\":13848:13852   */\n      dup6\n        /* \"#utility.yul\":13833:13846   */\n      dup3\n        /* \"#utility.yul\":13769:13853   */\n      tag_84\n      jump\t// in\n    tag_233:\n        /* \"#utility.yul\":13761:13853   */\n      swap5\n      pop\n        /* \"#utility.yul\":13876:13946   */\n      tag_234\n        /* \"#utility.yul\":13939:13945   */\n      dup4\n        /* \"#utility.yul\":13876:13946   */\n      tag_85\n      jump\t// in\n    tag_234:\n        /* \"#utility.yul\":13866:13946   */\n      swap3\n      pop\n        /* \"#utility.yul\":13975:13979   */\n      0x20\n        /* \"#utility.yul\":13970:13973   */\n      dup11\n        /* \"#utility.yul\":13966:13980   */\n      add\n        /* \"#utility.yul\":13959:13980   */\n      swap10\n      pop\n        /* \"#utility.yul\":13654:13990   */\n      pop\n        /* \"#utility.yul\":13641:13642   */\n      0x01\n        /* \"#utility.yul\":13638:13639   */\n      dup2\n        /* \"#utility.yul\":13634:13643   */\n      add\n        /* \"#utility.yul\":13629:13643   */\n      swap1\n      pop\n        /* \"#utility.yul\":13594:13990   */\n      jump(tag_230)\n    tag_232:\n        /* \"#utility.yul\":13598:13612   */\n      pop\n        /* \"#utility.yul\":14006:14010   */\n      dup3\n        /* \"#utility.yul\":13999:14010   */\n      swap8\n      pop\n        /* \"#utility.yul\":14026:14029   */\n      dup8\n        /* \"#utility.yul\":14019:14029   */\n      swap6\n      pop\n        /* \"#utility.yul\":13188:14035   */\n      pop\n      pop\n      pop\n      pop\n      pop\n        /* \"#utility.yul\":13044:14035   */\n      swap3\n      swap2\n      pop\n      pop\n      jump\t// out\n        /* \"#utility.yul\":14041:14210   */\n    tag_87:\n        /* \"#utility.yul\":14125:14136   */\n      0x00\n        /* \"#utility.yul\":14159:14165   */\n      dup3\n        /* \"#utility.yul\":14154:14157   */\n      dup3\n        /* \"#utility.yul\":14147:14166   */\n      mstore\n        /* \"#utility.yul\":14199:14203   */\n      0x20\n        /* \"#utility.yul\":14194:14197   */\n      dup3\n        /* \"#utility.yul\":14190:14204   */\n      add\n        /* \"#utility.yul\":14175:14204   */\n      swap1\n      pop\n        /* \"#utility.yul\":14041:14210   */\n      swap3\n      swap2\n      pop\n      pop\n      jump\t// out\n        /* \"#utility.yul\":14216:14580   */\n    tag_88:\n        /* \"#utility.yul\":14304:14307   */\n      0x00\n        /* \"#utility.yul\":14332:14371   */\n      tag_237\n        /* \"#utility.yul\":14365:14370   */\n      dup3\n        /* \"#utility.yul\":14332:14371   */\n      tag_80\n      jump\t// in\n    tag_237:\n        /* \"#utility.yul\":14387:14458   */\n      tag_238\n        /* \"#utility.yul\":14451:14457   */\n      dup2\n        /* \"#utility.yul\":14446:14449   */\n      dup6\n        /* \"#utility.yul\":14387:14458   */\n      tag_87\n      jump\t// in\n    tag_238:\n        /* \"#utility.yul\":14380:14458   */\n      swap4\n      pop\n        /* \"#utility.yul\":14467:14519   */\n      tag_239\n        /* \"#utility.yul\":14512:14518   */\n      dup2\n        /* \"#utility.yul\":14507:14510   */\n      dup6\n        /* \"#utility.yul\":14500:14504   */\n      0x20\n        /* \"#utility.yul\":14493:14498   */\n      dup7\n        /* \"#utility.yul\":14489:14505   */\n      add\n        /* \"#utility.yul\":14467:14519   */\n      tag_82\n      jump\t// in\n    tag_239:\n        /* \"#utility.yul\":14544:14573   */\n      tag_240\n        /* \"#utility.yul\":14566:14572   */\n      dup2\n        /* \"#utility.yul\":14544:14573   */\n      tag_57\n      jump\t// in\n    tag_240:\n        /* \"#utility.yul\":14539:14542   */\n      dup5\n        /* \"#utility.yul\":14535:14574   */\n      add\n        /* \"#utility.yul\":14528:14574   */\n      swap2\n      pop\n        /* \"#utility.yul\":14308:14580   */\n      pop\n        /* \"#utility.yul\":14216:14580   */\n      swap3\n      swap2\n      pop\n      pop\n      jump\t// out\n        /* \"#utility.yul\":14586:14704   */\n    tag_89:\n        /* \"#utility.yul\":14673:14697   */\n      tag_242\n        /* \"#utility.yul\":14691:14696   */\n      dup2\n        /* \"#utility.yul\":14673:14697   */\n      tag_73\n      jump\t// in\n    tag_242:\n        /* \"#utility.yul\":14668:14671   */\n      dup3\n        /* \"#utility.yul\":14661:14698   */\n      mstore\n        /* \"#utility.yul\":14586:14704   */\n      pop\n      pop\n      jump\t// out\n        /* \"#utility.yul\":14710:15847   */\n    tag_37:\n        /* \"#utility.yul\":15075:15079   */\n      0x00\n        /* \"#utility.yul\":15113:15116   */\n      0xa0\n        /* \"#utility.yul\":15102:15111   */\n      dup3\n        /* \"#utility.yul\":15098:15117   */\n      add\n        /* \"#utility.yul\":15090:15117   */\n      swap1\n      pop\n        /* \"#utility.yul\":15163:15172   */\n      dup2\n        /* \"#utility.yul\":15157:15161   */\n      dup2\n        /* \"#utility.yul\":15153:15173   */\n      sub\n        /* \"#utility.yul\":15149:15150   */\n      0x00\n        /* \"#utility.yul\":15138:15147   */\n      dup4\n        /* \"#utility.yul\":15134:15151   */\n      add\n        /* \"#utility.yul\":15127:15174   */\n      mstore\n        /* \"#utility.yul\":15191:15319   */\n      tag_244\n        /* \"#utility.yul\":15314:15318   */\n      dup2\n        /* \"#utility.yul\":15305:15311   */\n      dup9\n        /* \"#utility.yul\":15191:15319   */\n      tag_86\n      jump\t// in\n    tag_244:\n        /* \"#utility.yul\":15183:15319   */\n      swap1\n      pop\n        /* \"#utility.yul\":15366:15375   */\n      dup2\n        /* \"#utility.yul\":15360:15364   */\n      dup2\n        /* \"#utility.yul\":15356:15376   */\n      sub\n        /* \"#utility.yul\":15351:15353   */\n      0x20\n        /* \"#utility.yul\":15340:15349   */\n      dup4\n        /* \"#utility.yul\":15336:15354   */\n      add\n        /* \"#utility.yul\":15329:15377   */\n      mstore\n        /* \"#utility.yul\":15394:15522   */\n      tag_245\n        /* \"#utility.yul\":15517:15521   */\n      dup2\n        /* \"#utility.yul\":15508:15514   */\n      dup8\n        /* \"#utility.yul\":15394:15522   */\n      tag_86\n      jump\t// in\n    tag_245:\n        /* \"#utility.yul\":15386:15522   */\n      swap1\n      pop\n        /* \"#utility.yul\":15569:15578   */\n      dup2\n        /* \"#utility.yul\":15563:15567   */\n      dup2\n        /* \"#utility.yul\":15559:15579   */\n      sub\n        /* \"#utility.yul\":15554:15556   */\n      0x40\n        /* \"#utility.yul\":15543:15552   */\n      dup4\n        /* \"#utility.yul\":15539:15557   */\n      add\n        /* \"#utility.yul\":15532:15580   */\n      mstore\n        /* \"#utility.yul\":15597:15675   */\n      tag_246\n        /* \"#utility.yul\":15670:15674   */\n      dup2\n        /* \"#utility.yul\":15661:15667   */\n      dup7\n        /* \"#utility.yul\":15597:15675   */\n      tag_88\n      jump\t// in\n    tag_246:\n        /* \"#utility.yul\":15589:15675   */\n      swap1\n      pop\n        /* \"#utility.yul\":15685:15757   */\n      tag_247\n        /* \"#utility.yul\":15753:15755   */\n      0x60\n        /* \"#utility.yul\":15742:15751   */\n      dup4\n        /* \"#utility.yul\":15738:15756   */\n      add\n        /* \"#utility.yul\":15729:15735   */\n      dup6\n        /* \"#utility.yul\":15685:15757   */\n      tag_76\n      jump\t// in\n    tag_247:\n        /* \"#utility.yul\":15767:15840   */\n      tag_248\n        /* \"#utility.yul\":15835:15838   */\n      0x80\n        /* \"#utility.yul\":15824:15833   */\n      dup4\n        /* \"#utility.yul\":15820:15839   */\n      add\n        /* \"#utility.yul\":15811:15817   */\n      dup5\n        /* \"#utility.yul\":15767:15840   */\n      tag_89\n      jump\t// in\n    tag_248:\n        /* \"#utility.yul\":14710:15847   */\n      swap7\n      swap6\n      pop\n      pop\n      pop\n      pop\n      pop\n      pop\n      jump\t// out\n        /* \"#utility.yul\":15853:16033   */\n    tag_90:\n        /* \"#utility.yul\":15901:15978   */\n      0x4e487b7100000000000000000000000000000000000000000000000000000000\n        /* \"#utility.yul\":15898:15899   */\n      0x00\n        /* \"#utility.yul\":15891:15979   */\n      mstore\n        /* \"#utility.yul\":15998:16002   */\n      0x11\n        /* \"#utility.yul\":15995:15996   */\n      0x04\n        /* \"#utility.yul\":15988:16003   */\n      mstore\n        /* \"#utility.yul\":16022:16026   */\n      0x24\n        /* \"#utility.yul\":16019:16020   */\n      0x00\n        /* \"#utility.yul\":16012:16027   */\n      revert\n        /* \"#utility.yul\":16039:16272   */\n    tag_41:\n        /* \"#utility.yul\":16078:16081   */\n      0x00\n        /* \"#utility.yul\":16101:16125   */\n      tag_251\n        /* \"#utility.yul\":16119:16124   */\n      dup3\n        /* \"#utility.yul\":16101:16125   */\n      tag_73\n      jump\t// in\n    tag_251:\n        /* \"#utility.yul\":16092:16125   */\n      swap2\n      pop\n        /* \"#utility.yul\":16147:16213   */\n      0xffffffffffffffffffffffffffffffffffffffffffffffffffffffffffffffff\n        /* \"#utility.yul\":16140:16145   */\n      dup3\n        /* \"#utility.yul\":16137:16214   */\n      eq\n        /* \"#utility.yul\":16134:16237   */\n      iszero\n      tag_252\n      jumpi\n        /* \"#utility.yul\":16217:16235   */\n      tag_253\n      tag_90\n      jump\t// in\n    tag_253:\n        /* \"#utility.yul\":16134:16237   */\n    tag_252:\n        /* \"#utility.yul\":16264:16265   */\n      0x01\n        /* \"#utility.yul\":16257:16262   */\n      dup3\n        /* \"#utility.yul\":16253:16266   */\n      add\n        /* \"#utility.yul\":16246:16266   */\n      swap1\n      pop\n        /* \"#utility.yul\":16039:16272   */\n      swap2\n      swap1\n      pop\n      jump\t// out\n    stop\n\n    sub_0: assembly {\n            /* \"evs.sol\":649:2247  contract Ballot ... */\n          mstore(0x40, 0x80)\n            /* \"evs.sol\":981:1487  constructor (string[] memory candidateNames,string[] memory candidateParty, string memory district, address creator, uint amountofHours) ... */\n          callvalue\n          dup1\n          iszero\n          tag_1\n          jumpi\n          0x00\n          dup1\n          revert\n        tag_1:\n          pop\n          mload(0x40)\n          sub(codesize, bytecodeSize)\n          dup1\n          bytecodeSize\n          dup4\n          codecopy\n          dup2\n          dup2\n          add\n          0x40\n          mstore\n          dup2\n          add\n          swap1\n          tag_2\n          swap2\n          swap1\n          tag_3\n          jump\t// in\n        tag_2:\n            /* \"evs.sol\":1131:1138  creator */\n          dup2\n            /* \"evs.sol\":1121:1128  manager */\n          0x01\n          0x00\n            /* \"evs.sol\":1121:1138  manager = creator */\n          0x0100\n          exp\n          dup2\n          sload\n          dup2\n          0xffffffffffffffffffffffffffffffffffffffff\n          mul\n          not\n          and\n          swap1\n          dup4\n          0xffffffffffffffffffffffffffffffffffffffff\n          and\n          mul\n          or\n          swap1\n          sstore\n          pop\n            /* \"evs.sol\":1157:1165  district */\n          dup3\n            /* \"evs.sol\":1140:1154  votingDistrict */\n          0x02\n            /* \"evs.sol\":1140:1165  votingDistrict = district */\n          swap1\n          dup1\n          mload\n          swap1\n          0x20\n          add\n          swap1\n          tag_6\n          swap3\n          swap2\n          swap1\n          tag_7\n          jump\t// in\n        tag_6:\n          pop\n            /* \"evs.sol\":1171:1177  uint i */\n          0x00\n            /* \"evs.sol\":1167:1455  for(uint i=0; i< candidateNames.length;i++)... */\n        tag_8:\n            /* \"evs.sol\":1184:1198  candidateNames */\n          dup6\n            /* \"evs.sol\":1184:1205  candidateNames.length */\n          mload\n            /* \"evs.sol\":1181:1182  i */\n          dup2\n            /* \"evs.sol\":1181:1205  i< candidateNames.length */\n          lt\n            /* \"evs.sol\":1167:1455  for(uint i=0; i< candidateNames.length;i++)... */\n          iszero\n          tag_9\n          jumpi\n            /* \"evs.sol\":1221:1231  candidates */\n          0x00\n            /* \"evs.sol\":1237:1447  candidate(... */\n          mload(0x40)\n          dup1\n          0xa0\n          add\n          0x40\n          mstore\n          dup1\n            /* \"evs.sol\":1271:1285  candidateNames */\n          dup9\n            /* \"evs.sol\":1286:1287  i */\n          dup5\n            /* \"evs.sol\":1271:1288  candidateNames[i] */\n          dup2\n          mload\n          dup2\n          lt\n          tag_11\n          jumpi\n          tag_12\n          tag_13\n          jump\t// in\n        tag_12:\n        tag_11:\n          0x20\n          mul\n          0x20\n          add\n          add\n          mload\n            /* \"evs.sol\":1237:1447  candidate(... */\n          dup2\n          mstore\n          0x20\n          add\n            /* \"evs.sol\":1305:1319  candidateParty */\n          dup8\n            /* \"evs.sol\":1320:1321  i */\n          dup5\n            /* \"evs.sol\":1305:1322  candidateParty[i] */\n          dup2\n          mload\n          dup2\n          lt\n          tag_14\n          jumpi\n          tag_15\n          tag_13\n          jump\t// in\n        tag_15:\n        tag_14:\n          0x20\n          mul\n          0x20\n          add\n          add\n          mload\n            /* \"evs.sol\":1237:1447  candidate(... */\n          dup2\n          mstore\n          0x20\n          add\n            /* \"evs.sol\":1343:1344  0 */\n          0x00\n            /* \"evs.sol\":1237:1447  candidate(... */\n          dup2\n          mstore\n          0x20\n          add\n            /* \"evs.sol\":1368:1383  block.timestamp */\n          timestamp\n            /* \"evs.sol\":1237:1447  candidate(... */\n          dup2\n          mstore\n          0x20\n          add\n            /* \"evs.sol\":1427:1440  amountofHours */\n          dup5\n            /* \"evs.sol\":1409:1424  block.timestamp */\n          timestamp\n            /* \"evs.sol\":1409:1440  block.timestamp + amountofHours */\n          tag_16\n          swap2\n          swap1\n          tag_17\n          jump\t// in\n        tag_16:\n            /* \"evs.sol\":1237:1447  candidate(... */\n          dup2\n          mstore\n          pop\n            /* \"evs.sol\":1221:1448  candidates.push(candidate(... */\n          swap1\n          dup1\n          0x01\n          dup2\n          sload\n          add\n          dup1\n          dup3\n          sstore\n          dup1\n          swap2\n          pop\n          pop\n          0x01\n          swap1\n          sub\n          swap1\n          0x00\n          mstore\n          keccak256(0x00, 0x20)\n          swap1\n          0x05\n          mul\n          add\n          0x00\n          swap1\n          swap2\n          swap1\n          swap2\n          swap1\n          swap2\n          pop\n          0x00\n          dup3\n          add\n          mload\n          dup2\n          0x00\n          add\n          swap1\n          dup1\n          mload\n          swap1\n          0x20\n          add\n          swap1\n          tag_19\n          swap3\n          swap2\n          swap1\n          tag_7\n          jump\t// in\n        tag_19:\n          pop\n          0x20\n          dup3\n          add\n          mload\n          dup2\n          0x01\n          add\n          swap1\n          dup1\n          mload\n          swap1\n          0x20\n          add\n          swap1\n          tag_20\n          swap3\n          swap2\n          swap1\n          tag_7\n          jump\t// in\n        tag_20:\n          pop\n          0x40\n          dup3\n          add\n          mload\n          dup2\n          0x02\n          add\n          sstore\n          0x60\n          dup3\n          add\n          mload\n          dup2\n          0x03\n          add\n          sstore\n          0x80\n          dup3\n          add\n          mload\n          dup2\n          0x04\n          add\n          sstore\n          pop\n          pop\n            /* \"evs.sol\":1206:1209  i++ */\n          dup1\n          dup1\n          tag_21\n          swap1\n          tag_22\n          jump\t// in\n        tag_21:\n          swap2\n          pop\n          pop\n            /* \"evs.sol\":1167:1455  for(uint i=0; i< candidateNames.length;i++)... */\n          jump(tag_8)\n        tag_9:\n          pop\n            /* \"evs.sol\":981:1487  constructor (string[] memory candidateNames,string[] memory candidateParty, string memory district, address creator, uint amountofHours) ... */\n          pop\n          pop\n          pop\n          pop\n          pop\n            /* \"evs.sol\":649:2247  contract Ballot ... */\n          jump(tag_23)\n        tag_7:\n          dup3\n          dup1\n          sload\n          tag_24\n          swap1\n          tag_25\n          jump\t// in\n        tag_24:\n          swap1\n          0x00\n          mstore\n          keccak256(0x00, 0x20)\n          swap1\n          0x1f\n          add\n          0x20\n          swap1\n          div\n          dup2\n          add\n          swap3\n          dup3\n          tag_27\n          jumpi\n          0x00\n          dup6\n          sstore\n          jump(tag_26)\n        tag_27:\n          dup3\n          0x1f\n          lt\n          tag_28\n          jumpi\n          dup1\n          mload\n          not(0xff)\n          and\n          dup4\n          dup1\n          add\n          or\n          dup6\n          sstore\n          jump(tag_26)\n        tag_28:\n          dup3\n          dup1\n          add\n          0x01\n          add\n          dup6\n          sstore\n          dup3\n          iszero\n          tag_26\n          jumpi\n          swap2\n          dup3\n          add\n        tag_29:\n          dup3\n          dup2\n          gt\n          iszero\n          tag_30\n          jumpi\n          dup3\n          mload\n          dup3\n          sstore\n          swap2\n          0x20\n          add\n          swap2\n          swap1\n          0x01\n          add\n          swap1\n          jump(tag_29)\n        tag_30:\n        tag_26:\n          pop\n          swap1\n          pop\n          tag_31\n          swap2\n          swap1\n          tag_32\n          jump\t// in\n        tag_31:\n          pop\n          swap1\n          jump\t// out\n        tag_32:\n        tag_33:\n          dup1\n          dup3\n          gt\n          iszero\n          tag_34\n          jumpi\n          0x00\n          dup2\n          0x00\n          swap1\n          sstore\n          pop\n          0x01\n          add\n          jump(tag_33)\n        tag_34:\n          pop\n          swap1\n          jump\t// out\n            /* \"#utility.yul\":7:82   */\n        tag_35:\n            /* \"#utility.yul\":40:46   */\n          0x00\n            /* \"#utility.yul\":73:75   */\n          0x40\n            /* \"#utility.yul\":67:76   */\n          mload\n            /* \"#utility.yul\":57:76   */\n          swap1\n          pop\n            /* \"#utility.yul\":7:82   */\n          swap1\n          jump\t// out\n            /* \"#utility.yul\":88:205   */\n        tag_36:\n            /* \"#utility.yul\":197:198   */\n          0x00\n            /* \"#utility.yul\":194:195   */\n          dup1\n            /* \"#utility.yul\":187:199   */\n          revert\n            /* \"#utility.yul\":211:328   */\n        tag_37:\n            /* \"#utility.yul\":320:321   */\n          0x00\n            /* \"#utility.yul\":317:318   */\n          dup1\n            /* \"#utility.yul\":310:322   */\n          revert\n            /* \"#utility.yul\":334:451   */\n        tag_38:\n            /* \"#utility.yul\":443:444   */\n          0x00\n            /* \"#utility.yul\":440:441   */\n          dup1\n            /* \"#utility.yul\":433:445   */\n          revert\n            /* \"#utility.yul\":457:559   */\n        tag_39:\n            /* \"#utility.yul\":498:504   */\n          0x00\n            /* \"#utility.yul\":549:551   */\n          0x1f\n            /* \"#utility.yul\":545:552   */\n          not\n            /* \"#utility.yul\":540:542   */\n          0x1f\n            /* \"#utility.yul\":533:538   */\n          dup4\n            /* \"#utility.yul\":529:543   */\n          add\n            /* \"#utility.yul\":525:553   */\n          and\n            /* \"#utility.yul\":515:553   */\n          swap1\n          pop\n            /* \"#utility.yul\":457:559   */\n          swap2\n          swap1\n          pop\n          jump\t// out\n            /* \"#utility.yul\":565:745   */\n        tag_40:\n            /* \"#utility.yul\":613:690   */\n          0x4e487b7100000000000000000000000000000000000000000000000000000000\n            /* \"#utility.yul\":610:611   */\n          0x00\n            /* \"#utility.yul\":603:691   */\n          mstore\n            /* \"#utility.yul\":710:714   */\n          0x41\n            /* \"#utility.yul\":707:708   */\n          0x04\n            /* \"#utility.yul\":700:715   */\n          mstore\n            /* \"#utility.yul\":734:738   */\n          0x24\n            /* \"#utility.yul\":731:732   */\n          0x00\n            /* \"#utility.yul\":724:739   */\n          revert\n            /* \"#utility.yul\":751:1032   */\n        tag_41:\n            /* \"#utility.yul\":834:861   */\n          tag_69\n            /* \"#utility.yul\":856:860   */\n          dup3\n            /* \"#utility.yul\":834:861   */\n          tag_39\n          jump\t// in\n        tag_69:\n            /* \"#utility.yul\":826:832   */\n          dup2\n            /* \"#utility.yul\":822:862   */\n          add\n            /* \"#utility.yul\":964:970   */\n          dup2\n            /* \"#utility.yul\":952:962   */\n          dup2\n            /* \"#utility.yul\":949:971   */\n          lt\n            /* \"#utility.yul\":928:946   */\n          0xffffffffffffffff\n            /* \"#utility.yul\":916:926   */\n          dup3\n            /* \"#utility.yul\":913:947   */\n          gt\n            /* \"#utility.yul\":910:972   */\n          or\n            /* \"#utility.yul\":907:995   */\n          iszero\n          tag_70\n          jumpi\n            /* \"#utility.yul\":975:993   */\n          tag_71\n          tag_40\n          jump\t// in\n        tag_71:\n            /* \"#utility.yul\":907:995   */\n        tag_70:\n            /* \"#utility.yul\":1015:1025   */\n          dup1\n            /* \"#utility.yul\":1011:1013   */\n          0x40\n            /* \"#utility.yul\":1004:1026   */\n          mstore\n            /* \"#utility.yul\":794:1032   */\n          pop\n            /* \"#utility.yul\":751:1032   */\n          pop\n          pop\n          jump\t// out\n            /* \"#utility.yul\":1038:1167   */\n        tag_42:\n            /* \"#utility.yul\":1072:1078   */\n          0x00\n            /* \"#utility.yul\":1099:1119   */\n          tag_73\n          tag_35\n          jump\t// in\n        tag_73:\n            /* \"#utility.yul\":1089:1119   */\n          swap1\n          pop\n            /* \"#utility.yul\":1128:1161   */\n          tag_74\n            /* \"#utility.yul\":1156:1160   */\n          dup3\n            /* \"#utility.yul\":1148:1154   */\n          dup3\n            /* \"#utility.yul\":1128:1161   */\n          tag_41\n          jump\t// in\n        tag_74:\n            /* \"#utility.yul\":1038:1167   */\n          swap2\n          swap1\n          pop\n          jump\t// out\n            /* \"#utility.yul\":1173:1494   */\n        tag_43:\n            /* \"#utility.yul\":1260:1264   */\n          0x00\n            /* \"#utility.yul\":1350:1368   */\n          0xffffffffffffffff\n            /* \"#utility.yul\":1342:1348   */\n          dup3\n            /* \"#utility.yul\":1339:1369   */\n          gt\n            /* \"#utility.yul\":1336:1392   */\n          iszero\n          tag_76\n          jumpi\n            /* \"#utility.yul\":1372:1390   */\n          tag_77\n          tag_40\n          jump\t// in\n        tag_77:\n            /* \"#utility.yul\":1336:1392   */\n        tag_76:\n            /* \"#utility.yul\":1422:1426   */\n          0x20\n            /* \"#utility.yul\":1414:1420   */\n          dup3\n            /* \"#utility.yul\":1410:1427   */\n          mul\n            /* \"#utility.yul\":1402:1427   */\n          swap1\n          pop\n            /* \"#utility.yul\":1482:1486   */\n          0x20\n            /* \"#utility.yul\":1476:1480   */\n          dup2\n            /* \"#utility.yul\":1472:1487   */\n          add\n            /* \"#utility.yul\":1464:1487   */\n          swap1\n          pop\n            /* \"#utility.yul\":1173:1494   */\n          swap2\n          swap1\n          pop\n          jump\t// out\n            /* \"#utility.yul\":1500:1617   */\n        tag_44:\n            /* \"#utility.yul\":1609:1610   */\n          0x00\n            /* \"#utility.yul\":1606:1607   */\n          dup1\n            /* \"#utility.yul\":1599:1611   */\n          revert\n            /* \"#utility.yul\":1623:1740   */\n        tag_45:\n            /* \"#utility.yul\":1732:1733   */\n          0x00\n            /* \"#utility.yul\":1729:1730   */\n          dup1\n            /* \"#utility.yul\":1722:1734   */\n          revert\n            /* \"#utility.yul\":1746:2054   */\n        tag_46:\n            /* \"#utility.yul\":1808:1812   */\n          0x00\n            /* \"#utility.yul\":1898:1916   */\n          0xffffffffffffffff\n            /* \"#utility.yul\":1890:1896   */\n          dup3\n            /* \"#utility.yul\":1887:1917   */\n          gt\n            /* \"#utility.yul\":1884:1940   */\n          iszero\n          tag_81\n          jumpi\n            /* \"#utility.yul\":1920:1938   */\n          tag_82\n          tag_40\n          jump\t// in\n        tag_82:\n            /* \"#utility.yul\":1884:1940   */\n        tag_81:\n            /* \"#utility.yul\":1958:1987   */\n          tag_83\n            /* \"#utility.yul\":1980:1986   */\n          dup3\n            /* \"#utility.yul\":1958:1987   */\n          tag_39\n          jump\t// in\n        tag_83:\n            /* \"#utility.yul\":1950:1987   */\n          swap1\n          pop\n            /* \"#utility.yul\":2042:2046   */\n          0x20\n            /* \"#utility.yul\":2036:2040   */\n          dup2\n            /* \"#utility.yul\":2032:2047   */\n          add\n            /* \"#utility.yul\":2024:2047   */\n          swap1\n          pop\n            /* \"#utility.yul\":1746:2054   */\n          swap2\n          swap1\n          pop\n          jump\t// out\n            /* \"#utility.yul\":2060:2367   */\n        tag_47:\n            /* \"#utility.yul\":2128:2129   */\n          0x00\n            /* \"#utility.yul\":2138:2251   */\n        tag_85:\n            /* \"#utility.yul\":2152:2158   */\n          dup4\n            /* \"#utility.yul\":2149:2150   */\n          dup2\n            /* \"#utility.yul\":2146:2159   */\n          lt\n            /* \"#utility.yul\":2138:2251   */\n          iszero\n          tag_87\n          jumpi\n            /* \"#utility.yul\":2237:2238   */\n          dup1\n            /* \"#utility.yul\":2232:2235   */\n          dup3\n            /* \"#utility.yul\":2228:2239   */\n          add\n            /* \"#utility.yul\":2222:2240   */\n          mload\n            /* \"#utility.yul\":2218:2219   */\n          dup2\n            /* \"#utility.yul\":2213:2216   */\n          dup5\n            /* \"#utility.yul\":2209:2220   */\n          add\n            /* \"#utility.yul\":2202:2241   */\n          mstore\n            /* \"#utility.yul\":2174:2176   */\n          0x20\n            /* \"#utility.yul\":2171:2172   */\n          dup2\n            /* \"#utility.yul\":2167:2177   */\n          add\n            /* \"#utility.yul\":2162:2177   */\n          swap1\n          pop\n            /* \"#utility.yul\":2138:2251   */\n          jump(tag_85)\n        tag_87:\n            /* \"#utility.yul\":2269:2275   */\n          dup4\n            /* \"#utility.yul\":2266:2267   */\n          dup2\n            /* \"#utility.yul\":2263:2276   */\n          gt\n            /* \"#utility.yul\":2260:2361   */\n          iszero\n          tag_88\n          jumpi\n            /* \"#utility.yul\":2349:2350   */\n          0x00\n            /* \"#utility.yul\":2340:2346   */\n          dup5\n            /* \"#utility.yul\":2335:2338   */\n          dup5\n            /* \"#utility.yul\":2331:2347   */\n          add\n            /* \"#utility.yul\":2324:2351   */\n          mstore\n            /* \"#utility.yul\":2260:2361   */\n        tag_88:\n            /* \"#utility.yul\":2109:2367   */\n          pop\n            /* \"#utility.yul\":2060:2367   */\n          pop\n          pop\n          pop\n          jump\t// out\n            /* \"#utility.yul\":2373:2794   */\n        tag_48:\n            /* \"#utility.yul\":2462:2467   */\n          0x00\n            /* \"#utility.yul\":2487:2553   */\n          tag_90\n            /* \"#utility.yul\":2503:2552   */\n          tag_91\n            /* \"#utility.yul\":2545:2551   */\n          dup5\n            /* \"#utility.yul\":2503:2552   */\n          tag_46\n          jump\t// in\n        tag_91:\n            /* \"#utility.yul\":2487:2553   */\n          tag_42\n          jump\t// in\n        tag_90:\n            /* \"#utility.yul\":2478:2553   */\n          swap1\n          pop\n            /* \"#utility.yul\":2576:2582   */\n          dup3\n            /* \"#utility.yul\":2569:2574   */\n          dup2\n            /* \"#utility.yul\":2562:2583   */\n          mstore\n            /* \"#utility.yul\":2614:2618   */\n          0x20\n            /* \"#utility.yul\":2607:2612   */\n          dup2\n            /* \"#utility.yul\":2603:2619   */\n          add\n            /* \"#utility.yul\":2652:2655   */\n          dup5\n            /* \"#utility.yul\":2643:2649   */\n          dup5\n            /* \"#utility.yul\":2638:2641   */\n          dup5\n            /* \"#utility.yul\":2634:2650   */\n          add\n            /* \"#utility.yul\":2631:2656   */\n          gt\n            /* \"#utility.yul\":2628:2740   */\n          iszero\n          tag_92\n          jumpi\n            /* \"#utility.yul\":2659:2738   */\n          tag_93\n          tag_45\n          jump\t// in\n        tag_93:\n            /* \"#utility.yul\":2628:2740   */\n        tag_92:\n            /* \"#utility.yul\":2749:2788   */\n          tag_94\n            /* \"#utility.yul\":2781:2787   */\n          dup5\n            /* \"#utility.yul\":2776:2779   */\n          dup3\n            /* \"#utility.yul\":2771:2774   */\n          dup6\n            /* \"#utility.yul\":2749:2788   */\n          tag_47\n          jump\t// in\n        tag_94:\n            /* \"#utility.yul\":2468:2794   */\n          pop\n            /* \"#utility.yul\":2373:2794   */\n          swap4\n          swap3\n          pop\n          pop\n          pop\n          jump\t// out\n            /* \"#utility.yul\":2814:3169   */\n        tag_49:\n            /* \"#utility.yul\":2881:2886   */\n          0x00\n            /* \"#utility.yul\":2930:2933   */\n          dup3\n            /* \"#utility.yul\":2923:2927   */\n          0x1f\n            /* \"#utility.yul\":2915:2921   */\n          dup4\n            /* \"#utility.yul\":2911:2928   */\n          add\n            /* \"#utility.yul\":2907:2934   */\n          slt\n            /* \"#utility.yul\":2897:3019   */\n          tag_96\n          jumpi\n            /* \"#utility.yul\":2938:3017   */\n          tag_97\n          tag_38\n          jump\t// in\n        tag_97:\n            /* \"#utility.yul\":2897:3019   */\n        tag_96:\n            /* \"#utility.yul\":3048:3054   */\n          dup2\n            /* \"#utility.yul\":3042:3055   */\n          mload\n            /* \"#utility.yul\":3073:3163   */\n          tag_98\n            /* \"#utility.yul\":3159:3162   */\n          dup5\n            /* \"#utility.yul\":3151:3157   */\n          dup3\n            /* \"#utility.yul\":3144:3148   */\n          0x20\n            /* \"#utility.yul\":3136:3142   */\n          dup7\n            /* \"#utility.yul\":3132:3149   */\n          add\n            /* \"#utility.yul\":3073:3163   */\n          tag_48\n          jump\t// in\n        tag_98:\n            /* \"#utility.yul\":3064:3163   */\n          swap2\n          pop\n            /* \"#utility.yul\":2887:3169   */\n          pop\n            /* \"#utility.yul\":2814:3169   */\n          swap3\n          swap2\n          pop\n          pop\n          jump\t// out\n            /* \"#utility.yul\":3191:4151   */\n        tag_50:\n            /* \"#utility.yul\":3308:3313   */\n          0x00\n            /* \"#utility.yul\":3333:3424   */\n          tag_100\n            /* \"#utility.yul\":3349:3423   */\n          tag_101\n            /* \"#utility.yul\":3416:3422   */\n          dup5\n            /* \"#utility.yul\":3349:3423   */\n          tag_43\n          jump\t// in\n        tag_101:\n            /* \"#utility.yul\":3333:3424   */\n          tag_42\n          jump\t// in\n        tag_100:\n            /* \"#utility.yul\":3324:3424   */\n          swap1\n          pop\n            /* \"#utility.yul\":3444:3449   */\n          dup1\n            /* \"#utility.yul\":3473:3479   */\n          dup4\n            /* \"#utility.yul\":3466:3471   */\n          dup3\n            /* \"#utility.yul\":3459:3480   */\n          mstore\n            /* \"#utility.yul\":3507:3511   */\n          0x20\n            /* \"#utility.yul\":3500:3505   */\n          dup3\n            /* \"#utility.yul\":3496:3512   */\n          add\n            /* \"#utility.yul\":3489:3512   */\n          swap1\n          pop\n            /* \"#utility.yul\":3560:3564   */\n          0x20\n            /* \"#utility.yul\":3552:3558   */\n          dup5\n            /* \"#utility.yul\":3548:3565   */\n          mul\n            /* \"#utility.yul\":3540:3546   */\n          dup4\n            /* \"#utility.yul\":3536:3566   */\n          add\n            /* \"#utility.yul\":3589:3592   */\n          dup6\n            /* \"#utility.yul\":3581:3587   */\n          dup2\n            /* \"#utility.yul\":3578:3593   */\n          gt\n            /* \"#utility.yul\":3575:3697   */\n          iszero\n          tag_102\n          jumpi\n            /* \"#utility.yul\":3608:3687   */\n          tag_103\n          tag_44\n          jump\t// in\n        tag_103:\n            /* \"#utility.yul\":3575:3697   */\n        tag_102:\n            /* \"#utility.yul\":3723:3729   */\n          dup4\n            /* \"#utility.yul\":3706:4145   */\n        tag_104:\n            /* \"#utility.yul\":3740:3746   */\n          dup2\n            /* \"#utility.yul\":3735:3738   */\n          dup2\n            /* \"#utility.yul\":3732:3747   */\n          lt\n            /* \"#utility.yul\":3706:4145   */\n          iszero\n          tag_106\n          jumpi\n            /* \"#utility.yul\":3822:3825   */\n          dup1\n            /* \"#utility.yul\":3816:3826   */\n          mload\n            /* \"#utility.yul\":3858:3876   */\n          0xffffffffffffffff\n            /* \"#utility.yul\":3845:3856   */\n          dup2\n            /* \"#utility.yul\":3842:3877   */\n          gt\n            /* \"#utility.yul\":3839:3961   */\n          iszero\n          tag_107\n          jumpi\n            /* \"#utility.yul\":3880:3959   */\n          tag_108\n          tag_38\n          jump\t// in\n        tag_108:\n            /* \"#utility.yul\":3839:3961   */\n        tag_107:\n            /* \"#utility.yul\":4004:4015   */\n          dup1\n            /* \"#utility.yul\":3996:4002   */\n          dup7\n            /* \"#utility.yul\":3992:4016   */\n          add\n            /* \"#utility.yul\":4042:4100   */\n          tag_109\n            /* \"#utility.yul\":4096:4099   */\n          dup10\n            /* \"#utility.yul\":4084:4094   */\n          dup3\n            /* \"#utility.yul\":4042:4100   */\n          tag_49\n          jump\t// in\n        tag_109:\n            /* \"#utility.yul\":4037:4040   */\n          dup6\n            /* \"#utility.yul\":4030:4101   */\n          mstore\n            /* \"#utility.yul\":4130:4134   */\n          0x20\n            /* \"#utility.yul\":4125:4128   */\n          dup6\n            /* \"#utility.yul\":4121:4135   */\n          add\n            /* \"#utility.yul\":4114:4135   */\n          swap5\n          pop\n            /* \"#utility.yul\":3782:4145   */\n          pop\n          pop\n            /* \"#utility.yul\":3766:3770   */\n          0x20\n            /* \"#utility.yul\":3761:3764   */\n          dup2\n            /* \"#utility.yul\":3757:3771   */\n          add\n            /* \"#utility.yul\":3750:3771   */\n          swap1\n          pop\n            /* \"#utility.yul\":3706:4145   */\n          jump(tag_104)\n        tag_106:\n            /* \"#utility.yul\":3710:3731   */\n          pop\n            /* \"#utility.yul\":3314:4151   */\n          pop\n          pop\n            /* \"#utility.yul\":3191:4151   */\n          swap4\n          swap3\n          pop\n          pop\n          pop\n          jump\t// out\n            /* \"#utility.yul\":4173:4578   */\n        tag_51:\n            /* \"#utility.yul\":4265:4270   */\n          0x00\n            /* \"#utility.yul\":4314:4317   */\n          dup3\n            /* \"#utility.yul\":4307:4311   */\n          0x1f\n            /* \"#utility.yul\":4299:4305   */\n          dup4\n            /* \"#utility.yul\":4295:4312   */\n          add\n            /* \"#utility.yul\":4291:4318   */\n          slt\n            /* \"#utility.yul\":4281:4403   */\n          tag_111\n          jumpi\n            /* \"#utility.yul\":4322:4401   */\n          tag_112\n          tag_38\n          jump\t// in\n        tag_112:\n            /* \"#utility.yul\":4281:4403   */\n        tag_111:\n            /* \"#utility.yul\":4432:4438   */\n          dup2\n            /* \"#utility.yul\":4426:4439   */\n          mload\n            /* \"#utility.yul\":4457:4572   */\n          tag_113\n            /* \"#utility.yul\":4568:4571   */\n          dup5\n            /* \"#utility.yul\":4560:4566   */\n          dup3\n            /* \"#utility.yul\":4553:4557   */\n          0x20\n            /* \"#utility.yul\":4545:4551   */\n          dup7\n            /* \"#utility.yul\":4541:4558   */\n          add\n            /* \"#utility.yul\":4457:4572   */\n          tag_50\n          jump\t// in\n        tag_113:\n            /* \"#utility.yul\":4448:4572   */\n          swap2\n          pop\n            /* \"#utility.yul\":4271:4578   */\n          pop\n            /* \"#utility.yul\":4173:4578   */\n          swap3\n          swap2\n          pop\n          pop\n          jump\t// out\n            /* \"#utility.yul\":4584:4710   */\n        tag_52:\n            /* \"#utility.yul\":4621:4628   */\n          0x00\n            /* \"#utility.yul\":4661:4703   */\n          0xffffffffffffffffffffffffffffffffffffffff\n            /* \"#utility.yul\":4654:4659   */\n          dup3\n            /* \"#utility.yul\":4650:4704   */\n          and\n            /* \"#utility.yul\":4639:4704   */\n          swap1\n          pop\n            /* \"#utility.yul\":4584:4710   */\n          swap2\n          swap1\n          pop\n          jump\t// out\n            /* \"#utility.yul\":4716:4812   */\n        tag_53:\n            /* \"#utility.yul\":4753:4760   */\n          0x00\n            /* \"#utility.yul\":4782:4806   */\n          tag_116\n            /* \"#utility.yul\":4800:4805   */\n          dup3\n            /* \"#utility.yul\":4782:4806   */\n          tag_52\n          jump\t// in\n        tag_116:\n            /* \"#utility.yul\":4771:4806   */\n          swap1\n          pop\n            /* \"#utility.yul\":4716:4812   */\n          swap2\n          swap1\n          pop\n          jump\t// out\n            /* \"#utility.yul\":4818:4940   */\n        tag_54:\n            /* \"#utility.yul\":4891:4915   */\n          tag_118\n            /* \"#utility.yul\":4909:4914   */\n          dup2\n            /* \"#utility.yul\":4891:4915   */\n          tag_53\n          jump\t// in\n        tag_118:\n            /* \"#utility.yul\":4884:4889   */\n          dup2\n            /* \"#utility.yul\":4881:4916   */\n          eq\n            /* \"#utility.yul\":4871:4934   */\n          tag_119\n          jumpi\n            /* \"#utility.yul\":4930:4931   */\n          0x00\n            /* \"#utility.yul\":4927:4928   */\n          dup1\n            /* \"#utility.yul\":4920:4932   */\n          revert\n            /* \"#utility.yul\":4871:4934   */\n        tag_119:\n            /* \"#utility.yul\":4818:4940   */\n          pop\n          jump\t// out\n            /* \"#utility.yul\":4946:5089   */\n        tag_55:\n            /* \"#utility.yul\":5003:5008   */\n          0x00\n            /* \"#utility.yul\":5034:5040   */\n          dup2\n            /* \"#utility.yul\":5028:5041   */\n          mload\n            /* \"#utility.yul\":5019:5041   */\n          swap1\n          pop\n            /* \"#utility.yul\":5050:5083   */\n          tag_121\n            /* \"#utility.yul\":5077:5082   */\n          dup2\n            /* \"#utility.yul\":5050:5083   */\n          tag_54\n          jump\t// in\n        tag_121:\n            /* \"#utility.yul\":4946:5089   */\n          swap3\n          swap2\n          pop\n          pop\n          jump\t// out\n            /* \"#utility.yul\":5095:5172   */\n        tag_56:\n            /* \"#utility.yul\":5132:5139   */\n          0x00\n            /* \"#utility.yul\":5161:5166   */\n          dup2\n            /* \"#utility.yul\":5150:5166   */\n          swap1\n          pop\n            /* \"#utility.yul\":5095:5172   */\n          swap2\n          swap1\n          pop\n          jump\t// out\n            /* \"#utility.yul\":5178:5300   */\n        tag_57:\n            /* \"#utility.yul\":5251:5275   */\n          tag_124\n            /* \"#utility.yul\":5269:5274   */\n          dup2\n            /* \"#utility.yul\":5251:5275   */\n          tag_56\n          jump\t// in\n        tag_124:\n            /* \"#utility.yul\":5244:5249   */\n          dup2\n            /* \"#utility.yul\":5241:5276   */\n          eq\n            /* \"#utility.yul\":5231:5294   */\n          tag_125\n          jumpi\n            /* \"#utility.yul\":5290:5291   */\n          0x00\n            /* \"#utility.yul\":5287:5288   */\n          dup1\n            /* \"#utility.yul\":5280:5292   */\n          revert\n            /* \"#utility.yul\":5231:5294   */\n        tag_125:\n            /* \"#utility.yul\":5178:5300   */\n          pop\n          jump\t// out\n            /* \"#utility.yul\":5306:5449   */\n        tag_58:\n            /* \"#utility.yul\":5363:5368   */\n          0x00\n            /* \"#utility.yul\":5394:5400   */\n          dup2\n            /* \"#utility.yul\":5388:5401   */\n          mload\n            /* \"#utility.yul\":5379:5401   */\n          swap1\n          pop\n            /* \"#utility.yul\":5410:5443   */\n          tag_127\n            /* \"#utility.yul\":5437:5442   */\n          dup2\n            /* \"#utility.yul\":5410:5443   */\n          tag_57\n          jump\t// in\n        tag_127:\n            /* \"#utility.yul\":5306:5449   */\n          swap3\n          swap2\n          pop\n          pop\n          jump\t// out\n            /* \"#utility.yul\":5455:7051   */\n        tag_3:\n            /* \"#utility.yul\":5641:5647   */\n          0x00\n            /* \"#utility.yul\":5649:5655   */\n          dup1\n            /* \"#utility.yul\":5657:5663   */\n          0x00\n            /* \"#utility.yul\":5665:5671   */\n          dup1\n            /* \"#utility.yul\":5673:5679   */\n          0x00\n            /* \"#utility.yul\":5722:5725   */\n          0xa0\n            /* \"#utility.yul\":5710:5719   */\n          dup7\n            /* \"#utility.yul\":5701:5708   */\n          dup9\n            /* \"#utility.yul\":5697:5720   */\n          sub\n            /* \"#utility.yul\":5693:5726   */\n          slt\n            /* \"#utility.yul\":5690:5810   */\n          iszero\n          tag_129\n          jumpi\n            /* \"#utility.yul\":5729:5808   */\n          tag_130\n          tag_36\n          jump\t// in\n        tag_130:\n            /* \"#utility.yul\":5690:5810   */\n        tag_129:\n            /* \"#utility.yul\":5870:5871   */\n          0x00\n            /* \"#utility.yul\":5859:5868   */\n          dup7\n            /* \"#utility.yul\":5855:5872   */\n          add\n            /* \"#utility.yul\":5849:5873   */\n          mload\n            /* \"#utility.yul\":5900:5918   */\n          0xffffffffffffffff\n            /* \"#utility.yul\":5892:5898   */\n          dup2\n            /* \"#utility.yul\":5889:5919   */\n          gt\n            /* \"#utility.yul\":5886:6003   */\n          iszero\n          tag_131\n          jumpi\n            /* \"#utility.yul\":5922:6001   */\n          tag_132\n          tag_37\n          jump\t// in\n        tag_132:\n            /* \"#utility.yul\":5886:6003   */\n        tag_131:\n            /* \"#utility.yul\":6027:6126   */\n          tag_133\n            /* \"#utility.yul\":6118:6125   */\n          dup9\n            /* \"#utility.yul\":6109:6115   */\n          dup3\n            /* \"#utility.yul\":6098:6107   */\n          dup10\n            /* \"#utility.yul\":6094:6116   */\n          add\n            /* \"#utility.yul\":6027:6126   */\n          tag_51\n          jump\t// in\n        tag_133:\n            /* \"#utility.yul\":6017:6126   */\n          swap6\n          pop\n            /* \"#utility.yul\":5820:6136   */\n          pop\n            /* \"#utility.yul\":6196:6198   */\n          0x20\n            /* \"#utility.yul\":6185:6194   */\n          dup7\n            /* \"#utility.yul\":6181:6199   */\n          add\n            /* \"#utility.yul\":6175:6200   */\n          mload\n            /* \"#utility.yul\":6227:6245   */\n          0xffffffffffffffff\n            /* \"#utility.yul\":6219:6225   */\n          dup2\n            /* \"#utility.yul\":6216:6246   */\n          gt\n            /* \"#utility.yul\":6213:6330   */\n          iszero\n          tag_134\n          jumpi\n            /* \"#utility.yul\":6249:6328   */\n          tag_135\n          tag_37\n          jump\t// in\n        tag_135:\n            /* \"#utility.yul\":6213:6330   */\n        tag_134:\n            /* \"#utility.yul\":6354:6453   */\n          tag_136\n            /* \"#utility.yul\":6445:6452   */\n          dup9\n            /* \"#utility.yul\":6436:6442   */\n          dup3\n            /* \"#utility.yul\":6425:6434   */\n          dup10\n            /* \"#utility.yul\":6421:6443   */\n          add\n            /* \"#utility.yul\":6354:6453   */\n          tag_51\n          jump\t// in\n        tag_136:\n            /* \"#utility.yul\":6344:6453   */\n          swap5\n          pop\n            /* \"#utility.yul\":6146:6463   */\n          pop\n            /* \"#utility.yul\":6523:6525   */\n          0x40\n            /* \"#utility.yul\":6512:6521   */\n          dup7\n            /* \"#utility.yul\":6508:6526   */\n          add\n            /* \"#utility.yul\":6502:6527   */\n          mload\n            /* \"#utility.yul\":6554:6572   */\n          0xffffffffffffffff\n            /* \"#utility.yul\":6546:6552   */\n          dup2\n            /* \"#utility.yul\":6543:6573   */\n          gt\n            /* \"#utility.yul\":6540:6657   */\n          iszero\n          tag_137\n          jumpi\n            /* \"#utility.yul\":6576:6655   */\n          tag_138\n          tag_37\n          jump\t// in\n        tag_138:\n            /* \"#utility.yul\":6540:6657   */\n        tag_137:\n            /* \"#utility.yul\":6681:6755   */\n          tag_139\n            /* \"#utility.yul\":6747:6754   */\n          dup9\n            /* \"#utility.yul\":6738:6744   */\n          dup3\n            /* \"#utility.yul\":6727:6736   */\n          dup10\n            /* \"#utility.yul\":6723:6745   */\n          add\n            /* \"#utility.yul\":6681:6755   */\n          tag_49\n          jump\t// in\n        tag_139:\n            /* \"#utility.yul\":6671:6755   */\n          swap4\n          pop\n            /* \"#utility.yul\":6473:6765   */\n          pop\n            /* \"#utility.yul\":6804:6806   */\n          0x60\n            /* \"#utility.yul\":6830:6894   */\n          tag_140\n            /* \"#utility.yul\":6886:6893   */\n          dup9\n            /* \"#utility.yul\":6877:6883   */\n          dup3\n            /* \"#utility.yul\":6866:6875   */\n          dup10\n            /* \"#utility.yul\":6862:6884   */\n          add\n            /* \"#utility.yul\":6830:6894   */\n          tag_55\n          jump\t// in\n        tag_140:\n            /* \"#utility.yul\":6820:6894   */\n          swap3\n          pop\n            /* \"#utility.yul\":6775:6904   */\n          pop\n            /* \"#utility.yul\":6943:6946   */\n          0x80\n            /* \"#utility.yul\":6970:7034   */\n          tag_141\n            /* \"#utility.yul\":7026:7033   */\n          dup9\n            /* \"#utility.yul\":7017:7023   */\n          dup3\n            /* \"#utility.yul\":7006:7015   */\n          dup10\n            /* \"#utility.yul\":7002:7024   */\n          add\n            /* \"#utility.yul\":6970:7034   */\n          tag_58\n          jump\t// in\n        tag_141:\n            /* \"#utility.yul\":6960:7034   */\n          swap2\n          pop\n            /* \"#utility.yul\":6914:7044   */\n          pop\n            /* \"#utility.yul\":5455:7051   */\n          swap3\n          swap6\n          pop\n          swap3\n          swap6\n          swap1\n          swap4\n          pop\n          jump\t// out\n            /* \"#utility.yul\":7057:7237   */\n        tag_13:\n            /* \"#utility.yul\":7105:7182   */\n          0x4e487b7100000000000000000000000000000000000000000000000000000000\n            /* \"#utility.yul\":7102:7103   */\n          0x00\n            /* \"#utility.yul\":7095:7183   */\n          mstore\n            /* \"#utility.yul\":7202:7206   */\n          0x32\n            /* \"#utility.yul\":7199:7200   */\n          0x04\n            /* \"#utility.yul\":7192:7207   */\n          mstore\n            /* \"#utility.yul\":7226:7230   */\n          0x24\n            /* \"#utility.yul\":7223:7224   */\n          0x00\n            /* \"#utility.yul\":7216:7231   */\n          revert\n            /* \"#utility.yul\":7243:7423   */\n        tag_59:\n            /* \"#utility.yul\":7291:7368   */\n          0x4e487b7100000000000000000000000000000000000000000000000000000000\n            /* \"#utility.yul\":7288:7289   */\n          0x00\n            /* \"#utility.yul\":7281:7369   */\n          mstore\n            /* \"#utility.yul\":7388:7392   */\n          0x11\n            /* \"#utility.yul\":7385:7386   */\n          0x04\n            /* \"#utility.yul\":7378:7393   */\n          mstore\n            /* \"#utility.yul\":7412:7416   */\n          0x24\n            /* \"#utility.yul\":7409:7410   */\n          0x00\n            /* \"#utility.yul\":7402:7417   */\n          revert\n            /* \"#utility.yul\":7429:7734   */\n        tag_17:\n            /* \"#utility.yul\":7469:7472   */\n          0x00\n            /* \"#utility.yul\":7488:7508   */\n          tag_145\n            /* \"#utility.yul\":7506:7507   */\n          dup3\n            /* \"#utility.yul\":7488:7508   */\n          tag_56\n          jump\t// in\n        tag_145:\n            /* \"#utility.yul\":7483:7508   */\n          swap2\n          pop\n            /* \"#utility.yul\":7522:7542   */\n          tag_146\n            /* \"#utility.yul\":7540:7541   */\n          dup4\n            /* \"#utility.yul\":7522:7542   */\n          tag_56\n          jump\t// in\n        tag_146:\n            /* \"#utility.yul\":7517:7542   */\n          swap3\n          pop\n            /* \"#utility.yul\":7676:7677   */\n          dup3\n            /* \"#utility.yul\":7608:7674   */\n          0xffffffffffffffffffffffffffffffffffffffffffffffffffffffffffffffff\n            /* \"#utility.yul\":7604:7678   */\n          sub\n            /* \"#utility.yul\":7601:7602   */\n          dup3\n            /* \"#utility.yul\":7598:7679   */\n          gt\n            /* \"#utility.yul\":7595:7702   */\n          iszero\n          tag_147\n          jumpi\n            /* \"#utility.yul\":7682:7700   */\n          tag_148\n          tag_59\n          jump\t// in\n        tag_148:\n            /* \"#utility.yul\":7595:7702   */\n        tag_147:\n            /* \"#utility.yul\":7726:7727   */\n          dup3\n            /* \"#utility.yul\":7723:7724   */\n          dup3\n            /* \"#utility.yul\":7719:7728   */\n          add\n            /* \"#utility.yul\":7712:7728   */\n          swap1\n          pop\n            /* \"#utility.yul\":7429:7734   */\n          swap3\n          swap2\n          pop\n          pop\n          jump\t// out\n            /* \"#utility.yul\":7740:7973   */\n        tag_22:\n            /* \"#utility.yul\":7779:7782   */\n          0x00\n            /* \"#utility.yul\":7802:7826   */\n          tag_150\n            /* \"#utility.yul\":7820:7825   */\n          dup3\n            /* \"#utility.yul\":7802:7826   */\n          tag_56\n          jump\t// in\n        tag_150:\n            /* \"#utility.yul\":7793:7826   */\n          swap2\n          pop\n            /* \"#utility.yul\":7848:7914   */\n          0xffffffffffffffffffffffffffffffffffffffffffffffffffffffffffffffff\n            /* \"#utility.yul\":7841:7846   */\n          dup3\n            /* \"#utility.yul\":7838:7915   */\n          eq\n            /* \"#utility.yul\":7835:7938   */\n          iszero\n          tag_151\n          jumpi\n            /* \"#utility.yul\":7918:7936   */\n          tag_152\n          tag_59\n          jump\t// in\n        tag_152:\n            /* \"#utility.yul\":7835:7938   */\n        tag_151:\n            /* \"#utility.yul\":7965:7966   */\n          0x01\n            /* \"#utility.yul\":7958:7963   */\n          dup3\n            /* \"#utility.yul\":7954:7967   */\n          add\n            /* \"#utility.yul\":7947:7967   */\n          swap1\n          pop\n            /* \"#utility.yul\":7740:7973   */\n          swap2\n          swap1\n          pop\n          jump\t// out\n            /* \"#utility.yul\":7979:8159   */\n        tag_60:\n            /* \"#utility.yul\":8027:8104   */\n          0x4e487b7100000000000000000000000000000000000000000000000000000000\n            /* \"#utility.yul\":8024:8025   */\n          0x00\n            /* \"#utility.yul\":8017:8105   */\n          mstore\n            /* \"#utility.yul\":8124:8128   */\n          0x22\n            /* \"#utility.yul\":8121:8122   */\n          0x04\n            /* \"#utility.yul\":8114:8129   */\n          mstore\n            /* \"#utility.yul\":8148:8152   */\n          0x24\n            /* \"#utility.yul\":8145:8146   */\n          0x00\n            /* \"#utility.yul\":8138:8153   */\n          revert\n            /* \"#utility.yul\":8165:8485   */\n        tag_25:\n            /* \"#utility.yul\":8209:8215   */\n          0x00\n            /* \"#utility.yul\":8246:8247   */\n          0x02\n            /* \"#utility.yul\":8240:8244   */\n          dup3\n            /* \"#utility.yul\":8236:8248   */\n          div\n            /* \"#utility.yul\":8226:8248   */\n          swap1\n          pop\n            /* \"#utility.yul\":8293:8294   */\n          0x01\n            /* \"#utility.yul\":8287:8291   */\n          dup3\n            /* \"#utility.yul\":8283:8295   */\n          and\n            /* \"#utility.yul\":8314:8332   */\n          dup1\n            /* \"#utility.yul\":8304:8385   */\n          tag_155\n          jumpi\n            /* \"#utility.yul\":8370:8374   */\n          0x7f\n            /* \"#utility.yul\":8362:8368   */\n          dup3\n            /* \"#utility.yul\":8358:8375   */\n          and\n            /* \"#utility.yul\":8348:8375   */\n          swap2\n          pop\n            /* \"#utility.yul\":8304:8385   */\n        tag_155:\n            /* \"#utility.yul\":8432:8434   */\n          0x20\n            /* \"#utility.yul\":8424:8430   */\n          dup3\n            /* \"#utility.yul\":8421:8435   */\n          lt\n            /* \"#utility.yul\":8401:8419   */\n          dup2\n            /* \"#utility.yul\":8398:8436   */\n          eq\n            /* \"#utility.yul\":8395:8479   */\n          iszero\n          tag_156\n          jumpi\n            /* \"#utility.yul\":8451:8469   */\n          tag_157\n          tag_60\n          jump\t// in\n        tag_157:\n            /* \"#utility.yul\":8395:8479   */\n        tag_156:\n            /* \"#utility.yul\":8216:8485   */\n          pop\n            /* \"#utility.yul\":8165:8485   */\n          swap2\n          swap1\n          pop\n          jump\t// out\n            /* \"evs.sol\":649:2247  contract Ballot ... */\n        tag_23:\n          dataSize(sub_0)\n          dup1\n          dataOffset(sub_0)\n          0x00\n          codecopy\n          0x00\n          return\n        stop\n\n        sub_0: assembly {\n                /* \"evs.sol\":649:2247  contract Ballot ... */\n              mstore(0x40, 0x80)\n              callvalue\n              dup1\n              iszero\n              tag_1\n              jumpi\n              0x00\n              dup1\n              revert\n            tag_1:\n              pop\n              jumpi(tag_2, lt(calldatasize, 0x04))\n              shr(0xe0, calldataload(0x00))\n              dup1\n              0x716c424e\n              gt\n              tag_11\n              jumpi\n              dup1\n              0x716c424e\n              eq\n              tag_7\n              jumpi\n              dup1\n              0xa3ec138d\n              eq\n              tag_8\n              jumpi\n              dup1\n              0xb2c2f2e8\n              eq\n              tag_9\n              jumpi\n              dup1\n              0xe13804a7\n              eq\n              tag_10\n              jumpi\n              jump(tag_2)\n            tag_11:\n              dup1\n              0x0121b93f\n              eq\n              tag_3\n              jumpi\n              dup1\n              0x3477ee2e\n              eq\n              tag_4\n              jumpi\n              dup1\n              0x456645a7\n              eq\n              tag_5\n              jumpi\n              dup1\n              0x481c6a75\n              eq\n              tag_6\n              jumpi\n            tag_2:\n              0x00\n              dup1\n              revert\n                /* \"evs.sol\":1488:1714  function vote(uint index) public... */\n            tag_3:\n              tag_12\n              0x04\n              dup1\n              calldatasize\n              sub\n              dup2\n              add\n              swap1\n              tag_13\n              swap2\n              swap1\n              tag_14\n              jump\t// in\n            tag_13:\n              tag_15\n              jump\t// in\n            tag_12:\n              stop\n                /* \"evs.sol\":794:823  candidate[] public candidates */\n            tag_4:\n              tag_16\n              0x04\n              dup1\n              calldatasize\n              sub\n              dup2\n              add\n              swap1\n              tag_17\n              swap2\n              swap1\n              tag_14\n              jump\t// in\n            tag_17:\n              tag_18\n              jump\t// in\n            tag_16:\n              mload(0x40)\n              tag_19\n              swap6\n              swap5\n              swap4\n              swap3\n              swap2\n              swap1\n              tag_20\n              jump\t// in\n            tag_19:\n              mload(0x40)\n              dup1\n              swap2\n              sub\n              swap1\n              return\n                /* \"evs.sol\":1892:2069  function getCandidateParty(uint index) public view returns (string memory)... */\n            tag_5:\n              tag_21\n              0x04\n              dup1\n              calldatasize\n              sub\n              dup2\n              add\n              swap1\n              tag_22\n              swap2\n              swap1\n              tag_14\n              jump\t// in\n            tag_22:\n              tag_23\n              jump\t// in\n            tag_21:\n              mload(0x40)\n              tag_24\n              swap2\n              swap1\n              tag_25\n              jump\t// in\n            tag_24:\n              mload(0x40)\n              dup1\n              swap2\n              sub\n              swap1\n              return\n                /* \"evs.sol\":825:847  address public manager */\n            tag_6:\n              tag_26\n              tag_27\n              jump\t// in\n            tag_26:\n              mload(0x40)\n              tag_28\n              swap2\n              swap1\n              tag_29\n              jump\t// in\n            tag_28:\n              mload(0x40)\n              dup1\n              swap2\n              sub\n              swap1\n              return\n                /* \"evs.sol\":849:877  string public votingDistrict */\n            tag_7:\n              tag_30\n              tag_31\n              jump\t// in\n            tag_30:\n              mload(0x40)\n              tag_32\n              swap2\n              swap1\n              tag_25\n              jump\t// in\n            tag_32:\n              mload(0x40)\n              dup1\n              swap2\n              sub\n              swap1\n              return\n                /* \"evs.sol\":879:918  mapping (address => bool) public voters */\n            tag_8:\n              tag_33\n              0x04\n              dup1\n              calldatasize\n              sub\n              dup2\n              add\n              swap1\n              tag_34\n              swap2\n              swap1\n              tag_35\n              jump\t// in\n            tag_34:\n              tag_36\n              jump\t// in\n            tag_33:\n              mload(0x40)\n              tag_37\n              swap2\n              swap1\n              tag_38\n              jump\t// in\n            tag_37:\n              mload(0x40)\n              dup1\n              swap2\n              sub\n              swap1\n              return\n                /* \"evs.sol\":2071:2244  function getVoteCount(uint index)... */\n            tag_9:\n              tag_39\n              0x04\n              dup1\n              calldatasize\n              sub\n              dup2\n              add\n              swap1\n              tag_40\n              swap2\n              swap1\n              tag_14\n              jump\t// in\n            tag_40:\n              tag_41\n              jump\t// in\n            tag_39:\n              mload(0x40)\n              tag_42\n              swap2\n              swap1\n              tag_43\n              jump\t// in\n            tag_42:\n              mload(0x40)\n              dup1\n              swap2\n              sub\n              swap1\n              return\n                /* \"evs.sol\":1716:1891  function getCandidateName(uint index) public view returns (string memory)... */\n            tag_10:\n              tag_44\n              0x04\n              dup1\n              calldatasize\n              sub\n              dup2\n              add\n              swap1\n              tag_45\n              swap2\n              swap1\n              tag_14\n              jump\t// in\n            tag_45:\n              tag_46\n              jump\t// in\n            tag_44:\n              mload(0x40)\n              tag_47\n              swap2\n              swap1\n              tag_25\n              jump\t// in\n            tag_47:\n              mload(0x40)\n              dup1\n              swap2\n              sub\n              swap1\n              return\n                /* \"evs.sol\":1488:1714  function vote(uint index) public... */\n            tag_15:\n                /* \"evs.sol\":1541:1547  voters */\n              0x03\n                /* \"evs.sol\":1541:1559  voters[msg.sender] */\n              0x00\n                /* \"evs.sol\":1548:1558  msg.sender */\n              caller\n                /* \"evs.sol\":1541:1559  voters[msg.sender] */\n              0xffffffffffffffffffffffffffffffffffffffff\n              and\n              0xffffffffffffffffffffffffffffffffffffffff\n              and\n              dup2\n              mstore\n              0x20\n              add\n              swap1\n              dup2\n              mstore\n              0x20\n              add\n              0x00\n              keccak256\n              0x00\n              swap1\n              sload\n              swap1\n              0x0100\n              exp\n              swap1\n              div\n              0xff\n              and\n                /* \"evs.sol\":1539:1559  ! voters[msg.sender] */\n              iszero\n                /* \"evs.sol\":1531:1560  require(! voters[msg.sender]) */\n              tag_49\n              jumpi\n              0x00\n              dup1\n              revert\n            tag_49:\n                /* \"evs.sol\":1675:1676  1 */\n              0x01\n                /* \"evs.sol\":1645:1655  candidates */\n              0x00\n                /* \"evs.sol\":1656:1661  index */\n              dup3\n                /* \"evs.sol\":1645:1662  candidates[index] */\n              dup2\n              sload\n              dup2\n              lt\n              tag_50\n              jumpi\n              tag_51\n              tag_52\n              jump\t// in\n            tag_51:\n            tag_50:\n              swap1\n              0x00\n              mstore\n              keccak256(0x00, 0x20)\n              swap1\n              0x05\n              mul\n              add\n                /* \"evs.sol\":1645:1672  candidates[index].voteCount */\n              0x02\n              add\n              0x00\n                /* \"evs.sol\":1645:1676  candidates[index].voteCount +=1 */\n              dup3\n              dup3\n              sload\n              tag_54\n              swap2\n              swap1\n              tag_55\n              jump\t// in\n            tag_54:\n              swap3\n              pop\n              pop\n              dup2\n              swap1\n              sstore\n              pop\n                /* \"evs.sol\":1703:1707  true */\n              0x01\n                /* \"evs.sol\":1682:1688  voters */\n              0x03\n                /* \"evs.sol\":1682:1700  voters[msg.sender] */\n              0x00\n                /* \"evs.sol\":1689:1699  msg.sender */\n              caller\n                /* \"evs.sol\":1682:1700  voters[msg.sender] */\n              0xffffffffffffffffffffffffffffffffffffffff\n              and\n              0xffffffffffffffffffffffffffffffffffffffff\n              and\n              dup2\n              mstore\n              0x20\n              add\n              swap1\n              dup2\n              mstore\n              0x20\n              add\n              0x00\n              keccak256\n              0x00\n                /* \"evs.sol\":1682:1707  voters[msg.sender] = true */\n              0x0100\n              exp\n              dup2\n              sload\n              dup2\n              0xff\n              mul\n              not\n              and\n              swap1\n              dup4\n              iszero\n              iszero\n              mul\n              or\n              swap1\n              sstore\n              pop\n                /* \"evs.sol\":1488:1714  function vote(uint index) public... */\n              pop\n              jump\t// out\n                /* \"evs.sol\":794:823  candidate[] public candidates */\n            tag_18:\n              0x00\n              dup2\n              dup2\n              sload\n              dup2\n              lt\n              tag_56\n              jumpi\n              0x00\n              dup1\n              revert\n            tag_56:\n              swap1\n              0x00\n              mstore\n              keccak256(0x00, 0x20)\n              swap1\n              0x05\n              mul\n              add\n              0x00\n              swap2\n              pop\n              swap1\n              pop\n              dup1\n              0x00\n              add\n              dup1\n              sload\n              tag_58\n              swap1\n              tag_59\n              jump\t// in\n            tag_58:\n              dup1\n              0x1f\n              add\n              0x20\n              dup1\n              swap2\n              div\n              mul\n              0x20\n              add\n              mload(0x40)\n              swap1\n              dup2\n              add\n              0x40\n              mstore\n              dup1\n              swap3\n              swap2\n              swap1\n              dup2\n              dup2\n              mstore\n              0x20\n              add\n              dup3\n              dup1\n              sload\n              tag_60\n              swap1\n              tag_59\n              jump\t// in\n            tag_60:\n              dup1\n              iszero\n              tag_61\n              jumpi\n              dup1\n              0x1f\n              lt\n              tag_62\n              jumpi\n              0x0100\n              dup1\n              dup4\n              sload\n              div\n              mul\n              dup4\n              mstore\n              swap2\n              0x20\n              add\n              swap2\n              jump(tag_61)\n            tag_62:\n              dup3\n              add\n              swap2\n              swap1\n              0x00\n              mstore\n              keccak256(0x00, 0x20)\n              swap1\n            tag_63:\n              dup2\n              sload\n              dup2\n              mstore\n              swap1\n              0x01\n              add\n              swap1\n              0x20\n              add\n              dup1\n              dup4\n              gt\n              tag_63\n              jumpi\n              dup3\n              swap1\n              sub\n              0x1f\n              and\n              dup3\n              add\n              swap2\n            tag_61:\n              pop\n              pop\n              pop\n              pop\n              pop\n              swap1\n              dup1\n              0x01\n              add\n              dup1\n              sload\n              tag_64\n              swap1\n              tag_59\n              jump\t// in\n            tag_64:\n              dup1\n              0x1f\n              add\n              0x20\n              dup1\n              swap2\n              div\n              mul\n              0x20\n              add\n              mload(0x40)\n              swap1\n              dup2\n              add\n              0x40\n              mstore\n              dup1\n              swap3\n              swap2\n              swap1\n              dup2\n              dup2\n              mstore\n              0x20\n              add\n              dup3\n              dup1\n              sload\n              tag_65\n              swap1\n              tag_59\n              jump\t// in\n            tag_65:\n              dup1\n              iszero\n              tag_66\n              jumpi\n              dup1\n              0x1f\n              lt\n              tag_67\n              jumpi\n              0x0100\n              dup1\n              dup4\n              sload\n              div\n              mul\n              dup4\n              mstore\n              swap2\n              0x20\n              add\n              swap2\n              jump(tag_66)\n            tag_67:\n              dup3\n              add\n              swap2\n              swap1\n              0x00\n              mstore\n              keccak256(0x00, 0x20)\n              swap1\n            tag_68:\n              dup2\n              sload\n              dup2\n              mstore\n              swap1\n              0x01\n              add\n              swap1\n              0x20\n              add\n              dup1\n              dup4\n              gt\n              tag_68\n              jumpi\n              dup3\n              swap1\n              sub\n              0x1f\n              and\n              dup3\n              add\n              swap2\n            tag_66:\n              pop\n              pop\n              pop\n              pop\n              pop\n              swap1\n              dup1\n              0x02\n              add\n              sload\n              swap1\n              dup1\n              0x03\n              add\n              sload\n              swap1\n              dup1\n              0x04\n              add\n              sload\n              swap1\n              pop\n              dup6\n              jump\t// out\n                /* \"evs.sol\":1892:2069  function getCandidateParty(uint index) public view returns (string memory)... */\n            tag_23:\n                /* \"evs.sol\":1952:1965  string memory */\n              0x60\n                /* \"evs.sol\":1997:2007  candidates */\n              0x00\n                /* \"evs.sol\":2008:2013  index */\n              dup3\n                /* \"evs.sol\":1997:2014  candidates[index] */\n              dup2\n              sload\n              dup2\n              lt\n              tag_70\n              jumpi\n              tag_71\n              tag_52\n              jump\t// in\n            tag_71:\n            tag_70:\n              swap1\n              0x00\n              mstore\n              keccak256(0x00, 0x20)\n              swap1\n              0x05\n              mul\n              add\n                /* \"evs.sol\":1997:2029  candidates[index].expirationDate */\n              0x04\n              add\n              sload\n                /* \"evs.sol\":1981:1996  block.timestamp */\n              timestamp\n                /* \"evs.sol\":1981:2029  block.timestamp>candidates[index].expirationDate */\n              gt\n                /* \"evs.sol\":1973:2030  require(block.timestamp>candidates[index].expirationDate) */\n              tag_73\n              jumpi\n              0x00\n              dup1\n              revert\n            tag_73:\n                /* \"evs.sol\":2043:2053  candidates */\n              0x00\n                /* \"evs.sol\":2054:2059  index */\n              dup3\n                /* \"evs.sol\":2043:2060  candidates[index] */\n              dup2\n              sload\n              dup2\n              lt\n              tag_74\n              jumpi\n              tag_75\n              tag_52\n              jump\t// in\n            tag_75:\n            tag_74:\n              swap1\n              0x00\n              mstore\n              keccak256(0x00, 0x20)\n              swap1\n              0x05\n              mul\n              add\n                /* \"evs.sol\":2043:2066  candidates[index].party */\n              0x01\n              add\n                /* \"evs.sol\":2036:2066  return candidates[index].party */\n              dup1\n              sload\n              tag_77\n              swap1\n              tag_59\n              jump\t// in\n            tag_77:\n              dup1\n              0x1f\n              add\n              0x20\n              dup1\n              swap2\n              div\n              mul\n              0x20\n              add\n              mload(0x40)\n              swap1\n              dup2\n              add\n              0x40\n              mstore\n              dup1\n              swap3\n              swap2\n              swap1\n              dup2\n              dup2\n              mstore\n              0x20\n              add\n              dup3\n              dup1\n              sload\n              tag_78\n              swap1\n              tag_59\n              jump\t// in\n            tag_78:\n              dup1\n              iszero\n              tag_79\n              jumpi\n              dup1\n              0x1f\n              lt\n              tag_80\n              jumpi\n              0x0100\n              dup1\n              dup4\n              sload\n              div\n              mul\n              dup4\n              mstore\n              swap2\n              0x20\n              add\n              swap2\n              jump(tag_79)\n            tag_80:\n              dup3\n              add\n              swap2\n              swap1\n              0x00\n              mstore\n              keccak256(0x00, 0x20)\n              swap1\n            tag_81:\n              dup2\n              sload\n              dup2\n              mstore\n              swap1\n              0x01\n              add\n              swap1\n              0x20\n              add\n              dup1\n              dup4\n              gt\n              tag_81\n              jumpi\n              dup3\n              swap1\n              sub\n              0x1f\n              and\n              dup3\n              add\n              swap2\n            tag_79:\n              pop\n              pop\n              pop\n              pop\n              pop\n              swap1\n              pop\n                /* \"evs.sol\":1892:2069  function getCandidateParty(uint index) public view returns (string memory)... */\n              swap2\n              swap1\n              pop\n              jump\t// out\n                /* \"evs.sol\":825:847  address public manager */\n            tag_27:\n              0x01\n              0x00\n              swap1\n              sload\n              swap1\n              0x0100\n              exp\n              swap1\n              div\n              0xffffffffffffffffffffffffffffffffffffffff\n              and\n              dup2\n              jump\t// out\n                /* \"evs.sol\":849:877  string public votingDistrict */\n            tag_31:\n              0x02\n              dup1\n              sload\n              tag_82\n              swap1\n              tag_59\n              jump\t// in\n            tag_82:\n              dup1\n              0x1f\n              add\n              0x20\n              dup1\n              swap2\n              div\n              mul\n              0x20\n              add\n              mload(0x40)\n              swap1\n              dup2\n              add\n              0x40\n              mstore\n              dup1\n              swap3\n              swap2\n              swap1\n              dup2\n              dup2\n              mstore\n              0x20\n              add\n              dup3\n              dup1\n              sload\n              tag_83\n              swap1\n              tag_59\n              jump\t// in\n            tag_83:\n              dup1\n              iszero\n              tag_84\n              jumpi\n              dup1\n              0x1f\n              lt\n              tag_85\n              jumpi\n              0x0100\n              dup1\n              dup4\n              sload\n              div\n              mul\n              dup4\n              mstore\n              swap2\n              0x20\n              add\n              swap2\n              jump(tag_84)\n            tag_85:\n              dup3\n              add\n              swap2\n              swap1\n              0x00\n              mstore\n              keccak256(0x00, 0x20)\n              swap1\n            tag_86:\n              dup2\n              sload\n              dup2\n              mstore\n              swap1\n              0x01\n              add\n              swap1\n              0x20\n              add\n              dup1\n              dup4\n              gt\n              tag_86\n              jumpi\n              dup3\n              swap1\n              sub\n              0x1f\n              and\n              dup3\n              add\n              swap2\n            tag_84:\n              pop\n              pop\n              pop\n              pop\n              pop\n              dup2\n              jump\t// out\n                /* \"evs.sol\":879:918  mapping (address => bool) public voters */\n            tag_36:\n              mstore(0x20, 0x03)\n              dup1\n              0x00\n              mstore\n              keccak256(0x00, 0x40)\n              0x00\n              swap2\n              pop\n              sload\n              swap1\n              0x0100\n              exp\n              swap1\n              div\n              0xff\n              and\n              dup2\n              jump\t// out\n                /* \"evs.sol\":2071:2244  function getVoteCount(uint index)... */\n            tag_41:\n                /* \"evs.sol\":2136:2140  uint */\n              0x00\n                /* \"evs.sol\":966:973  manager */\n              0x01\n              0x00\n              swap1\n              sload\n              swap1\n              0x0100\n              exp\n              swap1\n              div\n              0xffffffffffffffffffffffffffffffffffffffff\n              and\n                /* \"evs.sol\":953:973  msg.sender== manager */\n              0xffffffffffffffffffffffffffffffffffffffff\n              and\n                /* \"evs.sol\":953:963  msg.sender */\n              caller\n                /* \"evs.sol\":953:973  msg.sender== manager */\n              0xffffffffffffffffffffffffffffffffffffffff\n              and\n              eq\n                /* \"evs.sol\":945:974  require(msg.sender== manager) */\n              tag_88\n              jumpi\n              0x00\n              dup1\n              revert\n            tag_88:\n                /* \"evs.sol\":2168:2178  candidates */\n              0x00\n                /* \"evs.sol\":2179:2184  index */\n              dup3\n                /* \"evs.sol\":2168:2185  candidates[index] */\n              dup2\n              sload\n              dup2\n              lt\n              tag_90\n              jumpi\n              tag_91\n              tag_52\n              jump\t// in\n            tag_91:\n            tag_90:\n              swap1\n              0x00\n              mstore\n              keccak256(0x00, 0x20)\n              swap1\n              0x05\n              mul\n              add\n                /* \"evs.sol\":2168:2200  candidates[index].expirationDate */\n              0x04\n              add\n              sload\n                /* \"evs.sol\":2152:2167  block.timestamp */\n              timestamp\n                /* \"evs.sol\":2152:2200  block.timestamp>candidates[index].expirationDate */\n              gt\n                /* \"evs.sol\":2144:2201  require(block.timestamp>candidates[index].expirationDate) */\n              tag_93\n              jumpi\n              0x00\n              dup1\n              revert\n            tag_93:\n                /* \"evs.sol\":2214:2224  candidates */\n              0x00\n                /* \"evs.sol\":2225:2230  index */\n              dup3\n                /* \"evs.sol\":2214:2231  candidates[index] */\n              dup2\n              sload\n              dup2\n              lt\n              tag_94\n              jumpi\n              tag_95\n              tag_52\n              jump\t// in\n            tag_95:\n            tag_94:\n              swap1\n              0x00\n              mstore\n              keccak256(0x00, 0x20)\n              swap1\n              0x05\n              mul\n              add\n                /* \"evs.sol\":2214:2241  candidates[index].voteCount */\n              0x02\n              add\n              sload\n                /* \"evs.sol\":2207:2241  return candidates[index].voteCount */\n              swap1\n              pop\n                /* \"evs.sol\":2071:2244  function getVoteCount(uint index)... */\n              swap2\n              swap1\n              pop\n              jump\t// out\n                /* \"evs.sol\":1716:1891  function getCandidateName(uint index) public view returns (string memory)... */\n            tag_46:\n                /* \"evs.sol\":1775:1788  string memory */\n              0x60\n                /* \"evs.sol\":1820:1830  candidates */\n              0x00\n                /* \"evs.sol\":1831:1836  index */\n              dup3\n                /* \"evs.sol\":1820:1837  candidates[index] */\n              dup2\n              sload\n              dup2\n              lt\n              tag_98\n              jumpi\n              tag_99\n              tag_52\n              jump\t// in\n            tag_99:\n            tag_98:\n              swap1\n              0x00\n              mstore\n              keccak256(0x00, 0x20)\n              swap1\n              0x05\n              mul\n              add\n                /* \"evs.sol\":1820:1852  candidates[index].expirationDate */\n              0x04\n              add\n              sload\n                /* \"evs.sol\":1804:1819  block.timestamp */\n              timestamp\n                /* \"evs.sol\":1804:1852  block.timestamp>candidates[index].expirationDate */\n              gt\n                /* \"evs.sol\":1796:1853  require(block.timestamp>candidates[index].expirationDate) */\n              tag_101\n              jumpi\n              0x00\n              dup1\n              revert\n            tag_101:\n                /* \"evs.sol\":1866:1876  candidates */\n              0x00\n                /* \"evs.sol\":1877:1882  index */\n              dup3\n                /* \"evs.sol\":1866:1883  candidates[index] */\n              dup2\n              sload\n              dup2\n              lt\n              tag_102\n              jumpi\n              tag_103\n              tag_52\n              jump\t// in\n            tag_103:\n            tag_102:\n              swap1\n              0x00\n              mstore\n              keccak256(0x00, 0x20)\n              swap1\n              0x05\n              mul\n              add\n                /* \"evs.sol\":1866:1888  candidates[index].name */\n              0x00\n              add\n                /* \"evs.sol\":1859:1888  return candidates[index].name */\n              dup1\n              sload\n              tag_105\n              swap1\n              tag_59\n              jump\t// in\n            tag_105:\n              dup1\n              0x1f\n              add\n              0x20\n              dup1\n              swap2\n              div\n              mul\n              0x20\n              add\n              mload(0x40)\n              swap1\n              dup2\n              add\n              0x40\n              mstore\n              dup1\n              swap3\n              swap2\n              swap1\n              dup2\n              dup2\n              mstore\n              0x20\n              add\n              dup3\n              dup1\n              sload\n              tag_106\n              swap1\n              tag_59\n              jump\t// in\n            tag_106:\n              dup1\n              iszero\n              tag_107\n              jumpi\n              dup1\n              0x1f\n              lt\n              tag_108\n              jumpi\n              0x0100\n              dup1\n              dup4\n              sload\n              div\n              mul\n              dup4\n              mstore\n              swap2\n              0x20\n              add\n              swap2\n              jump(tag_107)\n            tag_108:\n              dup3\n              add\n              swap2\n              swap1\n              0x00\n              mstore\n              keccak256(0x00, 0x20)\n              swap1\n            tag_109:\n              dup2\n              sload\n              dup2\n              mstore\n              swap1\n              0x01\n              add\n              swap1\n              0x20\n              add\n              dup1\n              dup4\n              gt\n              tag_109\n              jumpi\n              dup3\n              swap1\n              sub\n              0x1f\n              and\n              dup3\n              add\n              swap2\n            tag_107:\n              pop\n              pop\n              pop\n              pop\n              pop\n              swap1\n              pop\n                /* \"evs.sol\":1716:1891  function getCandidateName(uint index) public view returns (string memory)... */\n              swap2\n              swap1\n              pop\n              jump\t// out\n                /* \"#utility.yul\":88:205   */\n            tag_111:\n                /* \"#utility.yul\":197:198   */\n              0x00\n                /* \"#utility.yul\":194:195   */\n              dup1\n                /* \"#utility.yul\":187:199   */\n              revert\n                /* \"#utility.yul\":334:411   */\n            tag_113:\n                /* \"#utility.yul\":371:378   */\n              0x00\n                /* \"#utility.yul\":400:405   */\n              dup2\n                /* \"#utility.yul\":389:405   */\n              swap1\n              pop\n                /* \"#utility.yul\":334:411   */\n              swap2\n              swap1\n              pop\n              jump\t// out\n                /* \"#utility.yul\":417:539   */\n            tag_114:\n                /* \"#utility.yul\":490:514   */\n              tag_137\n                /* \"#utility.yul\":508:513   */\n              dup2\n                /* \"#utility.yul\":490:514   */\n              tag_113\n              jump\t// in\n            tag_137:\n                /* \"#utility.yul\":483:488   */\n              dup2\n                /* \"#utility.yul\":480:515   */\n              eq\n                /* \"#utility.yul\":470:533   */\n              tag_138\n              jumpi\n                /* \"#utility.yul\":529:530   */\n              0x00\n                /* \"#utility.yul\":526:527   */\n              dup1\n                /* \"#utility.yul\":519:531   */\n              revert\n                /* \"#utility.yul\":470:533   */\n            tag_138:\n                /* \"#utility.yul\":417:539   */\n              pop\n              jump\t// out\n                /* \"#utility.yul\":545:684   */\n            tag_115:\n                /* \"#utility.yul\":591:596   */\n              0x00\n                /* \"#utility.yul\":629:635   */\n              dup2\n                /* \"#utility.yul\":616:636   */\n              calldataload\n                /* \"#utility.yul\":607:636   */\n              swap1\n              pop\n                /* \"#utility.yul\":645:678   */\n              tag_140\n                /* \"#utility.yul\":672:677   */\n              dup2\n                /* \"#utility.yul\":645:678   */\n              tag_114\n              jump\t// in\n            tag_140:\n                /* \"#utility.yul\":545:684   */\n              swap3\n              swap2\n              pop\n              pop\n              jump\t// out\n                /* \"#utility.yul\":690:1019   */\n            tag_14:\n                /* \"#utility.yul\":749:755   */\n              0x00\n                /* \"#utility.yul\":798:800   */\n              0x20\n                /* \"#utility.yul\":786:795   */\n              dup3\n                /* \"#utility.yul\":777:784   */\n              dup5\n                /* \"#utility.yul\":773:796   */\n              sub\n                /* \"#utility.yul\":769:801   */\n              slt\n                /* \"#utility.yul\":766:885   */\n              iszero\n              tag_142\n              jumpi\n                /* \"#utility.yul\":804:883   */\n              tag_143\n              tag_111\n              jump\t// in\n            tag_143:\n                /* \"#utility.yul\":766:885   */\n            tag_142:\n                /* \"#utility.yul\":924:925   */\n              0x00\n                /* \"#utility.yul\":949:1002   */\n              tag_144\n                /* \"#utility.yul\":994:1001   */\n              dup5\n                /* \"#utility.yul\":985:991   */\n              dup3\n                /* \"#utility.yul\":974:983   */\n              dup6\n                /* \"#utility.yul\":970:992   */\n              add\n                /* \"#utility.yul\":949:1002   */\n              tag_115\n              jump\t// in\n            tag_144:\n                /* \"#utility.yul\":939:1002   */\n              swap2\n              pop\n                /* \"#utility.yul\":895:1012   */\n              pop\n                /* \"#utility.yul\":690:1019   */\n              swap3\n              swap2\n              pop\n              pop\n              jump\t// out\n                /* \"#utility.yul\":1025:1124   */\n            tag_116:\n                /* \"#utility.yul\":1077:1083   */\n              0x00\n                /* \"#utility.yul\":1111:1116   */\n              dup2\n                /* \"#utility.yul\":1105:1117   */\n              mload\n                /* \"#utility.yul\":1095:1117   */\n              swap1\n              pop\n                /* \"#utility.yul\":1025:1124   */\n              swap2\n              swap1\n              pop\n              jump\t// out\n                /* \"#utility.yul\":1130:1299   */\n            tag_117:\n                /* \"#utility.yul\":1214:1225   */\n              0x00\n                /* \"#utility.yul\":1248:1254   */\n              dup3\n                /* \"#utility.yul\":1243:1246   */\n              dup3\n                /* \"#utility.yul\":1236:1255   */\n              mstore\n                /* \"#utility.yul\":1288:1292   */\n              0x20\n                /* \"#utility.yul\":1283:1286   */\n              dup3\n                /* \"#utility.yul\":1279:1293   */\n              add\n                /* \"#utility.yul\":1264:1293   */\n              swap1\n              pop\n                /* \"#utility.yul\":1130:1299   */\n              swap3\n              swap2\n              pop\n              pop\n              jump\t// out\n                /* \"#utility.yul\":1305:1612   */\n            tag_118:\n                /* \"#utility.yul\":1373:1374   */\n              0x00\n                /* \"#utility.yul\":1383:1496   */\n            tag_148:\n                /* \"#utility.yul\":1397:1403   */\n              dup4\n                /* \"#utility.yul\":1394:1395   */\n              dup2\n                /* \"#utility.yul\":1391:1404   */\n              lt\n                /* \"#utility.yul\":1383:1496   */\n              iszero\n              tag_150\n              jumpi\n                /* \"#utility.yul\":1482:1483   */\n              dup1\n                /* \"#utility.yul\":1477:1480   */\n              dup3\n                /* \"#utility.yul\":1473:1484   */\n              add\n                /* \"#utility.yul\":1467:1485   */\n              mload\n                /* \"#utility.yul\":1463:1464   */\n              dup2\n                /* \"#utility.yul\":1458:1461   */\n              dup5\n                /* \"#utility.yul\":1454:1465   */\n              add\n                /* \"#utility.yul\":1447:1486   */\n              mstore\n                /* \"#utility.yul\":1419:1421   */\n              0x20\n                /* \"#utility.yul\":1416:1417   */\n              dup2\n                /* \"#utility.yul\":1412:1422   */\n              add\n                /* \"#utility.yul\":1407:1422   */\n              swap1\n              pop\n                /* \"#utility.yul\":1383:1496   */\n              jump(tag_148)\n            tag_150:\n                /* \"#utility.yul\":1514:1520   */\n              dup4\n                /* \"#utility.yul\":1511:1512   */\n              dup2\n                /* \"#utility.yul\":1508:1521   */\n              gt\n                /* \"#utility.yul\":1505:1606   */\n              iszero\n              tag_151\n              jumpi\n                /* \"#utility.yul\":1594:1595   */\n              0x00\n                /* \"#utility.yul\":1585:1591   */\n              dup5\n                /* \"#utility.yul\":1580:1583   */\n              dup5\n                /* \"#utility.yul\":1576:1592   */\n              add\n                /* \"#utility.yul\":1569:1596   */\n              mstore\n                /* \"#utility.yul\":1505:1606   */\n            tag_151:\n                /* \"#utility.yul\":1354:1612   */\n              pop\n                /* \"#utility.yul\":1305:1612   */\n              pop\n              pop\n              pop\n              jump\t// out\n                /* \"#utility.yul\":1618:1720   */\n            tag_119:\n                /* \"#utility.yul\":1659:1665   */\n              0x00\n                /* \"#utility.yul\":1710:1712   */\n              0x1f\n                /* \"#utility.yul\":1706:1713   */\n              not\n                /* \"#utility.yul\":1701:1703   */\n              0x1f\n                /* \"#utility.yul\":1694:1699   */\n              dup4\n                /* \"#utility.yul\":1690:1704   */\n              add\n                /* \"#utility.yul\":1686:1714   */\n              and\n                /* \"#utility.yul\":1676:1714   */\n              swap1\n              pop\n                /* \"#utility.yul\":1618:1720   */\n              swap2\n              swap1\n              pop\n              jump\t// out\n                /* \"#utility.yul\":1726:2090   */\n            tag_120:\n                /* \"#utility.yul\":1814:1817   */\n              0x00\n                /* \"#utility.yul\":1842:1881   */\n              tag_154\n                /* \"#utility.yul\":1875:1880   */\n              dup3\n                /* \"#utility.yul\":1842:1881   */\n              tag_116\n              jump\t// in\n            tag_154:\n                /* \"#utility.yul\":1897:1968   */\n              tag_155\n                /* \"#utility.yul\":1961:1967   */\n              dup2\n                /* \"#utility.yul\":1956:1959   */\n              dup6\n                /* \"#utility.yul\":1897:1968   */\n              tag_117\n              jump\t// in\n            tag_155:\n                /* \"#utility.yul\":1890:1968   */\n              swap4\n              pop\n                /* \"#utility.yul\":1977:2029   */\n              tag_156\n                /* \"#utility.yul\":2022:2028   */\n              dup2\n                /* \"#utility.yul\":2017:2020   */\n              dup6\n                /* \"#utility.yul\":2010:2014   */\n              0x20\n                /* \"#utility.yul\":2003:2008   */\n              dup7\n                /* \"#utility.yul\":1999:2015   */\n              add\n                /* \"#utility.yul\":1977:2029   */\n              tag_118\n              jump\t// in\n            tag_156:\n                /* \"#utility.yul\":2054:2083   */\n              tag_157\n                /* \"#utility.yul\":2076:2082   */\n              dup2\n                /* \"#utility.yul\":2054:2083   */\n              tag_119\n              jump\t// in\n            tag_157:\n                /* \"#utility.yul\":2049:2052   */\n              dup5\n                /* \"#utility.yul\":2045:2084   */\n              add\n                /* \"#utility.yul\":2038:2084   */\n              swap2\n              pop\n                /* \"#utility.yul\":1818:2090   */\n              pop\n                /* \"#utility.yul\":1726:2090   */\n              swap3\n              swap2\n              pop\n              pop\n              jump\t// out\n                /* \"#utility.yul\":2096:2214   */\n            tag_121:\n                /* \"#utility.yul\":2183:2207   */\n              tag_159\n                /* \"#utility.yul\":2201:2206   */\n              dup2\n                /* \"#utility.yul\":2183:2207   */\n              tag_113\n              jump\t// in\n            tag_159:\n                /* \"#utility.yul\":2178:2181   */\n              dup3\n                /* \"#utility.yul\":2171:2208   */\n              mstore\n                /* \"#utility.yul\":2096:2214   */\n              pop\n              pop\n              jump\t// out\n                /* \"#utility.yul\":2220:3066   */\n            tag_20:\n                /* \"#utility.yul\":2465:2469   */\n              0x00\n                /* \"#utility.yul\":2503:2506   */\n              0xa0\n                /* \"#utility.yul\":2492:2501   */\n              dup3\n                /* \"#utility.yul\":2488:2507   */\n              add\n                /* \"#utility.yul\":2480:2507   */\n              swap1\n              pop\n                /* \"#utility.yul\":2553:2562   */\n              dup2\n                /* \"#utility.yul\":2547:2551   */\n              dup2\n                /* \"#utility.yul\":2543:2563   */\n              sub\n                /* \"#utility.yul\":2539:2540   */\n              0x00\n                /* \"#utility.yul\":2528:2537   */\n              dup4\n                /* \"#utility.yul\":2524:2541   */\n              add\n                /* \"#utility.yul\":2517:2564   */\n              mstore\n                /* \"#utility.yul\":2581:2659   */\n              tag_161\n                /* \"#utility.yul\":2654:2658   */\n              dup2\n                /* \"#utility.yul\":2645:2651   */\n              dup9\n                /* \"#utility.yul\":2581:2659   */\n              tag_120\n              jump\t// in\n            tag_161:\n                /* \"#utility.yul\":2573:2659   */\n              swap1\n              pop\n                /* \"#utility.yul\":2706:2715   */\n              dup2\n                /* \"#utility.yul\":2700:2704   */\n              dup2\n                /* \"#utility.yul\":2696:2716   */\n              sub\n                /* \"#utility.yul\":2691:2693   */\n              0x20\n                /* \"#utility.yul\":2680:2689   */\n              dup4\n                /* \"#utility.yul\":2676:2694   */\n              add\n                /* \"#utility.yul\":2669:2717   */\n              mstore\n                /* \"#utility.yul\":2734:2812   */\n              tag_162\n                /* \"#utility.yul\":2807:2811   */\n              dup2\n                /* \"#utility.yul\":2798:2804   */\n              dup8\n                /* \"#utility.yul\":2734:2812   */\n              tag_120\n              jump\t// in\n            tag_162:\n                /* \"#utility.yul\":2726:2812   */\n              swap1\n              pop\n                /* \"#utility.yul\":2822:2894   */\n              tag_163\n                /* \"#utility.yul\":2890:2892   */\n              0x40\n                /* \"#utility.yul\":2879:2888   */\n              dup4\n                /* \"#utility.yul\":2875:2893   */\n              add\n                /* \"#utility.yul\":2866:2872   */\n              dup7\n                /* \"#utility.yul\":2822:2894   */\n              tag_121\n              jump\t// in\n            tag_163:\n                /* \"#utility.yul\":2904:2976   */\n              tag_164\n                /* \"#utility.yul\":2972:2974   */\n              0x60\n                /* \"#utility.yul\":2961:2970   */\n              dup4\n                /* \"#utility.yul\":2957:2975   */\n              add\n                /* \"#utility.yul\":2948:2954   */\n              dup6\n                /* \"#utility.yul\":2904:2976   */\n              tag_121\n              jump\t// in\n            tag_164:\n                /* \"#utility.yul\":2986:3059   */\n              tag_165\n                /* \"#utility.yul\":3054:3057   */\n              0x80\n                /* \"#utility.yul\":3043:3052   */\n              dup4\n                /* \"#utility.yul\":3039:3058   */\n              add\n                /* \"#utility.yul\":3030:3036   */\n              dup5\n                /* \"#utility.yul\":2986:3059   */\n              tag_121\n              jump\t// in\n            tag_165:\n                /* \"#utility.yul\":2220:3066   */\n              swap7\n              swap6\n              pop\n              pop\n              pop\n              pop\n              pop\n              pop\n              jump\t// out\n                /* \"#utility.yul\":3072:3385   */\n            tag_25:\n                /* \"#utility.yul\":3185:3189   */\n              0x00\n                /* \"#utility.yul\":3223:3225   */\n              0x20\n                /* \"#utility.yul\":3212:3221   */\n              dup3\n                /* \"#utility.yul\":3208:3226   */\n              add\n                /* \"#utility.yul\":3200:3226   */\n              swap1\n              pop\n                /* \"#utility.yul\":3272:3281   */\n              dup2\n                /* \"#utility.yul\":3266:3270   */\n              dup2\n                /* \"#utility.yul\":3262:3282   */\n              sub\n                /* \"#utility.yul\":3258:3259   */\n              0x00\n                /* \"#utility.yul\":3247:3256   */\n              dup4\n                /* \"#utility.yul\":3243:3260   */\n              add\n                /* \"#utility.yul\":3236:3283   */\n              mstore\n                /* \"#utility.yul\":3300:3378   */\n              tag_167\n                /* \"#utility.yul\":3373:3377   */\n              dup2\n                /* \"#utility.yul\":3364:3370   */\n              dup5\n                /* \"#utility.yul\":3300:3378   */\n              tag_120\n              jump\t// in\n            tag_167:\n                /* \"#utility.yul\":3292:3378   */\n              swap1\n              pop\n                /* \"#utility.yul\":3072:3385   */\n              swap3\n              swap2\n              pop\n              pop\n              jump\t// out\n                /* \"#utility.yul\":3391:3517   */\n            tag_122:\n                /* \"#utility.yul\":3428:3435   */\n              0x00\n                /* \"#utility.yul\":3468:3510   */\n              0xffffffffffffffffffffffffffffffffffffffff\n                /* \"#utility.yul\":3461:3466   */\n              dup3\n                /* \"#utility.yul\":3457:3511   */\n              and\n                /* \"#utility.yul\":3446:3511   */\n              swap1\n              pop\n                /* \"#utility.yul\":3391:3517   */\n              swap2\n              swap1\n              pop\n              jump\t// out\n                /* \"#utility.yul\":3523:3619   */\n            tag_123:\n                /* \"#utility.yul\":3560:3567   */\n              0x00\n                /* \"#utility.yul\":3589:3613   */\n              tag_170\n                /* \"#utility.yul\":3607:3612   */\n              dup3\n                /* \"#utility.yul\":3589:3613   */\n              tag_122\n              jump\t// in\n            tag_170:\n                /* \"#utility.yul\":3578:3613   */\n              swap1\n              pop\n                /* \"#utility.yul\":3523:3619   */\n              swap2\n              swap1\n              pop\n              jump\t// out\n                /* \"#utility.yul\":3625:3743   */\n            tag_124:\n                /* \"#utility.yul\":3712:3736   */\n              tag_172\n                /* \"#utility.yul\":3730:3735   */\n              dup2\n                /* \"#utility.yul\":3712:3736   */\n              tag_123\n              jump\t// in\n            tag_172:\n                /* \"#utility.yul\":3707:3710   */\n              dup3\n                /* \"#utility.yul\":3700:3737   */\n              mstore\n                /* \"#utility.yul\":3625:3743   */\n              pop\n              pop\n              jump\t// out\n                /* \"#utility.yul\":3749:3971   */\n            tag_29:\n                /* \"#utility.yul\":3842:3846   */\n              0x00\n                /* \"#utility.yul\":3880:3882   */\n              0x20\n                /* \"#utility.yul\":3869:3878   */\n              dup3\n                /* \"#utility.yul\":3865:3883   */\n              add\n                /* \"#utility.yul\":3857:3883   */\n              swap1\n              pop\n                /* \"#utility.yul\":3893:3964   */\n              tag_174\n                /* \"#utility.yul\":3961:3962   */\n              0x00\n                /* \"#utility.yul\":3950:3959   */\n              dup4\n                /* \"#utility.yul\":3946:3963   */\n              add\n                /* \"#utility.yul\":3937:3943   */\n              dup5\n                /* \"#utility.yul\":3893:3964   */\n              tag_124\n              jump\t// in\n            tag_174:\n                /* \"#utility.yul\":3749:3971   */\n              swap3\n              swap2\n              pop\n              pop\n              jump\t// out\n                /* \"#utility.yul\":3977:4099   */\n            tag_125:\n                /* \"#utility.yul\":4050:4074   */\n              tag_176\n                /* \"#utility.yul\":4068:4073   */\n              dup2\n                /* \"#utility.yul\":4050:4074   */\n              tag_123\n              jump\t// in\n            tag_176:\n                /* \"#utility.yul\":4043:4048   */\n              dup2\n                /* \"#utility.yul\":4040:4075   */\n              eq\n                /* \"#utility.yul\":4030:4093   */\n              tag_177\n              jumpi\n                /* \"#utility.yul\":4089:4090   */\n              0x00\n                /* \"#utility.yul\":4086:4087   */\n              dup1\n                /* \"#utility.yul\":4079:4091   */\n              revert\n                /* \"#utility.yul\":4030:4093   */\n            tag_177:\n                /* \"#utility.yul\":3977:4099   */\n              pop\n              jump\t// out\n                /* \"#utility.yul\":4105:4244   */\n            tag_126:\n                /* \"#utility.yul\":4151:4156   */\n              0x00\n                /* \"#utility.yul\":4189:4195   */\n              dup2\n                /* \"#utility.yul\":4176:4196   */\n              calldataload\n                /* \"#utility.yul\":4167:4196   */\n              swap1\n              pop\n                /* \"#utility.yul\":4205:4238   */\n              tag_179\n                /* \"#utility.yul\":4232:4237   */\n              dup2\n                /* \"#utility.yul\":4205:4238   */\n              tag_125\n              jump\t// in\n            tag_179:\n                /* \"#utility.yul\":4105:4244   */\n              swap3\n              swap2\n              pop\n              pop\n              jump\t// out\n                /* \"#utility.yul\":4250:4579   */\n            tag_35:\n                /* \"#utility.yul\":4309:4315   */\n              0x00\n                /* \"#utility.yul\":4358:4360   */\n              0x20\n                /* \"#utility.yul\":4346:4355   */\n              dup3\n                /* \"#utility.yul\":4337:4344   */\n              dup5\n                /* \"#utility.yul\":4333:4356   */\n              sub\n                /* \"#utility.yul\":4329:4361   */\n              slt\n                /* \"#utility.yul\":4326:4445   */\n              iszero\n              tag_181\n              jumpi\n                /* \"#utility.yul\":4364:4443   */\n              tag_182\n              tag_111\n              jump\t// in\n            tag_182:\n                /* \"#utility.yul\":4326:4445   */\n            tag_181:\n                /* \"#utility.yul\":4484:4485   */\n              0x00\n                /* \"#utility.yul\":4509:4562   */\n              tag_183\n                /* \"#utility.yul\":4554:4561   */\n              dup5\n                /* \"#utility.yul\":4545:4551   */\n              dup3\n                /* \"#utility.yul\":4534:4543   */\n              dup6\n                /* \"#utility.yul\":4530:4552   */\n              add\n                /* \"#utility.yul\":4509:4562   */\n              tag_126\n              jump\t// in\n            tag_183:\n                /* \"#utility.yul\":4499:4562   */\n              swap2\n              pop\n                /* \"#utility.yul\":4455:4572   */\n              pop\n                /* \"#utility.yul\":4250:4579   */\n              swap3\n              swap2\n              pop\n              pop\n              jump\t// out\n                /* \"#utility.yul\":4585:4675   */\n            tag_127:\n                /* \"#utility.yul\":4619:4626   */\n              0x00\n                /* \"#utility.yul\":4662:4667   */\n              dup2\n                /* \"#utility.yul\":4655:4668   */\n              iszero\n                /* \"#utility.yul\":4648:4669   */\n              iszero\n                /* \"#utility.yul\":4637:4669   */\n              swap1\n              pop\n                /* \"#utility.yul\":4585:4675   */\n              swap2\n              swap1\n              pop\n              jump\t// out\n                /* \"#utility.yul\":4681:4790   */\n            tag_128:\n                /* \"#utility.yul\":4762:4783   */\n              tag_186\n                /* \"#utility.yul\":4777:4782   */\n              dup2\n                /* \"#utility.yul\":4762:4783   */\n              tag_127\n              jump\t// in\n            tag_186:\n                /* \"#utility.yul\":4757:4760   */\n              dup3\n                /* \"#utility.yul\":4750:4784   */\n              mstore\n                /* \"#utility.yul\":4681:4790   */\n              pop\n              pop\n              jump\t// out\n                /* \"#utility.yul\":4796:5006   */\n            tag_38:\n                /* \"#utility.yul\":4883:4887   */\n              0x00\n                /* \"#utility.yul\":4921:4923   */\n              0x20\n                /* \"#utility.yul\":4910:4919   */\n              dup3\n                /* \"#utility.yul\":4906:4924   */\n              add\n                /* \"#utility.yul\":4898:4924   */\n              swap1\n              pop\n                /* \"#utility.yul\":4934:4999   */\n              tag_188\n                /* \"#utility.yul\":4996:4997   */\n              0x00\n                /* \"#utility.yul\":4985:4994   */\n              dup4\n                /* \"#utility.yul\":4981:4998   */\n              add\n                /* \"#utility.yul\":4972:4978   */\n              dup5\n                /* \"#utility.yul\":4934:4999   */\n              tag_128\n              jump\t// in\n            tag_188:\n                /* \"#utility.yul\":4796:5006   */\n              swap3\n              swap2\n              pop\n              pop\n              jump\t// out\n                /* \"#utility.yul\":5012:5234   */\n            tag_43:\n                /* \"#utility.yul\":5105:5109   */\n              0x00\n                /* \"#utility.yul\":5143:5145   */\n              0x20\n                /* \"#utility.yul\":5132:5141   */\n              dup3\n                /* \"#utility.yul\":5128:5146   */\n              add\n                /* \"#utility.yul\":5120:5146   */\n              swap1\n              pop\n                /* \"#utility.yul\":5156:5227   */\n              tag_190\n                /* \"#utility.yul\":5224:5225   */\n              0x00\n                /* \"#utility.yul\":5213:5222   */\n              dup4\n                /* \"#utility.yul\":5209:5226   */\n              add\n                /* \"#utility.yul\":5200:5206   */\n              dup5\n                /* \"#utility.yul\":5156:5227   */\n              tag_121\n              jump\t// in\n            tag_190:\n                /* \"#utility.yul\":5012:5234   */\n              swap3\n              swap2\n              pop\n              pop\n              jump\t// out\n                /* \"#utility.yul\":5240:5420   */\n            tag_52:\n                /* \"#utility.yul\":5288:5365   */\n              0x4e487b7100000000000000000000000000000000000000000000000000000000\n                /* \"#utility.yul\":5285:5286   */\n              0x00\n                /* \"#utility.yul\":5278:5366   */\n              mstore\n                /* \"#utility.yul\":5385:5389   */\n              0x32\n                /* \"#utility.yul\":5382:5383   */\n              0x04\n                /* \"#utility.yul\":5375:5390   */\n              mstore\n                /* \"#utility.yul\":5409:5413   */\n              0x24\n                /* \"#utility.yul\":5406:5407   */\n              0x00\n                /* \"#utility.yul\":5399:5414   */\n              revert\n                /* \"#utility.yul\":5426:5606   */\n            tag_129:\n                /* \"#utility.yul\":5474:5551   */\n              0x4e487b7100000000000000000000000000000000000000000000000000000000\n                /* \"#utility.yul\":5471:5472   */\n              0x00\n                /* \"#utility.yul\":5464:5552   */\n              mstore\n                /* \"#utility.yul\":5571:5575   */\n              0x11\n                /* \"#utility.yul\":5568:5569   */\n              0x04\n                /* \"#utility.yul\":5561:5576   */\n              mstore\n                /* \"#utility.yul\":5595:5599   */\n              0x24\n                /* \"#utility.yul\":5592:5593   */\n              0x00\n                /* \"#utility.yul\":5585:5600   */\n              revert\n                /* \"#utility.yul\":5612:5917   */\n            tag_55:\n                /* \"#utility.yul\":5652:5655   */\n              0x00\n                /* \"#utility.yul\":5671:5691   */\n              tag_194\n                /* \"#utility.yul\":5689:5690   */\n              dup3\n                /* \"#utility.yul\":5671:5691   */\n              tag_113\n              jump\t// in\n            tag_194:\n                /* \"#utility.yul\":5666:5691   */\n              swap2\n              pop\n                /* \"#utility.yul\":5705:5725   */\n              tag_195\n                /* \"#utility.yul\":5723:5724   */\n              dup4\n                /* \"#utility.yul\":5705:5725   */\n              tag_113\n              jump\t// in\n            tag_195:\n                /* \"#utility.yul\":5700:5725   */\n              swap3\n              pop\n                /* \"#utility.yul\":5859:5860   */\n              dup3\n                /* \"#utility.yul\":5791:5857   */\n              0xffffffffffffffffffffffffffffffffffffffffffffffffffffffffffffffff\n                /* \"#utility.yul\":5787:5861   */\n              sub\n                /* \"#utility.yul\":5784:5785   */\n              dup3\n                /* \"#utility.yul\":5781:5862   */\n              gt\n                /* \"#utility.yul\":5778:5885   */\n              iszero\n              tag_196\n              jumpi\n                /* \"#utility.yul\":5865:5883   */\n              tag_197\n              tag_129\n              jump\t// in\n            tag_197:\n                /* \"#utility.yul\":5778:5885   */\n            tag_196:\n                /* \"#utility.yul\":5909:5910   */\n              dup3\n                /* \"#utility.yul\":5906:5907   */\n              dup3\n                /* \"#utility.yul\":5902:5911   */\n              add\n                /* \"#utility.yul\":5895:5911   */\n              swap1\n              pop\n                /* \"#utility.yul\":5612:5917   */\n              swap3\n              swap2\n              pop\n              pop\n              jump\t// out\n                /* \"#utility.yul\":5923:6103   */\n            tag_130:\n                /* \"#utility.yul\":5971:6048   */\n              0x4e487b7100000000000000000000000000000000000000000000000000000000\n                /* \"#utility.yul\":5968:5969   */\n              0x00\n                /* \"#utility.yul\":5961:6049   */\n              mstore\n                /* \"#utility.yul\":6068:6072   */\n              0x22\n                /* \"#utility.yul\":6065:6066   */\n              0x04\n                /* \"#utility.yul\":6058:6073   */\n              mstore\n                /* \"#utility.yul\":6092:6096   */\n              0x24\n                /* \"#utility.yul\":6089:6090   */\n              0x00\n                /* \"#utility.yul\":6082:6097   */\n              revert\n                /* \"#utility.yul\":6109:6429   */\n            tag_59:\n                /* \"#utility.yul\":6153:6159   */\n              0x00\n                /* \"#utility.yul\":6190:6191   */\n              0x02\n                /* \"#utility.yul\":6184:6188   */\n              dup3\n                /* \"#utility.yul\":6180:6192   */\n              div\n                /* \"#utility.yul\":6170:6192   */\n              swap1\n              pop\n                /* \"#utility.yul\":6237:6238   */\n              0x01\n                /* \"#utility.yul\":6231:6235   */\n              dup3\n                /* \"#utility.yul\":6227:6239   */\n              and\n                /* \"#utility.yul\":6258:6276   */\n              dup1\n                /* \"#utility.yul\":6248:6329   */\n              tag_200\n              jumpi\n                /* \"#utility.yul\":6314:6318   */\n              0x7f\n                /* \"#utility.yul\":6306:6312   */\n              dup3\n                /* \"#utility.yul\":6302:6319   */\n              and\n                /* \"#utility.yul\":6292:6319   */\n              swap2\n              pop\n                /* \"#utility.yul\":6248:6329   */\n            tag_200:\n                /* \"#utility.yul\":6376:6378   */\n              0x20\n                /* \"#utility.yul\":6368:6374   */\n              dup3\n                /* \"#utility.yul\":6365:6379   */\n              lt\n                /* \"#utility.yul\":6345:6363   */\n              dup2\n                /* \"#utility.yul\":6342:6380   */\n              eq\n                /* \"#utility.yul\":6339:6423   */\n              iszero\n              tag_201\n              jumpi\n                /* \"#utility.yul\":6395:6413   */\n              tag_202\n              tag_130\n              jump\t// in\n            tag_202:\n                /* \"#utility.yul\":6339:6423   */\n            tag_201:\n                /* \"#utility.yul\":6160:6429   */\n              pop\n                /* \"#utility.yul\":6109:6429   */\n              swap2\n              swap1\n              pop\n              jump\t// out\n\n            auxdata: 0xa264697066735822122027e85eab49731e1decc2469a98eddcd4d5dc759de650b03c19fdabb56d0d680c64736f6c634300080b0033\n        }\n    }\n\n    auxdata: 0xa26469706673582212201baf4a141ea239ed5c5ea09a7d878e26b4f824390b4b5e20cdd8d472386af5d964736f6c634300080b0033\n}\n","bytecode":{"linkReferences":{},"object":"608060405234801561001057600080fd5b50611f42806100206000396000f3fe60806040523480156200001157600080fd5b5060043610620000465760003560e01c80630e3e4a75146200004b5780638455faf8146200006d578063cdf74c3e146200008d575b600080fd5b62000055620000c3565b604051620000649190620003cd565b60405180910390f35b6200008b600480360381019062000085919062000795565b62000153565b005b620000ab6004803603810190620000a5919062000864565b6200027d565b604051620000ba9190620008a7565b60405180910390f35b606060008054806020026020016040519081016040528092919081815260200182805480156200014957602002820191906000526020600020905b8160009054906101000a900473ffffffffffffffffffffffffffffffffffffffff1673ffffffffffffffffffffffffffffffffffffffff1681526020019060010190808311620000fe575b5050505050905090565b60005b825181101562000276576000858281518110620001785762000177620008c4565b5b6020026020010151858381518110620001965762000195620008c4565b5b6020026020010151858481518110620001b457620001b3620008c4565b5b60200260200101513386604051620001cc90620002bd565b620001dc95949392919062000ab9565b604051809103906000f080158015620001f9573d6000803e3d6000fd5b5090506000819080600181540180825580915050600190039060005260206000200160009091909190916101000a81548173ffffffffffffffffffffffffffffffffffffffff021916908373ffffffffffffffffffffffffffffffffffffffff1602179055505080806200026d9062000b5a565b91505062000156565b5050505050565b600081815481106200028e57600080fd5b906000526020600020016000915054906101000a900473ffffffffffffffffffffffffffffffffffffffff1681565b6113648062000ba983390190565b600081519050919050565b600082825260208201905092915050565b6000819050602082019050919050565b600073ffffffffffffffffffffffffffffffffffffffff82169050919050565b60006200032482620002f7565b9050919050565b620003368162000317565b82525050565b60006200034a83836200032b565b60208301905092915050565b6000602082019050919050565b60006200037082620002cb565b6200037c8185620002d6565b93506200038983620002e7565b8060005b83811015620003c0578151620003a488826200033c565b9750620003b18362000356565b9250506001810190506200038d565b5085935050505092915050565b60006020820190508181036000830152620003e9818462000363565b905092915050565b6000604051905090565b600080fd5b600080fd5b600080fd5b6000601f19601f8301169050919050565b7f4e487b7100000000000000000000000000000000000000000000000000000000600052604160045260246000fd5b62000455826200040a565b810181811067ffffffffffffffff821117156200047757620004766200041b565b5b80604052505050565b60006200048c620003f1565b90506200049a82826200044a565b919050565b600067ffffffffffffffff821115620004bd57620004bc6200041b565b5b602082029050602081019050919050565b600080fd5b600067ffffffffffffffff821115620004f157620004f06200041b565b5b602082029050602081019050919050565b600080fd5b600067ffffffffffffffff8211156200052557620005246200041b565b5b62000530826200040a565b9050602081019050919050565b82818337600083830152505050565b6000620005636200055d8462000507565b62000480565b90508281526020810184848401111562000582576200058162000502565b5b6200058f8482856200053d565b509392505050565b600082601f830112620005af57620005ae62000405565b5b8135620005c18482602086016200054c565b91505092915050565b6000620005e1620005db84620004d3565b62000480565b90508083825260208201905060208402830185811115620006075762000606620004ce565b5b835b818110156200065557803567ffffffffffffffff81111562000630576200062f62000405565b5b8086016200063f898262000597565b8552602085019450505060208101905062000609565b5050509392505050565b600082601f83011262000677576200067662000405565b5b813562000689848260208601620005ca565b91505092915050565b6000620006a9620006a3846200049f565b62000480565b90508083825260208201905060208402830185811115620006cf57620006ce620004ce565b5b835b818110156200071d57803567ffffffffffffffff811115620006f857620006f762000405565b5b8086016200070789826200065f565b85526020850194505050602081019050620006d1565b5050509392505050565b600082601f8301126200073f576200073e62000405565b5b81356200075184826020860162000692565b91505092915050565b6000819050919050565b6200076f816200075a565b81146200077b57600080fd5b50565b6000813590506200078f8162000764565b92915050565b60008060008060808587031215620007b257620007b1620003fb565b5b600085013567ffffffffffffffff811115620007d357620007d262000400565b5b620007e18782880162000727565b945050602085013567ffffffffffffffff81111562000805576200080462000400565b5b620008138782880162000727565b935050604085013567ffffffffffffffff81111562000837576200083662000400565b5b62000845878288016200065f565b925050606062000858878288016200077e565b91505092959194509250565b6000602082840312156200087d576200087c620003fb565b5b60006200088d848285016200077e565b91505092915050565b620008a18162000317565b82525050565b6000602082019050620008be600083018462000896565b92915050565b7f4e487b7100000000000000000000000000000000000000000000000000000000600052603260045260246000fd5b600081519050919050565b600082825260208201905092915050565b6000819050602082019050919050565b600081519050919050565b600082825260208201905092915050565b60005b838110156200095b5780820151818401526020810190506200093e565b838111156200096b576000848401525b50505050565b60006200097e826200091f565b6200098a81856200092a565b93506200099c8185602086016200093b565b620009a7816200040a565b840191505092915050565b6000620009c0838362000971565b905092915050565b6000602082019050919050565b6000620009e282620008f3565b620009ee8185620008fe565b93508360208202850162000a02856200090f565b8060005b8581101562000a44578484038952815162000a228582620009b2565b945062000a2f83620009c8565b925060208a0199505060018101905062000a06565b50829750879550505050505092915050565b600082825260208201905092915050565b600062000a74826200091f565b62000a80818562000a56565b935062000a928185602086016200093b565b62000a9d816200040a565b840191505092915050565b62000ab3816200075a565b82525050565b600060a082019050818103600083015262000ad58188620009d5565b9050818103602083015262000aeb8187620009d5565b9050818103604083015262000b01818662000a67565b905062000b12606083018562000896565b62000b21608083018462000aa8565b9695505050505050565b7f4e487b7100000000000000000000000000000000000000000000000000000000600052601160045260246000fd5b600062000b67826200075a565b91507fffffffffffffffffffffffffffffffffffffffffffffffffffffffffffffffff82141562000b9d5762000b9c62000b2b565b5b60018201905091905056fe60806040523480156200001157600080fd5b5060405162001364380380620013648339818101604052810190620000379190620005a1565b81600160006101000a81548173ffffffffffffffffffffffffffffffffffffffff021916908373ffffffffffffffffffffffffffffffffffffffff160217905550826002908051906020019062000090929190620001b8565b5060005b8551811015620001ac5760006040518060a00160405280888481518110620000c157620000c062000686565b5b60200260200101518152602001878481518110620000e457620000e362000686565b5b602002602001015181526020016000815260200142815260200184426200010c9190620006e4565b8152509080600181540180825580915050600190039060005260206000209060050201600090919091909150600082015181600001908051906020019062000156929190620001b8565b50602082015181600101908051906020019062000175929190620001b8565b5060408201518160020155606082015181600301556080820151816004015550508080620001a39062000741565b91505062000094565b505050505050620007f4565b828054620001c690620007be565b90600052602060002090601f016020900481019282620001ea576000855562000236565b82601f106200020557805160ff191683800117855562000236565b8280016001018555821562000236579182015b828111156200023557825182559160200191906001019062000218565b5b50905062000245919062000249565b5090565b5b80821115620002645760008160009055506001016200024a565b5090565b6000604051905090565b600080fd5b600080fd5b600080fd5b6000601f19601f8301169050919050565b7f4e487b7100000000000000000000000000000000000000000000000000000000600052604160045260246000fd5b620002cc8262000281565b810181811067ffffffffffffffff82111715620002ee57620002ed62000292565b5b80604052505050565b60006200030362000268565b9050620003118282620002c1565b919050565b600067ffffffffffffffff82111562000334576200033362000292565b5b602082029050602081019050919050565b600080fd5b600080fd5b600067ffffffffffffffff8211156200036d576200036c62000292565b5b620003788262000281565b9050602081019050919050565b60005b83811015620003a557808201518184015260208101905062000388565b83811115620003b5576000848401525b50505050565b6000620003d2620003cc846200034f565b620002f7565b905082815260208101848484011115620003f157620003f06200034a565b5b620003fe84828562000385565b509392505050565b600082601f8301126200041e576200041d6200027c565b5b815162000430848260208601620003bb565b91505092915050565b6000620004506200044a8462000316565b620002f7565b9050808382526020820190506020840283018581111562000476576200047562000345565b5b835b81811015620004c457805167ffffffffffffffff8111156200049f576200049e6200027c565b5b808601620004ae898262000406565b8552602085019450505060208101905062000478565b5050509392505050565b600082601f830112620004e657620004e56200027c565b5b8151620004f884826020860162000439565b91505092915050565b600073ffffffffffffffffffffffffffffffffffffffff82169050919050565b60006200052e8262000501565b9050919050565b620005408162000521565b81146200054c57600080fd5b50565b600081519050620005608162000535565b92915050565b6000819050919050565b6200057b8162000566565b81146200058757600080fd5b50565b6000815190506200059b8162000570565b92915050565b600080600080600060a08688031215620005c057620005bf62000272565b5b600086015167ffffffffffffffff811115620005e157620005e062000277565b5b620005ef88828901620004ce565b955050602086015167ffffffffffffffff81111562000613576200061262000277565b5b6200062188828901620004ce565b945050604086015167ffffffffffffffff81111562000645576200064462000277565b5b620006538882890162000406565b935050606062000666888289016200054f565b925050608062000679888289016200058a565b9150509295509295909350565b7f4e487b7100000000000000000000000000000000000000000000000000000000600052603260045260246000fd5b7f4e487b7100000000000000000000000000000000000000000000000000000000600052601160045260246000fd5b6000620006f18262000566565b9150620006fe8362000566565b9250827fffffffffffffffffffffffffffffffffffffffffffffffffffffffffffffffff03821115620007365762000735620006b5565b5b828201905092915050565b60006200074e8262000566565b91507fffffffffffffffffffffffffffffffffffffffffffffffffffffffffffffffff821415620007845762000783620006b5565b5b600182019050919050565b7f4e487b7100000000000000000000000000000000000000000000000000000000600052602260045260246000fd5b60006002820490506001821680620007d757607f821691505b60208210811415620007ee57620007ed6200078f565b5b50919050565b610b6080620008046000396000f3fe608060405234801561001057600080fd5b50600436106100885760003560e01c8063716c424e1161005b578063716c424e1461012b578063a3ec138d14610149578063b2c2f2e814610179578063e13804a7146101a957610088565b80630121b93f1461008d5780633477ee2e146100a9578063456645a7146100dd578063481c6a751461010d575b600080fd5b6100a760048036038101906100a291906107b7565b6101d9565b005b6100c360048036038101906100be91906107b7565b6102c8565b6040516100d495949392919061088c565b60405180910390f35b6100f760048036038101906100f291906107b7565b61041e565b60405161010491906108ed565b60405180910390f35b610115610506565b6040516101229190610950565b60405180910390f35b61013361052c565b60405161014091906108ed565b60405180910390f35b610163600480360381019061015e9190610997565b6105ba565b60405161017091906109df565b60405180910390f35b610193600480360381019061018e91906107b7565b6105da565b6040516101a091906109fa565b60405180910390f35b6101c360048036038101906101be91906107b7565b610694565b6040516101d091906108ed565b60405180910390f35b600360003373ffffffffffffffffffffffffffffffffffffffff1673ffffffffffffffffffffffffffffffffffffffff16815260200190815260200160002060009054906101000a900460ff161561023057600080fd5b60016000828154811061024657610245610a15565b5b906000526020600020906005020160020160008282546102669190610a73565b925050819055506001600360003373ffffffffffffffffffffffffffffffffffffffff1673ffffffffffffffffffffffffffffffffffffffff16815260200190815260200160002060006101000a81548160ff02191690831515021790555050565b600081815481106102d857600080fd5b90600052602060002090600502016000915090508060000180546102fb90610af8565b80601f016020809104026020016040519081016040528092919081815260200182805461032790610af8565b80156103745780601f1061034957610100808354040283529160200191610374565b820191906000526020600020905b81548152906001019060200180831161035757829003601f168201915b50505050509080600101805461038990610af8565b80601f01602080910402602001604051908101604052809291908181526020018280546103b590610af8565b80156104025780601f106103d757610100808354040283529160200191610402565b820191906000526020600020905b8154815290600101906020018083116103e557829003601f168201915b5050505050908060020154908060030154908060040154905085565b60606000828154811061043457610433610a15565b5b906000526020600020906005020160040154421161045157600080fd5b6000828154811061046557610464610a15565b5b9060005260206000209060050201600101805461048190610af8565b80601f01602080910402602001604051908101604052809291908181526020018280546104ad90610af8565b80156104fa5780601f106104cf576101008083540402835291602001916104fa565b820191906000526020600020905b8154815290600101906020018083116104dd57829003601f168201915b50505050509050919050565b600160009054906101000a900473ffffffffffffffffffffffffffffffffffffffff1681565b6002805461053990610af8565b80601f016020809104026020016040519081016040528092919081815260200182805461056590610af8565b80156105b25780601f10610587576101008083540402835291602001916105b2565b820191906000526020600020905b81548152906001019060200180831161059557829003601f168201915b505050505081565b60036020528060005260406000206000915054906101000a900460ff1681565b6000600160009054906101000a900473ffffffffffffffffffffffffffffffffffffffff1673ffffffffffffffffffffffffffffffffffffffff163373ffffffffffffffffffffffffffffffffffffffff161461063657600080fd5b6000828154811061064a57610649610a15565b5b906000526020600020906005020160040154421161066757600080fd5b6000828154811061067b5761067a610a15565b5b9060005260206000209060050201600201549050919050565b6060600082815481106106aa576106a9610a15565b5b90600052602060002090600502016004015442116106c757600080fd5b600082815481106106db576106da610a15565b5b906000526020600020906005020160000180546106f790610af8565b80601f016020809104026020016040519081016040528092919081815260200182805461072390610af8565b80156107705780601f1061074557610100808354040283529160200191610770565b820191906000526020600020905b81548152906001019060200180831161075357829003601f168201915b50505050509050919050565b600080fd5b6000819050919050565b61079481610781565b811461079f57600080fd5b50565b6000813590506107b18161078b565b92915050565b6000602082840312156107cd576107cc61077c565b5b60006107db848285016107a2565b91505092915050565b600081519050919050565b600082825260208201905092915050565b60005b8381101561081e578082015181840152602081019050610803565b8381111561082d576000848401525b50505050565b6000601f19601f8301169050919050565b600061084f826107e4565b61085981856107ef565b9350610869818560208601610800565b61087281610833565b840191505092915050565b61088681610781565b82525050565b600060a08201905081810360008301526108a68188610844565b905081810360208301526108ba8187610844565b90506108c9604083018661087d565b6108d6606083018561087d565b6108e3608083018461087d565b9695505050505050565b600060208201905081810360008301526109078184610844565b905092915050565b600073ffffffffffffffffffffffffffffffffffffffff82169050919050565b600061093a8261090f565b9050919050565b61094a8161092f565b82525050565b60006020820190506109656000830184610941565b92915050565b6109748161092f565b811461097f57600080fd5b50565b6000813590506109918161096b565b92915050565b6000602082840312156109ad576109ac61077c565b5b60006109bb84828501610982565b91505092915050565b60008115159050919050565b6109d9816109c4565b82525050565b60006020820190506109f460008301846109d0565b92915050565b6000602082019050610a0f600083018461087d565b92915050565b7f4e487b7100000000000000000000000000000000000000000000000000000000600052603260045260246000fd5b7f4e487b7100000000000000000000000000000000000000000000000000000000600052601160045260246000fd5b6000610a7e82610781565b9150610a8983610781565b9250827fffffffffffffffffffffffffffffffffffffffffffffffffffffffffffffffff03821115610abe57610abd610a44565b5b828201905092915050565b7f4e487b7100000000000000000000000000000000000000000000000000000000600052602260045260246000fd5b60006002820490506001821680610b1057607f821691505b60208210811415610b2457610b23610ac9565b5b5091905056fea264697066735822122027e85eab49731e1decc2469a98eddcd4d5dc759de650b03c19fdabb56d0d680c64736f6c634300080b0033a26469706673582212201baf4a141ea239ed5c5ea09a7d878e26b4f824390b4b5e20cdd8d472386af5d964736f6c634300080b0033","opcodes":"PUSH1 0x80 PUSH1 0x40 MSTORE CALLVALUE DUP1 ISZERO PUSH2 0x10 JUMPI PUSH1 0x0 DUP1 REVERT JUMPDEST POP PUSH2 0x1F42 DUP1 PUSH2 0x20 PUSH1 0x0 CODECOPY PUSH1 0x0 RETURN INVALID PUSH1 0x80 PUSH1 0x40 MSTORE CALLVALUE DUP1 ISZERO PUSH3 0x11 JUMPI PUSH1 0x0 DUP1 REVERT JUMPDEST POP PUSH1 0x4 CALLDATASIZE LT PUSH3 0x46 JUMPI PUSH1 0x0 CALLDATALOAD PUSH1 0xE0 SHR DUP1 PUSH4 0xE3E4A75 EQ PUSH3 0x4B JUMPI DUP1 PUSH4 0x8455FAF8 EQ PUSH3 0x6D JUMPI DUP1 PUSH4 0xCDF74C3E EQ PUSH3 0x8D JUMPI JUMPDEST PUSH1 0x0 DUP1 REVERT JUMPDEST PUSH3 0x55 PUSH3 0xC3 JUMP JUMPDEST PUSH1 0x40 MLOAD PUSH3 0x64 SWAP2 SWAP1 PUSH3 0x3CD JUMP JUMPDEST PUSH1 0x40 MLOAD DUP1 SWAP2 SUB SWAP1 RETURN JUMPDEST PUSH3 0x8B PUSH1 0x4 DUP1 CALLDATASIZE SUB DUP2 ADD SWAP1 PUSH3 0x85 SWAP2 SWAP1 PUSH3 0x795 JUMP JUMPDEST PUSH3 0x153 JUMP JUMPDEST STOP JUMPDEST PUSH3 0xAB PUSH1 0x4 DUP1 CALLDATASIZE SUB DUP2 ADD SWAP1 PUSH3 0xA5 SWAP2 SWAP1 PUSH3 0x864 JUMP JUMPDEST PUSH3 0x27D JUMP JUMPDEST PUSH1 0x40 MLOAD PUSH3 0xBA SWAP2 SWAP1 PUSH3 0x8A7 JUMP JUMPDEST PUSH1 0x40 MLOAD DUP1 SWAP2 SUB SWAP1 RETURN JUMPDEST PUSH1 0x60 PUSH1 0x0 DUP1 SLOAD DUP1 PUSH1 0x20 MUL PUSH1 0x20 ADD PUSH1 0x40 MLOAD SWAP1 DUP2 ADD PUSH1 0x40 MSTORE DUP1 SWAP3 SWAP2 SWAP1 DUP2 DUP2 MSTORE PUSH1 0x20 ADD DUP3 DUP1 SLOAD DUP1 ISZERO PUSH3 0x149 JUMPI PUSH1 0x20 MUL DUP3 ADD SWAP2 SWAP1 PUSH1 0x0 MSTORE PUSH1 0x20 PUSH1 0x0 KECCAK256 SWAP1 JUMPDEST DUP2 PUSH1 0x0 SWAP1 SLOAD SWAP1 PUSH2 0x100 EXP SWAP1 DIV PUSH20 0xFFFFFFFFFFFFFFFFFFFFFFFFFFFFFFFFFFFFFFFF AND PUSH20 0xFFFFFFFFFFFFFFFFFFFFFFFFFFFFFFFFFFFFFFFF AND DUP2 MSTORE PUSH1 0x20 ADD SWAP1 PUSH1 0x1 ADD SWAP1 DUP1 DUP4 GT PUSH3 0xFE JUMPI JUMPDEST POP POP POP POP POP SWAP1 POP SWAP1 JUMP JUMPDEST PUSH1 0x0 JUMPDEST DUP3 MLOAD DUP2 LT ISZERO PUSH3 0x276 JUMPI PUSH1 0x0 DUP6 DUP3 DUP2 MLOAD DUP2 LT PUSH3 0x178 JUMPI PUSH3 0x177 PUSH3 0x8C4 JUMP JUMPDEST JUMPDEST PUSH1 0x20 MUL PUSH1 0x20 ADD ADD MLOAD DUP6 DUP4 DUP2 MLOAD DUP2 LT PUSH3 0x196 JUMPI PUSH3 0x195 PUSH3 0x8C4 JUMP JUMPDEST JUMPDEST PUSH1 0x20 MUL PUSH1 0x20 ADD ADD MLOAD DUP6 DUP5 DUP2 MLOAD DUP2 LT PUSH3 0x1B4 JUMPI PUSH3 0x1B3 PUSH3 0x8C4 JUMP JUMPDEST JUMPDEST PUSH1 0x20 MUL PUSH1 0x20 ADD ADD MLOAD CALLER DUP7 PUSH1 0x40 MLOAD PUSH3 0x1CC SWAP1 PUSH3 0x2BD JUMP JUMPDEST PUSH3 0x1DC SWAP6 SWAP5 SWAP4 SWAP3 SWAP2 SWAP1 PUSH3 0xAB9 JUMP JUMPDEST PUSH1 0x40 MLOAD DUP1 SWAP2 SUB SWAP1 PUSH1 0x0 CREATE DUP1 ISZERO DUP1 ISZERO PUSH3 0x1F9 JUMPI RETURNDATASIZE PUSH1 0x0 DUP1 RETURNDATACOPY RETURNDATASIZE PUSH1 0x0 REVERT JUMPDEST POP SWAP1 POP PUSH1 0x0 DUP2 SWAP1 DUP1 PUSH1 0x1 DUP2 SLOAD ADD DUP1 DUP3 SSTORE DUP1 SWAP2 POP POP PUSH1 0x1 SWAP1 SUB SWAP1 PUSH1 0x0 MSTORE PUSH1 0x20 PUSH1 0x0 KECCAK256 ADD PUSH1 0x0 SWAP1 SWAP2 SWAP1 SWAP2 SWAP1 SWAP2 PUSH2 0x100 EXP DUP2 SLOAD DUP2 PUSH20 0xFFFFFFFFFFFFFFFFFFFFFFFFFFFFFFFFFFFFFFFF MUL NOT AND SWAP1 DUP4 PUSH20 0xFFFFFFFFFFFFFFFFFFFFFFFFFFFFFFFFFFFFFFFF AND MUL OR SWAP1 SSTORE POP POP DUP1 DUP1 PUSH3 0x26D SWAP1 PUSH3 0xB5A JUMP JUMPDEST SWAP2 POP POP PUSH3 0x156 JUMP JUMPDEST POP POP POP POP POP JUMP JUMPDEST PUSH1 0x0 DUP2 DUP2 SLOAD DUP2 LT PUSH3 0x28E JUMPI PUSH1 0x0 DUP1 REVERT JUMPDEST SWAP1 PUSH1 0x0 MSTORE PUSH1 0x20 PUSH1 0x0 KECCAK256 ADD PUSH1 0x0 SWAP2 POP SLOAD SWAP1 PUSH2 0x100 EXP SWAP1 DIV PUSH20 0xFFFFFFFFFFFFFFFFFFFFFFFFFFFFFFFFFFFFFFFF AND DUP2 JUMP JUMPDEST PUSH2 0x1364 DUP1 PUSH3 0xBA9 DUP4 CODECOPY ADD SWAP1 JUMP JUMPDEST PUSH1 0x0 DUP2 MLOAD SWAP1 POP SWAP2 SWAP1 POP JUMP JUMPDEST PUSH1 0x0 DUP3 DUP3 MSTORE PUSH1 0x20 DUP3 ADD SWAP1 POP SWAP3 SWAP2 POP POP JUMP JUMPDEST PUSH1 0x0 DUP2 SWAP1 POP PUSH1 0x20 DUP3 ADD SWAP1 POP SWAP2 SWAP1 POP JUMP JUMPDEST PUSH1 0x0 PUSH20 0xFFFFFFFFFFFFFFFFFFFFFFFFFFFFFFFFFFFFFFFF DUP3 AND SWAP1 POP SWAP2 SWAP1 POP JUMP JUMPDEST PUSH1 0x0 PUSH3 0x324 DUP3 PUSH3 0x2F7 JUMP JUMPDEST SWAP1 POP SWAP2 SWAP1 POP JUMP JUMPDEST PUSH3 0x336 DUP2 PUSH3 0x317 JUMP JUMPDEST DUP3 MSTORE POP POP JUMP JUMPDEST PUSH1 0x0 PUSH3 0x34A DUP4 DUP4 PUSH3 0x32B JUMP JUMPDEST PUSH1 0x20 DUP4 ADD SWAP1 POP SWAP3 SWAP2 POP POP JUMP JUMPDEST PUSH1 0x0 PUSH1 0x20 DUP3 ADD SWAP1 POP SWAP2 SWAP1 POP JUMP JUMPDEST PUSH1 0x0 PUSH3 0x370 DUP3 PUSH3 0x2CB JUMP JUMPDEST PUSH3 0x37C DUP2 DUP6 PUSH3 0x2D6 JUMP JUMPDEST SWAP4 POP PUSH3 0x389 DUP4 PUSH3 0x2E7 JUMP JUMPDEST DUP1 PUSH1 0x0 JUMPDEST DUP4 DUP2 LT ISZERO PUSH3 0x3C0 JUMPI DUP2 MLOAD PUSH3 0x3A4 DUP9 DUP3 PUSH3 0x33C JUMP JUMPDEST SWAP8 POP PUSH3 0x3B1 DUP4 PUSH3 0x356 JUMP JUMPDEST SWAP3 POP POP PUSH1 0x1 DUP2 ADD SWAP1 POP PUSH3 0x38D JUMP JUMPDEST POP DUP6 SWAP4 POP POP POP POP SWAP3 SWAP2 POP POP JUMP JUMPDEST PUSH1 0x0 PUSH1 0x20 DUP3 ADD SWAP1 POP DUP2 DUP2 SUB PUSH1 0x0 DUP4 ADD MSTORE PUSH3 0x3E9 DUP2 DUP5 PUSH3 0x363 JUMP JUMPDEST SWAP1 POP SWAP3 SWAP2 POP POP JUMP JUMPDEST PUSH1 0x0 PUSH1 0x40 MLOAD SWAP1 POP SWAP1 JUMP JUMPDEST PUSH1 0x0 DUP1 REVERT JUMPDEST PUSH1 0x0 DUP1 REVERT JUMPDEST PUSH1 0x0 DUP1 REVERT JUMPDEST PUSH1 0x0 PUSH1 0x1F NOT PUSH1 0x1F DUP4 ADD AND SWAP1 POP SWAP2 SWAP1 POP JUMP JUMPDEST PUSH32 0x4E487B7100000000000000000000000000000000000000000000000000000000 PUSH1 0x0 MSTORE PUSH1 0x41 PUSH1 0x4 MSTORE PUSH1 0x24 PUSH1 0x0 REVERT JUMPDEST PUSH3 0x455 DUP3 PUSH3 0x40A JUMP JUMPDEST DUP2 ADD DUP2 DUP2 LT PUSH8 0xFFFFFFFFFFFFFFFF DUP3 GT OR ISZERO PUSH3 0x477 JUMPI PUSH3 0x476 PUSH3 0x41B JUMP JUMPDEST JUMPDEST DUP1 PUSH1 0x40 MSTORE POP POP POP JUMP JUMPDEST PUSH1 0x0 PUSH3 0x48C PUSH3 0x3F1 JUMP JUMPDEST SWAP1 POP PUSH3 0x49A DUP3 DUP3 PUSH3 0x44A JUMP JUMPDEST SWAP2 SWAP1 POP JUMP JUMPDEST PUSH1 0x0 PUSH8 0xFFFFFFFFFFFFFFFF DUP3 GT ISZERO PUSH3 0x4BD JUMPI PUSH3 0x4BC PUSH3 0x41B JUMP JUMPDEST JUMPDEST PUSH1 0x20 DUP3 MUL SWAP1 POP PUSH1 0x20 DUP2 ADD SWAP1 POP SWAP2 SWAP1 POP JUMP JUMPDEST PUSH1 0x0 DUP1 REVERT JUMPDEST PUSH1 0x0 PUSH8 0xFFFFFFFFFFFFFFFF DUP3 GT ISZERO PUSH3 0x4F1 JUMPI PUSH3 0x4F0 PUSH3 0x41B JUMP JUMPDEST JUMPDEST PUSH1 0x20 DUP3 MUL SWAP1 POP PUSH1 0x20 DUP2 ADD SWAP1 POP SWAP2 SWAP1 POP JUMP JUMPDEST PUSH1 0x0 DUP1 REVERT JUMPDEST PUSH1 0x0 PUSH8 0xFFFFFFFFFFFFFFFF DUP3 GT ISZERO PUSH3 0x525 JUMPI PUSH3 0x524 PUSH3 0x41B JUMP JUMPDEST JUMPDEST PUSH3 0x530 DUP3 PUSH3 0x40A JUMP JUMPDEST SWAP1 POP PUSH1 0x20 DUP2 ADD SWAP1 POP SWAP2 SWAP1 POP JUMP JUMPDEST DUP3 DUP2 DUP4 CALLDATACOPY PUSH1 0x0 DUP4 DUP4 ADD MSTORE POP POP POP JUMP JUMPDEST PUSH1 0x0 PUSH3 0x563 PUSH3 0x55D DUP5 PUSH3 0x507 JUMP JUMPDEST PUSH3 0x480 JUMP JUMPDEST SWAP1 POP DUP3 DUP2 MSTORE PUSH1 0x20 DUP2 ADD DUP5 DUP5 DUP5 ADD GT ISZERO PUSH3 0x582 JUMPI PUSH3 0x581 PUSH3 0x502 JUMP JUMPDEST JUMPDEST PUSH3 0x58F DUP5 DUP3 DUP6 PUSH3 0x53D JUMP JUMPDEST POP SWAP4 SWAP3 POP POP POP JUMP JUMPDEST PUSH1 0x0 DUP3 PUSH1 0x1F DUP4 ADD SLT PUSH3 0x5AF JUMPI PUSH3 0x5AE PUSH3 0x405 JUMP JUMPDEST JUMPDEST DUP2 CALLDATALOAD PUSH3 0x5C1 DUP5 DUP3 PUSH1 0x20 DUP7 ADD PUSH3 0x54C JUMP JUMPDEST SWAP2 POP POP SWAP3 SWAP2 POP POP JUMP JUMPDEST PUSH1 0x0 PUSH3 0x5E1 PUSH3 0x5DB DUP5 PUSH3 0x4D3 JUMP JUMPDEST PUSH3 0x480 JUMP JUMPDEST SWAP1 POP DUP1 DUP4 DUP3 MSTORE PUSH1 0x20 DUP3 ADD SWAP1 POP PUSH1 0x20 DUP5 MUL DUP4 ADD DUP6 DUP2 GT ISZERO PUSH3 0x607 JUMPI PUSH3 0x606 PUSH3 0x4CE JUMP JUMPDEST JUMPDEST DUP4 JUMPDEST DUP2 DUP2 LT ISZERO PUSH3 0x655 JUMPI DUP1 CALLDATALOAD PUSH8 0xFFFFFFFFFFFFFFFF DUP2 GT ISZERO PUSH3 0x630 JUMPI PUSH3 0x62F PUSH3 0x405 JUMP JUMPDEST JUMPDEST DUP1 DUP7 ADD PUSH3 0x63F DUP10 DUP3 PUSH3 0x597 JUMP JUMPDEST DUP6 MSTORE PUSH1 0x20 DUP6 ADD SWAP5 POP POP POP PUSH1 0x20 DUP2 ADD SWAP1 POP PUSH3 0x609 JUMP JUMPDEST POP POP POP SWAP4 SWAP3 POP POP POP JUMP JUMPDEST PUSH1 0x0 DUP3 PUSH1 0x1F DUP4 ADD SLT PUSH3 0x677 JUMPI PUSH3 0x676 PUSH3 0x405 JUMP JUMPDEST JUMPDEST DUP2 CALLDATALOAD PUSH3 0x689 DUP5 DUP3 PUSH1 0x20 DUP7 ADD PUSH3 0x5CA JUMP JUMPDEST SWAP2 POP POP SWAP3 SWAP2 POP POP JUMP JUMPDEST PUSH1 0x0 PUSH3 0x6A9 PUSH3 0x6A3 DUP5 PUSH3 0x49F JUMP JUMPDEST PUSH3 0x480 JUMP JUMPDEST SWAP1 POP DUP1 DUP4 DUP3 MSTORE PUSH1 0x20 DUP3 ADD SWAP1 POP PUSH1 0x20 DUP5 MUL DUP4 ADD DUP6 DUP2 GT ISZERO PUSH3 0x6CF JUMPI PUSH3 0x6CE PUSH3 0x4CE JUMP JUMPDEST JUMPDEST DUP4 JUMPDEST DUP2 DUP2 LT ISZERO PUSH3 0x71D JUMPI DUP1 CALLDATALOAD PUSH8 0xFFFFFFFFFFFFFFFF DUP2 GT ISZERO PUSH3 0x6F8 JUMPI PUSH3 0x6F7 PUSH3 0x405 JUMP JUMPDEST JUMPDEST DUP1 DUP7 ADD PUSH3 0x707 DUP10 DUP3 PUSH3 0x65F JUMP JUMPDEST DUP6 MSTORE PUSH1 0x20 DUP6 ADD SWAP5 POP POP POP PUSH1 0x20 DUP2 ADD SWAP1 POP PUSH3 0x6D1 JUMP JUMPDEST POP POP POP SWAP4 SWAP3 POP POP POP JUMP JUMPDEST PUSH1 0x0 DUP3 PUSH1 0x1F DUP4 ADD SLT PUSH3 0x73F JUMPI PUSH3 0x73E PUSH3 0x405 JUMP JUMPDEST JUMPDEST DUP2 CALLDATALOAD PUSH3 0x751 DUP5 DUP3 PUSH1 0x20 DUP7 ADD PUSH3 0x692 JUMP JUMPDEST SWAP2 POP POP SWAP3 SWAP2 POP POP JUMP JUMPDEST PUSH1 0x0 DUP2 SWAP1 POP SWAP2 SWAP1 POP JUMP JUMPDEST PUSH3 0x76F DUP2 PUSH3 0x75A JUMP JUMPDEST DUP2 EQ PUSH3 0x77B JUMPI PUSH1 0x0 DUP1 REVERT JUMPDEST POP JUMP JUMPDEST PUSH1 0x0 DUP2 CALLDATALOAD SWAP1 POP PUSH3 0x78F DUP2 PUSH3 0x764 JUMP JUMPDEST SWAP3 SWAP2 POP POP JUMP JUMPDEST PUSH1 0x0 DUP1 PUSH1 0x0 DUP1 PUSH1 0x80 DUP6 DUP8 SUB SLT ISZERO PUSH3 0x7B2 JUMPI PUSH3 0x7B1 PUSH3 0x3FB JUMP JUMPDEST JUMPDEST PUSH1 0x0 DUP6 ADD CALLDATALOAD PUSH8 0xFFFFFFFFFFFFFFFF DUP2 GT ISZERO PUSH3 0x7D3 JUMPI PUSH3 0x7D2 PUSH3 0x400 JUMP JUMPDEST JUMPDEST PUSH3 0x7E1 DUP8 DUP3 DUP9 ADD PUSH3 0x727 JUMP JUMPDEST SWAP5 POP POP PUSH1 0x20 DUP6 ADD CALLDATALOAD PUSH8 0xFFFFFFFFFFFFFFFF DUP2 GT ISZERO PUSH3 0x805 JUMPI PUSH3 0x804 PUSH3 0x400 JUMP JUMPDEST JUMPDEST PUSH3 0x813 DUP8 DUP3 DUP9 ADD PUSH3 0x727 JUMP JUMPDEST SWAP4 POP POP PUSH1 0x40 DUP6 ADD CALLDATALOAD PUSH8 0xFFFFFFFFFFFFFFFF DUP2 GT ISZERO PUSH3 0x837 JUMPI PUSH3 0x836 PUSH3 0x400 JUMP JUMPDEST JUMPDEST PUSH3 0x845 DUP8 DUP3 DUP9 ADD PUSH3 0x65F JUMP JUMPDEST SWAP3 POP POP PUSH1 0x60 PUSH3 0x858 DUP8 DUP3 DUP9 ADD PUSH3 0x77E JUMP JUMPDEST SWAP2 POP POP SWAP3 SWAP6 SWAP2 SWAP5 POP SWAP3 POP JUMP JUMPDEST PUSH1 0x0 PUSH1 0x20 DUP3 DUP5 SUB SLT ISZERO PUSH3 0x87D JUMPI PUSH3 0x87C PUSH3 0x3FB JUMP JUMPDEST JUMPDEST PUSH1 0x0 PUSH3 0x88D DUP5 DUP3 DUP6 ADD PUSH3 0x77E JUMP JUMPDEST SWAP2 POP POP SWAP3 SWAP2 POP POP JUMP JUMPDEST PUSH3 0x8A1 DUP2 PUSH3 0x317 JUMP JUMPDEST DUP3 MSTORE POP POP JUMP JUMPDEST PUSH1 0x0 PUSH1 0x20 DUP3 ADD SWAP1 POP PUSH3 0x8BE PUSH1 0x0 DUP4 ADD DUP5 PUSH3 0x896 JUMP JUMPDEST SWAP3 SWAP2 POP POP JUMP JUMPDEST PUSH32 0x4E487B7100000000000000000000000000000000000000000000000000000000 PUSH1 0x0 MSTORE PUSH1 0x32 PUSH1 0x4 MSTORE PUSH1 0x24 PUSH1 0x0 REVERT JUMPDEST PUSH1 0x0 DUP2 MLOAD SWAP1 POP SWAP2 SWAP1 POP JUMP JUMPDEST PUSH1 0x0 DUP3 DUP3 MSTORE PUSH1 0x20 DUP3 ADD SWAP1 POP SWAP3 SWAP2 POP POP JUMP JUMPDEST PUSH1 0x0 DUP2 SWAP1 POP PUSH1 0x20 DUP3 ADD SWAP1 POP SWAP2 SWAP1 POP JUMP JUMPDEST PUSH1 0x0 DUP2 MLOAD SWAP1 POP SWAP2 SWAP1 POP JUMP JUMPDEST PUSH1 0x0 DUP3 DUP3 MSTORE PUSH1 0x20 DUP3 ADD SWAP1 POP SWAP3 SWAP2 POP POP JUMP JUMPDEST PUSH1 0x0 JUMPDEST DUP4 DUP2 LT ISZERO PUSH3 0x95B JUMPI DUP1 DUP3 ADD MLOAD DUP2 DUP5 ADD MSTORE PUSH1 0x20 DUP2 ADD SWAP1 POP PUSH3 0x93E JUMP JUMPDEST DUP4 DUP2 GT ISZERO PUSH3 0x96B JUMPI PUSH1 0x0 DUP5 DUP5 ADD MSTORE JUMPDEST POP POP POP POP JUMP JUMPDEST PUSH1 0x0 PUSH3 0x97E DUP3 PUSH3 0x91F JUMP JUMPDEST PUSH3 0x98A DUP2 DUP6 PUSH3 0x92A JUMP JUMPDEST SWAP4 POP PUSH3 0x99C DUP2 DUP6 PUSH1 0x20 DUP7 ADD PUSH3 0x93B JUMP JUMPDEST PUSH3 0x9A7 DUP2 PUSH3 0x40A JUMP JUMPDEST DUP5 ADD SWAP2 POP POP SWAP3 SWAP2 POP POP JUMP JUMPDEST PUSH1 0x0 PUSH3 0x9C0 DUP4 DUP4 PUSH3 0x971 JUMP JUMPDEST SWAP1 POP SWAP3 SWAP2 POP POP JUMP JUMPDEST PUSH1 0x0 PUSH1 0x20 DUP3 ADD SWAP1 POP SWAP2 SWAP1 POP JUMP JUMPDEST PUSH1 0x0 PUSH3 0x9E2 DUP3 PUSH3 0x8F3 JUMP JUMPDEST PUSH3 0x9EE DUP2 DUP6 PUSH3 0x8FE JUMP JUMPDEST SWAP4 POP DUP4 PUSH1 0x20 DUP3 MUL DUP6 ADD PUSH3 0xA02 DUP6 PUSH3 0x90F JUMP JUMPDEST DUP1 PUSH1 0x0 JUMPDEST DUP6 DUP2 LT ISZERO PUSH3 0xA44 JUMPI DUP5 DUP5 SUB DUP10 MSTORE DUP2 MLOAD PUSH3 0xA22 DUP6 DUP3 PUSH3 0x9B2 JUMP JUMPDEST SWAP5 POP PUSH3 0xA2F DUP4 PUSH3 0x9C8 JUMP JUMPDEST SWAP3 POP PUSH1 0x20 DUP11 ADD SWAP10 POP POP PUSH1 0x1 DUP2 ADD SWAP1 POP PUSH3 0xA06 JUMP JUMPDEST POP DUP3 SWAP8 POP DUP8 SWAP6 POP POP POP POP POP POP SWAP3 SWAP2 POP POP JUMP JUMPDEST PUSH1 0x0 DUP3 DUP3 MSTORE PUSH1 0x20 DUP3 ADD SWAP1 POP SWAP3 SWAP2 POP POP JUMP JUMPDEST PUSH1 0x0 PUSH3 0xA74 DUP3 PUSH3 0x91F JUMP JUMPDEST PUSH3 0xA80 DUP2 DUP6 PUSH3 0xA56 JUMP JUMPDEST SWAP4 POP PUSH3 0xA92 DUP2 DUP6 PUSH1 0x20 DUP7 ADD PUSH3 0x93B JUMP JUMPDEST PUSH3 0xA9D DUP2 PUSH3 0x40A JUMP JUMPDEST DUP5 ADD SWAP2 POP POP SWAP3 SWAP2 POP POP JUMP JUMPDEST PUSH3 0xAB3 DUP2 PUSH3 0x75A JUMP JUMPDEST DUP3 MSTORE POP POP JUMP JUMPDEST PUSH1 0x0 PUSH1 0xA0 DUP3 ADD SWAP1 POP DUP2 DUP2 SUB PUSH1 0x0 DUP4 ADD MSTORE PUSH3 0xAD5 DUP2 DUP9 PUSH3 0x9D5 JUMP JUMPDEST SWAP1 POP DUP2 DUP2 SUB PUSH1 0x20 DUP4 ADD MSTORE PUSH3 0xAEB DUP2 DUP8 PUSH3 0x9D5 JUMP JUMPDEST SWAP1 POP DUP2 DUP2 SUB PUSH1 0x40 DUP4 ADD MSTORE PUSH3 0xB01 DUP2 DUP7 PUSH3 0xA67 JUMP JUMPDEST SWAP1 POP PUSH3 0xB12 PUSH1 0x60 DUP4 ADD DUP6 PUSH3 0x896 JUMP JUMPDEST PUSH3 0xB21 PUSH1 0x80 DUP4 ADD DUP5 PUSH3 0xAA8 JUMP JUMPDEST SWAP7 SWAP6 POP POP POP POP POP POP JUMP JUMPDEST PUSH32 0x4E487B7100000000000000000000000000000000000000000000000000000000 PUSH1 0x0 MSTORE PUSH1 0x11 PUSH1 0x4 MSTORE PUSH1 0x24 PUSH1 0x0 REVERT JUMPDEST PUSH1 0x0 PUSH3 0xB67 DUP3 PUSH3 0x75A JUMP JUMPDEST SWAP2 POP PUSH32 0xFFFFFFFFFFFFFFFFFFFFFFFFFFFFFFFFFFFFFFFFFFFFFFFFFFFFFFFFFFFFFFFF DUP3 EQ ISZERO PUSH3 0xB9D JUMPI PUSH3 0xB9C PUSH3 0xB2B JUMP JUMPDEST JUMPDEST PUSH1 0x1 DUP3 ADD SWAP1 POP SWAP2 SWAP1 POP JUMP INVALID PUSH1 0x80 PUSH1 0x40 MSTORE CALLVALUE DUP1 ISZERO PUSH3 0x11 JUMPI PUSH1 0x0 DUP1 REVERT JUMPDEST POP PUSH1 0x40 MLOAD PUSH3 0x1364 CODESIZE SUB DUP1 PUSH3 0x1364 DUP4 CODECOPY DUP2 DUP2 ADD PUSH1 0x40 MSTORE DUP2 ADD SWAP1 PUSH3 0x37 SWAP2 SWAP1 PUSH3 0x5A1 JUMP JUMPDEST DUP2 PUSH1 0x1 PUSH1 0x0 PUSH2 0x100 EXP DUP2 SLOAD DUP2 PUSH20 0xFFFFFFFFFFFFFFFFFFFFFFFFFFFFFFFFFFFFFFFF MUL NOT AND SWAP1 DUP4 PUSH20 0xFFFFFFFFFFFFFFFFFFFFFFFFFFFFFFFFFFFFFFFF AND MUL OR SWAP1 SSTORE POP DUP3 PUSH1 0x2 SWAP1 DUP1 MLOAD SWAP1 PUSH1 0x20 ADD SWAP1 PUSH3 0x90 SWAP3 SWAP2 SWAP1 PUSH3 0x1B8 JUMP JUMPDEST POP PUSH1 0x0 JUMPDEST DUP6 MLOAD DUP2 LT ISZERO PUSH3 0x1AC JUMPI PUSH1 0x0 PUSH1 0x40 MLOAD DUP1 PUSH1 0xA0 ADD PUSH1 0x40 MSTORE DUP1 DUP9 DUP5 DUP2 MLOAD DUP2 LT PUSH3 0xC1 JUMPI PUSH3 0xC0 PUSH3 0x686 JUMP JUMPDEST JUMPDEST PUSH1 0x20 MUL PUSH1 0x20 ADD ADD MLOAD DUP2 MSTORE PUSH1 0x20 ADD DUP8 DUP5 DUP2 MLOAD DUP2 LT PUSH3 0xE4 JUMPI PUSH3 0xE3 PUSH3 0x686 JUMP JUMPDEST JUMPDEST PUSH1 0x20 MUL PUSH1 0x20 ADD ADD MLOAD DUP2 MSTORE PUSH1 0x20 ADD PUSH1 0x0 DUP2 MSTORE PUSH1 0x20 ADD TIMESTAMP DUP2 MSTORE PUSH1 0x20 ADD DUP5 TIMESTAMP PUSH3 0x10C SWAP2 SWAP1 PUSH3 0x6E4 JUMP JUMPDEST DUP2 MSTORE POP SWAP1 DUP1 PUSH1 0x1 DUP2 SLOAD ADD DUP1 DUP3 SSTORE DUP1 SWAP2 POP POP PUSH1 0x1 SWAP1 SUB SWAP1 PUSH1 0x0 MSTORE PUSH1 0x20 PUSH1 0x0 KECCAK256 SWAP1 PUSH1 0x5 MUL ADD PUSH1 0x0 SWAP1 SWAP2 SWAP1 SWAP2 SWAP1 SWAP2 POP PUSH1 0x0 DUP3 ADD MLOAD DUP2 PUSH1 0x0 ADD SWAP1 DUP1 MLOAD SWAP1 PUSH1 0x20 ADD SWAP1 PUSH3 0x156 SWAP3 SWAP2 SWAP1 PUSH3 0x1B8 JUMP JUMPDEST POP PUSH1 0x20 DUP3 ADD MLOAD DUP2 PUSH1 0x1 ADD SWAP1 DUP1 MLOAD SWAP1 PUSH1 0x20 ADD SWAP1 PUSH3 0x175 SWAP3 SWAP2 SWAP1 PUSH3 0x1B8 JUMP JUMPDEST POP PUSH1 0x40 DUP3 ADD MLOAD DUP2 PUSH1 0x2 ADD SSTORE PUSH1 0x60 DUP3 ADD MLOAD DUP2 PUSH1 0x3 ADD SSTORE PUSH1 0x80 DUP3 ADD MLOAD DUP2 PUSH1 0x4 ADD SSTORE POP POP DUP1 DUP1 PUSH3 0x1A3 SWAP1 PUSH3 0x741 JUMP JUMPDEST SWAP2 POP POP PUSH3 0x94 JUMP JUMPDEST POP POP POP POP POP POP PUSH3 0x7F4 JUMP JUMPDEST DUP3 DUP1 SLOAD PUSH3 0x1C6 SWAP1 PUSH3 0x7BE JUMP JUMPDEST SWAP1 PUSH1 0x0 MSTORE PUSH1 0x20 PUSH1 0x0 KECCAK256 SWAP1 PUSH1 0x1F ADD PUSH1 0x20 SWAP1 DIV DUP2 ADD SWAP3 DUP3 PUSH3 0x1EA JUMPI PUSH1 0x0 DUP6 SSTORE PUSH3 0x236 JUMP JUMPDEST DUP3 PUSH1 0x1F LT PUSH3 0x205 JUMPI DUP1 MLOAD PUSH1 0xFF NOT AND DUP4 DUP1 ADD OR DUP6 SSTORE PUSH3 0x236 JUMP JUMPDEST DUP3 DUP1 ADD PUSH1 0x1 ADD DUP6 SSTORE DUP3 ISZERO PUSH3 0x236 JUMPI SWAP2 DUP3 ADD JUMPDEST DUP3 DUP2 GT ISZERO PUSH3 0x235 JUMPI DUP3 MLOAD DUP3 SSTORE SWAP2 PUSH1 0x20 ADD SWAP2 SWAP1 PUSH1 0x1 ADD SWAP1 PUSH3 0x218 JUMP JUMPDEST JUMPDEST POP SWAP1 POP PUSH3 0x245 SWAP2 SWAP1 PUSH3 0x249 JUMP JUMPDEST POP SWAP1 JUMP JUMPDEST JUMPDEST DUP1 DUP3 GT ISZERO PUSH3 0x264 JUMPI PUSH1 0x0 DUP2 PUSH1 0x0 SWAP1 SSTORE POP PUSH1 0x1 ADD PUSH3 0x24A JUMP JUMPDEST POP SWAP1 JUMP JUMPDEST PUSH1 0x0 PUSH1 0x40 MLOAD SWAP1 POP SWAP1 JUMP JUMPDEST PUSH1 0x0 DUP1 REVERT JUMPDEST PUSH1 0x0 DUP1 REVERT JUMPDEST PUSH1 0x0 DUP1 REVERT JUMPDEST PUSH1 0x0 PUSH1 0x1F NOT PUSH1 0x1F DUP4 ADD AND SWAP1 POP SWAP2 SWAP1 POP JUMP JUMPDEST PUSH32 0x4E487B7100000000000000000000000000000000000000000000000000000000 PUSH1 0x0 MSTORE PUSH1 0x41 PUSH1 0x4 MSTORE PUSH1 0x24 PUSH1 0x0 REVERT JUMPDEST PUSH3 0x2CC DUP3 PUSH3 0x281 JUMP JUMPDEST DUP2 ADD DUP2 DUP2 LT PUSH8 0xFFFFFFFFFFFFFFFF DUP3 GT OR ISZERO PUSH3 0x2EE JUMPI PUSH3 0x2ED PUSH3 0x292 JUMP JUMPDEST JUMPDEST DUP1 PUSH1 0x40 MSTORE POP POP POP JUMP JUMPDEST PUSH1 0x0 PUSH3 0x303 PUSH3 0x268 JUMP JUMPDEST SWAP1 POP PUSH3 0x311 DUP3 DUP3 PUSH3 0x2C1 JUMP JUMPDEST SWAP2 SWAP1 POP JUMP JUMPDEST PUSH1 0x0 PUSH8 0xFFFFFFFFFFFFFFFF DUP3 GT ISZERO PUSH3 0x334 JUMPI PUSH3 0x333 PUSH3 0x292 JUMP JUMPDEST JUMPDEST PUSH1 0x20 DUP3 MUL SWAP1 POP PUSH1 0x20 DUP2 ADD SWAP1 POP SWAP2 SWAP1 POP JUMP JUMPDEST PUSH1 0x0 DUP1 REVERT JUMPDEST PUSH1 0x0 DUP1 REVERT JUMPDEST PUSH1 0x0 PUSH8 0xFFFFFFFFFFFFFFFF DUP3 GT ISZERO PUSH3 0x36D JUMPI PUSH3 0x36C PUSH3 0x292 JUMP JUMPDEST JUMPDEST PUSH3 0x378 DUP3 PUSH3 0x281 JUMP JUMPDEST SWAP1 POP PUSH1 0x20 DUP2 ADD SWAP1 POP SWAP2 SWAP1 POP JUMP JUMPDEST PUSH1 0x0 JUMPDEST DUP4 DUP2 LT ISZERO PUSH3 0x3A5 JUMPI DUP1 DUP3 ADD MLOAD DUP2 DUP5 ADD MSTORE PUSH1 0x20 DUP2 ADD SWAP1 POP PUSH3 0x388 JUMP JUMPDEST DUP4 DUP2 GT ISZERO PUSH3 0x3B5 JUMPI PUSH1 0x0 DUP5 DUP5 ADD MSTORE JUMPDEST POP POP POP POP JUMP JUMPDEST PUSH1 0x0 PUSH3 0x3D2 PUSH3 0x3CC DUP5 PUSH3 0x34F JUMP JUMPDEST PUSH3 0x2F7 JUMP JUMPDEST SWAP1 POP DUP3 DUP2 MSTORE PUSH1 0x20 DUP2 ADD DUP5 DUP5 DUP5 ADD GT ISZERO PUSH3 0x3F1 JUMPI PUSH3 0x3F0 PUSH3 0x34A JUMP JUMPDEST JUMPDEST PUSH3 0x3FE DUP5 DUP3 DUP6 PUSH3 0x385 JUMP JUMPDEST POP SWAP4 SWAP3 POP POP POP JUMP JUMPDEST PUSH1 0x0 DUP3 PUSH1 0x1F DUP4 ADD SLT PUSH3 0x41E JUMPI PUSH3 0x41D PUSH3 0x27C JUMP JUMPDEST JUMPDEST DUP2 MLOAD PUSH3 0x430 DUP5 DUP3 PUSH1 0x20 DUP7 ADD PUSH3 0x3BB JUMP JUMPDEST SWAP2 POP POP SWAP3 SWAP2 POP POP JUMP JUMPDEST PUSH1 0x0 PUSH3 0x450 PUSH3 0x44A DUP5 PUSH3 0x316 JUMP JUMPDEST PUSH3 0x2F7 JUMP JUMPDEST SWAP1 POP DUP1 DUP4 DUP3 MSTORE PUSH1 0x20 DUP3 ADD SWAP1 POP PUSH1 0x20 DUP5 MUL DUP4 ADD DUP6 DUP2 GT ISZERO PUSH3 0x476 JUMPI PUSH3 0x475 PUSH3 0x345 JUMP JUMPDEST JUMPDEST DUP4 JUMPDEST DUP2 DUP2 LT ISZERO PUSH3 0x4C4 JUMPI DUP1 MLOAD PUSH8 0xFFFFFFFFFFFFFFFF DUP2 GT ISZERO PUSH3 0x49F JUMPI PUSH3 0x49E PUSH3 0x27C JUMP JUMPDEST JUMPDEST DUP1 DUP7 ADD PUSH3 0x4AE DUP10 DUP3 PUSH3 0x406 JUMP JUMPDEST DUP6 MSTORE PUSH1 0x20 DUP6 ADD SWAP5 POP POP POP PUSH1 0x20 DUP2 ADD SWAP1 POP PUSH3 0x478 JUMP JUMPDEST POP POP POP SWAP4 SWAP3 POP POP POP JUMP JUMPDEST PUSH1 0x0 DUP3 PUSH1 0x1F DUP4 ADD SLT PUSH3 0x4E6 JUMPI PUSH3 0x4E5 PUSH3 0x27C JUMP JUMPDEST JUMPDEST DUP2 MLOAD PUSH3 0x4F8 DUP5 DUP3 PUSH1 0x20 DUP7 ADD PUSH3 0x439 JUMP JUMPDEST SWAP2 POP POP SWAP3 SWAP2 POP POP JUMP JUMPDEST PUSH1 0x0 PUSH20 0xFFFFFFFFFFFFFFFFFFFFFFFFFFFFFFFFFFFFFFFF DUP3 AND SWAP1 POP SWAP2 SWAP1 POP JUMP JUMPDEST PUSH1 0x0 PUSH3 0x52E DUP3 PUSH3 0x501 JUMP JUMPDEST SWAP1 POP SWAP2 SWAP1 POP JUMP JUMPDEST PUSH3 0x540 DUP2 PUSH3 0x521 JUMP JUMPDEST DUP2 EQ PUSH3 0x54C JUMPI PUSH1 0x0 DUP1 REVERT JUMPDEST POP JUMP JUMPDEST PUSH1 0x0 DUP2 MLOAD SWAP1 POP PUSH3 0x560 DUP2 PUSH3 0x535 JUMP JUMPDEST SWAP3 SWAP2 POP POP JUMP JUMPDEST PUSH1 0x0 DUP2 SWAP1 POP SWAP2 SWAP1 POP JUMP JUMPDEST PUSH3 0x57B DUP2 PUSH3 0x566 JUMP JUMPDEST DUP2 EQ PUSH3 0x587 JUMPI PUSH1 0x0 DUP1 REVERT JUMPDEST POP JUMP JUMPDEST PUSH1 0x0 DUP2 MLOAD SWAP1 POP PUSH3 0x59B DUP2 PUSH3 0x570 JUMP JUMPDEST SWAP3 SWAP2 POP POP JUMP JUMPDEST PUSH1 0x0 DUP1 PUSH1 0x0 DUP1 PUSH1 0x0 PUSH1 0xA0 DUP7 DUP9 SUB SLT ISZERO PUSH3 0x5C0 JUMPI PUSH3 0x5BF PUSH3 0x272 JUMP JUMPDEST JUMPDEST PUSH1 0x0 DUP7 ADD MLOAD PUSH8 0xFFFFFFFFFFFFFFFF DUP2 GT ISZERO PUSH3 0x5E1 JUMPI PUSH3 0x5E0 PUSH3 0x277 JUMP JUMPDEST JUMPDEST PUSH3 0x5EF DUP9 DUP3 DUP10 ADD PUSH3 0x4CE JUMP JUMPDEST SWAP6 POP POP PUSH1 0x20 DUP7 ADD MLOAD PUSH8 0xFFFFFFFFFFFFFFFF DUP2 GT ISZERO PUSH3 0x613 JUMPI PUSH3 0x612 PUSH3 0x277 JUMP JUMPDEST JUMPDEST PUSH3 0x621 DUP9 DUP3 DUP10 ADD PUSH3 0x4CE JUMP JUMPDEST SWAP5 POP POP PUSH1 0x40 DUP7 ADD MLOAD PUSH8 0xFFFFFFFFFFFFFFFF DUP2 GT ISZERO PUSH3 0x645 JUMPI PUSH3 0x644 PUSH3 0x277 JUMP JUMPDEST JUMPDEST PUSH3 0x653 DUP9 DUP3 DUP10 ADD PUSH3 0x406 JUMP JUMPDEST SWAP4 POP POP PUSH1 0x60 PUSH3 0x666 DUP9 DUP3 DUP10 ADD PUSH3 0x54F JUMP JUMPDEST SWAP3 POP POP PUSH1 0x80 PUSH3 0x679 DUP9 DUP3 DUP10 ADD PUSH3 0x58A JUMP JUMPDEST SWAP2 POP POP SWAP3 SWAP6 POP SWAP3 SWAP6 SWAP1 SWAP4 POP JUMP JUMPDEST PUSH32 0x4E487B7100000000000000000000000000000000000000000000000000000000 PUSH1 0x0 MSTORE PUSH1 0x32 PUSH1 0x4 MSTORE PUSH1 0x24 PUSH1 0x0 REVERT JUMPDEST PUSH32 0x4E487B7100000000000000000000000000000000000000000000000000000000 PUSH1 0x0 MSTORE PUSH1 0x11 PUSH1 0x4 MSTORE PUSH1 0x24 PUSH1 0x0 REVERT JUMPDEST PUSH1 0x0 PUSH3 0x6F1 DUP3 PUSH3 0x566 JUMP JUMPDEST SWAP2 POP PUSH3 0x6FE DUP4 PUSH3 0x566 JUMP JUMPDEST SWAP3 POP DUP3 PUSH32 0xFFFFFFFFFFFFFFFFFFFFFFFFFFFFFFFFFFFFFFFFFFFFFFFFFFFFFFFFFFFFFFFF SUB DUP3 GT ISZERO PUSH3 0x736 JUMPI PUSH3 0x735 PUSH3 0x6B5 JUMP JUMPDEST JUMPDEST DUP3 DUP3 ADD SWAP1 POP SWAP3 SWAP2 POP POP JUMP JUMPDEST PUSH1 0x0 PUSH3 0x74E DUP3 PUSH3 0x566 JUMP JUMPDEST SWAP2 POP PUSH32 0xFFFFFFFFFFFFFFFFFFFFFFFFFFFFFFFFFFFFFFFFFFFFFFFFFFFFFFFFFFFFFFFF DUP3 EQ ISZERO PUSH3 0x784 JUMPI PUSH3 0x783 PUSH3 0x6B5 JUMP JUMPDEST JUMPDEST PUSH1 0x1 DUP3 ADD SWAP1 POP SWAP2 SWAP1 POP JUMP JUMPDEST PUSH32 0x4E487B7100000000000000000000000000000000000000000000000000000000 PUSH1 0x0 MSTORE PUSH1 0x22 PUSH1 0x4 MSTORE PUSH1 0x24 PUSH1 0x0 REVERT JUMPDEST PUSH1 0x0 PUSH1 0x2 DUP3 DIV SWAP1 POP PUSH1 0x1 DUP3 AND DUP1 PUSH3 0x7D7 JUMPI PUSH1 0x7F DUP3 AND SWAP2 POP JUMPDEST PUSH1 0x20 DUP3 LT DUP2 EQ ISZERO PUSH3 0x7EE JUMPI PUSH3 0x7ED PUSH3 0x78F JUMP JUMPDEST JUMPDEST POP SWAP2 SWAP1 POP JUMP JUMPDEST PUSH2 0xB60 DUP1 PUSH3 0x804 PUSH1 0x0 CODECOPY PUSH1 0x0 RETURN INVALID PUSH1 0x80 PUSH1 0x40 MSTORE CALLVALUE DUP1 ISZERO PUSH2 0x10 JUMPI PUSH1 0x0 DUP1 REVERT JUMPDEST POP PUSH1 0x4 CALLDATASIZE LT PUSH2 0x88 JUMPI PUSH1 0x0 CALLDATALOAD PUSH1 0xE0 SHR DUP1 PUSH4 0x716C424E GT PUSH2 0x5B JUMPI DUP1 PUSH4 0x716C424E EQ PUSH2 0x12B JUMPI DUP1 PUSH4 0xA3EC138D EQ PUSH2 0x149 JUMPI DUP1 PUSH4 0xB2C2F2E8 EQ PUSH2 0x179 JUMPI DUP1 PUSH4 0xE13804A7 EQ PUSH2 0x1A9 JUMPI PUSH2 0x88 JUMP JUMPDEST DUP1 PUSH4 0x121B93F EQ PUSH2 0x8D JUMPI DUP1 PUSH4 0x3477EE2E EQ PUSH2 0xA9 JUMPI DUP1 PUSH4 0x456645A7 EQ PUSH2 0xDD JUMPI DUP1 PUSH4 0x481C6A75 EQ PUSH2 0x10D JUMPI JUMPDEST PUSH1 0x0 DUP1 REVERT JUMPDEST PUSH2 0xA7 PUSH1 0x4 DUP1 CALLDATASIZE SUB DUP2 ADD SWAP1 PUSH2 0xA2 SWAP2 SWAP1 PUSH2 0x7B7 JUMP JUMPDEST PUSH2 0x1D9 JUMP JUMPDEST STOP JUMPDEST PUSH2 0xC3 PUSH1 0x4 DUP1 CALLDATASIZE SUB DUP2 ADD SWAP1 PUSH2 0xBE SWAP2 SWAP1 PUSH2 0x7B7 JUMP JUMPDEST PUSH2 0x2C8 JUMP JUMPDEST PUSH1 0x40 MLOAD PUSH2 0xD4 SWAP6 SWAP5 SWAP4 SWAP3 SWAP2 SWAP1 PUSH2 0x88C JUMP JUMPDEST PUSH1 0x40 MLOAD DUP1 SWAP2 SUB SWAP1 RETURN JUMPDEST PUSH2 0xF7 PUSH1 0x4 DUP1 CALLDATASIZE SUB DUP2 ADD SWAP1 PUSH2 0xF2 SWAP2 SWAP1 PUSH2 0x7B7 JUMP JUMPDEST PUSH2 0x41E JUMP JUMPDEST PUSH1 0x40 MLOAD PUSH2 0x104 SWAP2 SWAP1 PUSH2 0x8ED JUMP JUMPDEST PUSH1 0x40 MLOAD DUP1 SWAP2 SUB SWAP1 RETURN JUMPDEST PUSH2 0x115 PUSH2 0x506 JUMP JUMPDEST PUSH1 0x40 MLOAD PUSH2 0x122 SWAP2 SWAP1 PUSH2 0x950 JUMP JUMPDEST PUSH1 0x40 MLOAD DUP1 SWAP2 SUB SWAP1 RETURN JUMPDEST PUSH2 0x133 PUSH2 0x52C JUMP JUMPDEST PUSH1 0x40 MLOAD PUSH2 0x140 SWAP2 SWAP1 PUSH2 0x8ED JUMP JUMPDEST PUSH1 0x40 MLOAD DUP1 SWAP2 SUB SWAP1 RETURN JUMPDEST PUSH2 0x163 PUSH1 0x4 DUP1 CALLDATASIZE SUB DUP2 ADD SWAP1 PUSH2 0x15E SWAP2 SWAP1 PUSH2 0x997 JUMP JUMPDEST PUSH2 0x5BA JUMP JUMPDEST PUSH1 0x40 MLOAD PUSH2 0x170 SWAP2 SWAP1 PUSH2 0x9DF JUMP JUMPDEST PUSH1 0x40 MLOAD DUP1 SWAP2 SUB SWAP1 RETURN JUMPDEST PUSH2 0x193 PUSH1 0x4 DUP1 CALLDATASIZE SUB DUP2 ADD SWAP1 PUSH2 0x18E SWAP2 SWAP1 PUSH2 0x7B7 JUMP JUMPDEST PUSH2 0x5DA JUMP JUMPDEST PUSH1 0x40 MLOAD PUSH2 0x1A0 SWAP2 SWAP1 PUSH2 0x9FA JUMP JUMPDEST PUSH1 0x40 MLOAD DUP1 SWAP2 SUB SWAP1 RETURN JUMPDEST PUSH2 0x1C3 PUSH1 0x4 DUP1 CALLDATASIZE SUB DUP2 ADD SWAP1 PUSH2 0x1BE SWAP2 SWAP1 PUSH2 0x7B7 JUMP JUMPDEST PUSH2 0x694 JUMP JUMPDEST PUSH1 0x40 MLOAD PUSH2 0x1D0 SWAP2 SWAP1 PUSH2 0x8ED JUMP JUMPDEST PUSH1 0x40 MLOAD DUP1 SWAP2 SUB SWAP1 RETURN JUMPDEST PUSH1 0x3 PUSH1 0x0 CALLER PUSH20 0xFFFFFFFFFFFFFFFFFFFFFFFFFFFFFFFFFFFFFFFF AND PUSH20 0xFFFFFFFFFFFFFFFFFFFFFFFFFFFFFFFFFFFFFFFF AND DUP2 MSTORE PUSH1 0x20 ADD SWAP1 DUP2 MSTORE PUSH1 0x20 ADD PUSH1 0x0 KECCAK256 PUSH1 0x0 SWAP1 SLOAD SWAP1 PUSH2 0x100 EXP SWAP1 DIV PUSH1 0xFF AND ISZERO PUSH2 0x230 JUMPI PUSH1 0x0 DUP1 REVERT JUMPDEST PUSH1 0x1 PUSH1 0x0 DUP3 DUP2 SLOAD DUP2 LT PUSH2 0x246 JUMPI PUSH2 0x245 PUSH2 0xA15 JUMP JUMPDEST JUMPDEST SWAP1 PUSH1 0x0 MSTORE PUSH1 0x20 PUSH1 0x0 KECCAK256 SWAP1 PUSH1 0x5 MUL ADD PUSH1 0x2 ADD PUSH1 0x0 DUP3 DUP3 SLOAD PUSH2 0x266 SWAP2 SWAP1 PUSH2 0xA73 JUMP JUMPDEST SWAP3 POP POP DUP2 SWAP1 SSTORE POP PUSH1 0x1 PUSH1 0x3 PUSH1 0x0 CALLER PUSH20 0xFFFFFFFFFFFFFFFFFFFFFFFFFFFFFFFFFFFFFFFF AND PUSH20 0xFFFFFFFFFFFFFFFFFFFFFFFFFFFFFFFFFFFFFFFF AND DUP2 MSTORE PUSH1 0x20 ADD SWAP1 DUP2 MSTORE PUSH1 0x20 ADD PUSH1 0x0 KECCAK256 PUSH1 0x0 PUSH2 0x100 EXP DUP2 SLOAD DUP2 PUSH1 0xFF MUL NOT AND SWAP1 DUP4 ISZERO ISZERO MUL OR SWAP1 SSTORE POP POP JUMP JUMPDEST PUSH1 0x0 DUP2 DUP2 SLOAD DUP2 LT PUSH2 0x2D8 JUMPI PUSH1 0x0 DUP1 REVERT JUMPDEST SWAP1 PUSH1 0x0 MSTORE PUSH1 0x20 PUSH1 0x0 KECCAK256 SWAP1 PUSH1 0x5 MUL ADD PUSH1 0x0 SWAP2 POP SWAP1 POP DUP1 PUSH1 0x0 ADD DUP1 SLOAD PUSH2 0x2FB SWAP1 PUSH2 0xAF8 JUMP JUMPDEST DUP1 PUSH1 0x1F ADD PUSH1 0x20 DUP1 SWAP2 DIV MUL PUSH1 0x20 ADD PUSH1 0x40 MLOAD SWAP1 DUP2 ADD PUSH1 0x40 MSTORE DUP1 SWAP3 SWAP2 SWAP1 DUP2 DUP2 MSTORE PUSH1 0x20 ADD DUP3 DUP1 SLOAD PUSH2 0x327 SWAP1 PUSH2 0xAF8 JUMP JUMPDEST DUP1 ISZERO PUSH2 0x374 JUMPI DUP1 PUSH1 0x1F LT PUSH2 0x349 JUMPI PUSH2 0x100 DUP1 DUP4 SLOAD DIV MUL DUP4 MSTORE SWAP2 PUSH1 0x20 ADD SWAP2 PUSH2 0x374 JUMP JUMPDEST DUP3 ADD SWAP2 SWAP1 PUSH1 0x0 MSTORE PUSH1 0x20 PUSH1 0x0 KECCAK256 SWAP1 JUMPDEST DUP2 SLOAD DUP2 MSTORE SWAP1 PUSH1 0x1 ADD SWAP1 PUSH1 0x20 ADD DUP1 DUP4 GT PUSH2 0x357 JUMPI DUP3 SWAP1 SUB PUSH1 0x1F AND DUP3 ADD SWAP2 JUMPDEST POP POP POP POP POP SWAP1 DUP1 PUSH1 0x1 ADD DUP1 SLOAD PUSH2 0x389 SWAP1 PUSH2 0xAF8 JUMP JUMPDEST DUP1 PUSH1 0x1F ADD PUSH1 0x20 DUP1 SWAP2 DIV MUL PUSH1 0x20 ADD PUSH1 0x40 MLOAD SWAP1 DUP2 ADD PUSH1 0x40 MSTORE DUP1 SWAP3 SWAP2 SWAP1 DUP2 DUP2 MSTORE PUSH1 0x20 ADD DUP3 DUP1 SLOAD PUSH2 0x3B5 SWAP1 PUSH2 0xAF8 JUMP JUMPDEST DUP1 ISZERO PUSH2 0x402 JUMPI DUP1 PUSH1 0x1F LT PUSH2 0x3D7 JUMPI PUSH2 0x100 DUP1 DUP4 SLOAD DIV MUL DUP4 MSTORE SWAP2 PUSH1 0x20 ADD SWAP2 PUSH2 0x402 JUMP JUMPDEST DUP3 ADD SWAP2 SWAP1 PUSH1 0x0 MSTORE PUSH1 0x20 PUSH1 0x0 KECCAK256 SWAP1 JUMPDEST DUP2 SLOAD DUP2 MSTORE SWAP1 PUSH1 0x1 ADD SWAP1 PUSH1 0x20 ADD DUP1 DUP4 GT PUSH2 0x3E5 JUMPI DUP3 SWAP1 SUB PUSH1 0x1F AND DUP3 ADD SWAP2 JUMPDEST POP POP POP POP POP SWAP1 DUP1 PUSH1 0x2 ADD SLOAD SWAP1 DUP1 PUSH1 0x3 ADD SLOAD SWAP1 DUP1 PUSH1 0x4 ADD SLOAD SWAP1 POP DUP6 JUMP JUMPDEST PUSH1 0x60 PUSH1 0x0 DUP3 DUP2 SLOAD DUP2 LT PUSH2 0x434 JUMPI PUSH2 0x433 PUSH2 0xA15 JUMP JUMPDEST JUMPDEST SWAP1 PUSH1 0x0 MSTORE PUSH1 0x20 PUSH1 0x0 KECCAK256 SWAP1 PUSH1 0x5 MUL ADD PUSH1 0x4 ADD SLOAD TIMESTAMP GT PUSH2 0x451 JUMPI PUSH1 0x0 DUP1 REVERT JUMPDEST PUSH1 0x0 DUP3 DUP2 SLOAD DUP2 LT PUSH2 0x465 JUMPI PUSH2 0x464 PUSH2 0xA15 JUMP JUMPDEST JUMPDEST SWAP1 PUSH1 0x0 MSTORE PUSH1 0x20 PUSH1 0x0 KECCAK256 SWAP1 PUSH1 0x5 MUL ADD PUSH1 0x1 ADD DUP1 SLOAD PUSH2 0x481 SWAP1 PUSH2 0xAF8 JUMP JUMPDEST DUP1 PUSH1 0x1F ADD PUSH1 0x20 DUP1 SWAP2 DIV MUL PUSH1 0x20 ADD PUSH1 0x40 MLOAD SWAP1 DUP2 ADD PUSH1 0x40 MSTORE DUP1 SWAP3 SWAP2 SWAP1 DUP2 DUP2 MSTORE PUSH1 0x20 ADD DUP3 DUP1 SLOAD PUSH2 0x4AD SWAP1 PUSH2 0xAF8 JUMP JUMPDEST DUP1 ISZERO PUSH2 0x4FA JUMPI DUP1 PUSH1 0x1F LT PUSH2 0x4CF JUMPI PUSH2 0x100 DUP1 DUP4 SLOAD DIV MUL DUP4 MSTORE SWAP2 PUSH1 0x20 ADD SWAP2 PUSH2 0x4FA JUMP JUMPDEST DUP3 ADD SWAP2 SWAP1 PUSH1 0x0 MSTORE PUSH1 0x20 PUSH1 0x0 KECCAK256 SWAP1 JUMPDEST DUP2 SLOAD DUP2 MSTORE SWAP1 PUSH1 0x1 ADD SWAP1 PUSH1 0x20 ADD DUP1 DUP4 GT PUSH2 0x4DD JUMPI DUP3 SWAP1 SUB PUSH1 0x1F AND DUP3 ADD SWAP2 JUMPDEST POP POP POP POP POP SWAP1 POP SWAP2 SWAP1 POP JUMP JUMPDEST PUSH1 0x1 PUSH1 0x0 SWAP1 SLOAD SWAP1 PUSH2 0x100 EXP SWAP1 DIV PUSH20 0xFFFFFFFFFFFFFFFFFFFFFFFFFFFFFFFFFFFFFFFF AND DUP2 JUMP JUMPDEST PUSH1 0x2 DUP1 SLOAD PUSH2 0x539 SWAP1 PUSH2 0xAF8 JUMP JUMPDEST DUP1 PUSH1 0x1F ADD PUSH1 0x20 DUP1 SWAP2 DIV MUL PUSH1 0x20 ADD PUSH1 0x40 MLOAD SWAP1 DUP2 ADD PUSH1 0x40 MSTORE DUP1 SWAP3 SWAP2 SWAP1 DUP2 DUP2 MSTORE PUSH1 0x20 ADD DUP3 DUP1 SLOAD PUSH2 0x565 SWAP1 PUSH2 0xAF8 JUMP JUMPDEST DUP1 ISZERO PUSH2 0x5B2 JUMPI DUP1 PUSH1 0x1F LT PUSH2 0x587 JUMPI PUSH2 0x100 DUP1 DUP4 SLOAD DIV MUL DUP4 MSTORE SWAP2 PUSH1 0x20 ADD SWAP2 PUSH2 0x5B2 JUMP JUMPDEST DUP3 ADD SWAP2 SWAP1 PUSH1 0x0 MSTORE PUSH1 0x20 PUSH1 0x0 KECCAK256 SWAP1 JUMPDEST DUP2 SLOAD DUP2 MSTORE SWAP1 PUSH1 0x1 ADD SWAP1 PUSH1 0x20 ADD DUP1 DUP4 GT PUSH2 0x595 JUMPI DUP3 SWAP1 SUB PUSH1 0x1F AND DUP3 ADD SWAP2 JUMPDEST POP POP POP POP POP DUP2 JUMP JUMPDEST PUSH1 0x3 PUSH1 0x20 MSTORE DUP1 PUSH1 0x0 MSTORE PUSH1 0x40 PUSH1 0x0 KECCAK256 PUSH1 0x0 SWAP2 POP SLOAD SWAP1 PUSH2 0x100 EXP SWAP1 DIV PUSH1 0xFF AND DUP2 JUMP JUMPDEST PUSH1 0x0 PUSH1 0x1 PUSH1 0x0 SWAP1 SLOAD SWAP1 PUSH2 0x100 EXP SWAP1 DIV PUSH20 0xFFFFFFFFFFFFFFFFFFFFFFFFFFFFFFFFFFFFFFFF AND PUSH20 0xFFFFFFFFFFFFFFFFFFFFFFFFFFFFFFFFFFFFFFFF AND CALLER PUSH20 0xFFFFFFFFFFFFFFFFFFFFFFFFFFFFFFFFFFFFFFFF AND EQ PUSH2 0x636 JUMPI PUSH1 0x0 DUP1 REVERT JUMPDEST PUSH1 0x0 DUP3 DUP2 SLOAD DUP2 LT PUSH2 0x64A JUMPI PUSH2 0x649 PUSH2 0xA15 JUMP JUMPDEST JUMPDEST SWAP1 PUSH1 0x0 MSTORE PUSH1 0x20 PUSH1 0x0 KECCAK256 SWAP1 PUSH1 0x5 MUL ADD PUSH1 0x4 ADD SLOAD TIMESTAMP GT PUSH2 0x667 JUMPI PUSH1 0x0 DUP1 REVERT JUMPDEST PUSH1 0x0 DUP3 DUP2 SLOAD DUP2 LT PUSH2 0x67B JUMPI PUSH2 0x67A PUSH2 0xA15 JUMP JUMPDEST JUMPDEST SWAP1 PUSH1 0x0 MSTORE PUSH1 0x20 PUSH1 0x0 KECCAK256 SWAP1 PUSH1 0x5 MUL ADD PUSH1 0x2 ADD SLOAD SWAP1 POP SWAP2 SWAP1 POP JUMP JUMPDEST PUSH1 0x60 PUSH1 0x0 DUP3 DUP2 SLOAD DUP2 LT PUSH2 0x6AA JUMPI PUSH2 0x6A9 PUSH2 0xA15 JUMP JUMPDEST JUMPDEST SWAP1 PUSH1 0x0 MSTORE PUSH1 0x20 PUSH1 0x0 KECCAK256 SWAP1 PUSH1 0x5 MUL ADD PUSH1 0x4 ADD SLOAD TIMESTAMP GT PUSH2 0x6C7 JUMPI PUSH1 0x0 DUP1 REVERT JUMPDEST PUSH1 0x0 DUP3 DUP2 SLOAD DUP2 LT PUSH2 0x6DB JUMPI PUSH2 0x6DA PUSH2 0xA15 JUMP JUMPDEST JUMPDEST SWAP1 PUSH1 0x0 MSTORE PUSH1 0x20 PUSH1 0x0 KECCAK256 SWAP1 PUSH1 0x5 MUL ADD PUSH1 0x0 ADD DUP1 SLOAD PUSH2 0x6F7 SWAP1 PUSH2 0xAF8 JUMP JUMPDEST DUP1 PUSH1 0x1F ADD PUSH1 0x20 DUP1 SWAP2 DIV MUL PUSH1 0x20 ADD PUSH1 0x40 MLOAD SWAP1 DUP2 ADD PUSH1 0x40 MSTORE DUP1 SWAP3 SWAP2 SWAP1 DUP2 DUP2 MSTORE PUSH1 0x20 ADD DUP3 DUP1 SLOAD PUSH2 0x723 SWAP1 PUSH2 0xAF8 JUMP JUMPDEST DUP1 ISZERO PUSH2 0x770 JUMPI DUP1 PUSH1 0x1F LT PUSH2 0x745 JUMPI PUSH2 0x100 DUP1 DUP4 SLOAD DIV MUL DUP4 MSTORE SWAP2 PUSH1 0x20 ADD SWAP2 PUSH2 0x770 JUMP JUMPDEST DUP3 ADD SWAP2 SWAP1 PUSH1 0x0 MSTORE PUSH1 0x20 PUSH1 0x0 KECCAK256 SWAP1 JUMPDEST DUP2 SLOAD DUP2 MSTORE SWAP1 PUSH1 0x1 ADD SWAP1 PUSH1 0x20 ADD DUP1 DUP4 GT PUSH2 0x753 JUMPI DUP3 SWAP1 SUB PUSH1 0x1F AND DUP3 ADD SWAP2 JUMPDEST POP POP POP POP POP SWAP1 POP SWAP2 SWAP1 POP JUMP JUMPDEST PUSH1 0x0 DUP1 REVERT JUMPDEST PUSH1 0x0 DUP2 SWAP1 POP SWAP2 SWAP1 POP JUMP JUMPDEST PUSH2 0x794 DUP2 PUSH2 0x781 JUMP JUMPDEST DUP2 EQ PUSH2 0x79F JUMPI PUSH1 0x0 DUP1 REVERT JUMPDEST POP JUMP JUMPDEST PUSH1 0x0 DUP2 CALLDATALOAD SWAP1 POP PUSH2 0x7B1 DUP2 PUSH2 0x78B JUMP JUMPDEST SWAP3 SWAP2 POP POP JUMP JUMPDEST PUSH1 0x0 PUSH1 0x20 DUP3 DUP5 SUB SLT ISZERO PUSH2 0x7CD JUMPI PUSH2 0x7CC PUSH2 0x77C JUMP JUMPDEST JUMPDEST PUSH1 0x0 PUSH2 0x7DB DUP5 DUP3 DUP6 ADD PUSH2 0x7A2 JUMP JUMPDEST SWAP2 POP POP SWAP3 SWAP2 POP POP JUMP JUMPDEST PUSH1 0x0 DUP2 MLOAD SWAP1 POP SWAP2 SWAP1 POP JUMP JUMPDEST PUSH1 0x0 DUP3 DUP3 MSTORE PUSH1 0x20 DUP3 ADD SWAP1 POP SWAP3 SWAP2 POP POP JUMP JUMPDEST PUSH1 0x0 JUMPDEST DUP4 DUP2 LT ISZERO PUSH2 0x81E JUMPI DUP1 DUP3 ADD MLOAD DUP2 DUP5 ADD MSTORE PUSH1 0x20 DUP2 ADD SWAP1 POP PUSH2 0x803 JUMP JUMPDEST DUP4 DUP2 GT ISZERO PUSH2 0x82D JUMPI PUSH1 0x0 DUP5 DUP5 ADD MSTORE JUMPDEST POP POP POP POP JUMP JUMPDEST PUSH1 0x0 PUSH1 0x1F NOT PUSH1 0x1F DUP4 ADD AND SWAP1 POP SWAP2 SWAP1 POP JUMP JUMPDEST PUSH1 0x0 PUSH2 0x84F DUP3 PUSH2 0x7E4 JUMP JUMPDEST PUSH2 0x859 DUP2 DUP6 PUSH2 0x7EF JUMP JUMPDEST SWAP4 POP PUSH2 0x869 DUP2 DUP6 PUSH1 0x20 DUP7 ADD PUSH2 0x800 JUMP JUMPDEST PUSH2 0x872 DUP2 PUSH2 0x833 JUMP JUMPDEST DUP5 ADD SWAP2 POP POP SWAP3 SWAP2 POP POP JUMP JUMPDEST PUSH2 0x886 DUP2 PUSH2 0x781 JUMP JUMPDEST DUP3 MSTORE POP POP JUMP JUMPDEST PUSH1 0x0 PUSH1 0xA0 DUP3 ADD SWAP1 POP DUP2 DUP2 SUB PUSH1 0x0 DUP4 ADD MSTORE PUSH2 0x8A6 DUP2 DUP9 PUSH2 0x844 JUMP JUMPDEST SWAP1 POP DUP2 DUP2 SUB PUSH1 0x20 DUP4 ADD MSTORE PUSH2 0x8BA DUP2 DUP8 PUSH2 0x844 JUMP JUMPDEST SWAP1 POP PUSH2 0x8C9 PUSH1 0x40 DUP4 ADD DUP7 PUSH2 0x87D JUMP JUMPDEST PUSH2 0x8D6 PUSH1 0x60 DUP4 ADD DUP6 PUSH2 0x87D JUMP JUMPDEST PUSH2 0x8E3 PUSH1 0x80 DUP4 ADD DUP5 PUSH2 0x87D JUMP JUMPDEST SWAP7 SWAP6 POP POP POP POP POP POP JUMP JUMPDEST PUSH1 0x0 PUSH1 0x20 DUP3 ADD SWAP1 POP DUP2 DUP2 SUB PUSH1 0x0 DUP4 ADD MSTORE PUSH2 0x907 DUP2 DUP5 PUSH2 0x844 JUMP JUMPDEST SWAP1 POP SWAP3 SWAP2 POP POP JUMP JUMPDEST PUSH1 0x0 PUSH20 0xFFFFFFFFFFFFFFFFFFFFFFFFFFFFFFFFFFFFFFFF DUP3 AND SWAP1 POP SWAP2 SWAP1 POP JUMP JUMPDEST PUSH1 0x0 PUSH2 0x93A DUP3 PUSH2 0x90F JUMP JUMPDEST SWAP1 POP SWAP2 SWAP1 POP JUMP JUMPDEST PUSH2 0x94A DUP2 PUSH2 0x92F JUMP JUMPDEST DUP3 MSTORE POP POP JUMP JUMPDEST PUSH1 0x0 PUSH1 0x20 DUP3 ADD SWAP1 POP PUSH2 0x965 PUSH1 0x0 DUP4 ADD DUP5 PUSH2 0x941 JUMP JUMPDEST SWAP3 SWAP2 POP POP JUMP JUMPDEST PUSH2 0x974 DUP2 PUSH2 0x92F JUMP JUMPDEST DUP2 EQ PUSH2 0x97F JUMPI PUSH1 0x0 DUP1 REVERT JUMPDEST POP JUMP JUMPDEST PUSH1 0x0 DUP2 CALLDATALOAD SWAP1 POP PUSH2 0x991 DUP2 PUSH2 0x96B JUMP JUMPDEST SWAP3 SWAP2 POP POP JUMP JUMPDEST PUSH1 0x0 PUSH1 0x20 DUP3 DUP5 SUB SLT ISZERO PUSH2 0x9AD JUMPI PUSH2 0x9AC PUSH2 0x77C JUMP JUMPDEST JUMPDEST PUSH1 0x0 PUSH2 0x9BB DUP5 DUP3 DUP6 ADD PUSH2 0x982 JUMP JUMPDEST SWAP2 POP POP SWAP3 SWAP2 POP POP JUMP JUMPDEST PUSH1 0x0 DUP2 ISZERO ISZERO SWAP1 POP SWAP2 SWAP1 POP JUMP JUMPDEST PUSH2 0x9D9 DUP2 PUSH2 0x9C4 JUMP JUMPDEST DUP3 MSTORE POP POP JUMP JUMPDEST PUSH1 0x0 PUSH1 0x20 DUP3 ADD SWAP1 POP PUSH2 0x9F4 PUSH1 0x0 DUP4 ADD DUP5 PUSH2 0x9D0 JUMP JUMPDEST SWAP3 SWAP2 POP POP JUMP JUMPDEST PUSH1 0x0 PUSH1 0x20 DUP3 ADD SWAP1 POP PUSH2 0xA0F PUSH1 0x0 DUP4 ADD DUP5 PUSH2 0x87D JUMP JUMPDEST SWAP3 SWAP2 POP POP JUMP JUMPDEST PUSH32 0x4E487B7100000000000000000000000000000000000000000000000000000000 PUSH1 0x0 MSTORE PUSH1 0x32 PUSH1 0x4 MSTORE PUSH1 0x24 PUSH1 0x0 REVERT JUMPDEST PUSH32 0x4E487B7100000000000000000000000000000000000000000000000000000000 PUSH1 0x0 MSTORE PUSH1 0x11 PUSH1 0x4 MSTORE PUSH1 0x24 PUSH1 0x0 REVERT JUMPDEST PUSH1 0x0 PUSH2 0xA7E DUP3 PUSH2 0x781 JUMP JUMPDEST SWAP2 POP PUSH2 0xA89 DUP4 PUSH2 0x781 JUMP JUMPDEST SWAP3 POP DUP3 PUSH32 0xFFFFFFFFFFFFFFFFFFFFFFFFFFFFFFFFFFFFFFFFFFFFFFFFFFFFFFFFFFFFFFFF SUB DUP3 GT ISZERO PUSH2 0xABE JUMPI PUSH2 0xABD PUSH2 0xA44 JUMP JUMPDEST JUMPDEST DUP3 DUP3 ADD SWAP1 POP SWAP3 SWAP2 POP POP JUMP JUMPDEST PUSH32 0x4E487B7100000000000000000000000000000000000000000000000000000000 PUSH1 0x0 MSTORE PUSH1 0x22 PUSH1 0x4 MSTORE PUSH1 0x24 PUSH1 0x0 REVERT JUMPDEST PUSH1 0x0 PUSH1 0x2 DUP3 DIV SWAP1 POP PUSH1 0x1 DUP3 AND DUP1 PUSH2 0xB10 JUMPI PUSH1 0x7F DUP3 AND SWAP2 POP JUMPDEST PUSH1 0x20 DUP3 LT DUP2 EQ ISZERO PUSH2 0xB24 JUMPI PUSH2 0xB23 PUSH2 0xAC9 JUMP JUMPDEST JUMPDEST POP SWAP2 SWAP1 POP JUMP INVALID LOG2 PUSH5 0x6970667358 0x22 SLT KECCAK256 0x27 0xE8 0x5E 0xAB 0x49 PUSH20 0x1E1DECC2469A98EDDCD4D5DC759DE650B03C19FD 0xAB 0xB5 PUSH14 0xD680C64736F6C634300080B0033 LOG2 PUSH5 0x6970667358 0x22 SLT KECCAK256 SHL 0xAF 0x4A EQ 0x1E LOG2 CODECOPY 0xED 0x5C 0x5E LOG0 SWAP11 PUSH30 0x878E26B4F824390B4B5E20CDD8D472386AF5D964736F6C634300080B0033 "},"gasEstimates":{"creation":{"codeDepositCost":"1600400","executionCost":"1680","totalCost":"1602080"},"external":{"deployedBallots(uint256)":"4978","getsDeployedBallots()":"infinite","startelec(string[][],string[][],string[],uint256)":"infinite"}},"methodIdentifiers":{"deployedBallots(uint256)":"cdf74c3e","getsDeployedBallots()":"0e3e4a75","startelec(string[][],string[][],string[],uint256)":"8455faf8"}},"storageLayout":{"storage":[{"astId":4,"contract":"evs.sol:Electioncreation","label":"deployedBallots","offset":0,"slot":"0","type":"t_array(t_address)dyn_storage"}],"types":{"t_address":{"encoding":"inplace","label":"address","numberOfBytes":"20"},"t_array(t_address)dyn_storage":{"base":"t_address","encoding":"dynamic_array","label":"address[]","numberOfBytes":"32"}}},"userdoc":{"kind":"user","methods":{},"version":1}}