{"abi":[{"inputs":[{"internalType":"string[]","name":"candidateNames","type":"string[]"},{"internalType":"string[]","name":"candidateParty","type":"string[]"},{"internalType":"string","name":"district","type":"string"},{"internalType":"address","name":"creator","type":"address"},{"internalType":"uint256","name":"amountofHours","type":"uint256"}],"stateMutability":"nonpayable","type":"constructor"},{"inputs":[{"internalType":"uint256","name":"","type":"uint256"}],"name":"candidates","outputs":[{"internalType":"string","name":"name","type":"string"},{"internalType":"string","name":"party","type":"string"},{"internalType":"uint256","name":"voteCount","type":"uint256"},{"internalType":"uint256","name":"creationDate","type":"uint256"},{"internalType":"uint256","name":"expirationDate","type":"uint256"}],"stateMutability":"view","type":"function"},{"inputs":[{"internalType":"uint256","name":"index","type":"uint256"}],"name":"getCandidateName","outputs":[{"internalType":"string","name":"","type":"string"}],"stateMutability":"view","type":"function"},{"inputs":[{"internalType":"uint256","name":"index","type":"uint256"}],"name":"getCandidateParty","outputs":[{"internalType":"string","name":"","type":"string"}],"stateMutability":"view","type":"function"},{"inputs":[{"internalType":"uint256","name":"index","type":"uint256"}],"name":"getVoteCount","outputs":[{"internalType":"uint256","name":"","type":"uint256"}],"stateMutability":"view","type":"function"},{"inputs":[],"name":"manager","outputs":[{"internalType":"address","name":"","type":"address"}],"stateMutability":"view","type":"function"},{"inputs":[{"internalType":"uint256","name":"index","type":"uint256"}],"name":"vote","outputs":[],"stateMutability":"nonpayable","type":"function"},{"inputs":[{"internalType":"address","name":"","type":"address"}],"name":"voters","outputs":[{"internalType":"bool","name":"","type":"bool"}],"stateMutability":"view","type":"function"},{"inputs":[],"name":"votingDistrict","outputs":[{"internalType":"string","name":"","type":"string"}],"stateMutability":"view","type":"function"}],"devdoc":{"kind":"dev","methods":{},"version":1},"evm":{"assembly":"    /* \"evs.sol\":649:2247  contract Ballot ... */\n  mstore(0x40, 0x80)\n    /* \"evs.sol\":981:1487  constructor (string[] memory candidateNames,string[] memory candidateParty, string memory district, address creator, uint amountofHours) ... */\n  callvalue\n  dup1\n  iszero\n  tag_1\n  jumpi\n  0x00\n  dup1\n  revert\ntag_1:\n  pop\n  mload(0x40)\n  sub(codesize, bytecodeSize)\n  dup1\n  bytecodeSize\n  dup4\n  codecopy\n  dup2\n  dup2\n  add\n  0x40\n  mstore\n  dup2\n  add\n  swap1\n  tag_2\n  swap2\n  swap1\n  tag_3\n  jump\t// in\ntag_2:\n    /* \"evs.sol\":1131:1138  creator */\n  dup2\n    /* \"evs.sol\":1121:1128  manager */\n  0x01\n  0x00\n    /* \"evs.sol\":1121:1138  manager = creator */\n  0x0100\n  exp\n  dup2\n  sload\n  dup2\n  0xffffffffffffffffffffffffffffffffffffffff\n  mul\n  not\n  and\n  swap1\n  dup4\n  0xffffffffffffffffffffffffffffffffffffffff\n  and\n  mul\n  or\n  swap1\n  sstore\n  pop\n    /* \"evs.sol\":1157:1165  district */\n  dup3\n    /* \"evs.sol\":1140:1154  votingDistrict */\n  0x02\n    /* \"evs.sol\":1140:1165  votingDistrict = district */\n  swap1\n  dup1\n  mload\n  swap1\n  0x20\n  add\n  swap1\n  tag_6\n  swap3\n  swap2\n  swap1\n  tag_7\n  jump\t// in\ntag_6:\n  pop\n    /* \"evs.sol\":1171:1177  uint i */\n  0x00\n    /* \"evs.sol\":1167:1455  for(uint i=0; i< candidateNames.length;i++)... */\ntag_8:\n    /* \"evs.sol\":1184:1198  candidateNames */\n  dup6\n    /* \"evs.sol\":1184:1205  candidateNames.length */\n  mload\n    /* \"evs.sol\":1181:1182  i */\n  dup2\n    /* \"evs.sol\":1181:1205  i< candidateNames.length */\n  lt\n    /* \"evs.sol\":1167:1455  for(uint i=0; i< candidateNames.length;i++)... */\n  iszero\n  tag_9\n  jumpi\n    /* \"evs.sol\":1221:1231  candidates */\n  0x00\n    /* \"evs.sol\":1237:1447  candidate(... */\n  mload(0x40)\n  dup1\n  0xa0\n  add\n  0x40\n  mstore\n  dup1\n    /* \"evs.sol\":1271:1285  candidateNames */\n  dup9\n    /* \"evs.sol\":1286:1287  i */\n  dup5\n    /* \"evs.sol\":1271:1288  candidateNames[i] */\n  dup2\n  mload\n  dup2\n  lt\n  tag_11\n  jumpi\n  tag_12\n  tag_13\n  jump\t// in\ntag_12:\ntag_11:\n  0x20\n  mul\n  0x20\n  add\n  add\n  mload\n    /* \"evs.sol\":1237:1447  candidate(... */\n  dup2\n  mstore\n  0x20\n  add\n    /* \"evs.sol\":1305:1319  candidateParty */\n  dup8\n    /* \"evs.sol\":1320:1321  i */\n  dup5\n    /* \"evs.sol\":1305:1322  candidateParty[i] */\n  dup2\n  mload\n  dup2\n  lt\n  tag_14\n  jumpi\n  tag_15\n  tag_13\n  jump\t// in\ntag_15:\ntag_14:\n  0x20\n  mul\n  0x20\n  add\n  add\n  mload\n    /* \"evs.sol\":1237:1447  candidate(... */\n  dup2\n  mstore\n  0x20\n  add\n    /* \"evs.sol\":1343:1344  0 */\n  0x00\n    /* \"evs.sol\":1237:1447  candidate(... */\n  dup2\n  mstore\n  0x20\n  add\n    /* \"evs.sol\":1368:1383  block.timestamp */\n  timestamp\n    /* \"evs.sol\":1237:1447  candidate(... */\n  dup2\n  mstore\n  0x20\n  add\n    /* \"evs.sol\":1427:1440  amountofHours */\n  dup5\n    /* \"evs.sol\":1409:1424  block.timestamp */\n  timestamp\n    /* \"evs.sol\":1409:1440  block.timestamp + amountofHours */\n  tag_16\n  swap2\n  swap1\n  tag_17\n  jump\t// in\ntag_16:\n    /* \"evs.sol\":1237:1447  candidate(... */\n  dup2\n  mstore\n  pop\n    /* \"evs.sol\":1221:1448  candidates.push(candidate(... */\n  swap1\n  dup1\n  0x01\n  dup2\n  sload\n  add\n  dup1\n  dup3\n  sstore\n  dup1\n  swap2\n  pop\n  pop\n  0x01\n  swap1\n  sub\n  swap1\n  0x00\n  mstore\n  keccak256(0x00, 0x20)\n  swap1\n  0x05\n  mul\n  add\n  0x00\n  swap1\n  swap2\n  swap1\n  swap2\n  swap1\n  swap2\n  pop\n  0x00\n  dup3\n  add\n  mload\n  dup2\n  0x00\n  add\n  swap1\n  dup1\n  mload\n  swap1\n  0x20\n  add\n  swap1\n  tag_19\n  swap3\n  swap2\n  swap1\n  tag_7\n  jump\t// in\ntag_19:\n  pop\n  0x20\n  dup3\n  add\n  mload\n  dup2\n  0x01\n  add\n  swap1\n  dup1\n  mload\n  swap1\n  0x20\n  add\n  swap1\n  tag_20\n  swap3\n  swap2\n  swap1\n  tag_7\n  jump\t// in\ntag_20:\n  pop\n  0x40\n  dup3\n  add\n  mload\n  dup2\n  0x02\n  add\n  sstore\n  0x60\n  dup3\n  add\n  mload\n  dup2\n  0x03\n  add\n  sstore\n  0x80\n  dup3\n  add\n  mload\n  dup2\n  0x04\n  add\n  sstore\n  pop\n  pop\n    /* \"evs.sol\":1206:1209  i++ */\n  dup1\n  dup1\n  tag_21\n  swap1\n  tag_22\n  jump\t// in\ntag_21:\n  swap2\n  pop\n  pop\n    /* \"evs.sol\":1167:1455  for(uint i=0; i< candidateNames.length;i++)... */\n  jump(tag_8)\ntag_9:\n  pop\n    /* \"evs.sol\":981:1487  constructor (string[] memory candidateNames,string[] memory candidateParty, string memory district, address creator, uint amountofHours) ... */\n  pop\n  pop\n  pop\n  pop\n  pop\n    /* \"evs.sol\":649:2247  contract Ballot ... */\n  jump(tag_23)\ntag_7:\n  dup3\n  dup1\n  sload\n  tag_24\n  swap1\n  tag_25\n  jump\t// in\ntag_24:\n  swap1\n  0x00\n  mstore\n  keccak256(0x00, 0x20)\n  swap1\n  0x1f\n  add\n  0x20\n  swap1\n  div\n  dup2\n  add\n  swap3\n  dup3\n  tag_27\n  jumpi\n  0x00\n  dup6\n  sstore\n  jump(tag_26)\ntag_27:\n  dup3\n  0x1f\n  lt\n  tag_28\n  jumpi\n  dup1\n  mload\n  not(0xff)\n  and\n  dup4\n  dup1\n  add\n  or\n  dup6\n  sstore\n  jump(tag_26)\ntag_28:\n  dup3\n  dup1\n  add\n  0x01\n  add\n  dup6\n  sstore\n  dup3\n  iszero\n  tag_26\n  jumpi\n  swap2\n  dup3\n  add\ntag_29:\n  dup3\n  dup2\n  gt\n  iszero\n  tag_30\n  jumpi\n  dup3\n  mload\n  dup3\n  sstore\n  swap2\n  0x20\n  add\n  swap2\n  swap1\n  0x01\n  add\n  swap1\n  jump(tag_29)\ntag_30:\ntag_26:\n  pop\n  swap1\n  pop\n  tag_31\n  swap2\n  swap1\n  tag_32\n  jump\t// in\ntag_31:\n  pop\n  swap1\n  jump\t// out\ntag_32:\ntag_33:\n  dup1\n  dup3\n  gt\n  iszero\n  tag_34\n  jumpi\n  0x00\n  dup2\n  0x00\n  swap1\n  sstore\n  pop\n  0x01\n  add\n  jump(tag_33)\ntag_34:\n  pop\n  swap1\n  jump\t// out\n    /* \"#utility.yul\":7:82   */\ntag_35:\n    /* \"#utility.yul\":40:46   */\n  0x00\n    /* \"#utility.yul\":73:75   */\n  0x40\n    /* \"#utility.yul\":67:76   */\n  mload\n    /* \"#utility.yul\":57:76   */\n  swap1\n  pop\n    /* \"#utility.yul\":7:82   */\n  swap1\n  jump\t// out\n    /* \"#utility.yul\":88:205   */\ntag_36:\n    /* \"#utility.yul\":197:198   */\n  0x00\n    /* \"#utility.yul\":194:195   */\n  dup1\n    /* \"#utility.yul\":187:199   */\n  revert\n    /* \"#utility.yul\":211:328   */\ntag_37:\n    /* \"#utility.yul\":320:321   */\n  0x00\n    /* \"#utility.yul\":317:318   */\n  dup1\n    /* \"#utility.yul\":310:322   */\n  revert\n    /* \"#utility.yul\":334:451   */\ntag_38:\n    /* \"#utility.yul\":443:444   */\n  0x00\n    /* \"#utility.yul\":440:441   */\n  dup1\n    /* \"#utility.yul\":433:445   */\n  revert\n    /* \"#utility.yul\":457:559   */\ntag_39:\n    /* \"#utility.yul\":498:504   */\n  0x00\n    /* \"#utility.yul\":549:551   */\n  0x1f\n    /* \"#utility.yul\":545:552   */\n  not\n    /* \"#utility.yul\":540:542   */\n  0x1f\n    /* \"#utility.yul\":533:538   */\n  dup4\n    /* \"#utility.yul\":529:543   */\n  add\n    /* \"#utility.yul\":525:553   */\n  and\n    /* \"#utility.yul\":515:553   */\n  swap1\n  pop\n    /* \"#utility.yul\":457:559   */\n  swap2\n  swap1\n  pop\n  jump\t// out\n    /* \"#utility.yul\":565:745   */\ntag_40:\n    /* \"#utility.yul\":613:690   */\n  0x4e487b7100000000000000000000000000000000000000000000000000000000\n    /* \"#utility.yul\":610:611   */\n  0x00\n    /* \"#utility.yul\":603:691   */\n  mstore\n    /* \"#utility.yul\":710:714   */\n  0x41\n    /* \"#utility.yul\":707:708   */\n  0x04\n    /* \"#utility.yul\":700:715   */\n  mstore\n    /* \"#utility.yul\":734:738   */\n  0x24\n    /* \"#utility.yul\":731:732   */\n  0x00\n    /* \"#utility.yul\":724:739   */\n  revert\n    /* \"#utility.yul\":751:1032   */\ntag_41:\n    /* \"#utility.yul\":834:861   */\n  tag_69\n    /* \"#utility.yul\":856:860   */\n  dup3\n    /* \"#utility.yul\":834:861   */\n  tag_39\n  jump\t// in\ntag_69:\n    /* \"#utility.yul\":826:832   */\n  dup2\n    /* \"#utility.yul\":822:862   */\n  add\n    /* \"#utility.yul\":964:970   */\n  dup2\n    /* \"#utility.yul\":952:962   */\n  dup2\n    /* \"#utility.yul\":949:971   */\n  lt\n    /* \"#utility.yul\":928:946   */\n  0xffffffffffffffff\n    /* \"#utility.yul\":916:926   */\n  dup3\n    /* \"#utility.yul\":913:947   */\n  gt\n    /* \"#utility.yul\":910:972   */\n  or\n    /* \"#utility.yul\":907:995   */\n  iszero\n  tag_70\n  jumpi\n    /* \"#utility.yul\":975:993   */\n  tag_71\n  tag_40\n  jump\t// in\ntag_71:\n    /* \"#utility.yul\":907:995   */\ntag_70:\n    /* \"#utility.yul\":1015:1025   */\n  dup1\n    /* \"#utility.yul\":1011:1013   */\n  0x40\n    /* \"#utility.yul\":1004:1026   */\n  mstore\n    /* \"#utility.yul\":794:1032   */\n  pop\n    /* \"#utility.yul\":751:1032   */\n  pop\n  pop\n  jump\t// out\n    /* \"#utility.yul\":1038:1167   */\ntag_42:\n    /* \"#utility.yul\":1072:1078   */\n  0x00\n    /* \"#utility.yul\":1099:1119   */\n  tag_73\n  tag_35\n  jump\t// in\ntag_73:\n    /* \"#utility.yul\":1089:1119   */\n  swap1\n  pop\n    /* \"#utility.yul\":1128:1161   */\n  tag_74\n    /* \"#utility.yul\":1156:1160   */\n  dup3\n    /* \"#utility.yul\":1148:1154   */\n  dup3\n    /* \"#utility.yul\":1128:1161   */\n  tag_41\n  jump\t// in\ntag_74:\n    /* \"#utility.yul\":1038:1167   */\n  swap2\n  swap1\n  pop\n  jump\t// out\n    /* \"#utility.yul\":1173:1494   */\ntag_43:\n    /* \"#utility.yul\":1260:1264   */\n  0x00\n    /* \"#utility.yul\":1350:1368   */\n  0xffffffffffffffff\n    /* \"#utility.yul\":1342:1348   */\n  dup3\n    /* \"#utility.yul\":1339:1369   */\n  gt\n    /* \"#utility.yul\":1336:1392   */\n  iszero\n  tag_76\n  jumpi\n    /* \"#utility.yul\":1372:1390   */\n  tag_77\n  tag_40\n  jump\t// in\ntag_77:\n    /* \"#utility.yul\":1336:1392   */\ntag_76:\n    /* \"#utility.yul\":1422:1426   */\n  0x20\n    /* \"#utility.yul\":1414:1420   */\n  dup3\n    /* \"#utility.yul\":1410:1427   */\n  mul\n    /* \"#utility.yul\":1402:1427   */\n  swap1\n  pop\n    /* \"#utility.yul\":1482:1486   */\n  0x20\n    /* \"#utility.yul\":1476:1480   */\n  dup2\n    /* \"#utility.yul\":1472:1487   */\n  add\n    /* \"#utility.yul\":1464:1487   */\n  swap1\n  pop\n    /* \"#utility.yul\":1173:1494   */\n  swap2\n  swap1\n  pop\n  jump\t// out\n    /* \"#utility.yul\":1500:1617   */\ntag_44:\n    /* \"#utility.yul\":1609:1610   */\n  0x00\n    /* \"#utility.yul\":1606:1607   */\n  dup1\n    /* \"#utility.yul\":1599:1611   */\n  revert\n    /* \"#utility.yul\":1623:1740   */\ntag_45:\n    /* \"#utility.yul\":1732:1733   */\n  0x00\n    /* \"#utility.yul\":1729:1730   */\n  dup1\n    /* \"#utility.yul\":1722:1734   */\n  revert\n    /* \"#utility.yul\":1746:2054   */\ntag_46:\n    /* \"#utility.yul\":1808:1812   */\n  0x00\n    /* \"#utility.yul\":1898:1916   */\n  0xffffffffffffffff\n    /* \"#utility.yul\":1890:1896   */\n  dup3\n    /* \"#utility.yul\":1887:1917   */\n  gt\n    /* \"#utility.yul\":1884:1940   */\n  iszero\n  tag_81\n  jumpi\n    /* \"#utility.yul\":1920:1938   */\n  tag_82\n  tag_40\n  jump\t// in\ntag_82:\n    /* \"#utility.yul\":1884:1940   */\ntag_81:\n    /* \"#utility.yul\":1958:1987   */\n  tag_83\n    /* \"#utility.yul\":1980:1986   */\n  dup3\n    /* \"#utility.yul\":1958:1987   */\n  tag_39\n  jump\t// in\ntag_83:\n    /* \"#utility.yul\":1950:1987   */\n  swap1\n  pop\n    /* \"#utility.yul\":2042:2046   */\n  0x20\n    /* \"#utility.yul\":2036:2040   */\n  dup2\n    /* \"#utility.yul\":2032:2047   */\n  add\n    /* \"#utility.yul\":2024:2047   */\n  swap1\n  pop\n    /* \"#utility.yul\":1746:2054   */\n  swap2\n  swap1\n  pop\n  jump\t// out\n    /* \"#utility.yul\":2060:2367   */\ntag_47:\n    /* \"#utility.yul\":2128:2129   */\n  0x00\n    /* \"#utility.yul\":2138:2251   */\ntag_85:\n    /* \"#utility.yul\":2152:2158   */\n  dup4\n    /* \"#utility.yul\":2149:2150   */\n  dup2\n    /* \"#utility.yul\":2146:2159   */\n  lt\n    /* \"#utility.yul\":2138:2251   */\n  iszero\n  tag_87\n  jumpi\n    /* \"#utility.yul\":2237:2238   */\n  dup1\n    /* \"#utility.yul\":2232:2235   */\n  dup3\n    /* \"#utility.yul\":2228:2239   */\n  add\n    /* \"#utility.yul\":2222:2240   */\n  mload\n    /* \"#utility.yul\":2218:2219   */\n  dup2\n    /* \"#utility.yul\":2213:2216   */\n  dup5\n    /* \"#utility.yul\":2209:2220   */\n  add\n    /* \"#utility.yul\":2202:2241   */\n  mstore\n    /* \"#utility.yul\":2174:2176   */\n  0x20\n    /* \"#utility.yul\":2171:2172   */\n  dup2\n    /* \"#utility.yul\":2167:2177   */\n  add\n    /* \"#utility.yul\":2162:2177   */\n  swap1\n  pop\n    /* \"#utility.yul\":2138:2251   */\n  jump(tag_85)\ntag_87:\n    /* \"#utility.yul\":2269:2275   */\n  dup4\n    /* \"#utility.yul\":2266:2267   */\n  dup2\n    /* \"#utility.yul\":2263:2276   */\n  gt\n    /* \"#utility.yul\":2260:2361   */\n  iszero\n  tag_88\n  jumpi\n    /* \"#utility.yul\":2349:2350   */\n  0x00\n    /* \"#utility.yul\":2340:2346   */\n  dup5\n    /* \"#utility.yul\":2335:2338   */\n  dup5\n    /* \"#utility.yul\":2331:2347   */\n  add\n    /* \"#utility.yul\":2324:2351   */\n  mstore\n    /* \"#utility.yul\":2260:2361   */\ntag_88:\n    /* \"#utility.yul\":2109:2367   */\n  pop\n    /* \"#utility.yul\":2060:2367   */\n  pop\n  pop\n  pop\n  jump\t// out\n    /* \"#utility.yul\":2373:2794   */\ntag_48:\n    /* \"#utility.yul\":2462:2467   */\n  0x00\n    /* \"#utility.yul\":2487:2553   */\n  tag_90\n    /* \"#utility.yul\":2503:2552   */\n  tag_91\n    /* \"#utility.yul\":2545:2551   */\n  dup5\n    /* \"#utility.yul\":2503:2552   */\n  tag_46\n  jump\t// in\ntag_91:\n    /* \"#utility.yul\":2487:2553   */\n  tag_42\n  jump\t// in\ntag_90:\n    /* \"#utility.yul\":2478:2553   */\n  swap1\n  pop\n    /* \"#utility.yul\":2576:2582   */\n  dup3\n    /* \"#utility.yul\":2569:2574   */\n  dup2\n    /* \"#utility.yul\":2562:2583   */\n  mstore\n    /* \"#utility.yul\":2614:2618   */\n  0x20\n    /* \"#utility.yul\":2607:2612   */\n  dup2\n    /* \"#utility.yul\":2603:2619   */\n  add\n    /* \"#utility.yul\":2652:2655   */\n  dup5\n    /* \"#utility.yul\":2643:2649   */\n  dup5\n    /* \"#utility.yul\":2638:2641   */\n  dup5\n    /* \"#utility.yul\":2634:2650   */\n  add\n    /* \"#utility.yul\":2631:2656   */\n  gt\n    /* \"#utility.yul\":2628:2740   */\n  iszero\n  tag_92\n  jumpi\n    /* \"#utility.yul\":2659:2738   */\n  tag_93\n  tag_45\n  jump\t// in\ntag_93:\n    /* \"#utility.yul\":2628:2740   */\ntag_92:\n    /* \"#utility.yul\":2749:2788   */\n  tag_94\n    /* \"#utility.yul\":2781:2787   */\n  dup5\n    /* \"#utility.yul\":2776:2779   */\n  dup3\n    /* \"#utility.yul\":2771:2774   */\n  dup6\n    /* \"#utility.yul\":2749:2788   */\n  tag_47\n  jump\t// in\ntag_94:\n    /* \"#utility.yul\":2468:2794   */\n  pop\n    /* \"#utility.yul\":2373:2794   */\n  swap4\n  swap3\n  pop\n  pop\n  pop\n  jump\t// out\n    /* \"#utility.yul\":2814:3169   */\ntag_49:\n    /* \"#utility.yul\":2881:2886   */\n  0x00\n    /* \"#utility.yul\":2930:2933   */\n  dup3\n    /* \"#utility.yul\":2923:2927   */\n  0x1f\n    /* \"#utility.yul\":2915:2921   */\n  dup4\n    /* \"#utility.yul\":2911:2928   */\n  add\n    /* \"#utility.yul\":2907:2934   */\n  slt\n    /* \"#utility.yul\":2897:3019   */\n  tag_96\n  jumpi\n    /* \"#utility.yul\":2938:3017   */\n  tag_97\n  tag_38\n  jump\t// in\ntag_97:\n    /* \"#utility.yul\":2897:3019   */\ntag_96:\n    /* \"#utility.yul\":3048:3054   */\n  dup2\n    /* \"#utility.yul\":3042:3055   */\n  mload\n    /* \"#utility.yul\":3073:3163   */\n  tag_98\n    /* \"#utility.yul\":3159:3162   */\n  dup5\n    /* \"#utility.yul\":3151:3157   */\n  dup3\n    /* \"#utility.yul\":3144:3148   */\n  0x20\n    /* \"#utility.yul\":3136:3142   */\n  dup7\n    /* \"#utility.yul\":3132:3149   */\n  add\n    /* \"#utility.yul\":3073:3163   */\n  tag_48\n  jump\t// in\ntag_98:\n    /* \"#utility.yul\":3064:3163   */\n  swap2\n  pop\n    /* \"#utility.yul\":2887:3169   */\n  pop\n    /* \"#utility.yul\":2814:3169   */\n  swap3\n  swap2\n  pop\n  pop\n  jump\t// out\n    /* \"#utility.yul\":3191:4151   */\ntag_50:\n    /* \"#utility.yul\":3308:3313   */\n  0x00\n    /* \"#utility.yul\":3333:3424   */\n  tag_100\n    /* \"#utility.yul\":3349:3423   */\n  tag_101\n    /* \"#utility.yul\":3416:3422   */\n  dup5\n    /* \"#utility.yul\":3349:3423   */\n  tag_43\n  jump\t// in\ntag_101:\n    /* \"#utility.yul\":3333:3424   */\n  tag_42\n  jump\t// in\ntag_100:\n    /* \"#utility.yul\":3324:3424   */\n  swap1\n  pop\n    /* \"#utility.yul\":3444:3449   */\n  dup1\n    /* \"#utility.yul\":3473:3479   */\n  dup4\n    /* \"#utility.yul\":3466:3471   */\n  dup3\n    /* \"#utility.yul\":3459:3480   */\n  mstore\n    /* \"#utility.yul\":3507:3511   */\n  0x20\n    /* \"#utility.yul\":3500:3505   */\n  dup3\n    /* \"#utility.yul\":3496:3512   */\n  add\n    /* \"#utility.yul\":3489:3512   */\n  swap1\n  pop\n    /* \"#utility.yul\":3560:3564   */\n  0x20\n    /* \"#utility.yul\":3552:3558   */\n  dup5\n    /* \"#utility.yul\":3548:3565   */\n  mul\n    /* \"#utility.yul\":3540:3546   */\n  dup4\n    /* \"#utility.yul\":3536:3566   */\n  add\n    /* \"#utility.yul\":3589:3592   */\n  dup6\n    /* \"#utility.yul\":3581:3587   */\n  dup2\n    /* \"#utility.yul\":3578:3593   */\n  gt\n    /* \"#utility.yul\":3575:3697   */\n  iszero\n  tag_102\n  jumpi\n    /* \"#utility.yul\":3608:3687   */\n  tag_103\n  tag_44\n  jump\t// in\ntag_103:\n    /* \"#utility.yul\":3575:3697   */\ntag_102:\n    /* \"#utility.yul\":3723:3729   */\n  dup4\n    /* \"#utility.yul\":3706:4145   */\ntag_104:\n    /* \"#utility.yul\":3740:3746   */\n  dup2\n    /* \"#utility.yul\":3735:3738   */\n  dup2\n    /* \"#utility.yul\":3732:3747   */\n  lt\n    /* \"#utility.yul\":3706:4145   */\n  iszero\n  tag_106\n  jumpi\n    /* \"#utility.yul\":3822:3825   */\n  dup1\n    /* \"#utility.yul\":3816:3826   */\n  mload\n    /* \"#utility.yul\":3858:3876   */\n  0xffffffffffffffff\n    /* \"#utility.yul\":3845:3856   */\n  dup2\n    /* \"#utility.yul\":3842:3877   */\n  gt\n    /* \"#utility.yul\":3839:3961   */\n  iszero\n  tag_107\n  jumpi\n    /* \"#utility.yul\":3880:3959   */\n  tag_108\n  tag_38\n  jump\t// in\ntag_108:\n    /* \"#utility.yul\":3839:3961   */\ntag_107:\n    /* \"#utility.yul\":4004:4015   */\n  dup1\n    /* \"#utility.yul\":3996:4002   */\n  dup7\n    /* \"#utility.yul\":3992:4016   */\n  add\n    /* \"#utility.yul\":4042:4100   */\n  tag_109\n    /* \"#utility.yul\":4096:4099   */\n  dup10\n    /* \"#utility.yul\":4084:4094   */\n  dup3\n    /* \"#utility.yul\":4042:4100   */\n  tag_49\n  jump\t// in\ntag_109:\n    /* \"#utility.yul\":4037:4040   */\n  dup6\n    /* \"#utility.yul\":4030:4101   */\n  mstore\n    /* \"#utility.yul\":4130:4134   */\n  0x20\n    /* \"#utility.yul\":4125:4128   */\n  dup6\n    /* \"#utility.yul\":4121:4135   */\n  add\n    /* \"#utility.yul\":4114:4135   */\n  swap5\n  pop\n    /* \"#utility.yul\":3782:4145   */\n  pop\n  pop\n    /* \"#utility.yul\":3766:3770   */\n  0x20\n    /* \"#utility.yul\":3761:3764   */\n  dup2\n    /* \"#utility.yul\":3757:3771   */\n  add\n    /* \"#utility.yul\":3750:3771   */\n  swap1\n  pop\n    /* \"#utility.yul\":3706:4145   */\n  jump(tag_104)\ntag_106:\n    /* \"#utility.yul\":3710:3731   */\n  pop\n    /* \"#utility.yul\":3314:4151   */\n  pop\n  pop\n    /* \"#utility.yul\":3191:4151   */\n  swap4\n  swap3\n  pop\n  pop\n  pop\n  jump\t// out\n    /* \"#utility.yul\":4173:4578   */\ntag_51:\n    /* \"#utility.yul\":4265:4270   */\n  0x00\n    /* \"#utility.yul\":4314:4317   */\n  dup3\n    /* \"#utility.yul\":4307:4311   */\n  0x1f\n    /* \"#utility.yul\":4299:4305   */\n  dup4\n    /* \"#utility.yul\":4295:4312   */\n  add\n    /* \"#utility.yul\":4291:4318   */\n  slt\n    /* \"#utility.yul\":4281:4403   */\n  tag_111\n  jumpi\n    /* \"#utility.yul\":4322:4401   */\n  tag_112\n  tag_38\n  jump\t// in\ntag_112:\n    /* \"#utility.yul\":4281:4403   */\ntag_111:\n    /* \"#utility.yul\":4432:4438   */\n  dup2\n    /* \"#utility.yul\":4426:4439   */\n  mload\n    /* \"#utility.yul\":4457:4572   */\n  tag_113\n    /* \"#utility.yul\":4568:4571   */\n  dup5\n    /* \"#utility.yul\":4560:4566   */\n  dup3\n    /* \"#utility.yul\":4553:4557   */\n  0x20\n    /* \"#utility.yul\":4545:4551   */\n  dup7\n    /* \"#utility.yul\":4541:4558   */\n  add\n    /* \"#utility.yul\":4457:4572   */\n  tag_50\n  jump\t// in\ntag_113:\n    /* \"#utility.yul\":4448:4572   */\n  swap2\n  pop\n    /* \"#utility.yul\":4271:4578   */\n  pop\n    /* \"#utility.yul\":4173:4578   */\n  swap3\n  swap2\n  pop\n  pop\n  jump\t// out\n    /* \"#utility.yul\":4584:4710   */\ntag_52:\n    /* \"#utility.yul\":4621:4628   */\n  0x00\n    /* \"#utility.yul\":4661:4703   */\n  0xffffffffffffffffffffffffffffffffffffffff\n    /* \"#utility.yul\":4654:4659   */\n  dup3\n    /* \"#utility.yul\":4650:4704   */\n  and\n    /* \"#utility.yul\":4639:4704   */\n  swap1\n  pop\n    /* \"#utility.yul\":4584:4710   */\n  swap2\n  swap1\n  pop\n  jump\t// out\n    /* \"#utility.yul\":4716:4812   */\ntag_53:\n    /* \"#utility.yul\":4753:4760   */\n  0x00\n    /* \"#utility.yul\":4782:4806   */\n  tag_116\n    /* \"#utility.yul\":4800:4805   */\n  dup3\n    /* \"#utility.yul\":4782:4806   */\n  tag_52\n  jump\t// in\ntag_116:\n    /* \"#utility.yul\":4771:4806   */\n  swap1\n  pop\n    /* \"#utility.yul\":4716:4812   */\n  swap2\n  swap1\n  pop\n  jump\t// out\n    /* \"#utility.yul\":4818:4940   */\ntag_54:\n    /* \"#utility.yul\":4891:4915   */\n  tag_118\n    /* \"#utility.yul\":4909:4914   */\n  dup2\n    /* \"#utility.yul\":4891:4915   */\n  tag_53\n  jump\t// in\ntag_118:\n    /* \"#utility.yul\":4884:4889   */\n  dup2\n    /* \"#utility.yul\":4881:4916   */\n  eq\n    /* \"#utility.yul\":4871:4934   */\n  tag_119\n  jumpi\n    /* \"#utility.yul\":4930:4931   */\n  0x00\n    /* \"#utility.yul\":4927:4928   */\n  dup1\n    /* \"#utility.yul\":4920:4932   */\n  revert\n    /* \"#utility.yul\":4871:4934   */\ntag_119:\n    /* \"#utility.yul\":4818:4940   */\n  pop\n  jump\t// out\n    /* \"#utility.yul\":4946:5089   */\ntag_55:\n    /* \"#utility.yul\":5003:5008   */\n  0x00\n    /* \"#utility.yul\":5034:5040   */\n  dup2\n    /* \"#utility.yul\":5028:5041   */\n  mload\n    /* \"#utility.yul\":5019:5041   */\n  swap1\n  pop\n    /* \"#utility.yul\":5050:5083   */\n  tag_121\n    /* \"#utility.yul\":5077:5082   */\n  dup2\n    /* \"#utility.yul\":5050:5083   */\n  tag_54\n  jump\t// in\ntag_121:\n    /* \"#utility.yul\":4946:5089   */\n  swap3\n  swap2\n  pop\n  pop\n  jump\t// out\n    /* \"#utility.yul\":5095:5172   */\ntag_56:\n    /* \"#utility.yul\":5132:5139   */\n  0x00\n    /* \"#utility.yul\":5161:5166   */\n  dup2\n    /* \"#utility.yul\":5150:5166   */\n  swap1\n  pop\n    /* \"#utility.yul\":5095:5172   */\n  swap2\n  swap1\n  pop\n  jump\t// out\n    /* \"#utility.yul\":5178:5300   */\ntag_57:\n    /* \"#utility.yul\":5251:5275   */\n  tag_124\n    /* \"#utility.yul\":5269:5274   */\n  dup2\n    /* \"#utility.yul\":5251:5275   */\n  tag_56\n  jump\t// in\ntag_124:\n    /* \"#utility.yul\":5244:5249   */\n  dup2\n    /* \"#utility.yul\":5241:5276   */\n  eq\n    /* \"#utility.yul\":5231:5294   */\n  tag_125\n  jumpi\n    /* \"#utility.yul\":5290:5291   */\n  0x00\n    /* \"#utility.yul\":5287:5288   */\n  dup1\n    /* \"#utility.yul\":5280:5292   */\n  revert\n    /* \"#utility.yul\":5231:5294   */\ntag_125:\n    /* \"#utility.yul\":5178:5300   */\n  pop\n  jump\t// out\n    /* \"#utility.yul\":5306:5449   */\ntag_58:\n    /* \"#utility.yul\":5363:5368   */\n  0x00\n    /* \"#utility.yul\":5394:5400   */\n  dup2\n    /* \"#utility.yul\":5388:5401   */\n  mload\n    /* \"#utility.yul\":5379:5401   */\n  swap1\n  pop\n    /* \"#utility.yul\":5410:5443   */\n  tag_127\n    /* \"#utility.yul\":5437:5442   */\n  dup2\n    /* \"#utility.yul\":5410:5443   */\n  tag_57\n  jump\t// in\ntag_127:\n    /* \"#utility.yul\":5306:5449   */\n  swap3\n  swap2\n  pop\n  pop\n  jump\t// out\n    /* \"#utility.yul\":5455:7051   */\ntag_3:\n    /* \"#utility.yul\":5641:5647   */\n  0x00\n    /* \"#utility.yul\":5649:5655   */\n  dup1\n    /* \"#utility.yul\":5657:5663   */\n  0x00\n    /* \"#utility.yul\":5665:5671   */\n  dup1\n    /* \"#utility.yul\":5673:5679   */\n  0x00\n    /* \"#utility.yul\":5722:5725   */\n  0xa0\n    /* \"#utility.yul\":5710:5719   */\n  dup7\n    /* \"#utility.yul\":5701:5708   */\n  dup9\n    /* \"#utility.yul\":5697:5720   */\n  sub\n    /* \"#utility.yul\":5693:5726   */\n  slt\n    /* \"#utility.yul\":5690:5810   */\n  iszero\n  tag_129\n  jumpi\n    /* \"#utility.yul\":5729:5808   */\n  tag_130\n  tag_36\n  jump\t// in\ntag_130:\n    /* \"#utility.yul\":5690:5810   */\ntag_129:\n    /* \"#utility.yul\":5870:5871   */\n  0x00\n    /* \"#utility.yul\":5859:5868   */\n  dup7\n    /* \"#utility.yul\":5855:5872   */\n  add\n    /* \"#utility.yul\":5849:5873   */\n  mload\n    /* \"#utility.yul\":5900:5918   */\n  0xffffffffffffffff\n    /* \"#utility.yul\":5892:5898   */\n  dup2\n    /* \"#utility.yul\":5889:5919   */\n  gt\n    /* \"#utility.yul\":5886:6003   */\n  iszero\n  tag_131\n  jumpi\n    /* \"#utility.yul\":5922:6001   */\n  tag_132\n  tag_37\n  jump\t// in\ntag_132:\n    /* \"#utility.yul\":5886:6003   */\ntag_131:\n    /* \"#utility.yul\":6027:6126   */\n  tag_133\n    /* \"#utility.yul\":6118:6125   */\n  dup9\n    /* \"#utility.yul\":6109:6115   */\n  dup3\n    /* \"#utility.yul\":6098:6107   */\n  dup10\n    /* \"#utility.yul\":6094:6116   */\n  add\n    /* \"#utility.yul\":6027:6126   */\n  tag_51\n  jump\t// in\ntag_133:\n    /* \"#utility.yul\":6017:6126   */\n  swap6\n  pop\n    /* \"#utility.yul\":5820:6136   */\n  pop\n    /* \"#utility.yul\":6196:6198   */\n  0x20\n    /* \"#utility.yul\":6185:6194   */\n  dup7\n    /* \"#utility.yul\":6181:6199   */\n  add\n    /* \"#utility.yul\":6175:6200   */\n  mload\n    /* \"#utility.yul\":6227:6245   */\n  0xffffffffffffffff\n    /* \"#utility.yul\":6219:6225   */\n  dup2\n    /* \"#utility.yul\":6216:6246   */\n  gt\n    /* \"#utility.yul\":6213:6330   */\n  iszero\n  tag_134\n  jumpi\n    /* \"#utility.yul\":6249:6328   */\n  tag_135\n  tag_37\n  jump\t// in\ntag_135:\n    /* \"#utility.yul\":6213:6330   */\ntag_134:\n    /* \"#utility.yul\":6354:6453   */\n  tag_136\n    /* \"#utility.yul\":6445:6452   */\n  dup9\n    /* \"#utility.yul\":6436:6442   */\n  dup3\n    /* \"#utility.yul\":6425:6434   */\n  dup10\n    /* \"#utility.yul\":6421:6443   */\n  add\n    /* \"#utility.yul\":6354:6453   */\n  tag_51\n  jump\t// in\ntag_136:\n    /* \"#utility.yul\":6344:6453   */\n  swap5\n  pop\n    /* \"#utility.yul\":6146:6463   */\n  pop\n    /* \"#utility.yul\":6523:6525   */\n  0x40\n    /* \"#utility.yul\":6512:6521   */\n  dup7\n    /* \"#utility.yul\":6508:6526   */\n  add\n    /* \"#utility.yul\":6502:6527   */\n  mload\n    /* \"#utility.yul\":6554:6572   */\n  0xffffffffffffffff\n    /* \"#utility.yul\":6546:6552   */\n  dup2\n    /* \"#utility.yul\":6543:6573   */\n  gt\n    /* \"#utility.yul\":6540:6657   */\n  iszero\n  tag_137\n  jumpi\n    /* \"#utility.yul\":6576:6655   */\n  tag_138\n  tag_37\n  jump\t// in\ntag_138:\n    /* \"#utility.yul\":6540:6657   */\ntag_137:\n    /* \"#utility.yul\":6681:6755   */\n  tag_139\n    /* \"#utility.yul\":6747:6754   */\n  dup9\n    /* \"#utility.yul\":6738:6744   */\n  dup3\n    /* \"#utility.yul\":6727:6736   */\n  dup10\n    /* \"#utility.yul\":6723:6745   */\n  add\n    /* \"#utility.yul\":6681:6755   */\n  tag_49\n  jump\t// in\ntag_139:\n    /* \"#utility.yul\":6671:6755   */\n  swap4\n  pop\n    /* \"#utility.yul\":6473:6765   */\n  pop\n    /* \"#utility.yul\":6804:6806   */\n  0x60\n    /* \"#utility.yul\":6830:6894   */\n  tag_140\n    /* \"#utility.yul\":6886:6893   */\n  dup9\n    /* \"#utility.yul\":6877:6883   */\n  dup3\n    /* \"#utility.yul\":6866:6875   */\n  dup10\n    /* \"#utility.yul\":6862:6884   */\n  add\n    /* \"#utility.yul\":6830:6894   */\n  tag_55\n  jump\t// in\ntag_140:\n    /* \"#utility.yul\":6820:6894   */\n  swap3\n  pop\n    /* \"#utility.yul\":6775:6904   */\n  pop\n    /* \"#utility.yul\":6943:6946   */\n  0x80\n    /* \"#utility.yul\":6970:7034   */\n  tag_141\n    /* \"#utility.yul\":7026:7033   */\n  dup9\n    /* \"#utility.yul\":7017:7023   */\n  dup3\n    /* \"#utility.yul\":7006:7015   */\n  dup10\n    /* \"#utility.yul\":7002:7024   */\n  add\n    /* \"#utility.yul\":6970:7034   */\n  tag_58\n  jump\t// in\ntag_141:\n    /* \"#utility.yul\":6960:7034   */\n  swap2\n  pop\n    /* \"#utility.yul\":6914:7044   */\n  pop\n    /* \"#utility.yul\":5455:7051   */\n  swap3\n  swap6\n  pop\n  swap3\n  swap6\n  swap1\n  swap4\n  pop\n  jump\t// out\n    /* \"#utility.yul\":7057:7237   */\ntag_13:\n    /* \"#utility.yul\":7105:7182   */\n  0x4e487b7100000000000000000000000000000000000000000000000000000000\n    /* \"#utility.yul\":7102:7103   */\n  0x00\n    /* \"#utility.yul\":7095:7183   */\n  mstore\n    /* \"#utility.yul\":7202:7206   */\n  0x32\n    /* \"#utility.yul\":7199:7200   */\n  0x04\n    /* \"#utility.yul\":7192:7207   */\n  mstore\n    /* \"#utility.yul\":7226:7230   */\n  0x24\n    /* \"#utility.yul\":7223:7224   */\n  0x00\n    /* \"#utility.yul\":7216:7231   */\n  revert\n    /* \"#utility.yul\":7243:7423   */\ntag_59:\n    /* \"#utility.yul\":7291:7368   */\n  0x4e487b7100000000000000000000000000000000000000000000000000000000\n    /* \"#utility.yul\":7288:7289   */\n  0x00\n    /* \"#utility.yul\":7281:7369   */\n  mstore\n    /* \"#utility.yul\":7388:7392   */\n  0x11\n    /* \"#utility.yul\":7385:7386   */\n  0x04\n    /* \"#utility.yul\":7378:7393   */\n  mstore\n    /* \"#utility.yul\":7412:7416   */\n  0x24\n    /* \"#utility.yul\":7409:7410   */\n  0x00\n    /* \"#utility.yul\":7402:7417   */\n  revert\n    /* \"#utility.yul\":7429:7734   */\ntag_17:\n    /* \"#utility.yul\":7469:7472   */\n  0x00\n    /* \"#utility.yul\":7488:7508   */\n  tag_145\n    /* \"#utility.yul\":7506:7507   */\n  dup3\n    /* \"#utility.yul\":7488:7508   */\n  tag_56\n  jump\t// in\ntag_145:\n    /* \"#utility.yul\":7483:7508   */\n  swap2\n  pop\n    /* \"#utility.yul\":7522:7542   */\n  tag_146\n    /* \"#utility.yul\":7540:7541   */\n  dup4\n    /* \"#utility.yul\":7522:7542   */\n  tag_56\n  jump\t// in\ntag_146:\n    /* \"#utility.yul\":7517:7542   */\n  swap3\n  pop\n    /* \"#utility.yul\":7676:7677   */\n  dup3\n    /* \"#utility.yul\":7608:7674   */\n  0xffffffffffffffffffffffffffffffffffffffffffffffffffffffffffffffff\n    /* \"#utility.yul\":7604:7678   */\n  sub\n    /* \"#utility.yul\":7601:7602   */\n  dup3\n    /* \"#utility.yul\":7598:7679   */\n  gt\n    /* \"#utility.yul\":7595:7702   */\n  iszero\n  tag_147\n  jumpi\n    /* \"#utility.yul\":7682:7700   */\n  tag_148\n  tag_59\n  jump\t// in\ntag_148:\n    /* \"#utility.yul\":7595:7702   */\ntag_147:\n    /* \"#utility.yul\":7726:7727   */\n  dup3\n    /* \"#utility.yul\":7723:7724   */\n  dup3\n    /* \"#utility.yul\":7719:7728   */\n  add\n    /* \"#utility.yul\":7712:7728   */\n  swap1\n  pop\n    /* \"#utility.yul\":7429:7734   */\n  swap3\n  swap2\n  pop\n  pop\n  jump\t// out\n    /* \"#utility.yul\":7740:7973   */\ntag_22:\n    /* \"#utility.yul\":7779:7782   */\n  0x00\n    /* \"#utility.yul\":7802:7826   */\n  tag_150\n    /* \"#utility.yul\":7820:7825   */\n  dup3\n    /* \"#utility.yul\":7802:7826   */\n  tag_56\n  jump\t// in\ntag_150:\n    /* \"#utility.yul\":7793:7826   */\n  swap2\n  pop\n    /* \"#utility.yul\":7848:7914   */\n  0xffffffffffffffffffffffffffffffffffffffffffffffffffffffffffffffff\n    /* \"#utility.yul\":7841:7846   */\n  dup3\n    /* \"#utility.yul\":7838:7915   */\n  eq\n    /* \"#utility.yul\":7835:7938   */\n  iszero\n  tag_151\n  jumpi\n    /* \"#utility.yul\":7918:7936   */\n  tag_152\n  tag_59\n  jump\t// in\ntag_152:\n    /* \"#utility.yul\":7835:7938   */\ntag_151:\n    /* \"#utility.yul\":7965:7966   */\n  0x01\n    /* \"#utility.yul\":7958:7963   */\n  dup3\n    /* \"#utility.yul\":7954:7967   */\n  add\n    /* \"#utility.yul\":7947:7967   */\n  swap1\n  pop\n    /* \"#utility.yul\":7740:7973   */\n  swap2\n  swap1\n  pop\n  jump\t// out\n    /* \"#utility.yul\":7979:8159   */\ntag_60:\n    /* \"#utility.yul\":8027:8104   */\n  0x4e487b7100000000000000000000000000000000000000000000000000000000\n    /* \"#utility.yul\":8024:8025   */\n  0x00\n    /* \"#utility.yul\":8017:8105   */\n  mstore\n    /* \"#utility.yul\":8124:8128   */\n  0x22\n    /* \"#utility.yul\":8121:8122   */\n  0x04\n    /* \"#utility.yul\":8114:8129   */\n  mstore\n    /* \"#utility.yul\":8148:8152   */\n  0x24\n    /* \"#utility.yul\":8145:8146   */\n  0x00\n    /* \"#utility.yul\":8138:8153   */\n  revert\n    /* \"#utility.yul\":8165:8485   */\ntag_25:\n    /* \"#utility.yul\":8209:8215   */\n  0x00\n    /* \"#utility.yul\":8246:8247   */\n  0x02\n    /* \"#utility.yul\":8240:8244   */\n  dup3\n    /* \"#utility.yul\":8236:8248   */\n  div\n    /* \"#utility.yul\":8226:8248   */\n  swap1\n  pop\n    /* \"#utility.yul\":8293:8294   */\n  0x01\n    /* \"#utility.yul\":8287:8291   */\n  dup3\n    /* \"#utility.yul\":8283:8295   */\n  and\n    /* \"#utility.yul\":8314:8332   */\n  dup1\n    /* \"#utility.yul\":8304:8385   */\n  tag_155\n  jumpi\n    /* \"#utility.yul\":8370:8374   */\n  0x7f\n    /* \"#utility.yul\":8362:8368   */\n  dup3\n    /* \"#utility.yul\":8358:8375   */\n  and\n    /* \"#utility.yul\":8348:8375   */\n  swap2\n  pop\n    /* \"#utility.yul\":8304:8385   */\ntag_155:\n    /* \"#utility.yul\":8432:8434   */\n  0x20\n    /* \"#utility.yul\":8424:8430   */\n  dup3\n    /* \"#utility.yul\":8421:8435   */\n  lt\n    /* \"#utility.yul\":8401:8419   */\n  dup2\n    /* \"#utility.yul\":8398:8436   */\n  eq\n    /* \"#utility.yul\":8395:8479   */\n  iszero\n  tag_156\n  jumpi\n    /* \"#utility.yul\":8451:8469   */\n  tag_157\n  tag_60\n  jump\t// in\ntag_157:\n    /* \"#utility.yul\":8395:8479   */\ntag_156:\n    /* \"#utility.yul\":8216:8485   */\n  pop\n    /* \"#utility.yul\":8165:8485   */\n  swap2\n  swap1\n  pop\n  jump\t// out\n    /* \"evs.sol\":649:2247  contract Ballot ... */\ntag_23:\n  dataSize(sub_0)\n  dup1\n  dataOffset(sub_0)\n  0x00\n  codecopy\n  0x00\n  return\nstop\n\nsub_0: assembly {\n        /* \"evs.sol\":649:2247  contract Ballot ... */\n      mstore(0x40, 0x80)\n      callvalue\n      dup1\n      iszero\n      tag_1\n      jumpi\n      0x00\n      dup1\n      revert\n    tag_1:\n      pop\n      jumpi(tag_2, lt(calldatasize, 0x04))\n      shr(0xe0, calldataload(0x00))\n      dup1\n      0x716c424e\n      gt\n      tag_11\n      jumpi\n      dup1\n      0x716c424e\n      eq\n      tag_7\n      jumpi\n      dup1\n      0xa3ec138d\n      eq\n      tag_8\n      jumpi\n      dup1\n      0xb2c2f2e8\n      eq\n      tag_9\n      jumpi\n      dup1\n      0xe13804a7\n      eq\n      tag_10\n      jumpi\n      jump(tag_2)\n    tag_11:\n      dup1\n      0x0121b93f\n      eq\n      tag_3\n      jumpi\n      dup1\n      0x3477ee2e\n      eq\n      tag_4\n      jumpi\n      dup1\n      0x456645a7\n      eq\n      tag_5\n      jumpi\n      dup1\n      0x481c6a75\n      eq\n      tag_6\n      jumpi\n    tag_2:\n      0x00\n      dup1\n      revert\n        /* \"evs.sol\":1488:1714  function vote(uint index) public... */\n    tag_3:\n      tag_12\n      0x04\n      dup1\n      calldatasize\n      sub\n      dup2\n      add\n      swap1\n      tag_13\n      swap2\n      swap1\n      tag_14\n      jump\t// in\n    tag_13:\n      tag_15\n      jump\t// in\n    tag_12:\n      stop\n        /* \"evs.sol\":794:823  candidate[] public candidates */\n    tag_4:\n      tag_16\n      0x04\n      dup1\n      calldatasize\n      sub\n      dup2\n      add\n      swap1\n      tag_17\n      swap2\n      swap1\n      tag_14\n      jump\t// in\n    tag_17:\n      tag_18\n      jump\t// in\n    tag_16:\n      mload(0x40)\n      tag_19\n      swap6\n      swap5\n      swap4\n      swap3\n      swap2\n      swap1\n      tag_20\n      jump\t// in\n    tag_19:\n      mload(0x40)\n      dup1\n      swap2\n      sub\n      swap1\n      return\n        /* \"evs.sol\":1892:2069  function getCandidateParty(uint index) public view returns (string memory)... */\n    tag_5:\n      tag_21\n      0x04\n      dup1\n      calldatasize\n      sub\n      dup2\n      add\n      swap1\n      tag_22\n      swap2\n      swap1\n      tag_14\n      jump\t// in\n    tag_22:\n      tag_23\n      jump\t// in\n    tag_21:\n      mload(0x40)\n      tag_24\n      swap2\n      swap1\n      tag_25\n      jump\t// in\n    tag_24:\n      mload(0x40)\n      dup1\n      swap2\n      sub\n      swap1\n      return\n        /* \"evs.sol\":825:847  address public manager */\n    tag_6:\n      tag_26\n      tag_27\n      jump\t// in\n    tag_26:\n      mload(0x40)\n      tag_28\n      swap2\n      swap1\n      tag_29\n      jump\t// in\n    tag_28:\n      mload(0x40)\n      dup1\n      swap2\n      sub\n      swap1\n      return\n        /* \"evs.sol\":849:877  string public votingDistrict */\n    tag_7:\n      tag_30\n      tag_31\n      jump\t// in\n    tag_30:\n      mload(0x40)\n      tag_32\n      swap2\n      swap1\n      tag_25\n      jump\t// in\n    tag_32:\n      mload(0x40)\n      dup1\n      swap2\n      sub\n      swap1\n      return\n        /* \"evs.sol\":879:918  mapping (address => bool) public voters */\n    tag_8:\n      tag_33\n      0x04\n      dup1\n      calldatasize\n      sub\n      dup2\n      add\n      swap1\n      tag_34\n      swap2\n      swap1\n      tag_35\n      jump\t// in\n    tag_34:\n      tag_36\n      jump\t// in\n    tag_33:\n      mload(0x40)\n      tag_37\n      swap2\n      swap1\n      tag_38\n      jump\t// in\n    tag_37:\n      mload(0x40)\n      dup1\n      swap2\n      sub\n      swap1\n      return\n        /* \"evs.sol\":2071:2244  function getVoteCount(uint index)... */\n    tag_9:\n      tag_39\n      0x04\n      dup1\n      calldatasize\n      sub\n      dup2\n      add\n      swap1\n      tag_40\n      swap2\n      swap1\n      tag_14\n      jump\t// in\n    tag_40:\n      tag_41\n      jump\t// in\n    tag_39:\n      mload(0x40)\n      tag_42\n      swap2\n      swap1\n      tag_43\n      jump\t// in\n    tag_42:\n      mload(0x40)\n      dup1\n      swap2\n      sub\n      swap1\n      return\n        /* \"evs.sol\":1716:1891  function getCandidateName(uint index) public view returns (string memory)... */\n    tag_10:\n      tag_44\n      0x04\n      dup1\n      calldatasize\n      sub\n      dup2\n      add\n      swap1\n      tag_45\n      swap2\n      swap1\n      tag_14\n      jump\t// in\n    tag_45:\n      tag_46\n      jump\t// in\n    tag_44:\n      mload(0x40)\n      tag_47\n      swap2\n      swap1\n      tag_25\n      jump\t// in\n    tag_47:\n      mload(0x40)\n      dup1\n      swap2\n      sub\n      swap1\n      return\n        /* \"evs.sol\":1488:1714  function vote(uint index) public... */\n    tag_15:\n        /* \"evs.sol\":1541:1547  voters */\n      0x03\n        /* \"evs.sol\":1541:1559  voters[msg.sender] */\n      0x00\n        /* \"evs.sol\":1548:1558  msg.sender */\n      caller\n        /* \"evs.sol\":1541:1559  voters[msg.sender] */\n      0xffffffffffffffffffffffffffffffffffffffff\n      and\n      0xffffffffffffffffffffffffffffffffffffffff\n      and\n      dup2\n      mstore\n      0x20\n      add\n      swap1\n      dup2\n      mstore\n      0x20\n      add\n      0x00\n      keccak256\n      0x00\n      swap1\n      sload\n      swap1\n      0x0100\n      exp\n      swap1\n      div\n      0xff\n      and\n        /* \"evs.sol\":1539:1559  ! voters[msg.sender] */\n      iszero\n        /* \"evs.sol\":1531:1560  require(! voters[msg.sender]) */\n      tag_49\n      jumpi\n      0x00\n      dup1\n      revert\n    tag_49:\n        /* \"evs.sol\":1675:1676  1 */\n      0x01\n        /* \"evs.sol\":1645:1655  candidates */\n      0x00\n        /* \"evs.sol\":1656:1661  index */\n      dup3\n        /* \"evs.sol\":1645:1662  candidates[index] */\n      dup2\n      sload\n      dup2\n      lt\n      tag_50\n      jumpi\n      tag_51\n      tag_52\n      jump\t// in\n    tag_51:\n    tag_50:\n      swap1\n      0x00\n      mstore\n      keccak256(0x00, 0x20)\n      swap1\n      0x05\n      mul\n      add\n        /* \"evs.sol\":1645:1672  candidates[index].voteCount */\n      0x02\n      add\n      0x00\n        /* \"evs.sol\":1645:1676  candidates[index].voteCount +=1 */\n      dup3\n      dup3\n      sload\n      tag_54\n      swap2\n      swap1\n      tag_55\n      jump\t// in\n    tag_54:\n      swap3\n      pop\n      pop\n      dup2\n      swap1\n      sstore\n      pop\n        /* \"evs.sol\":1703:1707  true */\n      0x01\n        /* \"evs.sol\":1682:1688  voters */\n      0x03\n        /* \"evs.sol\":1682:1700  voters[msg.sender] */\n      0x00\n        /* \"evs.sol\":1689:1699  msg.sender */\n      caller\n        /* \"evs.sol\":1682:1700  voters[msg.sender] */\n      0xffffffffffffffffffffffffffffffffffffffff\n      and\n      0xffffffffffffffffffffffffffffffffffffffff\n      and\n      dup2\n      mstore\n      0x20\n      add\n      swap1\n      dup2\n      mstore\n      0x20\n      add\n      0x00\n      keccak256\n      0x00\n        /* \"evs.sol\":1682:1707  voters[msg.sender] = true */\n      0x0100\n      exp\n      dup2\n      sload\n      dup2\n      0xff\n      mul\n      not\n      and\n      swap1\n      dup4\n      iszero\n      iszero\n      mul\n      or\n      swap1\n      sstore\n      pop\n        /* \"evs.sol\":1488:1714  function vote(uint index) public... */\n      pop\n      jump\t// out\n        /* \"evs.sol\":794:823  candidate[] public candidates */\n    tag_18:\n      0x00\n      dup2\n      dup2\n      sload\n      dup2\n      lt\n      tag_56\n      jumpi\n      0x00\n      dup1\n      revert\n    tag_56:\n      swap1\n      0x00\n      mstore\n      keccak256(0x00, 0x20)\n      swap1\n      0x05\n      mul\n      add\n      0x00\n      swap2\n      pop\n      swap1\n      pop\n      dup1\n      0x00\n      add\n      dup1\n      sload\n      tag_58\n      swap1\n      tag_59\n      jump\t// in\n    tag_58:\n      dup1\n      0x1f\n      add\n      0x20\n      dup1\n      swap2\n      div\n      mul\n      0x20\n      add\n      mload(0x40)\n      swap1\n      dup2\n      add\n      0x40\n      mstore\n      dup1\n      swap3\n      swap2\n      swap1\n      dup2\n      dup2\n      mstore\n      0x20\n      add\n      dup3\n      dup1\n      sload\n      tag_60\n      swap1\n      tag_59\n      jump\t// in\n    tag_60:\n      dup1\n      iszero\n      tag_61\n      jumpi\n      dup1\n      0x1f\n      lt\n      tag_62\n      jumpi\n      0x0100\n      dup1\n      dup4\n      sload\n      div\n      mul\n      dup4\n      mstore\n      swap2\n      0x20\n      add\n      swap2\n      jump(tag_61)\n    tag_62:\n      dup3\n      add\n      swap2\n      swap1\n      0x00\n      mstore\n      keccak256(0x00, 0x20)\n      swap1\n    tag_63:\n      dup2\n      sload\n      dup2\n      mstore\n      swap1\n      0x01\n      add\n      swap1\n      0x20\n      add\n      dup1\n      dup4\n      gt\n      tag_63\n      jumpi\n      dup3\n      swap1\n      sub\n      0x1f\n      and\n      dup3\n      add\n      swap2\n    tag_61:\n      pop\n      pop\n      pop\n      pop\n      pop\n      swap1\n      dup1\n      0x01\n      add\n      dup1\n      sload\n      tag_64\n      swap1\n      tag_59\n      jump\t// in\n    tag_64:\n      dup1\n      0x1f\n      add\n      0x20\n      dup1\n      swap2\n      div\n      mul\n      0x20\n      add\n      mload(0x40)\n      swap1\n      dup2\n      add\n      0x40\n      mstore\n      dup1\n      swap3\n      swap2\n      swap1\n      dup2\n      dup2\n      mstore\n      0x20\n      add\n      dup3\n      dup1\n      sload\n      tag_65\n      swap1\n      tag_59\n      jump\t// in\n    tag_65:\n      dup1\n      iszero\n      tag_66\n      jumpi\n      dup1\n      0x1f\n      lt\n      tag_67\n      jumpi\n      0x0100\n      dup1\n      dup4\n      sload\n      div\n      mul\n      dup4\n      mstore\n      swap2\n      0x20\n      add\n      swap2\n      jump(tag_66)\n    tag_67:\n      dup3\n      add\n      swap2\n      swap1\n      0x00\n      mstore\n      keccak256(0x00, 0x20)\n      swap1\n    tag_68:\n      dup2\n      sload\n      dup2\n      mstore\n      swap1\n      0x01\n      add\n      swap1\n      0x20\n      add\n      dup1\n      dup4\n      gt\n      tag_68\n      jumpi\n      dup3\n      swap1\n      sub\n      0x1f\n      and\n      dup3\n      add\n      swap2\n    tag_66:\n      pop\n      pop\n      pop\n      pop\n      pop\n      swap1\n      dup1\n      0x02\n      add\n      sload\n      swap1\n      dup1\n      0x03\n      add\n      sload\n      swap1\n      dup1\n      0x04\n      add\n      sload\n      swap1\n      pop\n      dup6\n      jump\t// out\n        /* \"evs.sol\":1892:2069  function getCandidateParty(uint index) public view returns (string memory)... */\n    tag_23:\n        /* \"evs.sol\":1952:1965  string memory */\n      0x60\n        /* \"evs.sol\":1997:2007  candidates */\n      0x00\n        /* \"evs.sol\":2008:2013  index */\n      dup3\n        /* \"evs.sol\":1997:2014  candidates[index] */\n      dup2\n      sload\n      dup2\n      lt\n      tag_70\n      jumpi\n      tag_71\n      tag_52\n      jump\t// in\n    tag_71:\n    tag_70:\n      swap1\n      0x00\n      mstore\n      keccak256(0x00, 0x20)\n      swap1\n      0x05\n      mul\n      add\n        /* \"evs.sol\":1997:2029  candidates[index].expirationDate */\n      0x04\n      add\n      sload\n        /* \"evs.sol\":1981:1996  block.timestamp */\n      timestamp\n        /* \"evs.sol\":1981:2029  block.timestamp>candidates[index].expirationDate */\n      gt\n        /* \"evs.sol\":1973:2030  require(block.timestamp>candidates[index].expirationDate) */\n      tag_73\n      jumpi\n      0x00\n      dup1\n      revert\n    tag_73:\n        /* \"evs.sol\":2043:2053  candidates */\n      0x00\n        /* \"evs.sol\":2054:2059  index */\n      dup3\n        /* \"evs.sol\":2043:2060  candidates[index] */\n      dup2\n      sload\n      dup2\n      lt\n      tag_74\n      jumpi\n      tag_75\n      tag_52\n      jump\t// in\n    tag_75:\n    tag_74:\n      swap1\n      0x00\n      mstore\n      keccak256(0x00, 0x20)\n      swap1\n      0x05\n      mul\n      add\n        /* \"evs.sol\":2043:2066  candidates[index].party */\n      0x01\n      add\n        /* \"evs.sol\":2036:2066  return candidates[index].party */\n      dup1\n      sload\n      tag_77\n      swap1\n      tag_59\n      jump\t// in\n    tag_77:\n      dup1\n      0x1f\n      add\n      0x20\n      dup1\n      swap2\n      div\n      mul\n      0x20\n      add\n      mload(0x40)\n      swap1\n      dup2\n      add\n      0x40\n      mstore\n      dup1\n      swap3\n      swap2\n      swap1\n      dup2\n      dup2\n      mstore\n      0x20\n      add\n      dup3\n      dup1\n      sload\n      tag_78\n      swap1\n      tag_59\n      jump\t// in\n    tag_78:\n      dup1\n      iszero\n      tag_79\n      jumpi\n      dup1\n      0x1f\n      lt\n      tag_80\n      jumpi\n      0x0100\n      dup1\n      dup4\n      sload\n      div\n      mul\n      dup4\n      mstore\n      swap2\n      0x20\n      add\n      swap2\n      jump(tag_79)\n    tag_80:\n      dup3\n      add\n      swap2\n      swap1\n      0x00\n      mstore\n      keccak256(0x00, 0x20)\n      swap1\n    tag_81:\n      dup2\n      sload\n      dup2\n      mstore\n      swap1\n      0x01\n      add\n      swap1\n      0x20\n      add\n      dup1\n      dup4\n      gt\n      tag_81\n      jumpi\n      dup3\n      swap1\n      sub\n      0x1f\n      and\n      dup3\n      add\n      swap2\n    tag_79:\n      pop\n      pop\n      pop\n      pop\n      pop\n      swap1\n      pop\n        /* \"evs.sol\":1892:2069  function getCandidateParty(uint index) public view returns (string memory)... */\n      swap2\n      swap1\n      pop\n      jump\t// out\n        /* \"evs.sol\":825:847  address public manager */\n    tag_27:\n      0x01\n      0x00\n      swap1\n      sload\n      swap1\n      0x0100\n      exp\n      swap1\n      div\n      0xffffffffffffffffffffffffffffffffffffffff\n      and\n      dup2\n      jump\t// out\n        /* \"evs.sol\":849:877  string public votingDistrict */\n    tag_31:\n      0x02\n      dup1\n      sload\n      tag_82\n      swap1\n      tag_59\n      jump\t// in\n    tag_82:\n      dup1\n      0x1f\n      add\n      0x20\n      dup1\n      swap2\n      div\n      mul\n      0x20\n      add\n      mload(0x40)\n      swap1\n      dup2\n      add\n      0x40\n      mstore\n      dup1\n      swap3\n      swap2\n      swap1\n      dup2\n      dup2\n      mstore\n      0x20\n      add\n      dup3\n      dup1\n      sload\n      tag_83\n      swap1\n      tag_59\n      jump\t// in\n    tag_83:\n      dup1\n      iszero\n      tag_84\n      jumpi\n      dup1\n      0x1f\n      lt\n      tag_85\n      jumpi\n      0x0100\n      dup1\n      dup4\n      sload\n      div\n      mul\n      dup4\n      mstore\n      swap2\n      0x20\n      add\n      swap2\n      jump(tag_84)\n    tag_85:\n      dup3\n      add\n      swap2\n      swap1\n      0x00\n      mstore\n      keccak256(0x00, 0x20)\n      swap1\n    tag_86:\n      dup2\n      sload\n      dup2\n      mstore\n      swap1\n      0x01\n      add\n      swap1\n      0x20\n      add\n      dup1\n      dup4\n      gt\n      tag_86\n      jumpi\n      dup3\n      swap1\n      sub\n      0x1f\n      and\n      dup3\n      add\n      swap2\n    tag_84:\n      pop\n      pop\n      pop\n      pop\n      pop\n      dup2\n      jump\t// out\n        /* \"evs.sol\":879:918  mapping (address => bool) public voters */\n    tag_36:\n      mstore(0x20, 0x03)\n      dup1\n      0x00\n      mstore\n      keccak256(0x00, 0x40)\n      0x00\n      swap2\n      pop\n      sload\n      swap1\n      0x0100\n      exp\n      swap1\n      div\n      0xff\n      and\n      dup2\n      jump\t// out\n        /* \"evs.sol\":2071:2244  function getVoteCount(uint index)... */\n    tag_41:\n        /* \"evs.sol\":2136:2140  uint */\n      0x00\n        /* \"evs.sol\":966:973  manager */\n      0x01\n      0x00\n      swap1\n      sload\n      swap1\n      0x0100\n      exp\n      swap1\n      div\n      0xffffffffffffffffffffffffffffffffffffffff\n      and\n        /* \"evs.sol\":953:973  msg.sender== manager */\n      0xffffffffffffffffffffffffffffffffffffffff\n      and\n        /* \"evs.sol\":953:963  msg.sender */\n      caller\n        /* \"evs.sol\":953:973  msg.sender== manager */\n      0xffffffffffffffffffffffffffffffffffffffff\n      and\n      eq\n        /* \"evs.sol\":945:974  require(msg.sender== manager) */\n      tag_88\n      jumpi\n      0x00\n      dup1\n      revert\n    tag_88:\n        /* \"evs.sol\":2168:2178  candidates */\n      0x00\n        /* \"evs.sol\":2179:2184  index */\n      dup3\n        /* \"evs.sol\":2168:2185  candidates[index] */\n      dup2\n      sload\n      dup2\n      lt\n      tag_90\n      jumpi\n      tag_91\n      tag_52\n      jump\t// in\n    tag_91:\n    tag_90:\n      swap1\n      0x00\n      mstore\n      keccak256(0x00, 0x20)\n      swap1\n      0x05\n      mul\n      add\n        /* \"evs.sol\":2168:2200  candidates[index].expirationDate */\n      0x04\n      add\n      sload\n        /* \"evs.sol\":2152:2167  block.timestamp */\n      timestamp\n        /* \"evs.sol\":2152:2200  block.timestamp>candidates[index].expirationDate */\n      gt\n        /* \"evs.sol\":2144:2201  require(block.timestamp>candidates[index].expirationDate) */\n      tag_93\n      jumpi\n      0x00\n      dup1\n      revert\n    tag_93:\n        /* \"evs.sol\":2214:2224  candidates */\n      0x00\n        /* \"evs.sol\":2225:2230  index */\n      dup3\n        /* \"evs.sol\":2214:2231  candidates[index] */\n      dup2\n      sload\n      dup2\n      lt\n      tag_94\n      jumpi\n      tag_95\n      tag_52\n      jump\t// in\n    tag_95:\n    tag_94:\n      swap1\n      0x00\n      mstore\n      keccak256(0x00, 0x20)\n      swap1\n      0x05\n      mul\n      add\n        /* \"evs.sol\":2214:2241  candidates[index].voteCount */\n      0x02\n      add\n      sload\n        /* \"evs.sol\":2207:2241  return candidates[index].voteCount */\n      swap1\n      pop\n        /* \"evs.sol\":2071:2244  function getVoteCount(uint index)... */\n      swap2\n      swap1\n      pop\n      jump\t// out\n        /* \"evs.sol\":1716:1891  function getCandidateName(uint index) public view returns (string memory)... */\n    tag_46:\n        /* \"evs.sol\":1775:1788  string memory */\n      0x60\n        /* \"evs.sol\":1820:1830  candidates */\n      0x00\n        /* \"evs.sol\":1831:1836  index */\n      dup3\n        /* \"evs.sol\":1820:1837  candidates[index] */\n      dup2\n      sload\n      dup2\n      lt\n      tag_98\n      jumpi\n      tag_99\n      tag_52\n      jump\t// in\n    tag_99:\n    tag_98:\n      swap1\n      0x00\n      mstore\n      keccak256(0x00, 0x20)\n      swap1\n      0x05\n      mul\n      add\n        /* \"evs.sol\":1820:1852  candidates[index].expirationDate */\n      0x04\n      add\n      sload\n        /* \"evs.sol\":1804:1819  block.timestamp */\n      timestamp\n        /* \"evs.sol\":1804:1852  block.timestamp>candidates[index].expirationDate */\n      gt\n        /* \"evs.sol\":1796:1853  require(block.timestamp>candidates[index].expirationDate) */\n      tag_101\n      jumpi\n      0x00\n      dup1\n      revert\n    tag_101:\n        /* \"evs.sol\":1866:1876  candidates */\n      0x00\n        /* \"evs.sol\":1877:1882  index */\n      dup3\n        /* \"evs.sol\":1866:1883  candidates[index] */\n      dup2\n      sload\n      dup2\n      lt\n      tag_102\n      jumpi\n      tag_103\n      tag_52\n      jump\t// in\n    tag_103:\n    tag_102:\n      swap1\n      0x00\n      mstore\n      keccak256(0x00, 0x20)\n      swap1\n      0x05\n      mul\n      add\n        /* \"evs.sol\":1866:1888  candidates[index].name */\n      0x00\n      add\n        /* \"evs.sol\":1859:1888  return candidates[index].name */\n      dup1\n      sload\n      tag_105\n      swap1\n      tag_59\n      jump\t// in\n    tag_105:\n      dup1\n      0x1f\n      add\n      0x20\n      dup1\n      swap2\n      div\n      mul\n      0x20\n      add\n      mload(0x40)\n      swap1\n      dup2\n      add\n      0x40\n      mstore\n      dup1\n      swap3\n      swap2\n      swap1\n      dup2\n      dup2\n      mstore\n      0x20\n      add\n      dup3\n      dup1\n      sload\n      tag_106\n      swap1\n      tag_59\n      jump\t// in\n    tag_106:\n      dup1\n      iszero\n      tag_107\n      jumpi\n      dup1\n      0x1f\n      lt\n      tag_108\n      jumpi\n      0x0100\n      dup1\n      dup4\n      sload\n      div\n      mul\n      dup4\n      mstore\n      swap2\n      0x20\n      add\n      swap2\n      jump(tag_107)\n    tag_108:\n      dup3\n      add\n      swap2\n      swap1\n      0x00\n      mstore\n      keccak256(0x00, 0x20)\n      swap1\n    tag_109:\n      dup2\n      sload\n      dup2\n      mstore\n      swap1\n      0x01\n      add\n      swap1\n      0x20\n      add\n      dup1\n      dup4\n      gt\n      tag_109\n      jumpi\n      dup3\n      swap1\n      sub\n      0x1f\n      and\n      dup3\n      add\n      swap2\n    tag_107:\n      pop\n      pop\n      pop\n      pop\n      pop\n      swap1\n      pop\n        /* \"evs.sol\":1716:1891  function getCandidateName(uint index) public view returns (string memory)... */\n      swap2\n      swap1\n      pop\n      jump\t// out\n        /* \"#utility.yul\":88:205   */\n    tag_111:\n        /* \"#utility.yul\":197:198   */\n      0x00\n        /* \"#utility.yul\":194:195   */\n      dup1\n        /* \"#utility.yul\":187:199   */\n      revert\n        /* \"#utility.yul\":334:411   */\n    tag_113:\n        /* \"#utility.yul\":371:378   */\n      0x00\n        /* \"#utility.yul\":400:405   */\n      dup2\n        /* \"#utility.yul\":389:405   */\n      swap1\n      pop\n        /* \"#utility.yul\":334:411   */\n      swap2\n      swap1\n      pop\n      jump\t// out\n        /* \"#utility.yul\":417:539   */\n    tag_114:\n        /* \"#utility.yul\":490:514   */\n      tag_137\n        /* \"#utility.yul\":508:513   */\n      dup2\n        /* \"#utility.yul\":490:514   */\n      tag_113\n      jump\t// in\n    tag_137:\n        /* \"#utility.yul\":483:488   */\n      dup2\n        /* \"#utility.yul\":480:515   */\n      eq\n        /* \"#utility.yul\":470:533   */\n      tag_138\n      jumpi\n        /* \"#utility.yul\":529:530   */\n      0x00\n        /* \"#utility.yul\":526:527   */\n      dup1\n        /* \"#utility.yul\":519:531   */\n      revert\n        /* \"#utility.yul\":470:533   */\n    tag_138:\n        /* \"#utility.yul\":417:539   */\n      pop\n      jump\t// out\n        /* \"#utility.yul\":545:684   */\n    tag_115:\n        /* \"#utility.yul\":591:596   */\n      0x00\n        /* \"#utility.yul\":629:635   */\n      dup2\n        /* \"#utility.yul\":616:636   */\n      calldataload\n        /* \"#utility.yul\":607:636   */\n      swap1\n      pop\n        /* \"#utility.yul\":645:678   */\n      tag_140\n        /* \"#utility.yul\":672:677   */\n      dup2\n        /* \"#utility.yul\":645:678   */\n      tag_114\n      jump\t// in\n    tag_140:\n        /* \"#utility.yul\":545:684   */\n      swap3\n      swap2\n      pop\n      pop\n      jump\t// out\n        /* \"#utility.yul\":690:1019   */\n    tag_14:\n        /* \"#utility.yul\":749:755   */\n      0x00\n        /* \"#utility.yul\":798:800   */\n      0x20\n        /* \"#utility.yul\":786:795   */\n      dup3\n        /* \"#utility.yul\":777:784   */\n      dup5\n        /* \"#utility.yul\":773:796   */\n      sub\n        /* \"#utility.yul\":769:801   */\n      slt\n        /* \"#utility.yul\":766:885   */\n      iszero\n      tag_142\n      jumpi\n        /* \"#utility.yul\":804:883   */\n      tag_143\n      tag_111\n      jump\t// in\n    tag_143:\n        /* \"#utility.yul\":766:885   */\n    tag_142:\n        /* \"#utility.yul\":924:925   */\n      0x00\n        /* \"#utility.yul\":949:1002   */\n      tag_144\n        /* \"#utility.yul\":994:1001   */\n      dup5\n        /* \"#utility.yul\":985:991   */\n      dup3\n        /* \"#utility.yul\":974:983   */\n      dup6\n        /* \"#utility.yul\":970:992   */\n      add\n        /* \"#utility.yul\":949:1002   */\n      tag_115\n      jump\t// in\n    tag_144:\n        /* \"#utility.yul\":939:1002   */\n      swap2\n      pop\n        /* \"#utility.yul\":895:1012   */\n      pop\n        /* \"#utility.yul\":690:1019   */\n      swap3\n      swap2\n      pop\n      pop\n      jump\t// out\n        /* \"#utility.yul\":1025:1124   */\n    tag_116:\n        /* \"#utility.yul\":1077:1083   */\n      0x00\n        /* \"#utility.yul\":1111:1116   */\n      dup2\n        /* \"#utility.yul\":1105:1117   */\n      mload\n        /* \"#utility.yul\":1095:1117   */\n      swap1\n      pop\n        /* \"#utility.yul\":1025:1124   */\n      swap2\n      swap1\n      pop\n      jump\t// out\n        /* \"#utility.yul\":1130:1299   */\n    tag_117:\n        /* \"#utility.yul\":1214:1225   */\n      0x00\n        /* \"#utility.yul\":1248:1254   */\n      dup3\n        /* \"#utility.yul\":1243:1246   */\n      dup3\n        /* \"#utility.yul\":1236:1255   */\n      mstore\n        /* \"#utility.yul\":1288:1292   */\n      0x20\n        /* \"#utility.yul\":1283:1286   */\n      dup3\n        /* \"#utility.yul\":1279:1293   */\n      add\n        /* \"#utility.yul\":1264:1293   */\n      swap1\n      pop\n        /* \"#utility.yul\":1130:1299   */\n      swap3\n      swap2\n      pop\n      pop\n      jump\t// out\n        /* \"#utility.yul\":1305:1612   */\n    tag_118:\n        /* \"#utility.yul\":1373:1374   */\n      0x00\n        /* \"#utility.yul\":1383:1496   */\n    tag_148:\n        /* \"#utility.yul\":1397:1403   */\n      dup4\n        /* \"#utility.yul\":1394:1395   */\n      dup2\n        /* \"#utility.yul\":1391:1404   */\n      lt\n        /* \"#utility.yul\":1383:1496   */\n      iszero\n      tag_150\n      jumpi\n        /* \"#utility.yul\":1482:1483   */\n      dup1\n        /* \"#utility.yul\":1477:1480   */\n      dup3\n        /* \"#utility.yul\":1473:1484   */\n      add\n        /* \"#utility.yul\":1467:1485   */\n      mload\n        /* \"#utility.yul\":1463:1464   */\n      dup2\n        /* \"#utility.yul\":1458:1461   */\n      dup5\n        /* \"#utility.yul\":1454:1465   */\n      add\n        /* \"#utility.yul\":1447:1486   */\n      mstore\n        /* \"#utility.yul\":1419:1421   */\n      0x20\n        /* \"#utility.yul\":1416:1417   */\n      dup2\n        /* \"#utility.yul\":1412:1422   */\n      add\n        /* \"#utility.yul\":1407:1422   */\n      swap1\n      pop\n        /* \"#utility.yul\":1383:1496   */\n      jump(tag_148)\n    tag_150:\n        /* \"#utility.yul\":1514:1520   */\n      dup4\n        /* \"#utility.yul\":1511:1512   */\n      dup2\n        /* \"#utility.yul\":1508:1521   */\n      gt\n        /* \"#utility.yul\":1505:1606   */\n      iszero\n      tag_151\n      jumpi\n        /* \"#utility.yul\":1594:1595   */\n      0x00\n        /* \"#utility.yul\":1585:1591   */\n      dup5\n        /* \"#utility.yul\":1580:1583   */\n      dup5\n        /* \"#utility.yul\":1576:1592   */\n      add\n        /* \"#utility.yul\":1569:1596   */\n      mstore\n        /* \"#utility.yul\":1505:1606   */\n    tag_151:\n        /* \"#utility.yul\":1354:1612   */\n      pop\n        /* \"#utility.yul\":1305:1612   */\n      pop\n      pop\n      pop\n      jump\t// out\n        /* \"#utility.yul\":1618:1720   */\n    tag_119:\n        /* \"#utility.yul\":1659:1665   */\n      0x00\n        /* \"#utility.yul\":1710:1712   */\n      0x1f\n        /* \"#utility.yul\":1706:1713   */\n      not\n        /* \"#utility.yul\":1701:1703   */\n      0x1f\n        /* \"#utility.yul\":1694:1699   */\n      dup4\n        /* \"#utility.yul\":1690:1704   */\n      add\n        /* \"#utility.yul\":1686:1714   */\n      and\n        /* \"#utility.yul\":1676:1714   */\n      swap1\n      pop\n        /* \"#utility.yul\":1618:1720   */\n      swap2\n      swap1\n      pop\n      jump\t// out\n        /* \"#utility.yul\":1726:2090   */\n    tag_120:\n        /* \"#utility.yul\":1814:1817   */\n      0x00\n        /* \"#utility.yul\":1842:1881   */\n      tag_154\n        /* \"#utility.yul\":1875:1880   */\n      dup3\n        /* \"#utility.yul\":1842:1881   */\n      tag_116\n      jump\t// in\n    tag_154:\n        /* \"#utility.yul\":1897:1968   */\n      tag_155\n        /* \"#utility.yul\":1961:1967   */\n      dup2\n        /* \"#utility.yul\":1956:1959   */\n      dup6\n        /* \"#utility.yul\":1897:1968   */\n      tag_117\n      jump\t// in\n    tag_155:\n        /* \"#utility.yul\":1890:1968   */\n      swap4\n      pop\n        /* \"#utility.yul\":1977:2029   */\n      tag_156\n        /* \"#utility.yul\":2022:2028   */\n      dup2\n        /* \"#utility.yul\":2017:2020   */\n      dup6\n        /* \"#utility.yul\":2010:2014   */\n      0x20\n        /* \"#utility.yul\":2003:2008   */\n      dup7\n        /* \"#utility.yul\":1999:2015   */\n      add\n        /* \"#utility.yul\":1977:2029   */\n      tag_118\n      jump\t// in\n    tag_156:\n        /* \"#utility.yul\":2054:2083   */\n      tag_157\n        /* \"#utility.yul\":2076:2082   */\n      dup2\n        /* \"#utility.yul\":2054:2083   */\n      tag_119\n      jump\t// in\n    tag_157:\n        /* \"#utility.yul\":2049:2052   */\n      dup5\n        /* \"#utility.yul\":2045:2084   */\n      add\n        /* \"#utility.yul\":2038:2084   */\n      swap2\n      pop\n        /* \"#utility.yul\":1818:2090   */\n      pop\n        /* \"#utility.yul\":1726:2090   */\n      swap3\n      swap2\n      pop\n      pop\n      jump\t// out\n        /* \"#utility.yul\":2096:2214   */\n    tag_121:\n        /* \"#utility.yul\":2183:2207   */\n      tag_159\n        /* \"#utility.yul\":2201:2206   */\n      dup2\n        /* \"#utility.yul\":2183:2207   */\n      tag_113\n      jump\t// in\n    tag_159:\n        /* \"#utility.yul\":2178:2181   */\n      dup3\n        /* \"#utility.yul\":2171:2208   */\n      mstore\n        /* \"#utility.yul\":2096:2214   */\n      pop\n      pop\n      jump\t// out\n        /* \"#utility.yul\":2220:3066   */\n    tag_20:\n        /* \"#utility.yul\":2465:2469   */\n      0x00\n        /* \"#utility.yul\":2503:2506   */\n      0xa0\n        /* \"#utility.yul\":2492:2501   */\n      dup3\n        /* \"#utility.yul\":2488:2507   */\n      add\n        /* \"#utility.yul\":2480:2507   */\n      swap1\n      pop\n        /* \"#utility.yul\":2553:2562   */\n      dup2\n        /* \"#utility.yul\":2547:2551   */\n      dup2\n        /* \"#utility.yul\":2543:2563   */\n      sub\n        /* \"#utility.yul\":2539:2540   */\n      0x00\n        /* \"#utility.yul\":2528:2537   */\n      dup4\n        /* \"#utility.yul\":2524:2541   */\n      add\n        /* \"#utility.yul\":2517:2564   */\n      mstore\n        /* \"#utility.yul\":2581:2659   */\n      tag_161\n        /* \"#utility.yul\":2654:2658   */\n      dup2\n        /* \"#utility.yul\":2645:2651   */\n      dup9\n        /* \"#utility.yul\":2581:2659   */\n      tag_120\n      jump\t// in\n    tag_161:\n        /* \"#utility.yul\":2573:2659   */\n      swap1\n      pop\n        /* \"#utility.yul\":2706:2715   */\n      dup2\n        /* \"#utility.yul\":2700:2704   */\n      dup2\n        /* \"#utility.yul\":2696:2716   */\n      sub\n        /* \"#utility.yul\":2691:2693   */\n      0x20\n        /* \"#utility.yul\":2680:2689   */\n      dup4\n        /* \"#utility.yul\":2676:2694   */\n      add\n        /* \"#utility.yul\":2669:2717   */\n      mstore\n        /* \"#utility.yul\":2734:2812   */\n      tag_162\n        /* \"#utility.yul\":2807:2811   */\n      dup2\n        /* \"#utility.yul\":2798:2804   */\n      dup8\n        /* \"#utility.yul\":2734:2812   */\n      tag_120\n      jump\t// in\n    tag_162:\n        /* \"#utility.yul\":2726:2812   */\n      swap1\n      pop\n        /* \"#utility.yul\":2822:2894   */\n      tag_163\n        /* \"#utility.yul\":2890:2892   */\n      0x40\n        /* \"#utility.yul\":2879:2888   */\n      dup4\n        /* \"#utility.yul\":2875:2893   */\n      add\n        /* \"#utility.yul\":2866:2872   */\n      dup7\n        /* \"#utility.yul\":2822:2894   */\n      tag_121\n      jump\t// in\n    tag_163:\n        /* \"#utility.yul\":2904:2976   */\n      tag_164\n        /* \"#utility.yul\":2972:2974   */\n      0x60\n        /* \"#utility.yul\":2961:2970   */\n      dup4\n        /* \"#utility.yul\":2957:2975   */\n      add\n        /* \"#utility.yul\":2948:2954   */\n      dup6\n        /* \"#utility.yul\":2904:2976   */\n      tag_121\n      jump\t// in\n    tag_164:\n        /* \"#utility.yul\":2986:3059   */\n      tag_165\n        /* \"#utility.yul\":3054:3057   */\n      0x80\n        /* \"#utility.yul\":3043:3052   */\n      dup4\n        /* \"#utility.yul\":3039:3058   */\n      add\n        /* \"#utility.yul\":3030:3036   */\n      dup5\n        /* \"#utility.yul\":2986:3059   */\n      tag_121\n      jump\t// in\n    tag_165:\n        /* \"#utility.yul\":2220:3066   */\n      swap7\n      swap6\n      pop\n      pop\n      pop\n      pop\n      pop\n      pop\n      jump\t// out\n        /* \"#utility.yul\":3072:3385   */\n    tag_25:\n        /* \"#utility.yul\":3185:3189   */\n      0x00\n        /* \"#utility.yul\":3223:3225   */\n      0x20\n        /* \"#utility.yul\":3212:3221   */\n      dup3\n        /* \"#utility.yul\":3208:3226   */\n      add\n        /* \"#utility.yul\":3200:3226   */\n      swap1\n      pop\n        /* \"#utility.yul\":3272:3281   */\n      dup2\n        /* \"#utility.yul\":3266:3270   */\n      dup2\n        /* \"#utility.yul\":3262:3282   */\n      sub\n        /* \"#utility.yul\":3258:3259   */\n      0x00\n        /* \"#utility.yul\":3247:3256   */\n      dup4\n        /* \"#utility.yul\":3243:3260   */\n      add\n        /* \"#utility.yul\":3236:3283   */\n      mstore\n        /* \"#utility.yul\":3300:3378   */\n      tag_167\n        /* \"#utility.yul\":3373:3377   */\n      dup2\n        /* \"#utility.yul\":3364:3370   */\n      dup5\n        /* \"#utility.yul\":3300:3378   */\n      tag_120\n      jump\t// in\n    tag_167:\n        /* \"#utility.yul\":3292:3378   */\n      swap1\n      pop\n        /* \"#utility.yul\":3072:3385   */\n      swap3\n      swap2\n      pop\n      pop\n      jump\t// out\n        /* \"#utility.yul\":3391:3517   */\n    tag_122:\n        /* \"#utility.yul\":3428:3435   */\n      0x00\n        /* \"#utility.yul\":3468:3510   */\n      0xffffffffffffffffffffffffffffffffffffffff\n        /* \"#utility.yul\":3461:3466   */\n      dup3\n        /* \"#utility.yul\":3457:3511   */\n      and\n        /* \"#utility.yul\":3446:3511   */\n      swap1\n      pop\n        /* \"#utility.yul\":3391:3517   */\n      swap2\n      swap1\n      pop\n      jump\t// out\n        /* \"#utility.yul\":3523:3619   */\n    tag_123:\n        /* \"#utility.yul\":3560:3567   */\n      0x00\n        /* \"#utility.yul\":3589:3613   */\n      tag_170\n        /* \"#utility.yul\":3607:3612   */\n      dup3\n        /* \"#utility.yul\":3589:3613   */\n      tag_122\n      jump\t// in\n    tag_170:\n        /* \"#utility.yul\":3578:3613   */\n      swap1\n      pop\n        /* \"#utility.yul\":3523:3619   */\n      swap2\n      swap1\n      pop\n      jump\t// out\n        /* \"#utility.yul\":3625:3743   */\n    tag_124:\n        /* \"#utility.yul\":3712:3736   */\n      tag_172\n        /* \"#utility.yul\":3730:3735   */\n      dup2\n        /* \"#utility.yul\":3712:3736   */\n      tag_123\n      jump\t// in\n    tag_172:\n        /* \"#utility.yul\":3707:3710   */\n      dup3\n        /* \"#utility.yul\":3700:3737   */\n      mstore\n        /* \"#utility.yul\":3625:3743   */\n      pop\n      pop\n      jump\t// out\n        /* \"#utility.yul\":3749:3971   */\n    tag_29:\n        /* \"#utility.yul\":3842:3846   */\n      0x00\n        /* \"#utility.yul\":3880:3882   */\n      0x20\n        /* \"#utility.yul\":3869:3878   */\n      dup3\n        /* \"#utility.yul\":3865:3883   */\n      add\n        /* \"#utility.yul\":3857:3883   */\n      swap1\n      pop\n        /* \"#utility.yul\":3893:3964   */\n      tag_174\n        /* \"#utility.yul\":3961:3962   */\n      0x00\n        /* \"#utility.yul\":3950:3959   */\n      dup4\n        /* \"#utility.yul\":3946:3963   */\n      add\n        /* \"#utility.yul\":3937:3943   */\n      dup5\n        /* \"#utility.yul\":3893:3964   */\n      tag_124\n      jump\t// in\n    tag_174:\n        /* \"#utility.yul\":3749:3971   */\n      swap3\n      swap2\n      pop\n      pop\n      jump\t// out\n        /* \"#utility.yul\":3977:4099   */\n    tag_125:\n        /* \"#utility.yul\":4050:4074   */\n      tag_176\n        /* \"#utility.yul\":4068:4073   */\n      dup2\n        /* \"#utility.yul\":4050:4074   */\n      tag_123\n      jump\t// in\n    tag_176:\n        /* \"#utility.yul\":4043:4048   */\n      dup2\n        /* \"#utility.yul\":4040:4075   */\n      eq\n        /* \"#utility.yul\":4030:4093   */\n      tag_177\n      jumpi\n        /* \"#utility.yul\":4089:4090   */\n      0x00\n        /* \"#utility.yul\":4086:4087   */\n      dup1\n        /* \"#utility.yul\":4079:4091   */\n      revert\n        /* \"#utility.yul\":4030:4093   */\n    tag_177:\n        /* \"#utility.yul\":3977:4099   */\n      pop\n      jump\t// out\n        /* \"#utility.yul\":4105:4244   */\n    tag_126:\n        /* \"#utility.yul\":4151:4156   */\n      0x00\n        /* \"#utility.yul\":4189:4195   */\n      dup2\n        /* \"#utility.yul\":4176:4196   */\n      calldataload\n        /* \"#utility.yul\":4167:4196   */\n      swap1\n      pop\n        /* \"#utility.yul\":4205:4238   */\n      tag_179\n        /* \"#utility.yul\":4232:4237   */\n      dup2\n        /* \"#utility.yul\":4205:4238   */\n      tag_125\n      jump\t// in\n    tag_179:\n        /* \"#utility.yul\":4105:4244   */\n      swap3\n      swap2\n      pop\n      pop\n      jump\t// out\n        /* \"#utility.yul\":4250:4579   */\n    tag_35:\n        /* \"#utility.yul\":4309:4315   */\n      0x00\n        /* \"#utility.yul\":4358:4360   */\n      0x20\n        /* \"#utility.yul\":4346:4355   */\n      dup3\n        /* \"#utility.yul\":4337:4344   */\n      dup5\n        /* \"#utility.yul\":4333:4356   */\n      sub\n        /* \"#utility.yul\":4329:4361   */\n      slt\n        /* \"#utility.yul\":4326:4445   */\n      iszero\n      tag_181\n      jumpi\n        /* \"#utility.yul\":4364:4443   */\n      tag_182\n      tag_111\n      jump\t// in\n    tag_182:\n        /* \"#utility.yul\":4326:4445   */\n    tag_181:\n        /* \"#utility.yul\":4484:4485   */\n      0x00\n        /* \"#utility.yul\":4509:4562   */\n      tag_183\n        /* \"#utility.yul\":4554:4561   */\n      dup5\n        /* \"#utility.yul\":4545:4551   */\n      dup3\n        /* \"#utility.yul\":4534:4543   */\n      dup6\n        /* \"#utility.yul\":4530:4552   */\n      add\n        /* \"#utility.yul\":4509:4562   */\n      tag_126\n      jump\t// in\n    tag_183:\n        /* \"#utility.yul\":4499:4562   */\n      swap2\n      pop\n        /* \"#utility.yul\":4455:4572   */\n      pop\n        /* \"#utility.yul\":4250:4579   */\n      swap3\n      swap2\n      pop\n      pop\n      jump\t// out\n        /* \"#utility.yul\":4585:4675   */\n    tag_127:\n        /* \"#utility.yul\":4619:4626   */\n      0x00\n        /* \"#utility.yul\":4662:4667   */\n      dup2\n        /* \"#utility.yul\":4655:4668   */\n      iszero\n        /* \"#utility.yul\":4648:4669   */\n      iszero\n        /* \"#utility.yul\":4637:4669   */\n      swap1\n      pop\n        /* \"#utility.yul\":4585:4675   */\n      swap2\n      swap1\n      pop\n      jump\t// out\n        /* \"#utility.yul\":4681:4790   */\n    tag_128:\n        /* \"#utility.yul\":4762:4783   */\n      tag_186\n        /* \"#utility.yul\":4777:4782   */\n      dup2\n        /* \"#utility.yul\":4762:4783   */\n      tag_127\n      jump\t// in\n    tag_186:\n        /* \"#utility.yul\":4757:4760   */\n      dup3\n        /* \"#utility.yul\":4750:4784   */\n      mstore\n        /* \"#utility.yul\":4681:4790   */\n      pop\n      pop\n      jump\t// out\n        /* \"#utility.yul\":4796:5006   */\n    tag_38:\n        /* \"#utility.yul\":4883:4887   */\n      0x00\n        /* \"#utility.yul\":4921:4923   */\n      0x20\n        /* \"#utility.yul\":4910:4919   */\n      dup3\n        /* \"#utility.yul\":4906:4924   */\n      add\n        /* \"#utility.yul\":4898:4924   */\n      swap1\n      pop\n        /* \"#utility.yul\":4934:4999   */\n      tag_188\n        /* \"#utility.yul\":4996:4997   */\n      0x00\n        /* \"#utility.yul\":4985:4994   */\n      dup4\n        /* \"#utility.yul\":4981:4998   */\n      add\n        /* \"#utility.yul\":4972:4978   */\n      dup5\n        /* \"#utility.yul\":4934:4999   */\n      tag_128\n      jump\t// in\n    tag_188:\n        /* \"#utility.yul\":4796:5006   */\n      swap3\n      swap2\n      pop\n      pop\n      jump\t// out\n        /* \"#utility.yul\":5012:5234   */\n    tag_43:\n        /* \"#utility.yul\":5105:5109   */\n      0x00\n        /* \"#utility.yul\":5143:5145   */\n      0x20\n        /* \"#utility.yul\":5132:5141   */\n      dup3\n        /* \"#utility.yul\":5128:5146   */\n      add\n        /* \"#utility.yul\":5120:5146   */\n      swap1\n      pop\n        /* \"#utility.yul\":5156:5227   */\n      tag_190\n        /* \"#utility.yul\":5224:5225   */\n      0x00\n        /* \"#utility.yul\":5213:5222   */\n      dup4\n        /* \"#utility.yul\":5209:5226   */\n      add\n        /* \"#utility.yul\":5200:5206   */\n      dup5\n        /* \"#utility.yul\":5156:5227   */\n      tag_121\n      jump\t// in\n    tag_190:\n        /* \"#utility.yul\":5012:5234   */\n      swap3\n      swap2\n      pop\n      pop\n      jump\t// out\n        /* \"#utility.yul\":5240:5420   */\n    tag_52:\n        /* \"#utility.yul\":5288:5365   */\n      0x4e487b7100000000000000000000000000000000000000000000000000000000\n        /* \"#utility.yul\":5285:5286   */\n      0x00\n        /* \"#utility.yul\":5278:5366   */\n      mstore\n        /* \"#utility.yul\":5385:5389   */\n      0x32\n        /* \"#utility.yul\":5382:5383   */\n      0x04\n        /* \"#utility.yul\":5375:5390   */\n      mstore\n        /* \"#utility.yul\":5409:5413   */\n      0x24\n        /* \"#utility.yul\":5406:5407   */\n      0x00\n        /* \"#utility.yul\":5399:5414   */\n      revert\n        /* \"#utility.yul\":5426:5606   */\n    tag_129:\n        /* \"#utility.yul\":5474:5551   */\n      0x4e487b7100000000000000000000000000000000000000000000000000000000\n        /* \"#utility.yul\":5471:5472   */\n      0x00\n        /* \"#utility.yul\":5464:5552   */\n      mstore\n        /* \"#utility.yul\":5571:5575   */\n      0x11\n        /* \"#utility.yul\":5568:5569   */\n      0x04\n        /* \"#utility.yul\":5561:5576   */\n      mstore\n        /* \"#utility.yul\":5595:5599   */\n      0x24\n        /* \"#utility.yul\":5592:5593   */\n      0x00\n        /* \"#utility.yul\":5585:5600   */\n      revert\n        /* \"#utility.yul\":5612:5917   */\n    tag_55:\n        /* \"#utility.yul\":5652:5655   */\n      0x00\n        /* \"#utility.yul\":5671:5691   */\n      tag_194\n        /* \"#utility.yul\":5689:5690   */\n      dup3\n        /* \"#utility.yul\":5671:5691   */\n      tag_113\n      jump\t// in\n    tag_194:\n        /* \"#utility.yul\":5666:5691   */\n      swap2\n      pop\n        /* \"#utility.yul\":5705:5725   */\n      tag_195\n        /* \"#utility.yul\":5723:5724   */\n      dup4\n        /* \"#utility.yul\":5705:5725   */\n      tag_113\n      jump\t// in\n    tag_195:\n        /* \"#utility.yul\":5700:5725   */\n      swap3\n      pop\n        /* \"#utility.yul\":5859:5860   */\n      dup3\n        /* \"#utility.yul\":5791:5857   */\n      0xffffffffffffffffffffffffffffffffffffffffffffffffffffffffffffffff\n        /* \"#utility.yul\":5787:5861   */\n      sub\n        /* \"#utility.yul\":5784:5785   */\n      dup3\n        /* \"#utility.yul\":5781:5862   */\n      gt\n        /* \"#utility.yul\":5778:5885   */\n      iszero\n      tag_196\n      jumpi\n        /* \"#utility.yul\":5865:5883   */\n      tag_197\n      tag_129\n      jump\t// in\n    tag_197:\n        /* \"#utility.yul\":5778:5885   */\n    tag_196:\n        /* \"#utility.yul\":5909:5910   */\n      dup3\n        /* \"#utility.yul\":5906:5907   */\n      dup3\n        /* \"#utility.yul\":5902:5911   */\n      add\n        /* \"#utility.yul\":5895:5911   */\n      swap1\n      pop\n        /* \"#utility.yul\":5612:5917   */\n      swap3\n      swap2\n      pop\n      pop\n      jump\t// out\n        /* \"#utility.yul\":5923:6103   */\n    tag_130:\n        /* \"#utility.yul\":5971:6048   */\n      0x4e487b7100000000000000000000000000000000000000000000000000000000\n        /* \"#utility.yul\":5968:5969   */\n      0x00\n        /* \"#utility.yul\":5961:6049   */\n      mstore\n        /* \"#utility.yul\":6068:6072   */\n      0x22\n        /* \"#utility.yul\":6065:6066   */\n      0x04\n        /* \"#utility.yul\":6058:6073   */\n      mstore\n        /* \"#utility.yul\":6092:6096   */\n      0x24\n        /* \"#utility.yul\":6089:6090   */\n      0x00\n        /* \"#utility.yul\":6082:6097   */\n      revert\n        /* \"#utility.yul\":6109:6429   */\n    tag_59:\n        /* \"#utility.yul\":6153:6159   */\n      0x00\n        /* \"#utility.yul\":6190:6191   */\n      0x02\n        /* \"#utility.yul\":6184:6188   */\n      dup3\n        /* \"#utility.yul\":6180:6192   */\n      div\n        /* \"#utility.yul\":6170:6192   */\n      swap1\n      pop\n        /* \"#utility.yul\":6237:6238   */\n      0x01\n        /* \"#utility.yul\":6231:6235   */\n      dup3\n        /* \"#utility.yul\":6227:6239   */\n      and\n        /* \"#utility.yul\":6258:6276   */\n      dup1\n        /* \"#utility.yul\":6248:6329   */\n      tag_200\n      jumpi\n        /* \"#utility.yul\":6314:6318   */\n      0x7f\n        /* \"#utility.yul\":6306:6312   */\n      dup3\n        /* \"#utility.yul\":6302:6319   */\n      and\n        /* \"#utility.yul\":6292:6319   */\n      swap2\n      pop\n        /* \"#utility.yul\":6248:6329   */\n    tag_200:\n        /* \"#utility.yul\":6376:6378   */\n      0x20\n        /* \"#utility.yul\":6368:6374   */\n      dup3\n        /* \"#utility.yul\":6365:6379   */\n      lt\n        /* \"#utility.yul\":6345:6363   */\n      dup2\n        /* \"#utility.yul\":6342:6380   */\n      eq\n        /* \"#utility.yul\":6339:6423   */\n      iszero\n      tag_201\n      jumpi\n        /* \"#utility.yul\":6395:6413   */\n      tag_202\n      tag_130\n      jump\t// in\n    tag_202:\n        /* \"#utility.yul\":6339:6423   */\n    tag_201:\n        /* \"#utility.yul\":6160:6429   */\n      pop\n        /* \"#utility.yul\":6109:6429   */\n      swap2\n      swap1\n      pop\n      jump\t// out\n\n    auxdata: 0xa264697066735822122027e85eab49731e1decc2469a98eddcd4d5dc759de650b03c19fdabb56d0d680c64736f6c634300080b0033\n}\n","bytecode":{"linkReferences":{},"object":"60806040523480156200001157600080fd5b5060405162001364380380620013648339818101604052810190620000379190620005a1565b81600160006101000a81548173ffffffffffffffffffffffffffffffffffffffff021916908373ffffffffffffffffffffffffffffffffffffffff160217905550826002908051906020019062000090929190620001b8565b5060005b8551811015620001ac5760006040518060a00160405280888481518110620000c157620000c062000686565b5b60200260200101518152602001878481518110620000e457620000e362000686565b5b602002602001015181526020016000815260200142815260200184426200010c9190620006e4565b8152509080600181540180825580915050600190039060005260206000209060050201600090919091909150600082015181600001908051906020019062000156929190620001b8565b50602082015181600101908051906020019062000175929190620001b8565b5060408201518160020155606082015181600301556080820151816004015550508080620001a39062000741565b91505062000094565b505050505050620007f4565b828054620001c690620007be565b90600052602060002090601f016020900481019282620001ea576000855562000236565b82601f106200020557805160ff191683800117855562000236565b8280016001018555821562000236579182015b828111156200023557825182559160200191906001019062000218565b5b50905062000245919062000249565b5090565b5b80821115620002645760008160009055506001016200024a565b5090565b6000604051905090565b600080fd5b600080fd5b600080fd5b6000601f19601f8301169050919050565b7f4e487b7100000000000000000000000000000000000000000000000000000000600052604160045260246000fd5b620002cc8262000281565b810181811067ffffffffffffffff82111715620002ee57620002ed62000292565b5b80604052505050565b60006200030362000268565b9050620003118282620002c1565b919050565b600067ffffffffffffffff82111562000334576200033362000292565b5b602082029050602081019050919050565b600080fd5b600080fd5b600067ffffffffffffffff8211156200036d576200036c62000292565b5b620003788262000281565b9050602081019050919050565b60005b83811015620003a557808201518184015260208101905062000388565b83811115620003b5576000848401525b50505050565b6000620003d2620003cc846200034f565b620002f7565b905082815260208101848484011115620003f157620003f06200034a565b5b620003fe84828562000385565b509392505050565b600082601f8301126200041e576200041d6200027c565b5b815162000430848260208601620003bb565b91505092915050565b6000620004506200044a8462000316565b620002f7565b9050808382526020820190506020840283018581111562000476576200047562000345565b5b835b81811015620004c457805167ffffffffffffffff8111156200049f576200049e6200027c565b5b808601620004ae898262000406565b8552602085019450505060208101905062000478565b5050509392505050565b600082601f830112620004e657620004e56200027c565b5b8151620004f884826020860162000439565b91505092915050565b600073ffffffffffffffffffffffffffffffffffffffff82169050919050565b60006200052e8262000501565b9050919050565b620005408162000521565b81146200054c57600080fd5b50565b600081519050620005608162000535565b92915050565b6000819050919050565b6200057b8162000566565b81146200058757600080fd5b50565b6000815190506200059b8162000570565b92915050565b600080600080600060a08688031215620005c057620005bf62000272565b5b600086015167ffffffffffffffff811115620005e157620005e062000277565b5b620005ef88828901620004ce565b955050602086015167ffffffffffffffff81111562000613576200061262000277565b5b6200062188828901620004ce565b945050604086015167ffffffffffffffff81111562000645576200064462000277565b5b620006538882890162000406565b935050606062000666888289016200054f565b925050608062000679888289016200058a565b9150509295509295909350565b7f4e487b7100000000000000000000000000000000000000000000000000000000600052603260045260246000fd5b7f4e487b7100000000000000000000000000000000000000000000000000000000600052601160045260246000fd5b6000620006f18262000566565b9150620006fe8362000566565b9250827fffffffffffffffffffffffffffffffffffffffffffffffffffffffffffffffff03821115620007365762000735620006b5565b5b828201905092915050565b60006200074e8262000566565b91507fffffffffffffffffffffffffffffffffffffffffffffffffffffffffffffffff821415620007845762000783620006b5565b5b600182019050919050565b7f4e487b7100000000000000000000000000000000000000000000000000000000600052602260045260246000fd5b60006002820490506001821680620007d757607f821691505b60208210811415620007ee57620007ed6200078f565b5b50919050565b610b6080620008046000396000f3fe608060405234801561001057600080fd5b50600436106100885760003560e01c8063716c424e1161005b578063716c424e1461012b578063a3ec138d14610149578063b2c2f2e814610179578063e13804a7146101a957610088565b80630121b93f1461008d5780633477ee2e146100a9578063456645a7146100dd578063481c6a751461010d575b600080fd5b6100a760048036038101906100a291906107b7565b6101d9565b005b6100c360048036038101906100be91906107b7565b6102c8565b6040516100d495949392919061088c565b60405180910390f35b6100f760048036038101906100f291906107b7565b61041e565b60405161010491906108ed565b60405180910390f35b610115610506565b6040516101229190610950565b60405180910390f35b61013361052c565b60405161014091906108ed565b60405180910390f35b610163600480360381019061015e9190610997565b6105ba565b60405161017091906109df565b60405180910390f35b610193600480360381019061018e91906107b7565b6105da565b6040516101a091906109fa565b60405180910390f35b6101c360048036038101906101be91906107b7565b610694565b6040516101d091906108ed565b60405180910390f35b600360003373ffffffffffffffffffffffffffffffffffffffff1673ffffffffffffffffffffffffffffffffffffffff16815260200190815260200160002060009054906101000a900460ff161561023057600080fd5b60016000828154811061024657610245610a15565b5b906000526020600020906005020160020160008282546102669190610a73565b925050819055506001600360003373ffffffffffffffffffffffffffffffffffffffff1673ffffffffffffffffffffffffffffffffffffffff16815260200190815260200160002060006101000a81548160ff02191690831515021790555050565b600081815481106102d857600080fd5b90600052602060002090600502016000915090508060000180546102fb90610af8565b80601f016020809104026020016040519081016040528092919081815260200182805461032790610af8565b80156103745780601f1061034957610100808354040283529160200191610374565b820191906000526020600020905b81548152906001019060200180831161035757829003601f168201915b50505050509080600101805461038990610af8565b80601f01602080910402602001604051908101604052809291908181526020018280546103b590610af8565b80156104025780601f106103d757610100808354040283529160200191610402565b820191906000526020600020905b8154815290600101906020018083116103e557829003601f168201915b5050505050908060020154908060030154908060040154905085565b60606000828154811061043457610433610a15565b5b906000526020600020906005020160040154421161045157600080fd5b6000828154811061046557610464610a15565b5b9060005260206000209060050201600101805461048190610af8565b80601f01602080910402602001604051908101604052809291908181526020018280546104ad90610af8565b80156104fa5780601f106104cf576101008083540402835291602001916104fa565b820191906000526020600020905b8154815290600101906020018083116104dd57829003601f168201915b50505050509050919050565b600160009054906101000a900473ffffffffffffffffffffffffffffffffffffffff1681565b6002805461053990610af8565b80601f016020809104026020016040519081016040528092919081815260200182805461056590610af8565b80156105b25780601f10610587576101008083540402835291602001916105b2565b820191906000526020600020905b81548152906001019060200180831161059557829003601f168201915b505050505081565b60036020528060005260406000206000915054906101000a900460ff1681565b6000600160009054906101000a900473ffffffffffffffffffffffffffffffffffffffff1673ffffffffffffffffffffffffffffffffffffffff163373ffffffffffffffffffffffffffffffffffffffff161461063657600080fd5b6000828154811061064a57610649610a15565b5b906000526020600020906005020160040154421161066757600080fd5b6000828154811061067b5761067a610a15565b5b9060005260206000209060050201600201549050919050565b6060600082815481106106aa576106a9610a15565b5b90600052602060002090600502016004015442116106c757600080fd5b600082815481106106db576106da610a15565b5b906000526020600020906005020160000180546106f790610af8565b80601f016020809104026020016040519081016040528092919081815260200182805461072390610af8565b80156107705780601f1061074557610100808354040283529160200191610770565b820191906000526020600020905b81548152906001019060200180831161075357829003601f168201915b50505050509050919050565b600080fd5b6000819050919050565b61079481610781565b811461079f57600080fd5b50565b6000813590506107b18161078b565b92915050565b6000602082840312156107cd576107cc61077c565b5b60006107db848285016107a2565b91505092915050565b600081519050919050565b600082825260208201905092915050565b60005b8381101561081e578082015181840152602081019050610803565b8381111561082d576000848401525b50505050565b6000601f19601f8301169050919050565b600061084f826107e4565b61085981856107ef565b9350610869818560208601610800565b61087281610833565b840191505092915050565b61088681610781565b82525050565b600060a08201905081810360008301526108a68188610844565b905081810360208301526108ba8187610844565b90506108c9604083018661087d565b6108d6606083018561087d565b6108e3608083018461087d565b9695505050505050565b600060208201905081810360008301526109078184610844565b905092915050565b600073ffffffffffffffffffffffffffffffffffffffff82169050919050565b600061093a8261090f565b9050919050565b61094a8161092f565b82525050565b60006020820190506109656000830184610941565b92915050565b6109748161092f565b811461097f57600080fd5b50565b6000813590506109918161096b565b92915050565b6000602082840312156109ad576109ac61077c565b5b60006109bb84828501610982565b91505092915050565b60008115159050919050565b6109d9816109c4565b82525050565b60006020820190506109f460008301846109d0565b92915050565b6000602082019050610a0f600083018461087d565b92915050565b7f4e487b7100000000000000000000000000000000000000000000000000000000600052603260045260246000fd5b7f4e487b7100000000000000000000000000000000000000000000000000000000600052601160045260246000fd5b6000610a7e82610781565b9150610a8983610781565b9250827fffffffffffffffffffffffffffffffffffffffffffffffffffffffffffffffff03821115610abe57610abd610a44565b5b828201905092915050565b7f4e487b7100000000000000000000000000000000000000000000000000000000600052602260045260246000fd5b60006002820490506001821680610b1057607f821691505b60208210811415610b2457610b23610ac9565b5b5091905056fea264697066735822122027e85eab49731e1decc2469a98eddcd4d5dc759de650b03c19fdabb56d0d680c64736f6c634300080b0033","opcodes":"PUSH1 0x80 PUSH1 0x40 MSTORE CALLVALUE DUP1 ISZERO PUSH3 0x11 JUMPI PUSH1 0x0 DUP1 REVERT JUMPDEST POP PUSH1 0x40 MLOAD PUSH3 0x1364 CODESIZE SUB DUP1 PUSH3 0x1364 DUP4 CODECOPY DUP2 DUP2 ADD PUSH1 0x40 MSTORE DUP2 ADD SWAP1 PUSH3 0x37 SWAP2 SWAP1 PUSH3 0x5A1 JUMP JUMPDEST DUP2 PUSH1 0x1 PUSH1 0x0 PUSH2 0x100 EXP DUP2 SLOAD DUP2 PUSH20 0xFFFFFFFFFFFFFFFFFFFFFFFFFFFFFFFFFFFFFFFF MUL NOT AND SWAP1 DUP4 PUSH20 0xFFFFFFFFFFFFFFFFFFFFFFFFFFFFFFFFFFFFFFFF AND MUL OR SWAP1 SSTORE POP DUP3 PUSH1 0x2 SWAP1 DUP1 MLOAD SWAP1 PUSH1 0x20 ADD SWAP1 PUSH3 0x90 SWAP3 SWAP2 SWAP1 PUSH3 0x1B8 JUMP JUMPDEST POP PUSH1 0x0 JUMPDEST DUP6 MLOAD DUP2 LT ISZERO PUSH3 0x1AC JUMPI PUSH1 0x0 PUSH1 0x40 MLOAD DUP1 PUSH1 0xA0 ADD PUSH1 0x40 MSTORE DUP1 DUP9 DUP5 DUP2 MLOAD DUP2 LT PUSH3 0xC1 JUMPI PUSH3 0xC0 PUSH3 0x686 JUMP JUMPDEST JUMPDEST PUSH1 0x20 MUL PUSH1 0x20 ADD ADD MLOAD DUP2 MSTORE PUSH1 0x20 ADD DUP8 DUP5 DUP2 MLOAD DUP2 LT PUSH3 0xE4 JUMPI PUSH3 0xE3 PUSH3 0x686 JUMP JUMPDEST JUMPDEST PUSH1 0x20 MUL PUSH1 0x20 ADD ADD MLOAD DUP2 MSTORE PUSH1 0x20 ADD PUSH1 0x0 DUP2 MSTORE PUSH1 0x20 ADD TIMESTAMP DUP2 MSTORE PUSH1 0x20 ADD DUP5 TIMESTAMP PUSH3 0x10C SWAP2 SWAP1 PUSH3 0x6E4 JUMP JUMPDEST DUP2 MSTORE POP SWAP1 DUP1 PUSH1 0x1 DUP2 SLOAD ADD DUP1 DUP3 SSTORE DUP1 SWAP2 POP POP PUSH1 0x1 SWAP1 SUB SWAP1 PUSH1 0x0 MSTORE PUSH1 0x20 PUSH1 0x0 KECCAK256 SWAP1 PUSH1 0x5 MUL ADD PUSH1 0x0 SWAP1 SWAP2 SWAP1 SWAP2 SWAP1 SWAP2 POP PUSH1 0x0 DUP3 ADD MLOAD DUP2 PUSH1 0x0 ADD SWAP1 DUP1 MLOAD SWAP1 PUSH1 0x20 ADD SWAP1 PUSH3 0x156 SWAP3 SWAP2 SWAP1 PUSH3 0x1B8 JUMP JUMPDEST POP PUSH1 0x20 DUP3 ADD MLOAD DUP2 PUSH1 0x1 ADD SWAP1 DUP1 MLOAD SWAP1 PUSH1 0x20 ADD SWAP1 PUSH3 0x175 SWAP3 SWAP2 SWAP1 PUSH3 0x1B8 JUMP JUMPDEST POP PUSH1 0x40 DUP3 ADD MLOAD DUP2 PUSH1 0x2 ADD SSTORE PUSH1 0x60 DUP3 ADD MLOAD DUP2 PUSH1 0x3 ADD SSTORE PUSH1 0x80 DUP3 ADD MLOAD DUP2 PUSH1 0x4 ADD SSTORE POP POP DUP1 DUP1 PUSH3 0x1A3 SWAP1 PUSH3 0x741 JUMP JUMPDEST SWAP2 POP POP PUSH3 0x94 JUMP JUMPDEST POP POP POP POP POP POP PUSH3 0x7F4 JUMP JUMPDEST DUP3 DUP1 SLOAD PUSH3 0x1C6 SWAP1 PUSH3 0x7BE JUMP JUMPDEST SWAP1 PUSH1 0x0 MSTORE PUSH1 0x20 PUSH1 0x0 KECCAK256 SWAP1 PUSH1 0x1F ADD PUSH1 0x20 SWAP1 DIV DUP2 ADD SWAP3 DUP3 PUSH3 0x1EA JUMPI PUSH1 0x0 DUP6 SSTORE PUSH3 0x236 JUMP JUMPDEST DUP3 PUSH1 0x1F LT PUSH3 0x205 JUMPI DUP1 MLOAD PUSH1 0xFF NOT AND DUP4 DUP1 ADD OR DUP6 SSTORE PUSH3 0x236 JUMP JUMPDEST DUP3 DUP1 ADD PUSH1 0x1 ADD DUP6 SSTORE DUP3 ISZERO PUSH3 0x236 JUMPI SWAP2 DUP3 ADD JUMPDEST DUP3 DUP2 GT ISZERO PUSH3 0x235 JUMPI DUP3 MLOAD DUP3 SSTORE SWAP2 PUSH1 0x20 ADD SWAP2 SWAP1 PUSH1 0x1 ADD SWAP1 PUSH3 0x218 JUMP JUMPDEST JUMPDEST POP SWAP1 POP PUSH3 0x245 SWAP2 SWAP1 PUSH3 0x249 JUMP JUMPDEST POP SWAP1 JUMP JUMPDEST JUMPDEST DUP1 DUP3 GT ISZERO PUSH3 0x264 JUMPI PUSH1 0x0 DUP2 PUSH1 0x0 SWAP1 SSTORE POP PUSH1 0x1 ADD PUSH3 0x24A JUMP JUMPDEST POP SWAP1 JUMP JUMPDEST PUSH1 0x0 PUSH1 0x40 MLOAD SWAP1 POP SWAP1 JUMP JUMPDEST PUSH1 0x0 DUP1 REVERT JUMPDEST PUSH1 0x0 DUP1 REVERT JUMPDEST PUSH1 0x0 DUP1 REVERT JUMPDEST PUSH1 0x0 PUSH1 0x1F NOT PUSH1 0x1F DUP4 ADD AND SWAP1 POP SWAP2 SWAP1 POP JUMP JUMPDEST PUSH32 0x4E487B7100000000000000000000000000000000000000000000000000000000 PUSH1 0x0 MSTORE PUSH1 0x41 PUSH1 0x4 MSTORE PUSH1 0x24 PUSH1 0x0 REVERT JUMPDEST PUSH3 0x2CC DUP3 PUSH3 0x281 JUMP JUMPDEST DUP2 ADD DUP2 DUP2 LT PUSH8 0xFFFFFFFFFFFFFFFF DUP3 GT OR ISZERO PUSH3 0x2EE JUMPI PUSH3 0x2ED PUSH3 0x292 JUMP JUMPDEST JUMPDEST DUP1 PUSH1 0x40 MSTORE POP POP POP JUMP JUMPDEST PUSH1 0x0 PUSH3 0x303 PUSH3 0x268 JUMP JUMPDEST SWAP1 POP PUSH3 0x311 DUP3 DUP3 PUSH3 0x2C1 JUMP JUMPDEST SWAP2 SWAP1 POP JUMP JUMPDEST PUSH1 0x0 PUSH8 0xFFFFFFFFFFFFFFFF DUP3 GT ISZERO PUSH3 0x334 JUMPI PUSH3 0x333 PUSH3 0x292 JUMP JUMPDEST JUMPDEST PUSH1 0x20 DUP3 MUL SWAP1 POP PUSH1 0x20 DUP2 ADD SWAP1 POP SWAP2 SWAP1 POP JUMP JUMPDEST PUSH1 0x0 DUP1 REVERT JUMPDEST PUSH1 0x0 DUP1 REVERT JUMPDEST PUSH1 0x0 PUSH8 0xFFFFFFFFFFFFFFFF DUP3 GT ISZERO PUSH3 0x36D JUMPI PUSH3 0x36C PUSH3 0x292 JUMP JUMPDEST JUMPDEST PUSH3 0x378 DUP3 PUSH3 0x281 JUMP JUMPDEST SWAP1 POP PUSH1 0x20 DUP2 ADD SWAP1 POP SWAP2 SWAP1 POP JUMP JUMPDEST PUSH1 0x0 JUMPDEST DUP4 DUP2 LT ISZERO PUSH3 0x3A5 JUMPI DUP1 DUP3 ADD MLOAD DUP2 DUP5 ADD MSTORE PUSH1 0x20 DUP2 ADD SWAP1 POP PUSH3 0x388 JUMP JUMPDEST DUP4 DUP2 GT ISZERO PUSH3 0x3B5 JUMPI PUSH1 0x0 DUP5 DUP5 ADD MSTORE JUMPDEST POP POP POP POP JUMP JUMPDEST PUSH1 0x0 PUSH3 0x3D2 PUSH3 0x3CC DUP5 PUSH3 0x34F JUMP JUMPDEST PUSH3 0x2F7 JUMP JUMPDEST SWAP1 POP DUP3 DUP2 MSTORE PUSH1 0x20 DUP2 ADD DUP5 DUP5 DUP5 ADD GT ISZERO PUSH3 0x3F1 JUMPI PUSH3 0x3F0 PUSH3 0x34A JUMP JUMPDEST JUMPDEST PUSH3 0x3FE DUP5 DUP3 DUP6 PUSH3 0x385 JUMP JUMPDEST POP SWAP4 SWAP3 POP POP POP JUMP JUMPDEST PUSH1 0x0 DUP3 PUSH1 0x1F DUP4 ADD SLT PUSH3 0x41E JUMPI PUSH3 0x41D PUSH3 0x27C JUMP JUMPDEST JUMPDEST DUP2 MLOAD PUSH3 0x430 DUP5 DUP3 PUSH1 0x20 DUP7 ADD PUSH3 0x3BB JUMP JUMPDEST SWAP2 POP POP SWAP3 SWAP2 POP POP JUMP JUMPDEST PUSH1 0x0 PUSH3 0x450 PUSH3 0x44A DUP5 PUSH3 0x316 JUMP JUMPDEST PUSH3 0x2F7 JUMP JUMPDEST SWAP1 POP DUP1 DUP4 DUP3 MSTORE PUSH1 0x20 DUP3 ADD SWAP1 POP PUSH1 0x20 DUP5 MUL DUP4 ADD DUP6 DUP2 GT ISZERO PUSH3 0x476 JUMPI PUSH3 0x475 PUSH3 0x345 JUMP JUMPDEST JUMPDEST DUP4 JUMPDEST DUP2 DUP2 LT ISZERO PUSH3 0x4C4 JUMPI DUP1 MLOAD PUSH8 0xFFFFFFFFFFFFFFFF DUP2 GT ISZERO PUSH3 0x49F JUMPI PUSH3 0x49E PUSH3 0x27C JUMP JUMPDEST JUMPDEST DUP1 DUP7 ADD PUSH3 0x4AE DUP10 DUP3 PUSH3 0x406 JUMP JUMPDEST DUP6 MSTORE PUSH1 0x20 DUP6 ADD SWAP5 POP POP POP PUSH1 0x20 DUP2 ADD SWAP1 POP PUSH3 0x478 JUMP JUMPDEST POP POP POP SWAP4 SWAP3 POP POP POP JUMP JUMPDEST PUSH1 0x0 DUP3 PUSH1 0x1F DUP4 ADD SLT PUSH3 0x4E6 JUMPI PUSH3 0x4E5 PUSH3 0x27C JUMP JUMPDEST JUMPDEST DUP2 MLOAD PUSH3 0x4F8 DUP5 DUP3 PUSH1 0x20 DUP7 ADD PUSH3 0x439 JUMP JUMPDEST SWAP2 POP POP SWAP3 SWAP2 POP POP JUMP JUMPDEST PUSH1 0x0 PUSH20 0xFFFFFFFFFFFFFFFFFFFFFFFFFFFFFFFFFFFFFFFF DUP3 AND SWAP1 POP SWAP2 SWAP1 POP JUMP JUMPDEST PUSH1 0x0 PUSH3 0x52E DUP3 PUSH3 0x501 JUMP JUMPDEST SWAP1 POP SWAP2 SWAP1 POP JUMP JUMPDEST PUSH3 0x540 DUP2 PUSH3 0x521 JUMP JUMPDEST DUP2 EQ PUSH3 0x54C JUMPI PUSH1 0x0 DUP1 REVERT JUMPDEST POP JUMP JUMPDEST PUSH1 0x0 DUP2 MLOAD SWAP1 POP PUSH3 0x560 DUP2 PUSH3 0x535 JUMP JUMPDEST SWAP3 SWAP2 POP POP JUMP JUMPDEST PUSH1 0x0 DUP2 SWAP1 POP SWAP2 SWAP1 POP JUMP JUMPDEST PUSH3 0x57B DUP2 PUSH3 0x566 JUMP JUMPDEST DUP2 EQ PUSH3 0x587 JUMPI PUSH1 0x0 DUP1 REVERT JUMPDEST POP JUMP JUMPDEST PUSH1 0x0 DUP2 MLOAD SWAP1 POP PUSH3 0x59B DUP2 PUSH3 0x570 JUMP JUMPDEST SWAP3 SWAP2 POP POP JUMP JUMPDEST PUSH1 0x0 DUP1 PUSH1 0x0 DUP1 PUSH1 0x0 PUSH1 0xA0 DUP7 DUP9 SUB SLT ISZERO PUSH3 0x5C0 JUMPI PUSH3 0x5BF PUSH3 0x272 JUMP JUMPDEST JUMPDEST PUSH1 0x0 DUP7 ADD MLOAD PUSH8 0xFFFFFFFFFFFFFFFF DUP2 GT ISZERO PUSH3 0x5E1 JUMPI PUSH3 0x5E0 PUSH3 0x277 JUMP JUMPDEST JUMPDEST PUSH3 0x5EF DUP9 DUP3 DUP10 ADD PUSH3 0x4CE JUMP JUMPDEST SWAP6 POP POP PUSH1 0x20 DUP7 ADD MLOAD PUSH8 0xFFFFFFFFFFFFFFFF DUP2 GT ISZERO PUSH3 0x613 JUMPI PUSH3 0x612 PUSH3 0x277 JUMP JUMPDEST JUMPDEST PUSH3 0x621 DUP9 DUP3 DUP10 ADD PUSH3 0x4CE JUMP JUMPDEST SWAP5 POP POP PUSH1 0x40 DUP7 ADD MLOAD PUSH8 0xFFFFFFFFFFFFFFFF DUP2 GT ISZERO PUSH3 0x645 JUMPI PUSH3 0x644 PUSH3 0x277 JUMP JUMPDEST JUMPDEST PUSH3 0x653 DUP9 DUP3 DUP10 ADD PUSH3 0x406 JUMP JUMPDEST SWAP4 POP POP PUSH1 0x60 PUSH3 0x666 DUP9 DUP3 DUP10 ADD PUSH3 0x54F JUMP JUMPDEST SWAP3 POP POP PUSH1 0x80 PUSH3 0x679 DUP9 DUP3 DUP10 ADD PUSH3 0x58A JUMP JUMPDEST SWAP2 POP POP SWAP3 SWAP6 POP SWAP3 SWAP6 SWAP1 SWAP4 POP JUMP JUMPDEST PUSH32 0x4E487B7100000000000000000000000000000000000000000000000000000000 PUSH1 0x0 MSTORE PUSH1 0x32 PUSH1 0x4 MSTORE PUSH1 0x24 PUSH1 0x0 REVERT JUMPDEST PUSH32 0x4E487B7100000000000000000000000000000000000000000000000000000000 PUSH1 0x0 MSTORE PUSH1 0x11 PUSH1 0x4 MSTORE PUSH1 0x24 PUSH1 0x0 REVERT JUMPDEST PUSH1 0x0 PUSH3 0x6F1 DUP3 PUSH3 0x566 JUMP JUMPDEST SWAP2 POP PUSH3 0x6FE DUP4 PUSH3 0x566 JUMP JUMPDEST SWAP3 POP DUP3 PUSH32 0xFFFFFFFFFFFFFFFFFFFFFFFFFFFFFFFFFFFFFFFFFFFFFFFFFFFFFFFFFFFFFFFF SUB DUP3 GT ISZERO PUSH3 0x736 JUMPI PUSH3 0x735 PUSH3 0x6B5 JUMP JUMPDEST JUMPDEST DUP3 DUP3 ADD SWAP1 POP SWAP3 SWAP2 POP POP JUMP JUMPDEST PUSH1 0x0 PUSH3 0x74E DUP3 PUSH3 0x566 JUMP JUMPDEST SWAP2 POP PUSH32 0xFFFFFFFFFFFFFFFFFFFFFFFFFFFFFFFFFFFFFFFFFFFFFFFFFFFFFFFFFFFFFFFF DUP3 EQ ISZERO PUSH3 0x784 JUMPI PUSH3 0x783 PUSH3 0x6B5 JUMP JUMPDEST JUMPDEST PUSH1 0x1 DUP3 ADD SWAP1 POP SWAP2 SWAP1 POP JUMP JUMPDEST PUSH32 0x4E487B7100000000000000000000000000000000000000000000000000000000 PUSH1 0x0 MSTORE PUSH1 0x22 PUSH1 0x4 MSTORE PUSH1 0x24 PUSH1 0x0 REVERT JUMPDEST PUSH1 0x0 PUSH1 0x2 DUP3 DIV SWAP1 POP PUSH1 0x1 DUP3 AND DUP1 PUSH3 0x7D7 JUMPI PUSH1 0x7F DUP3 AND SWAP2 POP JUMPDEST PUSH1 0x20 DUP3 LT DUP2 EQ ISZERO PUSH3 0x7EE JUMPI PUSH3 0x7ED PUSH3 0x78F JUMP JUMPDEST JUMPDEST POP SWAP2 SWAP1 POP JUMP JUMPDEST PUSH2 0xB60 DUP1 PUSH3 0x804 PUSH1 0x0 CODECOPY PUSH1 0x0 RETURN INVALID PUSH1 0x80 PUSH1 0x40 MSTORE CALLVALUE DUP1 ISZERO PUSH2 0x10 JUMPI PUSH1 0x0 DUP1 REVERT JUMPDEST POP PUSH1 0x4 CALLDATASIZE LT PUSH2 0x88 JUMPI PUSH1 0x0 CALLDATALOAD PUSH1 0xE0 SHR DUP1 PUSH4 0x716C424E GT PUSH2 0x5B JUMPI DUP1 PUSH4 0x716C424E EQ PUSH2 0x12B JUMPI DUP1 PUSH4 0xA3EC138D EQ PUSH2 0x149 JUMPI DUP1 PUSH4 0xB2C2F2E8 EQ PUSH2 0x179 JUMPI DUP1 PUSH4 0xE13804A7 EQ PUSH2 0x1A9 JUMPI PUSH2 0x88 JUMP JUMPDEST DUP1 PUSH4 0x121B93F EQ PUSH2 0x8D JUMPI DUP1 PUSH4 0x3477EE2E EQ PUSH2 0xA9 JUMPI DUP1 PUSH4 0x456645A7 EQ PUSH2 0xDD JUMPI DUP1 PUSH4 0x481C6A75 EQ PUSH2 0x10D JUMPI JUMPDEST PUSH1 0x0 DUP1 REVERT JUMPDEST PUSH2 0xA7 PUSH1 0x4 DUP1 CALLDATASIZE SUB DUP2 ADD SWAP1 PUSH2 0xA2 SWAP2 SWAP1 PUSH2 0x7B7 JUMP JUMPDEST PUSH2 0x1D9 JUMP JUMPDEST STOP JUMPDEST PUSH2 0xC3 PUSH1 0x4 DUP1 CALLDATASIZE SUB DUP2 ADD SWAP1 PUSH2 0xBE SWAP2 SWAP1 PUSH2 0x7B7 JUMP JUMPDEST PUSH2 0x2C8 JUMP JUMPDEST PUSH1 0x40 MLOAD PUSH2 0xD4 SWAP6 SWAP5 SWAP4 SWAP3 SWAP2 SWAP1 PUSH2 0x88C JUMP JUMPDEST PUSH1 0x40 MLOAD DUP1 SWAP2 SUB SWAP1 RETURN JUMPDEST PUSH2 0xF7 PUSH1 0x4 DUP1 CALLDATASIZE SUB DUP2 ADD SWAP1 PUSH2 0xF2 SWAP2 SWAP1 PUSH2 0x7B7 JUMP JUMPDEST PUSH2 0x41E JUMP JUMPDEST PUSH1 0x40 MLOAD PUSH2 0x104 SWAP2 SWAP1 PUSH2 0x8ED JUMP JUMPDEST PUSH1 0x40 MLOAD DUP1 SWAP2 SUB SWAP1 RETURN JUMPDEST PUSH2 0x115 PUSH2 0x506 JUMP JUMPDEST PUSH1 0x40 MLOAD PUSH2 0x122 SWAP2 SWAP1 PUSH2 0x950 JUMP JUMPDEST PUSH1 0x40 MLOAD DUP1 SWAP2 SUB SWAP1 RETURN JUMPDEST PUSH2 0x133 PUSH2 0x52C JUMP JUMPDEST PUSH1 0x40 MLOAD PUSH2 0x140 SWAP2 SWAP1 PUSH2 0x8ED JUMP JUMPDEST PUSH1 0x40 MLOAD DUP1 SWAP2 SUB SWAP1 RETURN JUMPDEST PUSH2 0x163 PUSH1 0x4 DUP1 CALLDATASIZE SUB DUP2 ADD SWAP1 PUSH2 0x15E SWAP2 SWAP1 PUSH2 0x997 JUMP JUMPDEST PUSH2 0x5BA JUMP JUMPDEST PUSH1 0x40 MLOAD PUSH2 0x170 SWAP2 SWAP1 PUSH2 0x9DF JUMP JUMPDEST PUSH1 0x40 MLOAD DUP1 SWAP2 SUB SWAP1 RETURN JUMPDEST PUSH2 0x193 PUSH1 0x4 DUP1 CALLDATASIZE SUB DUP2 ADD SWAP1 PUSH2 0x18E SWAP2 SWAP1 PUSH2 0x7B7 JUMP JUMPDEST PUSH2 0x5DA JUMP JUMPDEST PUSH1 0x40 MLOAD PUSH2 0x1A0 SWAP2 SWAP1 PUSH2 0x9FA JUMP JUMPDEST PUSH1 0x40 MLOAD DUP1 SWAP2 SUB SWAP1 RETURN JUMPDEST PUSH2 0x1C3 PUSH1 0x4 DUP1 CALLDATASIZE SUB DUP2 ADD SWAP1 PUSH2 0x1BE SWAP2 SWAP1 PUSH2 0x7B7 JUMP JUMPDEST PUSH2 0x694 JUMP JUMPDEST PUSH1 0x40 MLOAD PUSH2 0x1D0 SWAP2 SWAP1 PUSH2 0x8ED JUMP JUMPDEST PUSH1 0x40 MLOAD DUP1 SWAP2 SUB SWAP1 RETURN JUMPDEST PUSH1 0x3 PUSH1 0x0 CALLER PUSH20 0xFFFFFFFFFFFFFFFFFFFFFFFFFFFFFFFFFFFFFFFF AND PUSH20 0xFFFFFFFFFFFFFFFFFFFFFFFFFFFFFFFFFFFFFFFF AND DUP2 MSTORE PUSH1 0x20 ADD SWAP1 DUP2 MSTORE PUSH1 0x20 ADD PUSH1 0x0 KECCAK256 PUSH1 0x0 SWAP1 SLOAD SWAP1 PUSH2 0x100 EXP SWAP1 DIV PUSH1 0xFF AND ISZERO PUSH2 0x230 JUMPI PUSH1 0x0 DUP1 REVERT JUMPDEST PUSH1 0x1 PUSH1 0x0 DUP3 DUP2 SLOAD DUP2 LT PUSH2 0x246 JUMPI PUSH2 0x245 PUSH2 0xA15 JUMP JUMPDEST JUMPDEST SWAP1 PUSH1 0x0 MSTORE PUSH1 0x20 PUSH1 0x0 KECCAK256 SWAP1 PUSH1 0x5 MUL ADD PUSH1 0x2 ADD PUSH1 0x0 DUP3 DUP3 SLOAD PUSH2 0x266 SWAP2 SWAP1 PUSH2 0xA73 JUMP JUMPDEST SWAP3 POP POP DUP2 SWAP1 SSTORE POP PUSH1 0x1 PUSH1 0x3 PUSH1 0x0 CALLER PUSH20 0xFFFFFFFFFFFFFFFFFFFFFFFFFFFFFFFFFFFFFFFF AND PUSH20 0xFFFFFFFFFFFFFFFFFFFFFFFFFFFFFFFFFFFFFFFF AND DUP2 MSTORE PUSH1 0x20 ADD SWAP1 DUP2 MSTORE PUSH1 0x20 ADD PUSH1 0x0 KECCAK256 PUSH1 0x0 PUSH2 0x100 EXP DUP2 SLOAD DUP2 PUSH1 0xFF MUL NOT AND SWAP1 DUP4 ISZERO ISZERO MUL OR SWAP1 SSTORE POP POP JUMP JUMPDEST PUSH1 0x0 DUP2 DUP2 SLOAD DUP2 LT PUSH2 0x2D8 JUMPI PUSH1 0x0 DUP1 REVERT JUMPDEST SWAP1 PUSH1 0x0 MSTORE PUSH1 0x20 PUSH1 0x0 KECCAK256 SWAP1 PUSH1 0x5 MUL ADD PUSH1 0x0 SWAP2 POP SWAP1 POP DUP1 PUSH1 0x0 ADD DUP1 SLOAD PUSH2 0x2FB SWAP1 PUSH2 0xAF8 JUMP JUMPDEST DUP1 PUSH1 0x1F ADD PUSH1 0x20 DUP1 SWAP2 DIV MUL PUSH1 0x20 ADD PUSH1 0x40 MLOAD SWAP1 DUP2 ADD PUSH1 0x40 MSTORE DUP1 SWAP3 SWAP2 SWAP1 DUP2 DUP2 MSTORE PUSH1 0x20 ADD DUP3 DUP1 SLOAD PUSH2 0x327 SWAP1 PUSH2 0xAF8 JUMP JUMPDEST DUP1 ISZERO PUSH2 0x374 JUMPI DUP1 PUSH1 0x1F LT PUSH2 0x349 JUMPI PUSH2 0x100 DUP1 DUP4 SLOAD DIV MUL DUP4 MSTORE SWAP2 PUSH1 0x20 ADD SWAP2 PUSH2 0x374 JUMP JUMPDEST DUP3 ADD SWAP2 SWAP1 PUSH1 0x0 MSTORE PUSH1 0x20 PUSH1 0x0 KECCAK256 SWAP1 JUMPDEST DUP2 SLOAD DUP2 MSTORE SWAP1 PUSH1 0x1 ADD SWAP1 PUSH1 0x20 ADD DUP1 DUP4 GT PUSH2 0x357 JUMPI DUP3 SWAP1 SUB PUSH1 0x1F AND DUP3 ADD SWAP2 JUMPDEST POP POP POP POP POP SWAP1 DUP1 PUSH1 0x1 ADD DUP1 SLOAD PUSH2 0x389 SWAP1 PUSH2 0xAF8 JUMP JUMPDEST DUP1 PUSH1 0x1F ADD PUSH1 0x20 DUP1 SWAP2 DIV MUL PUSH1 0x20 ADD PUSH1 0x40 MLOAD SWAP1 DUP2 ADD PUSH1 0x40 MSTORE DUP1 SWAP3 SWAP2 SWAP1 DUP2 DUP2 MSTORE PUSH1 0x20 ADD DUP3 DUP1 SLOAD PUSH2 0x3B5 SWAP1 PUSH2 0xAF8 JUMP JUMPDEST DUP1 ISZERO PUSH2 0x402 JUMPI DUP1 PUSH1 0x1F LT PUSH2 0x3D7 JUMPI PUSH2 0x100 DUP1 DUP4 SLOAD DIV MUL DUP4 MSTORE SWAP2 PUSH1 0x20 ADD SWAP2 PUSH2 0x402 JUMP JUMPDEST DUP3 ADD SWAP2 SWAP1 PUSH1 0x0 MSTORE PUSH1 0x20 PUSH1 0x0 KECCAK256 SWAP1 JUMPDEST DUP2 SLOAD DUP2 MSTORE SWAP1 PUSH1 0x1 ADD SWAP1 PUSH1 0x20 ADD DUP1 DUP4 GT PUSH2 0x3E5 JUMPI DUP3 SWAP1 SUB PUSH1 0x1F AND DUP3 ADD SWAP2 JUMPDEST POP POP POP POP POP SWAP1 DUP1 PUSH1 0x2 ADD SLOAD SWAP1 DUP1 PUSH1 0x3 ADD SLOAD SWAP1 DUP1 PUSH1 0x4 ADD SLOAD SWAP1 POP DUP6 JUMP JUMPDEST PUSH1 0x60 PUSH1 0x0 DUP3 DUP2 SLOAD DUP2 LT PUSH2 0x434 JUMPI PUSH2 0x433 PUSH2 0xA15 JUMP JUMPDEST JUMPDEST SWAP1 PUSH1 0x0 MSTORE PUSH1 0x20 PUSH1 0x0 KECCAK256 SWAP1 PUSH1 0x5 MUL ADD PUSH1 0x4 ADD SLOAD TIMESTAMP GT PUSH2 0x451 JUMPI PUSH1 0x0 DUP1 REVERT JUMPDEST PUSH1 0x0 DUP3 DUP2 SLOAD DUP2 LT PUSH2 0x465 JUMPI PUSH2 0x464 PUSH2 0xA15 JUMP JUMPDEST JUMPDEST SWAP1 PUSH1 0x0 MSTORE PUSH1 0x20 PUSH1 0x0 KECCAK256 SWAP1 PUSH1 0x5 MUL ADD PUSH1 0x1 ADD DUP1 SLOAD PUSH2 0x481 SWAP1 PUSH2 0xAF8 JUMP JUMPDEST DUP1 PUSH1 0x1F ADD PUSH1 0x20 DUP1 SWAP2 DIV MUL PUSH1 0x20 ADD PUSH1 0x40 MLOAD SWAP1 DUP2 ADD PUSH1 0x40 MSTORE DUP1 SWAP3 SWAP2 SWAP1 DUP2 DUP2 MSTORE PUSH1 0x20 ADD DUP3 DUP1 SLOAD PUSH2 0x4AD SWAP1 PUSH2 0xAF8 JUMP JUMPDEST DUP1 ISZERO PUSH2 0x4FA JUMPI DUP1 PUSH1 0x1F LT PUSH2 0x4CF JUMPI PUSH2 0x100 DUP1 DUP4 SLOAD DIV MUL DUP4 MSTORE SWAP2 PUSH1 0x20 ADD SWAP2 PUSH2 0x4FA JUMP JUMPDEST DUP3 ADD SWAP2 SWAP1 PUSH1 0x0 MSTORE PUSH1 0x20 PUSH1 0x0 KECCAK256 SWAP1 JUMPDEST DUP2 SLOAD DUP2 MSTORE SWAP1 PUSH1 0x1 ADD SWAP1 PUSH1 0x20 ADD DUP1 DUP4 GT PUSH2 0x4DD JUMPI DUP3 SWAP1 SUB PUSH1 0x1F AND DUP3 ADD SWAP2 JUMPDEST POP POP POP POP POP SWAP1 POP SWAP2 SWAP1 POP JUMP JUMPDEST PUSH1 0x1 PUSH1 0x0 SWAP1 SLOAD SWAP1 PUSH2 0x100 EXP SWAP1 DIV PUSH20 0xFFFFFFFFFFFFFFFFFFFFFFFFFFFFFFFFFFFFFFFF AND DUP2 JUMP JUMPDEST PUSH1 0x2 DUP1 SLOAD PUSH2 0x539 SWAP1 PUSH2 0xAF8 JUMP JUMPDEST DUP1 PUSH1 0x1F ADD PUSH1 0x20 DUP1 SWAP2 DIV MUL PUSH1 0x20 ADD PUSH1 0x40 MLOAD SWAP1 DUP2 ADD PUSH1 0x40 MSTORE DUP1 SWAP3 SWAP2 SWAP1 DUP2 DUP2 MSTORE PUSH1 0x20 ADD DUP3 DUP1 SLOAD PUSH2 0x565 SWAP1 PUSH2 0xAF8 JUMP JUMPDEST DUP1 ISZERO PUSH2 0x5B2 JUMPI DUP1 PUSH1 0x1F LT PUSH2 0x587 JUMPI PUSH2 0x100 DUP1 DUP4 SLOAD DIV MUL DUP4 MSTORE SWAP2 PUSH1 0x20 ADD SWAP2 PUSH2 0x5B2 JUMP JUMPDEST DUP3 ADD SWAP2 SWAP1 PUSH1 0x0 MSTORE PUSH1 0x20 PUSH1 0x0 KECCAK256 SWAP1 JUMPDEST DUP2 SLOAD DUP2 MSTORE SWAP1 PUSH1 0x1 ADD SWAP1 PUSH1 0x20 ADD DUP1 DUP4 GT PUSH2 0x595 JUMPI DUP3 SWAP1 SUB PUSH1 0x1F AND DUP3 ADD SWAP2 JUMPDEST POP POP POP POP POP DUP2 JUMP JUMPDEST PUSH1 0x3 PUSH1 0x20 MSTORE DUP1 PUSH1 0x0 MSTORE PUSH1 0x40 PUSH1 0x0 KECCAK256 PUSH1 0x0 SWAP2 POP SLOAD SWAP1 PUSH2 0x100 EXP SWAP1 DIV PUSH1 0xFF AND DUP2 JUMP JUMPDEST PUSH1 0x0 PUSH1 0x1 PUSH1 0x0 SWAP1 SLOAD SWAP1 PUSH2 0x100 EXP SWAP1 DIV PUSH20 0xFFFFFFFFFFFFFFFFFFFFFFFFFFFFFFFFFFFFFFFF AND PUSH20 0xFFFFFFFFFFFFFFFFFFFFFFFFFFFFFFFFFFFFFFFF AND CALLER PUSH20 0xFFFFFFFFFFFFFFFFFFFFFFFFFFFFFFFFFFFFFFFF AND EQ PUSH2 0x636 JUMPI PUSH1 0x0 DUP1 REVERT JUMPDEST PUSH1 0x0 DUP3 DUP2 SLOAD DUP2 LT PUSH2 0x64A JUMPI PUSH2 0x649 PUSH2 0xA15 JUMP JUMPDEST JUMPDEST SWAP1 PUSH1 0x0 MSTORE PUSH1 0x20 PUSH1 0x0 KECCAK256 SWAP1 PUSH1 0x5 MUL ADD PUSH1 0x4 ADD SLOAD TIMESTAMP GT PUSH2 0x667 JUMPI PUSH1 0x0 DUP1 REVERT JUMPDEST PUSH1 0x0 DUP3 DUP2 SLOAD DUP2 LT PUSH2 0x67B JUMPI PUSH2 0x67A PUSH2 0xA15 JUMP JUMPDEST JUMPDEST SWAP1 PUSH1 0x0 MSTORE PUSH1 0x20 PUSH1 0x0 KECCAK256 SWAP1 PUSH1 0x5 MUL ADD PUSH1 0x2 ADD SLOAD SWAP1 POP SWAP2 SWAP1 POP JUMP JUMPDEST PUSH1 0x60 PUSH1 0x0 DUP3 DUP2 SLOAD DUP2 LT PUSH2 0x6AA JUMPI PUSH2 0x6A9 PUSH2 0xA15 JUMP JUMPDEST JUMPDEST SWAP1 PUSH1 0x0 MSTORE PUSH1 0x20 PUSH1 0x0 KECCAK256 SWAP1 PUSH1 0x5 MUL ADD PUSH1 0x4 ADD SLOAD TIMESTAMP GT PUSH2 0x6C7 JUMPI PUSH1 0x0 DUP1 REVERT JUMPDEST PUSH1 0x0 DUP3 DUP2 SLOAD DUP2 LT PUSH2 0x6DB JUMPI PUSH2 0x6DA PUSH2 0xA15 JUMP JUMPDEST JUMPDEST SWAP1 PUSH1 0x0 MSTORE PUSH1 0x20 PUSH1 0x0 KECCAK256 SWAP1 PUSH1 0x5 MUL ADD PUSH1 0x0 ADD DUP1 SLOAD PUSH2 0x6F7 SWAP1 PUSH2 0xAF8 JUMP JUMPDEST DUP1 PUSH1 0x1F ADD PUSH1 0x20 DUP1 SWAP2 DIV MUL PUSH1 0x20 ADD PUSH1 0x40 MLOAD SWAP1 DUP2 ADD PUSH1 0x40 MSTORE DUP1 SWAP3 SWAP2 SWAP1 DUP2 DUP2 MSTORE PUSH1 0x20 ADD DUP3 DUP1 SLOAD PUSH2 0x723 SWAP1 PUSH2 0xAF8 JUMP JUMPDEST DUP1 ISZERO PUSH2 0x770 JUMPI DUP1 PUSH1 0x1F LT PUSH2 0x745 JUMPI PUSH2 0x100 DUP1 DUP4 SLOAD DIV MUL DUP4 MSTORE SWAP2 PUSH1 0x20 ADD SWAP2 PUSH2 0x770 JUMP JUMPDEST DUP3 ADD SWAP2 SWAP1 PUSH1 0x0 MSTORE PUSH1 0x20 PUSH1 0x0 KECCAK256 SWAP1 JUMPDEST DUP2 SLOAD DUP2 MSTORE SWAP1 PUSH1 0x1 ADD SWAP1 PUSH1 0x20 ADD DUP1 DUP4 GT PUSH2 0x753 JUMPI DUP3 SWAP1 SUB PUSH1 0x1F AND DUP3 ADD SWAP2 JUMPDEST POP POP POP POP POP SWAP1 POP SWAP2 SWAP1 POP JUMP JUMPDEST PUSH1 0x0 DUP1 REVERT JUMPDEST PUSH1 0x0 DUP2 SWAP1 POP SWAP2 SWAP1 POP JUMP JUMPDEST PUSH2 0x794 DUP2 PUSH2 0x781 JUMP JUMPDEST DUP2 EQ PUSH2 0x79F JUMPI PUSH1 0x0 DUP1 REVERT JUMPDEST POP JUMP JUMPDEST PUSH1 0x0 DUP2 CALLDATALOAD SWAP1 POP PUSH2 0x7B1 DUP2 PUSH2 0x78B JUMP JUMPDEST SWAP3 SWAP2 POP POP JUMP JUMPDEST PUSH1 0x0 PUSH1 0x20 DUP3 DUP5 SUB SLT ISZERO PUSH2 0x7CD JUMPI PUSH2 0x7CC PUSH2 0x77C JUMP JUMPDEST JUMPDEST PUSH1 0x0 PUSH2 0x7DB DUP5 DUP3 DUP6 ADD PUSH2 0x7A2 JUMP JUMPDEST SWAP2 POP POP SWAP3 SWAP2 POP POP JUMP JUMPDEST PUSH1 0x0 DUP2 MLOAD SWAP1 POP SWAP2 SWAP1 POP JUMP JUMPDEST PUSH1 0x0 DUP3 DUP3 MSTORE PUSH1 0x20 DUP3 ADD SWAP1 POP SWAP3 SWAP2 POP POP JUMP JUMPDEST PUSH1 0x0 JUMPDEST DUP4 DUP2 LT ISZERO PUSH2 0x81E JUMPI DUP1 DUP3 ADD MLOAD DUP2 DUP5 ADD MSTORE PUSH1 0x20 DUP2 ADD SWAP1 POP PUSH2 0x803 JUMP JUMPDEST DUP4 DUP2 GT ISZERO PUSH2 0x82D JUMPI PUSH1 0x0 DUP5 DUP5 ADD MSTORE JUMPDEST POP POP POP POP JUMP JUMPDEST PUSH1 0x0 PUSH1 0x1F NOT PUSH1 0x1F DUP4 ADD AND SWAP1 POP SWAP2 SWAP1 POP JUMP JUMPDEST PUSH1 0x0 PUSH2 0x84F DUP3 PUSH2 0x7E4 JUMP JUMPDEST PUSH2 0x859 DUP2 DUP6 PUSH2 0x7EF JUMP JUMPDEST SWAP4 POP PUSH2 0x869 DUP2 DUP6 PUSH1 0x20 DUP7 ADD PUSH2 0x800 JUMP JUMPDEST PUSH2 0x872 DUP2 PUSH2 0x833 JUMP JUMPDEST DUP5 ADD SWAP2 POP POP SWAP3 SWAP2 POP POP JUMP JUMPDEST PUSH2 0x886 DUP2 PUSH2 0x781 JUMP JUMPDEST DUP3 MSTORE POP POP JUMP JUMPDEST PUSH1 0x0 PUSH1 0xA0 DUP3 ADD SWAP1 POP DUP2 DUP2 SUB PUSH1 0x0 DUP4 ADD MSTORE PUSH2 0x8A6 DUP2 DUP9 PUSH2 0x844 JUMP JUMPDEST SWAP1 POP DUP2 DUP2 SUB PUSH1 0x20 DUP4 ADD MSTORE PUSH2 0x8BA DUP2 DUP8 PUSH2 0x844 JUMP JUMPDEST SWAP1 POP PUSH2 0x8C9 PUSH1 0x40 DUP4 ADD DUP7 PUSH2 0x87D JUMP JUMPDEST PUSH2 0x8D6 PUSH1 0x60 DUP4 ADD DUP6 PUSH2 0x87D JUMP JUMPDEST PUSH2 0x8E3 PUSH1 0x80 DUP4 ADD DUP5 PUSH2 0x87D JUMP JUMPDEST SWAP7 SWAP6 POP POP POP POP POP POP JUMP JUMPDEST PUSH1 0x0 PUSH1 0x20 DUP3 ADD SWAP1 POP DUP2 DUP2 SUB PUSH1 0x0 DUP4 ADD MSTORE PUSH2 0x907 DUP2 DUP5 PUSH2 0x844 JUMP JUMPDEST SWAP1 POP SWAP3 SWAP2 POP POP JUMP JUMPDEST PUSH1 0x0 PUSH20 0xFFFFFFFFFFFFFFFFFFFFFFFFFFFFFFFFFFFFFFFF DUP3 AND SWAP1 POP SWAP2 SWAP1 POP JUMP JUMPDEST PUSH1 0x0 PUSH2 0x93A DUP3 PUSH2 0x90F JUMP JUMPDEST SWAP1 POP SWAP2 SWAP1 POP JUMP JUMPDEST PUSH2 0x94A DUP2 PUSH2 0x92F JUMP JUMPDEST DUP3 MSTORE POP POP JUMP JUMPDEST PUSH1 0x0 PUSH1 0x20 DUP3 ADD SWAP1 POP PUSH2 0x965 PUSH1 0x0 DUP4 ADD DUP5 PUSH2 0x941 JUMP JUMPDEST SWAP3 SWAP2 POP POP JUMP JUMPDEST PUSH2 0x974 DUP2 PUSH2 0x92F JUMP JUMPDEST DUP2 EQ PUSH2 0x97F JUMPI PUSH1 0x0 DUP1 REVERT JUMPDEST POP JUMP JUMPDEST PUSH1 0x0 DUP2 CALLDATALOAD SWAP1 POP PUSH2 0x991 DUP2 PUSH2 0x96B JUMP JUMPDEST SWAP3 SWAP2 POP POP JUMP JUMPDEST PUSH1 0x0 PUSH1 0x20 DUP3 DUP5 SUB SLT ISZERO PUSH2 0x9AD JUMPI PUSH2 0x9AC PUSH2 0x77C JUMP JUMPDEST JUMPDEST PUSH1 0x0 PUSH2 0x9BB DUP5 DUP3 DUP6 ADD PUSH2 0x982 JUMP JUMPDEST SWAP2 POP POP SWAP3 SWAP2 POP POP JUMP JUMPDEST PUSH1 0x0 DUP2 ISZERO ISZERO SWAP1 POP SWAP2 SWAP1 POP JUMP JUMPDEST PUSH2 0x9D9 DUP2 PUSH2 0x9C4 JUMP JUMPDEST DUP3 MSTORE POP POP JUMP JUMPDEST PUSH1 0x0 PUSH1 0x20 DUP3 ADD SWAP1 POP PUSH2 0x9F4 PUSH1 0x0 DUP4 ADD DUP5 PUSH2 0x9D0 JUMP JUMPDEST SWAP3 SWAP2 POP POP JUMP JUMPDEST PUSH1 0x0 PUSH1 0x20 DUP3 ADD SWAP1 POP PUSH2 0xA0F PUSH1 0x0 DUP4 ADD DUP5 PUSH2 0x87D JUMP JUMPDEST SWAP3 SWAP2 POP POP JUMP JUMPDEST PUSH32 0x4E487B7100000000000000000000000000000000000000000000000000000000 PUSH1 0x0 MSTORE PUSH1 0x32 PUSH1 0x4 MSTORE PUSH1 0x24 PUSH1 0x0 REVERT JUMPDEST PUSH32 0x4E487B7100000000000000000000000000000000000000000000000000000000 PUSH1 0x0 MSTORE PUSH1 0x11 PUSH1 0x4 MSTORE PUSH1 0x24 PUSH1 0x0 REVERT JUMPDEST PUSH1 0x0 PUSH2 0xA7E DUP3 PUSH2 0x781 JUMP JUMPDEST SWAP2 POP PUSH2 0xA89 DUP4 PUSH2 0x781 JUMP JUMPDEST SWAP3 POP DUP3 PUSH32 0xFFFFFFFFFFFFFFFFFFFFFFFFFFFFFFFFFFFFFFFFFFFFFFFFFFFFFFFFFFFFFFFF SUB DUP3 GT ISZERO PUSH2 0xABE JUMPI PUSH2 0xABD PUSH2 0xA44 JUMP JUMPDEST JUMPDEST DUP3 DUP3 ADD SWAP1 POP SWAP3 SWAP2 POP POP JUMP JUMPDEST PUSH32 0x4E487B7100000000000000000000000000000000000000000000000000000000 PUSH1 0x0 MSTORE PUSH1 0x22 PUSH1 0x4 MSTORE PUSH1 0x24 PUSH1 0x0 REVERT JUMPDEST PUSH1 0x0 PUSH1 0x2 DUP3 DIV SWAP1 POP PUSH1 0x1 DUP3 AND DUP1 PUSH2 0xB10 JUMPI PUSH1 0x7F DUP3 AND SWAP2 POP JUMPDEST PUSH1 0x20 DUP3 LT DUP2 EQ ISZERO PUSH2 0xB24 JUMPI PUSH2 0xB23 PUSH2 0xAC9 JUMP JUMPDEST JUMPDEST POP SWAP2 SWAP1 POP JUMP INVALID LOG2 PUSH5 0x6970667358 0x22 SLT KECCAK256 0x27 0xE8 0x5E 0xAB 0x49 PUSH20 0x1E1DECC2469A98EDDCD4D5DC759DE650B03C19FD 0xAB 0xB5 PUSH14 0xD680C64736F6C634300080B0033 "},"gasEstimates":{"creation":{"codeDepositCost":"582400","executionCost":"infinite","totalCost":"infinite"},"external":{"candidates(uint256)":"infinite","getCandidateName(uint256)":"infinite","getCandidateParty(uint256)":"infinite","getVoteCount(uint256)":"infinite","manager()":"2581","vote(uint256)":"infinite","voters(address)":"2867","votingDistrict()":"infinite"}},"methodIdentifiers":{"candidates(uint256)":"3477ee2e","getCandidateName(uint256)":"e13804a7","getCandidateParty(uint256)":"456645a7","getVoteCount(uint256)":"b2c2f2e8","manager()":"481c6a75","vote(uint256)":"0121b93f","voters(address)":"a3ec138d","votingDistrict()":"716c424e"}},"storageLayout":{"storage":[{"astId":88,"contract":"evs.sol:Ballot","label":"candidates","offset":0,"slot":"0","type":"t_array(t_struct(candidate)84_storage)dyn_storage"},{"astId":90,"contract":"evs.sol:Ballot","label":"manager","offset":0,"slot":"1","type":"t_address"},{"astId":92,"contract":"evs.sol:Ballot","label":"votingDistrict","offset":0,"slot":"2","type":"t_string_storage"},{"astId":96,"contract":"evs.sol:Ballot","label":"voters","offset":0,"slot":"3","type":"t_mapping(t_address,t_bool)"}],"types":{"t_address":{"encoding":"inplace","label":"address","numberOfBytes":"20"},"t_array(t_struct(candidate)84_storage)dyn_storage":{"base":"t_struct(candidate)84_storage","encoding":"dynamic_array","label":"struct Ballot.candidate[]","numberOfBytes":"32"},"t_bool":{"encoding":"inplace","label":"bool","numberOfBytes":"1"},"t_mapping(t_address,t_bool)":{"encoding":"mapping","key":"t_address","label":"mapping(address => bool)","numberOfBytes":"32","value":"t_bool"},"t_string_storage":{"encoding":"bytes","label":"string","numberOfBytes":"32"},"t_struct(candidate)84_storage":{"encoding":"inplace","label":"struct Ballot.candidate","members":[{"astId":75,"contract":"evs.sol:Ballot","label":"name","offset":0,"slot":"0","type":"t_string_storage"},{"astId":77,"contract":"evs.sol:Ballot","label":"party","offset":0,"slot":"1","type":"t_string_storage"},{"astId":79,"contract":"evs.sol:Ballot","label":"voteCount","offset":0,"slot":"2","type":"t_uint256"},{"astId":81,"contract":"evs.sol:Ballot","label":"creationDate","offset":0,"slot":"3","type":"t_uint256"},{"astId":83,"contract":"evs.sol:Ballot","label":"expirationDate","offset":0,"slot":"4","type":"t_uint256"}],"numberOfBytes":"160"},"t_uint256":{"encoding":"inplace","label":"uint256","numberOfBytes":"32"}}},"userdoc":{"kind":"user","methods":{},"version":1}}